{
  "_format": "hh-sol-artifact-1",
  "contractName": "PredictionRegistry",
  "sourceName": "contracts/PredictionRegistry.sol",
  "abi": [
    {
      "inputs": [],
      "stateMutability": "nonpayable",
      "type": "constructor"
    },
    {
      "inputs": [
        {
          "internalType": "address",
          "name": "owner",
          "type": "address"
        }
      ],
      "name": "OwnableInvalidOwner",
      "type": "error"
    },
    {
      "inputs": [
        {
          "internalType": "address",
          "name": "account",
          "type": "address"
        }
      ],
      "name": "OwnableUnauthorizedAccount",
      "type": "error"
    },
    {
      "anonymous": false,
      "inputs": [
        {
          "indexed": false,
          "internalType": "uint256",
          "name": "totalValidated",
          "type": "uint256"
        },
        {
          "indexed": false,
          "internalType": "uint256",
          "name": "correct",
          "type": "uint256"
        },
        {
          "indexed": false,
          "internalType": "uint256",
          "name": "accuracyBps",
          "type": "uint256"
        }
      ],
      "name": "AccuracyUpdated",
      "type": "event"
    },
    {
      "anonymous": false,
      "inputs": [
        {
          "indexed": true,
          "internalType": "address",
          "name": "previousOwner",
          "type": "address"
        },
        {
          "indexed": true,
          "internalType": "address",
          "name": "newOwner",
          "type": "address"
        }
      ],
      "name": "OwnershipTransferred",
      "type": "event"
    },
    {
      "anonymous": false,
      "inputs": [
        {
          "indexed": true,
          "internalType": "bytes32",
          "name": "commitmentHash",
          "type": "bytes32"
        },
        {
          "indexed": true,
          "internalType": "uint256",
          "name": "productId",
          "type": "uint256"
        },
        {
          "indexed": false,
          "internalType": "uint8",
          "name": "riskLevel",
          "type": "uint8"
        },
        {
          "indexed": false,
          "internalType": "uint8",
          "name": "safeScore",
          "type": "uint8"
        },
        {
          "indexed": false,
          "internalType": "uint16",
          "name": "windowDays",
          "type": "uint16"
        },
        {
          "indexed": false,
          "internalType": "uint64",
          "name": "expiresAt",
          "type": "uint64"
        }
      ],
      "name": "PredictionCommitted",
      "type": "event"
    },
    {
      "anonymous": false,
      "inputs": [
        {
          "indexed": true,
          "internalType": "bytes32",
          "name": "commitmentHash",
          "type": "bytes32"
        },
        {
          "indexed": true,
          "internalType": "uint256",
          "name": "productId",
          "type": "uint256"
        },
        {
          "indexed": false,
          "internalType": "bool",
          "name": "incidentOccurred",
          "type": "bool"
        },
        {
          "indexed": false,
          "internalType": "bool",
          "name": "predictionCorrect",
          "type": "bool"
        }
      ],
      "name": "PredictionValidated",
      "type": "event"
    },
    {
      "anonymous": false,
      "inputs": [
        {
          "indexed": true,
          "internalType": "uint256",
          "name": "weekIndex",
          "type": "uint256"
        },
        {
          "indexed": false,
          "internalType": "bytes32",
          "name": "merkleRoot",
          "type": "bytes32"
        },
        {
          "indexed": false,
          "internalType": "uint256",
          "name": "predictionCount",
          "type": "uint256"
        },
        {
          "indexed": false,
          "internalType": "string",
          "name": "ipfsHash",
          "type": "string"
        }
      ],
      "name": "WeeklyBatchCommitted",
      "type": "event"
    },
    {
      "inputs": [
        {
          "internalType": "bytes32",
          "name": "commitmentHash",
          "type": "bytes32"
        },
        {
          "internalType": "uint256",
          "name": "productId",
          "type": "uint256"
        },
        {
          "internalType": "uint8",
          "name": "riskLevel",
          "type": "uint8"
        },
        {
          "internalType": "uint8",
          "name": "safeScore",
          "type": "uint8"
        },
        {
          "internalType": "uint16",
          "name": "windowDays",
          "type": "uint16"
        }
      ],
      "name": "commitPrediction",
      "outputs": [],
      "stateMutability": "nonpayable",
      "type": "function"
    },
    {
      "inputs": [
        {
          "internalType": "bytes32[]",
          "name": "hashes",
          "type": "bytes32[]"
        },
        {
          "internalType": "uint256[]",
          "name": "productIds",
          "type": "uint256[]"
        },
        {
          "internalType": "uint8[]",
          "name": "riskLevels",
          "type": "uint8[]"
        },
        {
          "internalType": "uint8[]",
          "name": "safeScores",
          "type": "uint8[]"
        },
        {
          "internalType": "uint16[]",
          "name": "windowDays",
          "type": "uint16[]"
        }
      ],
      "name": "commitPredictionsBatch",
      "outputs": [],
      "stateMutability": "nonpayable",
      "type": "function"
    },
    {
      "inputs": [
        {
          "internalType": "bytes32",
          "name": "merkleRoot",
          "type": "bytes32"
        },
        {
          "internalType": "uint256",
          "name": "predictionCount",
          "type": "uint256"
        },
        {
          "internalType": "uint64",
          "name": "weekStart",
          "type": "uint64"
        },
        {
          "internalType": "string",
          "name": "ipfsHash",
          "type": "string"
        }
      ],
      "name": "commitWeeklyBatch",
      "outputs": [],
      "stateMutability": "nonpayable",
      "type": "function"
    },
    {
      "inputs": [
        {
          "internalType": "uint8",
          "name": "",
          "type": "uint8"
        }
      ],
      "name": "correctByRisk",
      "outputs": [
        {
          "internalType": "uint256",
          "name": "",
          "type": "uint256"
        }
      ],
      "stateMutability": "view",
      "type": "function"
    },
    {
      "inputs": [],
      "name": "correctPredictions",
      "outputs": [
        {
          "internalType": "uint256",
          "name": "",
          "type": "uint256"
        }
      ],
      "stateMutability": "view",
      "type": "function"
    },
    {
      "inputs": [
        {
          "internalType": "uint8",
          "name": "riskLevel",
          "type": "uint8"
        }
      ],
      "name": "getAccuracyByRisk",
      "outputs": [
        {
          "internalType": "uint256",
          "name": "total",
          "type": "uint256"
        },
        {
          "internalType": "uint256",
          "name": "correct",
          "type": "uint256"
        },
        {
          "internalType": "uint256",
          "name": "accuracyBps",
          "type": "uint256"
        }
      ],
      "stateMutability": "view",
      "type": "function"
    },
    {
      "inputs": [],
      "name": "getAccuracyStats",
      "outputs": [
        {
          "internalType": "uint256",
          "name": "total",
          "type": "uint256"
        },
        {
          "internalType": "uint256",
          "name": "validated",
          "type": "uint256"
        },
        {
          "internalType": "uint256",
          "name": "correct",
          "type": "uint256"
        },
        {
          "internalType": "uint256",
          "name": "incorrect",
          "type": "uint256"
        },
        {
          "internalType": "uint256",
          "name": "accuracyBps",
          "type": "uint256"
        }
      ],
      "stateMutability": "view",
      "type": "function"
    },
    {
      "inputs": [
        {
          "internalType": "bytes32",
          "name": "hash",
          "type": "bytes32"
        }
      ],
      "name": "getPrediction",
      "outputs": [
        {
          "components": [
            {
              "internalType": "bytes32",
              "name": "commitmentHash",
              "type": "bytes32"
            },
            {
              "internalType": "uint256",
              "name": "productId",
              "type": "uint256"
            },
            {
              "internalType": "uint8",
              "name": "riskLevel",
              "type": "uint8"
            },
            {
              "internalType": "uint8",
              "name": "safeScoreAtPrediction",
              "type": "uint8"
            },
            {
              "internalType": "uint16",
              "name": "windowDays",
              "type": "uint16"
            },
            {
              "internalType": "uint64",
              "name": "timestamp",
              "type": "uint64"
            },
            {
              "internalType": "uint64",
              "name": "expiresAt",
              "type": "uint64"
            },
            {
              "internalType": "bool",
              "name": "validated",
              "type": "bool"
            },
            {
              "internalType": "bool",
              "name": "incidentOccurred",
              "type": "bool"
            },
            {
              "internalType": "uint64",
              "name": "validatedAt",
              "type": "uint64"
            }
          ],
          "internalType": "struct PredictionRegistry.Prediction",
          "name": "",
          "type": "tuple"
        }
      ],
      "stateMutability": "view",
      "type": "function"
    },
    {
      "inputs": [
        {
          "internalType": "uint256",
          "name": "productId",
          "type": "uint256"
        }
      ],
      "name": "getProductPredictions",
      "outputs": [
        {
          "internalType": "bytes32[]",
          "name": "",
          "type": "bytes32[]"
        }
      ],
      "stateMutability": "view",
      "type": "function"
    },
    {
      "inputs": [
        {
          "internalType": "uint256",
          "name": "index",
          "type": "uint256"
        }
      ],
      "name": "getWeeklyCommitment",
      "outputs": [
        {
          "components": [
            {
              "internalType": "bytes32",
              "name": "merkleRoot",
              "type": "bytes32"
            },
            {
              "internalType": "uint256",
              "name": "predictionCount",
              "type": "uint256"
            },
            {
              "internalType": "uint64",
              "name": "weekStart",
              "type": "uint64"
            },
            {
              "internalType": "uint64",
              "name": "timestamp",
              "type": "uint64"
            },
            {
              "internalType": "string",
              "name": "ipfsHash",
              "type": "string"
            }
          ],
          "internalType": "struct PredictionRegistry.WeeklyCommitment",
          "name": "",
          "type": "tuple"
        }
      ],
      "stateMutability": "view",
      "type": "function"
    },
    {
      "inputs": [],
      "name": "getWeeklyCommitmentsCount",
      "outputs": [
        {
          "internalType": "uint256",
          "name": "",
          "type": "uint256"
        }
      ],
      "stateMutability": "view",
      "type": "function"
    },
    {
      "inputs": [],
      "name": "incorrectPredictions",
      "outputs": [
        {
          "internalType": "uint256",
          "name": "",
          "type": "uint256"
        }
      ],
      "stateMutability": "view",
      "type": "function"
    },
    {
      "inputs": [],
      "name": "owner",
      "outputs": [
        {
          "internalType": "address",
          "name": "",
          "type": "address"
        }
      ],
      "stateMutability": "view",
      "type": "function"
    },
    {
      "inputs": [
        {
          "internalType": "uint256",
          "name": "",
          "type": "uint256"
        }
      ],
      "name": "predictionHashes",
      "outputs": [
        {
          "internalType": "bytes32",
          "name": "",
          "type": "bytes32"
        }
      ],
      "stateMutability": "view",
      "type": "function"
    },
    {
      "inputs": [
        {
          "internalType": "bytes32",
          "name": "",
          "type": "bytes32"
        }
      ],
      "name": "predictions",
      "outputs": [
        {
          "internalType": "bytes32",
          "name": "commitmentHash",
          "type": "bytes32"
        },
        {
          "internalType": "uint256",
          "name": "productId",
          "type": "uint256"
        },
        {
          "internalType": "uint8",
          "name": "riskLevel",
          "type": "uint8"
        },
        {
          "internalType": "uint8",
          "name": "safeScoreAtPrediction",
          "type": "uint8"
        },
        {
          "internalType": "uint16",
          "name": "windowDays",
          "type": "uint16"
        },
        {
          "internalType": "uint64",
          "name": "timestamp",
          "type": "uint64"
        },
        {
          "internalType": "uint64",
          "name": "expiresAt",
          "type": "uint64"
        },
        {
          "internalType": "bool",
          "name": "validated",
          "type": "bool"
        },
        {
          "internalType": "bool",
          "name": "incidentOccurred",
          "type": "bool"
        },
        {
          "internalType": "uint64",
          "name": "validatedAt",
          "type": "uint64"
        }
      ],
      "stateMutability": "view",
      "type": "function"
    },
    {
      "inputs": [
        {
          "internalType": "uint8",
          "name": "",
          "type": "uint8"
        }
      ],
      "name": "predictionsByRisk",
      "outputs": [
        {
          "internalType": "uint256",
          "name": "",
          "type": "uint256"
        }
      ],
      "stateMutability": "view",
      "type": "function"
    },
    {
      "inputs": [
        {
          "internalType": "uint256",
          "name": "",
          "type": "uint256"
        },
        {
          "internalType": "uint256",
          "name": "",
          "type": "uint256"
        }
      ],
      "name": "productPredictions",
      "outputs": [
        {
          "internalType": "bytes32",
          "name": "",
          "type": "bytes32"
        }
      ],
      "stateMutability": "view",
      "type": "function"
    },
    {
      "inputs": [],
      "name": "renounceOwnership",
      "outputs": [],
      "stateMutability": "nonpayable",
      "type": "function"
    },
    {
      "inputs": [],
      "name": "totalPredictions",
      "outputs": [
        {
          "internalType": "uint256",
          "name": "",
          "type": "uint256"
        }
      ],
      "stateMutability": "view",
      "type": "function"
    },
    {
      "inputs": [
        {
          "internalType": "address",
          "name": "newOwner",
          "type": "address"
        }
      ],
      "name": "transferOwnership",
      "outputs": [],
      "stateMutability": "nonpayable",
      "type": "function"
    },
    {
      "inputs": [
        {
          "internalType": "bytes32[]",
          "name": "hashes",
          "type": "bytes32[]"
        }
      ],
      "name": "validateExpiredPredictions",
      "outputs": [],
      "stateMutability": "nonpayable",
      "type": "function"
    },
    {
      "inputs": [
        {
          "internalType": "bytes32",
          "name": "commitmentHash",
          "type": "bytes32"
        },
        {
          "internalType": "bool",
          "name": "incidentOccurred",
          "type": "bool"
        }
      ],
      "name": "validatePrediction",
      "outputs": [],
      "stateMutability": "nonpayable",
      "type": "function"
    },
    {
      "inputs": [],
      "name": "validatedPredictions",
      "outputs": [
        {
          "internalType": "uint256",
          "name": "",
          "type": "uint256"
        }
      ],
      "stateMutability": "view",
      "type": "function"
    },
    {
      "inputs": [
        {
          "internalType": "bytes32",
          "name": "hash",
          "type": "bytes32"
        },
        {
          "internalType": "uint64",
          "name": "beforeTimestamp",
          "type": "uint64"
        }
      ],
      "name": "verifyPredictionAnterior",
      "outputs": [
        {
          "internalType": "bool",
          "name": "exists",
          "type": "bool"
        },
        {
          "internalType": "bool",
          "name": "isAnterior",
          "type": "bool"
        },
        {
          "internalType": "uint64",
          "name": "committedAt",
          "type": "uint64"
        }
      ],
      "stateMutability": "view",
      "type": "function"
    },
    {
      "inputs": [
        {
          "internalType": "uint256",
          "name": "",
          "type": "uint256"
        }
      ],
      "name": "weeklyCommitments",
      "outputs": [
        {
          "internalType": "bytes32",
          "name": "merkleRoot",
          "type": "bytes32"
        },
        {
          "internalType": "uint256",
          "name": "predictionCount",
          "type": "uint256"
        },
        {
          "internalType": "uint64",
          "name": "weekStart",
          "type": "uint64"
        },
        {
          "internalType": "uint64",
          "name": "timestamp",
          "type": "uint64"
        },
        {
          "internalType": "string",
          "name": "ipfsHash",
          "type": "string"
        }
      ],
      "stateMutability": "view",
      "type": "function"
    }
  ],
  "bytecode": "0x608060405234801561001057600080fd5b50338061003757604051631e4fbdf760e01b81526000600482015260240160405180910390fd5b61004081610046565b50610096565b600080546001600160a01b038381166001600160a01b0319831681178455604051919092169283917f8be0079c531659141344cd1fd0a4f28419497f9722a3daafe3b4186f6b6457e09190a35050565b61230b806100a56000396000f3fe608060405234801561001057600080fd5b50600436106101735760003560e01c806375469891116100de578063c83918bb11610097578063e445471211610071578063e445471214610570578063e7248d4214610578578063eca5266114610598578063f2fde38b146105a157600080fd5b8063c83918bb1461042f578063cf97cfa214610442578063dc6423ab1461045557600080fd5b8063754698911461036b578063779bd5621461039b57806388a1b8ba146103a45780638da5cb5b146103b7578063909375b2146103d2578063a5003e971461040b57600080fd5b80634a4512d4116101305780634a4512d41461021d57806353fed5551461023d5780635830d58d1461025d5780635a75814d146102665780635d9eaeaf14610279578063715018a61461036357600080fd5b806302320458146101785780630940f843146101ab5780630e3d209f146101b45780631db7125d146101c95780633891566b146101f75780633fac2aad1461020a575b600080fd5b610198610186366004611ac4565b600a6020526000908152604090205481565b6040519081526020015b60405180910390f35b61019860085481565b6101c76101c2366004611b31565b6105b4565b005b6101dc6101d7366004611ac4565b610b3d565b604080519384526020840192909252908201526060016101a2565b610198610205366004611c21565b610b88565b610198610218366004611c3a565b610ba9565b61023061022b366004611c21565b610bda565b6040516101a29190611c5c565b61019861024b366004611ac4565b60096020526000908152604090205481565b61019860065481565b6101c7610274366004611cb2565b610c3c565b6102fb610287366004611c21565b600160208190526000918252604090912080549181015460029091015460ff80821691610100810482169161ffff62010000830416916001600160401b036401000000008204811692600160601b8304821692600160a01b8104821692600160a81b820490921691600160b01b909104168a565b604080519a8b5260208b019990995260ff978816988a019890985295909416606088015261ffff90921660808701526001600160401b0390811660a087015290811660c086015290151560e085015290151561010084015216610120820152610140016101a2565b6101c761107a565b61037361108e565b604080519586526020860194909452928401919091526060830152608082015260a0016101a2565b61019860055481565b6101c76103b2366004611d09565b6110c8565b6000546040516001600160a01b0390911681526020016101a2565b6103e56103e0366004611d61565b61131c565b60408051931515845291151560208401526001600160401b0316908201526060016101a2565b61041e610419366004611c21565b6113fe565b6040516101a2959493929190611dd3565b6101c761043d366004611e16565b6114d9565b6101c7610450366004611e4b565b611731565b610563610463366004611c21565b6040805161014081018252600080825260208201819052918101829052606081018290526080810182905260a0810182905260c0810182905260e081018290526101008101829052610120810191909152506000908152600160208181526040928390208351610140810185528154815292810154918301919091526002015460ff808216938301939093526101008082048416606084015261ffff6201000083041660808401526001600160401b036401000000008304811660a0850152600160601b8304811660c0850152600160a01b83048516151560e0850152600160a81b8304909416151590830152600160b01b900490911661012082015290565b6040516101a29190611ede565b600354610198565b61058b610586366004611c21565b611880565b6040516101a29190611faa565b61019860075481565b6101c76105af366004612004565b6119f3565b6105bc611a31565b8887146105e45760405162461bcd60e51b81526004016105db9061202d565b60405180910390fd5b8885146106035760405162461bcd60e51b81526004016105db9061202d565b8883146106225760405162461bcd60e51b81526004016105db9061202d565b8881146106415760405162461bcd60e51b81526004016105db9061202d565b60005b89811015610b3057600160008c8c8481811061066257610662612056565b90506020020135815260200190815260200160002060020160049054906101000a90046001600160401b03166001600160401b0316600003610b1e5760008383838181106106b2576106b2612056565b90506020020160208101906106c7919061206c565b6106d89061ffff166201518061209d565b6106e79062ffffff16426120bc565b90506040518061014001604052808d8d8581811061070757610707612056565b9050602002013581526020018b8b8581811061072557610725612056565b90506020020135815260200189898581811061074357610743612056565b90506020020160208101906107589190611ac4565b60ff16815260200187878581811061077257610772612056565b90506020020160208101906107879190611ac4565b60ff1681526020018585858181106107a1576107a1612056565b90506020020160208101906107b6919061206c565b61ffff1681526001600160401b034281166020830152831660408201526000606082018190526080820181905260a09091018190526001908e8e8681811061080057610800612056565b6020908102929092013583525081810192909252604090810160002083518155918301516001830155820151600291820180546060850151608086015160a087015160c088015160e0890151610100808b0151610120909b015160ff998a1661ffff199098169790971798909516909402969096176bffffffffffffffffffff000019166201000061ffff909316929092026bffffffffffffffff000000001916919091176401000000006001600160401b03928316021768ffffffffffffffffff60601b1916600160601b9582169590950260ff60a01b191694909417600160a01b911515919091021768ffffffffffffffffff60a81b1916600160a81b9515159590950267ffffffffffffffff60b01b191694909417600160b01b9290941691909102929092179091558c8c8481811061093e5761093e612056565b83546001810185556000948552602080862092029390930135920191909155506004908b8b8581811061097357610973612056565b9050602002013581526020019081526020016000208c8c8481811061099a5761099a612056565b835460018101855560009485526020808620920293909301359201919091555060058054916109c8836120d5565b9190505550600960008989858181106109e3576109e3612056565b90506020020160208101906109f89190611ac4565b60ff16815260208101919091526040016000908120805491610a19836120d5565b9190505550898983818110610a3057610a30612056565b905060200201358c8c84818110610a4957610a49612056565b905060200201357f53f4f3dc92d47ecd50d9c5832f23173dd82a67a464c300d2914d5766c1a121b78a8a86818110610a8357610a83612056565b9050602002016020810190610a989190611ac4565b898987818110610aaa57610aaa612056565b9050602002016020810190610abf9190611ac4565b888888818110610ad157610ad1612056565b9050602002016020810190610ae6919061206c565b6040805160ff948516815293909216602084015261ffff16908201526001600160401b038516606082015260800160405180910390a3505b80610b28816120d5565b915050610644565b5050505050505050505050565b60ff8116600090815260096020908152604080832054600a909252822054909182610b69576000610b80565b82610b76836127106120ee565b610b809190612105565b929491935050565b60028181548110610b9857600080fd5b600091825260209091200154905081565b60046020528160005260406000208181548110610bc557600080fd5b90600052602060002001600091509150505481565b600081815260046020908152604091829020805483518184028101840190945280845260609392830182828015610c3057602002820191906000526020600020905b815481526020019060010190808311610c1c575b50505050509050919050565b610c44611a31565b60008581526001602052604090206002015464010000000090046001600160401b031615610ca85760405162461bcd60e51b8152602060048201526011602482015270105b1c9958591e4818dbdb5b5a5d1d1959607a1b60448201526064016105db565b60048360ff161115610cf15760405162461bcd60e51b8152602060048201526012602482015271125b9d985b1a59081c9a5cdac81b195d995b60721b60448201526064016105db565b60648260ff161115610d355760405162461bcd60e51b815260206004820152600d60248201526c496e76616c69642073636f726560981b60448201526064016105db565b60008161ffff16118015610d4f575061016d8161ffff1611155b610d8c5760405162461bcd60e51b815260206004820152600e60248201526d496e76616c69642077696e646f7760901b60448201526064016105db565b6000610d9f61ffff83166201518061209d565b610dae9062ffffff16426120bc565b90506040518061014001604052808781526020018681526020018560ff1681526020018460ff1681526020018361ffff168152602001426001600160401b03168152602001826001600160401b0316815260200160001515815260200160001515815260200160006001600160401b031681525060016000888152602001908152602001600020600082015181600001556020820151816001015560408201518160020160006101000a81548160ff021916908360ff16021790555060608201518160020160016101000a81548160ff021916908360ff16021790555060808201518160020160026101000a81548161ffff021916908361ffff16021790555060a08201518160020160046101000a8154816001600160401b0302191690836001600160401b0316021790555060c082015181600201600c6101000a8154816001600160401b0302191690836001600160401b0316021790555060e08201518160020160146101000a81548160ff0219169083151502179055506101008201518160020160156101000a81548160ff0219169083151502179055506101208201518160020160166101000a8154816001600160401b0302191690836001600160401b0316021790555090505060028690806001815401808255809150506001900390600052602060002001600090919091909150556004600086815260200190815260200160002086908060018154018082558091505060019003906000526020600020016000909190919091505560056000815480929190610ff0906120d5565b909155505060ff84166000908152600960205260408120805491611013836120d5565b90915550506040805160ff86811682528516602082015261ffff8416818301526001600160401b03831660608201529051869188917f53f4f3dc92d47ecd50d9c5832f23173dd82a67a464c300d2914d5766c1a121b79181900360800190a3505050505050565b611082611a31565b61108c6000611a5e565b565b6005546006546007546008546000836110a85760006110bf565b836110b5846127106120ee565b6110bf9190612105565b90509091929394565b6110d0611a31565b60005b8181101561129e576000600160008585858181106110f3576110f3612056565b90506020020135815260200190815260200160002090508060020160049054906101000a90046001600160401b03166001600160401b0316600003611138575061128c565b6002810154600160a01b900460ff1615611152575061128c565b6002810154600160601b90046001600160401b0316421015611174575061128c565b6002810180546001600160401b034216600160b01b0269ffffffffffffffffffff60a01b1990911617600160a01b179055600680549060006111b5836120d5565b909155505060028181015460ff161161120957600780549060006111d8836120d5565b9091555050600281015460ff166000908152600a602052604081208054916111ff836120d5565b919050555061121f565b60088054906000611219836120d5565b91905055505b806001015484848481811061123657611236612056565b600285810154604080516000815260ff9092169290921115602080830191909152825193029490940135937fc9e875e3ec15aca14cb4008858b8891079a81de3fc5e43c72e738ab2c392380893508290030190a3505b80611296816120d5565b9150506110d3565b50600080600654116112b15760006112cd565b6006546007546112c3906127106120ee565b6112cd9190612105565b60065460075460408051928352602083019190915281018290529091507fbabbdbfaa73d31b3ae3c0697fec47dcd3d768a10c7aefe454de02f2d4771b4c29060600160405180910390a1505050565b600082815260016020818152604080842081516101408101835281548152938101549284019290925260029091015460ff808216928401929092526101008082048316606085015261ffff6201000083041660808501526001600160401b036401000000008304811660a08601819052600160601b8404821660c0870152600160a01b84048516151560e0870152600160a81b8404909416151591850191909152600160b01b909104166101208301528015801593929084906113f45750846001600160401b03168160a001516001600160401b0316105b9250509250925092565b6003818154811061140e57600080fd5b6000918252602090912060049091020180546001820154600283015460038401805493955091936001600160401b0380831694600160401b9093041692909161145690612127565b80601f016020809104026020016040519081016040528092919081815260200182805461148290612127565b80156114cf5780601f106114a4576101008083540402835291602001916114cf565b820191906000526020600020905b8154815290600101906020018083116114b257829003601f168201915b5050505050905085565b6114e1611a31565b6000828152600160205260408120600281015490916401000000009091046001600160401b0316900361154d5760405162461bcd60e51b8152602060048201526014602482015273141c99591a58dd1a5bdb881b9bdd08199bdd5b9960621b60448201526064016105db565b6002810154600160a01b900460ff161561159d5760405162461bcd60e51b8152602060048201526011602482015270105b1c9958591e481d985b1a59185d1959607a1b60448201526064016105db565b600281018054600160a01b61ffff60a01b19909116600160a81b85151502171767ffffffffffffffff60b01b1916600160b01b426001600160401b031602179055600680549060006115ee836120d5565b90915550506002810154600090600360ff9091161061160e575081611612565b5081155b80156116595760078054906000611628836120d5565b9091555050600282015460ff166000908152600a6020526040812080549161164f836120d5565b919050555061166f565b60088054906000611669836120d5565b91905055505b6001820154604080518515158152831515602082015286917fc9e875e3ec15aca14cb4008858b8891079a81de3fc5e43c72e738ab2c3923808910160405180910390a3600080600654116116c45760006116e0565b6006546007546116d6906127106120ee565b6116e09190612105565b60065460075460408051928352602083019190915281018290529091507fbabbdbfaa73d31b3ae3c0697fec47dcd3d768a10c7aefe454de02f2d4771b4c29060600160405180910390a15050505050565b611739611a31565b60036040518060a00160405280878152602001868152602001856001600160401b03168152602001426001600160401b0316815260200184848080601f01602080910402602001604051908101604052809392919081815260200183838082843760009201829052509390945250508354600181810186559482526020918290208451600490920201908155908301519381019390935550604081015160028301805460608401516001600160401b03908116600160401b026fffffffffffffffffffffffffffffffff199092169316929092179190911790556080810151909190600382019061182a90826121c6565b505060035461183c9150600190612285565b7f1e7adcd7b9406cd2a4d481c9c990477524be46984629b3e13d7d8451622429bb868685856040516118719493929190612298565b60405180910390a25050505050565b6040805160a081018252600080825260208201819052918101829052606080820192909252608081019190915260035482106118ee5760405162461bcd60e51b815260206004820152600d60248201526c092dcecc2d8d2c840d2dcc8caf609b1b60448201526064016105db565b6003828154811061190157611901612056565b60009182526020918290206040805160a08101825260049093029091018054835260018101549383019390935260028301546001600160401b0380821692840192909252600160401b900416606082015260038201805491929160808401919061196a90612127565b80601f016020809104026020016040519081016040528092919081815260200182805461199690612127565b80156119e35780601f106119b8576101008083540402835291602001916119e3565b820191906000526020600020905b8154815290600101906020018083116119c657829003601f168201915b5050505050815250509050919050565b6119fb611a31565b6001600160a01b038116611a2557604051631e4fbdf760e01b8152600060048201526024016105db565b611a2e81611a5e565b50565b6000546001600160a01b0316331461108c5760405163118cdaa760e01b81523360048201526024016105db565b600080546001600160a01b038381166001600160a01b0319831681178455604051919092169283917f8be0079c531659141344cd1fd0a4f28419497f9722a3daafe3b4186f6b6457e09190a35050565b803560ff81168114611abf57600080fd5b919050565b600060208284031215611ad657600080fd5b611adf82611aae565b9392505050565b60008083601f840112611af857600080fd5b5081356001600160401b03811115611b0f57600080fd5b6020830191508360208260051b8501011115611b2a57600080fd5b9250929050565b60008060008060008060008060008060a08b8d031215611b5057600080fd5b8a356001600160401b0380821115611b6757600080fd5b611b738e838f01611ae6565b909c509a5060208d0135915080821115611b8c57600080fd5b611b988e838f01611ae6565b909a50985060408d0135915080821115611bb157600080fd5b611bbd8e838f01611ae6565b909850965060608d0135915080821115611bd657600080fd5b611be28e838f01611ae6565b909650945060808d0135915080821115611bfb57600080fd5b50611c088d828e01611ae6565b915080935050809150509295989b9194979a5092959850565b600060208284031215611c3357600080fd5b5035919050565b60008060408385031215611c4d57600080fd5b50508035926020909101359150565b6020808252825182820181905260009190848201906040850190845b81811015611c9457835183529284019291840191600101611c78565b50909695505050505050565b803561ffff81168114611abf57600080fd5b600080600080600060a08688031215611cca57600080fd5b8535945060208601359350611ce160408701611aae565b9250611cef60608701611aae565b9150611cfd60808701611ca0565b90509295509295909350565b60008060208385031215611d1c57600080fd5b82356001600160401b03811115611d3257600080fd5b611d3e85828601611ae6565b90969095509350505050565b80356001600160401b0381168114611abf57600080fd5b60008060408385031215611d7457600080fd5b82359150611d8460208401611d4a565b90509250929050565b6000815180845260005b81811015611db357602081850181015186830182015201611d97565b506000602082860101526020601f19601f83011685010191505092915050565b85815284602082015260006001600160401b03808616604084015280851660608401525060a06080830152611e0b60a0830184611d8d565b979650505050505050565b60008060408385031215611e2957600080fd5b8235915060208301358015158114611e4057600080fd5b809150509250929050565b600080600080600060808688031215611e6357600080fd5b8535945060208601359350611e7a60408701611d4a565b925060608601356001600160401b0380821115611e9657600080fd5b818801915088601f830112611eaa57600080fd5b813581811115611eb957600080fd5b896020828501011115611ecb57600080fd5b9699959850939650602001949392505050565b60006101408201905082518252602083015160208301526040830151611f09604084018260ff169052565b506060830151611f1e606084018260ff169052565b506080830151611f34608084018261ffff169052565b5060a0830151611f4f60a08401826001600160401b03169052565b5060c0830151611f6a60c08401826001600160401b03169052565b5060e0830151611f7e60e084018215159052565b5061010083810151151590830152610120808401516001600160401b038116828501525b505092915050565b602081528151602082015260208201516040820152600060408301516001600160401b0380821660608501528060608601511660808501525050608083015160a080840152611ffc60c0840182611d8d565b949350505050565b60006020828403121561201657600080fd5b81356001600160a01b0381168114611adf57600080fd5b6020808252600f908201526e098cadccee8d040dad2e6dac2e8c6d608b1b604082015260600190565b634e487b7160e01b600052603260045260246000fd5b60006020828403121561207e57600080fd5b611adf82611ca0565b634e487b7160e01b600052601160045260246000fd5b62ffffff818116838216028082169190828114611fa257611fa2612087565b808201808211156120cf576120cf612087565b92915050565b6000600182016120e7576120e7612087565b5060010190565b80820281158282048414176120cf576120cf612087565b60008261212257634e487b7160e01b600052601260045260246000fd5b500490565b600181811c9082168061213b57607f821691505b60208210810361215b57634e487b7160e01b600052602260045260246000fd5b50919050565b634e487b7160e01b600052604160045260246000fd5b601f8211156121c157600081815260208120601f850160051c8101602086101561219e5750805b601f850160051c820191505b818110156121bd578281556001016121aa565b5050505b505050565b81516001600160401b038111156121df576121df612161565b6121f3816121ed8454612127565b84612177565b602080601f83116001811461222857600084156122105750858301515b600019600386901b1c1916600185901b1785556121bd565b600085815260208120601f198616915b8281101561225757888601518255948401946001909101908401612238565b50858210156122755787850151600019600388901b60f8161c191681555b5050505050600190811b01905550565b818103818111156120cf576120cf612087565b84815283602082015260606040820152816060820152818360808301376000818301608090810191909152601f909201601f19160101939250505056fea2646970667358221220c16b65823808c9253e021506dfed53cd37fa4abc5b20db5a4eadb4ebb40d3ddb64736f6c63430008140033",
  "linkReferences": {},
  "deployedLinkReferences": {}
}