{
  "_format": "hh-sol-artifact-1",
  "contractName": "SAFEVesting",
  "sourceName": "contracts/SAFEVesting.sol",
  "abi": [
    {
      "inputs": [
        {
          "internalType": "address",
          "name": "_token",
          "type": "address"
        },
        {
          "internalType": "address",
          "name": "_beneficiary",
          "type": "address"
        },
        {
          "internalType": "uint256",
          "name": "_totalAllocation",
          "type": "uint256"
        },
        {
          "internalType": "uint256",
          "name": "_startTimestamp",
          "type": "uint256"
        },
        {
          "internalType": "uint256",
          "name": "_cliffMonths",
          "type": "uint256"
        },
        {
          "internalType": "uint256",
          "name": "_vestingMonths",
          "type": "uint256"
        }
      ],
      "stateMutability": "nonpayable",
      "type": "constructor"
    },
    {
      "inputs": [],
      "name": "ReentrancyGuardReentrantCall",
      "type": "error"
    },
    {
      "inputs": [
        {
          "internalType": "address",
          "name": "token",
          "type": "address"
        }
      ],
      "name": "SafeERC20FailedOperation",
      "type": "error"
    },
    {
      "anonymous": false,
      "inputs": [
        {
          "indexed": true,
          "internalType": "address",
          "name": "beneficiary",
          "type": "address"
        },
        {
          "indexed": false,
          "internalType": "uint256",
          "name": "amount",
          "type": "uint256"
        },
        {
          "indexed": false,
          "internalType": "uint256",
          "name": "totalClaimed",
          "type": "uint256"
        },
        {
          "indexed": false,
          "internalType": "uint256",
          "name": "remainingLocked",
          "type": "uint256"
        }
      ],
      "name": "TokensClaimed",
      "type": "event"
    },
    {
      "inputs": [],
      "name": "beneficiary",
      "outputs": [
        {
          "internalType": "address",
          "name": "",
          "type": "address"
        }
      ],
      "stateMutability": "view",
      "type": "function"
    },
    {
      "inputs": [],
      "name": "claim",
      "outputs": [
        {
          "internalType": "uint256",
          "name": "",
          "type": "uint256"
        }
      ],
      "stateMutability": "nonpayable",
      "type": "function"
    },
    {
      "inputs": [],
      "name": "claimableAmount",
      "outputs": [
        {
          "internalType": "uint256",
          "name": "",
          "type": "uint256"
        }
      ],
      "stateMutability": "view",
      "type": "function"
    },
    {
      "inputs": [],
      "name": "cliffDuration",
      "outputs": [
        {
          "internalType": "uint256",
          "name": "",
          "type": "uint256"
        }
      ],
      "stateMutability": "view",
      "type": "function"
    },
    {
      "inputs": [],
      "name": "cliffEnd",
      "outputs": [
        {
          "internalType": "uint256",
          "name": "",
          "type": "uint256"
        }
      ],
      "stateMutability": "view",
      "type": "function"
    },
    {
      "inputs": [],
      "name": "getVestingInfo",
      "outputs": [
        {
          "internalType": "address",
          "name": "_beneficiary",
          "type": "address"
        },
        {
          "internalType": "uint256",
          "name": "_totalAllocation",
          "type": "uint256"
        },
        {
          "internalType": "uint256",
          "name": "_vestedAmount",
          "type": "uint256"
        },
        {
          "internalType": "uint256",
          "name": "_claimedAmount",
          "type": "uint256"
        },
        {
          "internalType": "uint256",
          "name": "_claimableNow",
          "type": "uint256"
        },
        {
          "internalType": "uint256",
          "name": "_lockedAmount",
          "type": "uint256"
        },
        {
          "internalType": "uint256",
          "name": "_startTimestamp",
          "type": "uint256"
        },
        {
          "internalType": "uint256",
          "name": "_cliffEnd",
          "type": "uint256"
        },
        {
          "internalType": "uint256",
          "name": "_vestingEnd",
          "type": "uint256"
        },
        {
          "internalType": "uint256",
          "name": "_percentVestedBps",
          "type": "uint256"
        }
      ],
      "stateMutability": "view",
      "type": "function"
    },
    {
      "inputs": [],
      "name": "lockedAmount",
      "outputs": [
        {
          "internalType": "uint256",
          "name": "",
          "type": "uint256"
        }
      ],
      "stateMutability": "view",
      "type": "function"
    },
    {
      "inputs": [],
      "name": "startTimestamp",
      "outputs": [
        {
          "internalType": "uint256",
          "name": "",
          "type": "uint256"
        }
      ],
      "stateMutability": "view",
      "type": "function"
    },
    {
      "inputs": [],
      "name": "token",
      "outputs": [
        {
          "internalType": "contract IERC20",
          "name": "",
          "type": "address"
        }
      ],
      "stateMutability": "view",
      "type": "function"
    },
    {
      "inputs": [],
      "name": "totalAllocation",
      "outputs": [
        {
          "internalType": "uint256",
          "name": "",
          "type": "uint256"
        }
      ],
      "stateMutability": "view",
      "type": "function"
    },
    {
      "inputs": [],
      "name": "totalClaimed",
      "outputs": [
        {
          "internalType": "uint256",
          "name": "",
          "type": "uint256"
        }
      ],
      "stateMutability": "view",
      "type": "function"
    },
    {
      "inputs": [],
      "name": "vestedAmount",
      "outputs": [
        {
          "internalType": "uint256",
          "name": "",
          "type": "uint256"
        }
      ],
      "stateMutability": "view",
      "type": "function"
    },
    {
      "inputs": [],
      "name": "vestedPercentBps",
      "outputs": [
        {
          "internalType": "uint256",
          "name": "",
          "type": "uint256"
        }
      ],
      "stateMutability": "view",
      "type": "function"
    },
    {
      "inputs": [],
      "name": "vestingDuration",
      "outputs": [
        {
          "internalType": "uint256",
          "name": "",
          "type": "uint256"
        }
      ],
      "stateMutability": "view",
      "type": "function"
    },
    {
      "inputs": [],
      "name": "vestingEnd",
      "outputs": [
        {
          "internalType": "uint256",
          "name": "",
          "type": "uint256"
        }
      ],
      "stateMutability": "view",
      "type": "function"
    }
  ],
  "bytecode": "0x6101806040523480156200001257600080fd5b5060405162000e0738038062000e07833981016040819052620000359162000268565b60016000556001600160a01b038616620000865760405162461bcd60e51b815260206004820152600d60248201526c24b73b30b634b2103a37b5b2b760991b60448201526064015b60405180910390fd5b6001600160a01b038516620000de5760405162461bcd60e51b815260206004820152601360248201527f496e76616c69642062656e65666963696172790000000000000000000000000060448201526064016200007d565b60008411620001225760405162461bcd60e51b815260206004820152600f60248201526e2d32b9379030b63637b1b0ba34b7b760891b60448201526064016200007d565b60008211620001615760405162461bcd60e51b815260206004820152600a6024820152692d32b9379031b634b33360b11b60448201526064016200007d565b60008111620001a25760405162461bcd60e51b815260206004820152600c60248201526b5a65726f2076657374696e6760a01b60448201526064016200007d565b6001600160a01b03808716608052851660a05260c084905260e0839052620001ce8262278d00620002db565b61010052620001e18162278d00620002db565b61012052620001f48262278d00620002db565b620002009084620002fb565b61014052620002138162278d00620002db565b620002228362278d00620002db565b6200022e9085620002fb565b6200023a9190620002fb565b610160525062000311945050505050565b80516001600160a01b03811681146200026357600080fd5b919050565b60008060008060008060c087890312156200028257600080fd5b6200028d876200024b565b95506200029d602088016200024b565b945060408701519350606087015192506080870151915060a087015190509295509295509295565b634e487b7160e01b600052601160045260246000fd5b8082028115828204841417620002f557620002f5620002c5565b92915050565b80820180821115620002f557620002f5620002c5565b60805160a05160c05160e051610100516101205161014051610160516109f662000411600039600081816101bf0152818161039001526107a60152600081816101e601528181610362015281816103e1015261078501526000818161011a015261040a0152600061021e0152600081816102a10152610764015260008181610198015281816102ee0152818161031c015281816103b80152818161042f015281816105fd015281816106640152818161071201528181610739015281816107c901526107f60152600081816101410152818161047801528181610584015281816105ab01526106f10152600081816102c8015261056201526109f66000f3fe608060405234801561001057600080fd5b50600436106100f55760003560e01c806384a1931f11610097578063d85349f711610066578063d85349f714610219578063dc25a30014610240578063e6fd48bc1461029c578063fc0c546a146102c357600080fd5b806384a1931f146101ba5780639130297b146101e1578063a556f84614610208578063d54ad2a11461021057600080fd5b806344b1231f116100d357806344b1231f1461017b5780634e71d92d146101835780636ab28bc81461018b57806379203dc41461019357600080fd5b80630e3b6d8a146100fa5780631514617e1461011557806338af3eed1461013c575b600080fd5b6101026102ea565b6040519081526020015b60405180910390f35b6101027f000000000000000000000000000000000000000000000000000000000000000081565b6101637f000000000000000000000000000000000000000000000000000000000000000081565b6040516001600160a01b03909116815260200161010c565b61010261035e565b610102610463565b610102610654565b6101027f000000000000000000000000000000000000000000000000000000000000000081565b6101027f000000000000000000000000000000000000000000000000000000000000000081565b6101027f000000000000000000000000000000000000000000000000000000000000000081565b610102610688565b61010260015481565b6101027f000000000000000000000000000000000000000000000000000000000000000081565b6102486106b3565b604080516001600160a01b03909b168b5260208b0199909952978901969096526060880194909452608087019290925260a086015260c085015260e08401526101008301526101208201526101400161010c565b6101027f000000000000000000000000000000000000000000000000000000000000000081565b6101637f000000000000000000000000000000000000000000000000000000000000000081565b60007f000000000000000000000000000000000000000000000000000000000000000060000361031a5750600090565b7f000000000000000000000000000000000000000000000000000000000000000061034361035e565b61034f9061271061095b565b6103599190610978565b905090565b60007f000000000000000000000000000000000000000000000000000000000000000042101561038e5750600090565b7f000000000000000000000000000000000000000000000000000000000000000042106103da57507f000000000000000000000000000000000000000000000000000000000000000090565b60006104067f00000000000000000000000000000000000000000000000000000000000000004261099a565b90507f0000000000000000000000000000000000000000000000000000000000000000610453827f000000000000000000000000000000000000000000000000000000000000000061095b565b61045d9190610978565b91505090565b600061046d61084d565b336001600160a01b037f000000000000000000000000000000000000000000000000000000000000000016146104dc5760405162461bcd60e51b815260206004820152600f60248201526e4e6f742062656e656669636961727960881b60448201526064015b60405180910390fd5b60006104e661035e565b90506000600154826104f8919061099a565b90506000811161053d5760405162461bcd60e51b815260206004820152601060248201526f4e6f7468696e6720746f20636c61696d60801b60448201526064016104d3565b806001600082825461054f91906109ad565b909155506105a990506001600160a01b037f0000000000000000000000000000000000000000000000000000000000000000167f000000000000000000000000000000000000000000000000000000000000000083610877565b7f00000000000000000000000000000000000000000000000000000000000000006001600160a01b03167fe49649ad7d04a14b0d2a43dae89f207c0822143ff6f88a6480e88907e4e5c548826001546001547f0000000000000000000000000000000000000000000000000000000000000000610626919061099a565b6040805193845260208401929092529082015260600160405180910390a29150506106516001600055565b90565b600061065e61035e565b610359907f000000000000000000000000000000000000000000000000000000000000000061099a565b60008061069361035e565b905060015481116106a657600091505090565b60015461045d908261099a565b60008060008060008060008060008060006106cc61035e565b9050600060015482116106e05760006106ed565b6001546106ed908361099a565b90507f00000000000000000000000000000000000000000000000000000000000000007f00000000000000000000000000000000000000000000000000000000000000008360015484867f0000000000000000000000000000000000000000000000000000000000000000610762919061099a565b7f00000000000000000000000000000000000000000000000000000000000000007f00000000000000000000000000000000000000000000000000000000000000007f000000000000000000000000000000000000000000000000000000000000000060007f0000000000000000000000000000000000000000000000000000000000000000116107f457600061082b565b7f00000000000000000000000000000000000000000000000000000000000000006108218c61271061095b565b61082b9190610978565b9b509b509b509b509b509b509b509b509b509b50505090919293949596979899565b60026000540361087057604051633ee5aeb560e01b815260040160405180910390fd5b6002600055565b604080516001600160a01b038416602482015260448082018490528251808303909101815260649091019091526020810180516001600160e01b031663a9059cbb60e01b1790526108c99084906108ce565b505050565b600080602060008451602086016000885af1806108f1576040513d6000823e3d81fd5b50506000513d91508115610909578060011415610916565b6001600160a01b0384163b155b1561093f57604051635274afe760e01b81526001600160a01b03851660048201526024016104d3565b50505050565b634e487b7160e01b600052601160045260246000fd5b808202811582820484141761097257610972610945565b92915050565b60008261099557634e487b7160e01b600052601260045260246000fd5b500490565b8181038181111561097257610972610945565b808201808211156109725761097261094556fea26469706673582212207a3e3252eca53179d8555c9cc8d57f83f5967dac4eb436a2c80f361cc9f2957364736f6c63430008140033",
  "linkReferences": {},
  "deployedLinkReferences": {}
}