{"contracts/SAFEVesting.sol":{"SAFEVesting":{"abi":[{"inputs":[{"internalType":"address","name":"_token","type":"address"},{"internalType":"address","name":"_beneficiary","type":"address"},{"internalType":"uint256","name":"_totalAllocation","type":"uint256"},{"internalType":"uint256","name":"_startTimestamp","type":"uint256"},{"internalType":"uint256","name":"_cliffMonths","type":"uint256"},{"internalType":"uint256","name":"_vestingMonths","type":"uint256"}],"stateMutability":"nonpayable","type":"constructor"},{"inputs":[],"name":"ReentrancyGuardReentrantCall","type":"error"},{"inputs":[{"internalType":"address","name":"token","type":"address"}],"name":"SafeERC20FailedOperation","type":"error"},{"anonymous":false,"inputs":[{"indexed":true,"internalType":"address","name":"beneficiary","type":"address"},{"indexed":false,"internalType":"uint256","name":"amount","type":"uint256"},{"indexed":false,"internalType":"uint256","name":"totalClaimed","type":"uint256"},{"indexed":false,"internalType":"uint256","name":"remainingLocked","type":"uint256"}],"name":"TokensClaimed","type":"event"},{"inputs":[],"name":"beneficiary","outputs":[{"internalType":"address","name":"","type":"address"}],"stateMutability":"view","type":"function"},{"inputs":[],"name":"claim","outputs":[{"internalType":"uint256","name":"","type":"uint256"}],"stateMutability":"nonpayable","type":"function"},{"inputs":[],"name":"claimableAmount","outputs":[{"internalType":"uint256","name":"","type":"uint256"}],"stateMutability":"view","type":"function"},{"inputs":[],"name":"cliffDuration","outputs":[{"internalType":"uint256","name":"","type":"uint256"}],"stateMutability":"view","type":"function"},{"inputs":[],"name":"cliffEnd","outputs":[{"internalType":"uint256","name":"","type":"uint256"}],"stateMutability":"view","type":"function"},{"inputs":[],"name":"getVestingInfo","outputs":[{"internalType":"address","name":"_beneficiary","type":"address"},{"internalType":"uint256","name":"_totalAllocation","type":"uint256"},{"internalType":"uint256","name":"_vestedAmount","type":"uint256"},{"internalType":"uint256","name":"_claimedAmount","type":"uint256"},{"internalType":"uint256","name":"_claimableNow","type":"uint256"},{"internalType":"uint256","name":"_lockedAmount","type":"uint256"},{"internalType":"uint256","name":"_startTimestamp","type":"uint256"},{"internalType":"uint256","name":"_cliffEnd","type":"uint256"},{"internalType":"uint256","name":"_vestingEnd","type":"uint256"},{"internalType":"uint256","name":"_percentVestedBps","type":"uint256"}],"stateMutability":"view","type":"function"},{"inputs":[],"name":"lockedAmount","outputs":[{"internalType":"uint256","name":"","type":"uint256"}],"stateMutability":"view","type":"function"},{"inputs":[],"name":"startTimestamp","outputs":[{"internalType":"uint256","name":"","type":"uint256"}],"stateMutability":"view","type":"function"},{"inputs":[],"name":"token","outputs":[{"internalType":"contract IERC20","name":"","type":"address"}],"stateMutability":"view","type":"function"},{"inputs":[],"name":"totalAllocation","outputs":[{"internalType":"uint256","name":"","type":"uint256"}],"stateMutability":"view","type":"function"},{"inputs":[],"name":"totalClaimed","outputs":[{"internalType":"uint256","name":"","type":"uint256"}],"stateMutability":"view","type":"function"},{"inputs":[],"name":"vestedAmount","outputs":[{"internalType":"uint256","name":"","type":"uint256"}],"stateMutability":"view","type":"function"},{"inputs":[],"name":"vestedPercentBps","outputs":[{"internalType":"uint256","name":"","type":"uint256"}],"stateMutability":"view","type":"function"},{"inputs":[],"name":"vestingDuration","outputs":[{"internalType":"uint256","name":"","type":"uint256"}],"stateMutability":"view","type":"function"},{"inputs":[],"name":"vestingEnd","outputs":[{"internalType":"uint256","name":"","type":"uint256"}],"stateMutability":"view","type":"function"}],"evm":{"bytecode":{"linkReferences":{},"object":"6101806040523480156200001257600080fd5b5060405162000e0738038062000e07833981016040819052620000359162000268565b60016000556001600160a01b038616620000865760405162461bcd60e51b815260206004820152600d60248201526c24b73b30b634b2103a37b5b2b760991b60448201526064015b60405180910390fd5b6001600160a01b038516620000de5760405162461bcd60e51b815260206004820152601360248201527f496e76616c69642062656e65666963696172790000000000000000000000000060448201526064016200007d565b60008411620001225760405162461bcd60e51b815260206004820152600f60248201526e2d32b9379030b63637b1b0ba34b7b760891b60448201526064016200007d565b60008211620001615760405162461bcd60e51b815260206004820152600a6024820152692d32b9379031b634b33360b11b60448201526064016200007d565b60008111620001a25760405162461bcd60e51b815260206004820152600c60248201526b5a65726f2076657374696e6760a01b60448201526064016200007d565b6001600160a01b03808716608052851660a05260c084905260e0839052620001ce8262278d00620002db565b61010052620001e18162278d00620002db565b61012052620001f48262278d00620002db565b620002009084620002fb565b61014052620002138162278d00620002db565b620002228362278d00620002db565b6200022e9085620002fb565b6200023a9190620002fb565b610160525062000311945050505050565b80516001600160a01b03811681146200026357600080fd5b919050565b60008060008060008060c087890312156200028257600080fd5b6200028d876200024b565b95506200029d602088016200024b565b945060408701519350606087015192506080870151915060a087015190509295509295509295565b634e487b7160e01b600052601160045260246000fd5b8082028115828204841417620002f557620002f5620002c5565b92915050565b80820180821115620002f557620002f5620002c5565b60805160a05160c05160e051610100516101205161014051610160516109f662000411600039600081816101bf0152818161039001526107a60152600081816101e601528181610362015281816103e1015261078501526000818161011a015261040a0152600061021e0152600081816102a10152610764015260008181610198015281816102ee0152818161031c015281816103b80152818161042f015281816105fd015281816106640152818161071201528181610739015281816107c901526107f60152600081816101410152818161047801528181610584015281816105ab01526106f10152600081816102c8015261056201526109f66000f3fe608060405234801561001057600080fd5b50600436106100f55760003560e01c806384a1931f11610097578063d85349f711610066578063d85349f714610219578063dc25a30014610240578063e6fd48bc1461029c578063fc0c546a146102c357600080fd5b806384a1931f146101ba5780639130297b146101e1578063a556f84614610208578063d54ad2a11461021057600080fd5b806344b1231f116100d357806344b1231f1461017b5780634e71d92d146101835780636ab28bc81461018b57806379203dc41461019357600080fd5b80630e3b6d8a146100fa5780631514617e1461011557806338af3eed1461013c575b600080fd5b6101026102ea565b6040519081526020015b60405180910390f35b6101027f000000000000000000000000000000000000000000000000000000000000000081565b6101637f000000000000000000000000000000000000000000000000000000000000000081565b6040516001600160a01b03909116815260200161010c565b61010261035e565b610102610463565b610102610654565b6101027f000000000000000000000000000000000000000000000000000000000000000081565b6101027f000000000000000000000000000000000000000000000000000000000000000081565b6101027f000000000000000000000000000000000000000000000000000000000000000081565b610102610688565b61010260015481565b6101027f000000000000000000000000000000000000000000000000000000000000000081565b6102486106b3565b604080516001600160a01b03909b168b5260208b0199909952978901969096526060880194909452608087019290925260a086015260c085015260e08401526101008301526101208201526101400161010c565b6101027f000000000000000000000000000000000000000000000000000000000000000081565b6101637f000000000000000000000000000000000000000000000000000000000000000081565b60007f000000000000000000000000000000000000000000000000000000000000000060000361031a5750600090565b7f000000000000000000000000000000000000000000000000000000000000000061034361035e565b61034f9061271061095b565b6103599190610978565b905090565b60007f000000000000000000000000000000000000000000000000000000000000000042101561038e5750600090565b7f000000000000000000000000000000000000000000000000000000000000000042106103da57507f000000000000000000000000000000000000000000000000000000000000000090565b60006104067f00000000000000000000000000000000000000000000000000000000000000004261099a565b90507f0000000000000000000000000000000000000000000000000000000000000000610453827f000000000000000000000000000000000000000000000000000000000000000061095b565b61045d9190610978565b91505090565b600061046d61084d565b336001600160a01b037f000000000000000000000000000000000000000000000000000000000000000016146104dc5760405162461bcd60e51b815260206004820152600f60248201526e4e6f742062656e656669636961727960881b60448201526064015b60405180910390fd5b60006104e661035e565b90506000600154826104f8919061099a565b90506000811161053d5760405162461bcd60e51b815260206004820152601060248201526f4e6f7468696e6720746f20636c61696d60801b60448201526064016104d3565b806001600082825461054f91906109ad565b909155506105a990506001600160a01b037f0000000000000000000000000000000000000000000000000000000000000000167f000000000000000000000000000000000000000000000000000000000000000083610877565b7f00000000000000000000000000000000000000000000000000000000000000006001600160a01b03167fe49649ad7d04a14b0d2a43dae89f207c0822143ff6f88a6480e88907e4e5c548826001546001547f0000000000000000000000000000000000000000000000000000000000000000610626919061099a565b6040805193845260208401929092529082015260600160405180910390a29150506106516001600055565b90565b600061065e61035e565b610359907f000000000000000000000000000000000000000000000000000000000000000061099a565b60008061069361035e565b905060015481116106a657600091505090565b60015461045d908261099a565b60008060008060008060008060008060006106cc61035e565b9050600060015482116106e05760006106ed565b6001546106ed908361099a565b90507f00000000000000000000000000000000000000000000000000000000000000007f00000000000000000000000000000000000000000000000000000000000000008360015484867f0000000000000000000000000000000000000000000000000000000000000000610762919061099a565b7f00000000000000000000000000000000000000000000000000000000000000007f00000000000000000000000000000000000000000000000000000000000000007f000000000000000000000000000000000000000000000000000000000000000060007f0000000000000000000000000000000000000000000000000000000000000000116107f457600061082b565b7f00000000000000000000000000000000000000000000000000000000000000006108218c61271061095b565b61082b9190610978565b9b509b509b509b509b509b509b509b509b509b50505090919293949596979899565b60026000540361087057604051633ee5aeb560e01b815260040160405180910390fd5b6002600055565b604080516001600160a01b038416602482015260448082018490528251808303909101815260649091019091526020810180516001600160e01b031663a9059cbb60e01b1790526108c99084906108ce565b505050565b600080602060008451602086016000885af1806108f1576040513d6000823e3d81fd5b50506000513d91508115610909578060011415610916565b6001600160a01b0384163b155b1561093f57604051635274afe760e01b81526001600160a01b03851660048201526024016104d3565b50505050565b634e487b7160e01b600052601160045260246000fd5b808202811582820484141761097257610972610945565b92915050565b60008261099557634e487b7160e01b600052601260045260246000fd5b500490565b8181038181111561097257610972610945565b808201808211156109725761097261094556fea26469706673582212207a3e3252eca53179d8555c9cc8d57f83f5967dac4eb436a2c80f361cc9f2957364736f6c63430008140033","opcodes":"PUSH2 0x180 PUSH1 0x40 MSTORE CALLVALUE DUP1 ISZERO PUSH3 0x12 JUMPI PUSH1 0x0 DUP1 REVERT JUMPDEST POP PUSH1 0x40 MLOAD PUSH3 0xE07 CODESIZE SUB DUP1 PUSH3 0xE07 DUP4 CODECOPY DUP2 ADD PUSH1 0x40 DUP2 SWAP1 MSTORE PUSH3 0x35 SWAP2 PUSH3 0x268 JUMP JUMPDEST PUSH1 0x1 PUSH1 0x0 SSTORE PUSH1 0x1 PUSH1 0x1 PUSH1 0xA0 SHL SUB DUP7 AND PUSH3 0x86 JUMPI PUSH1 0x40 MLOAD PUSH3 0x461BCD PUSH1 0xE5 SHL DUP2 MSTORE PUSH1 0x20 PUSH1 0x4 DUP3 ADD MSTORE PUSH1 0xD PUSH1 0x24 DUP3 ADD MSTORE PUSH13 0x24B73B30B634B2103A37B5B2B7 PUSH1 0x99 SHL PUSH1 0x44 DUP3 ADD MSTORE PUSH1 0x64 ADD JUMPDEST PUSH1 0x40 MLOAD DUP1 SWAP2 SUB SWAP1 REVERT JUMPDEST PUSH1 0x1 PUSH1 0x1 PUSH1 0xA0 SHL SUB DUP6 AND PUSH3 0xDE JUMPI PUSH1 0x40 MLOAD PUSH3 0x461BCD PUSH1 0xE5 SHL DUP2 MSTORE PUSH1 0x20 PUSH1 0x4 DUP3 ADD MSTORE PUSH1 0x13 PUSH1 0x24 DUP3 ADD MSTORE PUSH32 0x496E76616C69642062656E656669636961727900000000000000000000000000 PUSH1 0x44 DUP3 ADD MSTORE PUSH1 0x64 ADD PUSH3 0x7D JUMP JUMPDEST PUSH1 0x0 DUP5 GT PUSH3 0x122 JUMPI PUSH1 0x40 MLOAD PUSH3 0x461BCD PUSH1 0xE5 SHL DUP2 MSTORE PUSH1 0x20 PUSH1 0x4 DUP3 ADD MSTORE PUSH1 0xF PUSH1 0x24 DUP3 ADD MSTORE PUSH15 0x2D32B9379030B63637B1B0BA34B7B7 PUSH1 0x89 SHL PUSH1 0x44 DUP3 ADD MSTORE PUSH1 0x64 ADD PUSH3 0x7D JUMP JUMPDEST PUSH1 0x0 DUP3 GT PUSH3 0x161 JUMPI PUSH1 0x40 MLOAD PUSH3 0x461BCD PUSH1 0xE5 SHL DUP2 MSTORE PUSH1 0x20 PUSH1 0x4 DUP3 ADD MSTORE PUSH1 0xA PUSH1 0x24 DUP3 ADD MSTORE PUSH10 0x2D32B9379031B634B333 PUSH1 0xB1 SHL PUSH1 0x44 DUP3 ADD MSTORE PUSH1 0x64 ADD PUSH3 0x7D JUMP JUMPDEST PUSH1 0x0 DUP2 GT PUSH3 0x1A2 JUMPI PUSH1 0x40 MLOAD PUSH3 0x461BCD PUSH1 0xE5 SHL DUP2 MSTORE PUSH1 0x20 PUSH1 0x4 DUP3 ADD MSTORE PUSH1 0xC PUSH1 0x24 DUP3 ADD MSTORE PUSH12 0x5A65726F2076657374696E67 PUSH1 0xA0 SHL PUSH1 0x44 DUP3 ADD MSTORE PUSH1 0x64 ADD PUSH3 0x7D JUMP JUMPDEST PUSH1 0x1 PUSH1 0x1 PUSH1 0xA0 SHL SUB DUP1 DUP8 AND PUSH1 0x80 MSTORE DUP6 AND PUSH1 0xA0 MSTORE PUSH1 0xC0 DUP5 SWAP1 MSTORE PUSH1 0xE0 DUP4 SWAP1 MSTORE PUSH3 0x1CE DUP3 PUSH3 0x278D00 PUSH3 0x2DB JUMP JUMPDEST PUSH2 0x100 MSTORE PUSH3 0x1E1 DUP2 PUSH3 0x278D00 PUSH3 0x2DB JUMP JUMPDEST PUSH2 0x120 MSTORE PUSH3 0x1F4 DUP3 PUSH3 0x278D00 PUSH3 0x2DB JUMP JUMPDEST PUSH3 0x200 SWAP1 DUP5 PUSH3 0x2FB JUMP JUMPDEST PUSH2 0x140 MSTORE PUSH3 0x213 DUP2 PUSH3 0x278D00 PUSH3 0x2DB JUMP JUMPDEST PUSH3 0x222 DUP4 PUSH3 0x278D00 PUSH3 0x2DB JUMP JUMPDEST PUSH3 0x22E SWAP1 DUP6 PUSH3 0x2FB JUMP JUMPDEST PUSH3 0x23A SWAP2 SWAP1 PUSH3 0x2FB JUMP JUMPDEST PUSH2 0x160 MSTORE POP PUSH3 0x311 SWAP5 POP POP POP POP POP JUMP JUMPDEST DUP1 MLOAD PUSH1 0x1 PUSH1 0x1 PUSH1 0xA0 SHL SUB DUP2 AND DUP2 EQ PUSH3 0x263 JUMPI PUSH1 0x0 DUP1 REVERT JUMPDEST SWAP2 SWAP1 POP JUMP JUMPDEST PUSH1 0x0 DUP1 PUSH1 0x0 DUP1 PUSH1 0x0 DUP1 PUSH1 0xC0 DUP8 DUP10 SUB SLT ISZERO PUSH3 0x282 JUMPI PUSH1 0x0 DUP1 REVERT JUMPDEST PUSH3 0x28D DUP8 PUSH3 0x24B JUMP JUMPDEST SWAP6 POP PUSH3 0x29D PUSH1 0x20 DUP9 ADD PUSH3 0x24B JUMP JUMPDEST SWAP5 POP PUSH1 0x40 DUP8 ADD MLOAD SWAP4 POP PUSH1 0x60 DUP8 ADD MLOAD SWAP3 POP PUSH1 0x80 DUP8 ADD MLOAD SWAP2 POP PUSH1 0xA0 DUP8 ADD MLOAD SWAP1 POP SWAP3 SWAP6 POP SWAP3 SWAP6 POP SWAP3 SWAP6 JUMP JUMPDEST PUSH4 0x4E487B71 PUSH1 0xE0 SHL PUSH1 0x0 MSTORE PUSH1 0x11 PUSH1 0x4 MSTORE PUSH1 0x24 PUSH1 0x0 REVERT JUMPDEST DUP1 DUP3 MUL DUP2 ISZERO DUP3 DUP3 DIV DUP5 EQ OR PUSH3 0x2F5 JUMPI PUSH3 0x2F5 PUSH3 0x2C5 JUMP JUMPDEST SWAP3 SWAP2 POP POP JUMP JUMPDEST DUP1 DUP3 ADD DUP1 DUP3 GT ISZERO PUSH3 0x2F5 JUMPI PUSH3 0x2F5 PUSH3 0x2C5 JUMP JUMPDEST PUSH1 0x80 MLOAD PUSH1 0xA0 MLOAD PUSH1 0xC0 MLOAD PUSH1 0xE0 MLOAD PUSH2 0x100 MLOAD PUSH2 0x120 MLOAD PUSH2 0x140 MLOAD PUSH2 0x160 MLOAD PUSH2 0x9F6 PUSH3 0x411 PUSH1 0x0 CODECOPY PUSH1 0x0 DUP2 DUP2 PUSH2 0x1BF ADD MSTORE DUP2 DUP2 PUSH2 0x390 ADD MSTORE PUSH2 0x7A6 ADD MSTORE PUSH1 0x0 DUP2 DUP2 PUSH2 0x1E6 ADD MSTORE DUP2 DUP2 PUSH2 0x362 ADD MSTORE DUP2 DUP2 PUSH2 0x3E1 ADD MSTORE PUSH2 0x785 ADD MSTORE PUSH1 0x0 DUP2 DUP2 PUSH2 0x11A ADD MSTORE PUSH2 0x40A ADD MSTORE PUSH1 0x0 PUSH2 0x21E ADD MSTORE PUSH1 0x0 DUP2 DUP2 PUSH2 0x2A1 ADD MSTORE PUSH2 0x764 ADD MSTORE PUSH1 0x0 DUP2 DUP2 PUSH2 0x198 ADD MSTORE DUP2 DUP2 PUSH2 0x2EE ADD MSTORE DUP2 DUP2 PUSH2 0x31C ADD MSTORE DUP2 DUP2 PUSH2 0x3B8 ADD MSTORE DUP2 DUP2 PUSH2 0x42F ADD MSTORE DUP2 DUP2 PUSH2 0x5FD ADD MSTORE DUP2 DUP2 PUSH2 0x664 ADD MSTORE DUP2 DUP2 PUSH2 0x712 ADD MSTORE DUP2 DUP2 PUSH2 0x739 ADD MSTORE DUP2 DUP2 PUSH2 0x7C9 ADD MSTORE PUSH2 0x7F6 ADD MSTORE PUSH1 0x0 DUP2 DUP2 PUSH2 0x141 ADD MSTORE DUP2 DUP2 PUSH2 0x478 ADD MSTORE DUP2 DUP2 PUSH2 0x584 ADD MSTORE DUP2 DUP2 PUSH2 0x5AB ADD MSTORE PUSH2 0x6F1 ADD MSTORE PUSH1 0x0 DUP2 DUP2 PUSH2 0x2C8 ADD MSTORE PUSH2 0x562 ADD MSTORE PUSH2 0x9F6 PUSH1 0x0 RETURN INVALID PUSH1 0x80 PUSH1 0x40 MSTORE CALLVALUE DUP1 ISZERO PUSH2 0x10 JUMPI PUSH1 0x0 DUP1 REVERT JUMPDEST POP PUSH1 0x4 CALLDATASIZE LT PUSH2 0xF5 JUMPI PUSH1 0x0 CALLDATALOAD PUSH1 0xE0 SHR DUP1 PUSH4 0x84A1931F GT PUSH2 0x97 JUMPI DUP1 PUSH4 0xD85349F7 GT PUSH2 0x66 JUMPI DUP1 PUSH4 0xD85349F7 EQ PUSH2 0x219 JUMPI DUP1 PUSH4 0xDC25A300 EQ PUSH2 0x240 JUMPI DUP1 PUSH4 0xE6FD48BC EQ PUSH2 0x29C JUMPI DUP1 PUSH4 0xFC0C546A EQ PUSH2 0x2C3 JUMPI PUSH1 0x0 DUP1 REVERT JUMPDEST DUP1 PUSH4 0x84A1931F EQ PUSH2 0x1BA JUMPI DUP1 PUSH4 0x9130297B EQ PUSH2 0x1E1 JUMPI DUP1 PUSH4 0xA556F846 EQ PUSH2 0x208 JUMPI DUP1 PUSH4 0xD54AD2A1 EQ PUSH2 0x210 JUMPI PUSH1 0x0 DUP1 REVERT JUMPDEST DUP1 PUSH4 0x44B1231F GT PUSH2 0xD3 JUMPI DUP1 PUSH4 0x44B1231F EQ PUSH2 0x17B JUMPI DUP1 PUSH4 0x4E71D92D EQ PUSH2 0x183 JUMPI DUP1 PUSH4 0x6AB28BC8 EQ PUSH2 0x18B JUMPI DUP1 PUSH4 0x79203DC4 EQ PUSH2 0x193 JUMPI PUSH1 0x0 DUP1 REVERT JUMPDEST DUP1 PUSH4 0xE3B6D8A EQ PUSH2 0xFA JUMPI DUP1 PUSH4 0x1514617E EQ PUSH2 0x115 JUMPI DUP1 PUSH4 0x38AF3EED EQ PUSH2 0x13C JUMPI JUMPDEST PUSH1 0x0 DUP1 REVERT JUMPDEST PUSH2 0x102 PUSH2 0x2EA JUMP JUMPDEST PUSH1 0x40 MLOAD SWAP1 DUP2 MSTORE PUSH1 0x20 ADD JUMPDEST PUSH1 0x40 MLOAD DUP1 SWAP2 SUB SWAP1 RETURN JUMPDEST PUSH2 0x102 PUSH32 0x0 DUP2 JUMP JUMPDEST PUSH2 0x163 PUSH32 0x0 DUP2 JUMP JUMPDEST PUSH1 0x40 MLOAD PUSH1 0x1 PUSH1 0x1 PUSH1 0xA0 SHL SUB SWAP1 SWAP2 AND DUP2 MSTORE PUSH1 0x20 ADD PUSH2 0x10C JUMP JUMPDEST PUSH2 0x102 PUSH2 0x35E JUMP JUMPDEST PUSH2 0x102 PUSH2 0x463 JUMP JUMPDEST PUSH2 0x102 PUSH2 0x654 JUMP JUMPDEST PUSH2 0x102 PUSH32 0x0 DUP2 JUMP JUMPDEST PUSH2 0x102 PUSH32 0x0 DUP2 JUMP JUMPDEST PUSH2 0x102 PUSH32 0x0 DUP2 JUMP JUMPDEST PUSH2 0x102 PUSH2 0x688 JUMP JUMPDEST PUSH2 0x102 PUSH1 0x1 SLOAD DUP2 JUMP JUMPDEST PUSH2 0x102 PUSH32 0x0 DUP2 JUMP JUMPDEST PUSH2 0x248 PUSH2 0x6B3 JUMP JUMPDEST PUSH1 0x40 DUP1 MLOAD PUSH1 0x1 PUSH1 0x1 PUSH1 0xA0 SHL SUB SWAP1 SWAP12 AND DUP12 MSTORE PUSH1 0x20 DUP12 ADD SWAP10 SWAP1 SWAP10 MSTORE SWAP8 DUP10 ADD SWAP7 SWAP1 SWAP7 MSTORE PUSH1 0x60 DUP9 ADD SWAP5 SWAP1 SWAP5 MSTORE PUSH1 0x80 DUP8 ADD SWAP3 SWAP1 SWAP3 MSTORE PUSH1 0xA0 DUP7 ADD MSTORE PUSH1 0xC0 DUP6 ADD MSTORE PUSH1 0xE0 DUP5 ADD MSTORE PUSH2 0x100 DUP4 ADD MSTORE PUSH2 0x120 DUP3 ADD MSTORE PUSH2 0x140 ADD PUSH2 0x10C JUMP JUMPDEST PUSH2 0x102 PUSH32 0x0 DUP2 JUMP JUMPDEST PUSH2 0x163 PUSH32 0x0 DUP2 JUMP JUMPDEST PUSH1 0x0 PUSH32 0x0 PUSH1 0x0 SUB PUSH2 0x31A JUMPI POP PUSH1 0x0 SWAP1 JUMP JUMPDEST PUSH32 0x0 PUSH2 0x343 PUSH2 0x35E JUMP JUMPDEST PUSH2 0x34F SWAP1 PUSH2 0x2710 PUSH2 0x95B JUMP JUMPDEST PUSH2 0x359 SWAP2 SWAP1 PUSH2 0x978 JUMP JUMPDEST SWAP1 POP SWAP1 JUMP JUMPDEST PUSH1 0x0 PUSH32 0x0 TIMESTAMP LT ISZERO PUSH2 0x38E JUMPI POP PUSH1 0x0 SWAP1 JUMP JUMPDEST PUSH32 0x0 TIMESTAMP LT PUSH2 0x3DA JUMPI POP PUSH32 0x0 SWAP1 JUMP JUMPDEST PUSH1 0x0 PUSH2 0x406 PUSH32 0x0 TIMESTAMP PUSH2 0x99A JUMP JUMPDEST SWAP1 POP PUSH32 0x0 PUSH2 0x453 DUP3 PUSH32 0x0 PUSH2 0x95B JUMP JUMPDEST PUSH2 0x45D SWAP2 SWAP1 PUSH2 0x978 JUMP JUMPDEST SWAP2 POP POP SWAP1 JUMP JUMPDEST PUSH1 0x0 PUSH2 0x46D PUSH2 0x84D JUMP JUMPDEST CALLER PUSH1 0x1 PUSH1 0x1 PUSH1 0xA0 SHL SUB PUSH32 0x0 AND EQ PUSH2 0x4DC JUMPI PUSH1 0x40 MLOAD PUSH3 0x461BCD PUSH1 0xE5 SHL DUP2 MSTORE PUSH1 0x20 PUSH1 0x4 DUP3 ADD MSTORE PUSH1 0xF PUSH1 0x24 DUP3 ADD MSTORE PUSH15 0x4E6F742062656E6566696369617279 PUSH1 0x88 SHL PUSH1 0x44 DUP3 ADD MSTORE PUSH1 0x64 ADD JUMPDEST PUSH1 0x40 MLOAD DUP1 SWAP2 SUB SWAP1 REVERT JUMPDEST PUSH1 0x0 PUSH2 0x4E6 PUSH2 0x35E JUMP JUMPDEST SWAP1 POP PUSH1 0x0 PUSH1 0x1 SLOAD DUP3 PUSH2 0x4F8 SWAP2 SWAP1 PUSH2 0x99A JUMP JUMPDEST SWAP1 POP PUSH1 0x0 DUP2 GT PUSH2 0x53D JUMPI PUSH1 0x40 MLOAD PUSH3 0x461BCD PUSH1 0xE5 SHL DUP2 MSTORE PUSH1 0x20 PUSH1 0x4 DUP3 ADD MSTORE PUSH1 0x10 PUSH1 0x24 DUP3 ADD MSTORE PUSH16 0x4E6F7468696E6720746F20636C61696D PUSH1 0x80 SHL PUSH1 0x44 DUP3 ADD MSTORE PUSH1 0x64 ADD PUSH2 0x4D3 JUMP JUMPDEST DUP1 PUSH1 0x1 PUSH1 0x0 DUP3 DUP3 SLOAD PUSH2 0x54F SWAP2 SWAP1 PUSH2 0x9AD JUMP JUMPDEST SWAP1 SWAP2 SSTORE POP PUSH2 0x5A9 SWAP1 POP PUSH1 0x1 PUSH1 0x1 PUSH1 0xA0 SHL SUB PUSH32 0x0 AND PUSH32 0x0 DUP4 PUSH2 0x877 JUMP JUMPDEST PUSH32 0x0 PUSH1 0x1 PUSH1 0x1 PUSH1 0xA0 SHL SUB AND PUSH32 0xE49649AD7D04A14B0D2A43DAE89F207C0822143FF6F88A6480E88907E4E5C548 DUP3 PUSH1 0x1 SLOAD PUSH1 0x1 SLOAD PUSH32 0x0 PUSH2 0x626 SWAP2 SWAP1 PUSH2 0x99A JUMP JUMPDEST PUSH1 0x40 DUP1 MLOAD SWAP4 DUP5 MSTORE PUSH1 0x20 DUP5 ADD SWAP3 SWAP1 SWAP3 MSTORE SWAP1 DUP3 ADD MSTORE PUSH1 0x60 ADD PUSH1 0x40 MLOAD DUP1 SWAP2 SUB SWAP1 LOG2 SWAP2 POP POP PUSH2 0x651 PUSH1 0x1 PUSH1 0x0 SSTORE JUMP JUMPDEST SWAP1 JUMP JUMPDEST PUSH1 0x0 PUSH2 0x65E PUSH2 0x35E JUMP JUMPDEST PUSH2 0x359 SWAP1 PUSH32 0x0 PUSH2 0x99A JUMP JUMPDEST PUSH1 0x0 DUP1 PUSH2 0x693 PUSH2 0x35E JUMP JUMPDEST SWAP1 POP PUSH1 0x1 SLOAD DUP2 GT PUSH2 0x6A6 JUMPI PUSH1 0x0 SWAP2 POP POP SWAP1 JUMP JUMPDEST PUSH1 0x1 SLOAD PUSH2 0x45D SWAP1 DUP3 PUSH2 0x99A JUMP JUMPDEST PUSH1 0x0 DUP1 PUSH1 0x0 DUP1 PUSH1 0x0 DUP1 PUSH1 0x0 DUP1 PUSH1 0x0 DUP1 PUSH1 0x0 PUSH2 0x6CC PUSH2 0x35E JUMP JUMPDEST SWAP1 POP PUSH1 0x0 PUSH1 0x1 SLOAD DUP3 GT PUSH2 0x6E0 JUMPI PUSH1 0x0 PUSH2 0x6ED JUMP JUMPDEST PUSH1 0x1 SLOAD PUSH2 0x6ED SWAP1 DUP4 PUSH2 0x99A JUMP JUMPDEST SWAP1 POP PUSH32 0x0 PUSH32 0x0 DUP4 PUSH1 0x1 SLOAD DUP5 DUP7 PUSH32 0x0 PUSH2 0x762 SWAP2 SWAP1 PUSH2 0x99A JUMP JUMPDEST PUSH32 0x0 PUSH32 0x0 PUSH32 0x0 PUSH1 0x0 PUSH32 0x0 GT PUSH2 0x7F4 JUMPI PUSH1 0x0 PUSH2 0x82B JUMP JUMPDEST PUSH32 0x0 PUSH2 0x821 DUP13 PUSH2 0x2710 PUSH2 0x95B JUMP JUMPDEST PUSH2 0x82B SWAP2 SWAP1 PUSH2 0x978 JUMP JUMPDEST SWAP12 POP SWAP12 POP SWAP12 POP SWAP12 POP SWAP12 POP SWAP12 POP SWAP12 POP SWAP12 POP SWAP12 POP SWAP12 POP POP POP SWAP1 SWAP2 SWAP3 SWAP4 SWAP5 SWAP6 SWAP7 SWAP8 SWAP9 SWAP10 JUMP JUMPDEST PUSH1 0x2 PUSH1 0x0 SLOAD SUB PUSH2 0x870 JUMPI PUSH1 0x40 MLOAD PUSH4 0x3EE5AEB5 PUSH1 0xE0 SHL DUP2 MSTORE PUSH1 0x4 ADD PUSH1 0x40 MLOAD DUP1 SWAP2 SUB SWAP1 REVERT JUMPDEST PUSH1 0x2 PUSH1 0x0 SSTORE JUMP JUMPDEST PUSH1 0x40 DUP1 MLOAD PUSH1 0x1 PUSH1 0x1 PUSH1 0xA0 SHL SUB DUP5 AND PUSH1 0x24 DUP3 ADD MSTORE PUSH1 0x44 DUP1 DUP3 ADD DUP5 SWAP1 MSTORE DUP3 MLOAD DUP1 DUP4 SUB SWAP1 SWAP2 ADD DUP2 MSTORE PUSH1 0x64 SWAP1 SWAP2 ADD SWAP1 SWAP2 MSTORE PUSH1 0x20 DUP2 ADD DUP1 MLOAD PUSH1 0x1 PUSH1 0x1 PUSH1 0xE0 SHL SUB AND PUSH4 0xA9059CBB PUSH1 0xE0 SHL OR SWAP1 MSTORE PUSH2 0x8C9 SWAP1 DUP5 SWAP1 PUSH2 0x8CE JUMP JUMPDEST POP POP POP JUMP JUMPDEST PUSH1 0x0 DUP1 PUSH1 0x20 PUSH1 0x0 DUP5 MLOAD PUSH1 0x20 DUP7 ADD PUSH1 0x0 DUP9 GAS CALL DUP1 PUSH2 0x8F1 JUMPI PUSH1 0x40 MLOAD RETURNDATASIZE PUSH1 0x0 DUP3 RETURNDATACOPY RETURNDATASIZE DUP2 REVERT JUMPDEST POP POP PUSH1 0x0 MLOAD RETURNDATASIZE SWAP2 POP DUP2 ISZERO PUSH2 0x909 JUMPI DUP1 PUSH1 0x1 EQ ISZERO PUSH2 0x916 JUMP JUMPDEST PUSH1 0x1 PUSH1 0x1 PUSH1 0xA0 SHL SUB DUP5 AND EXTCODESIZE ISZERO JUMPDEST ISZERO PUSH2 0x93F JUMPI PUSH1 0x40 MLOAD PUSH4 0x5274AFE7 PUSH1 0xE0 SHL DUP2 MSTORE PUSH1 0x1 PUSH1 0x1 PUSH1 0xA0 SHL SUB DUP6 AND PUSH1 0x4 DUP3 ADD MSTORE PUSH1 0x24 ADD PUSH2 0x4D3 JUMP JUMPDEST POP POP POP POP JUMP JUMPDEST PUSH4 0x4E487B71 PUSH1 0xE0 SHL PUSH1 0x0 MSTORE PUSH1 0x11 PUSH1 0x4 MSTORE PUSH1 0x24 PUSH1 0x0 REVERT JUMPDEST DUP1 DUP3 MUL DUP2 ISZERO DUP3 DUP3 DIV DUP5 EQ OR PUSH2 0x972 JUMPI PUSH2 0x972 PUSH2 0x945 JUMP JUMPDEST SWAP3 SWAP2 POP POP JUMP JUMPDEST PUSH1 0x0 DUP3 PUSH2 0x995 JUMPI PUSH4 0x4E487B71 PUSH1 0xE0 SHL PUSH1 0x0 MSTORE PUSH1 0x12 PUSH1 0x4 MSTORE PUSH1 0x24 PUSH1 0x0 REVERT JUMPDEST POP DIV SWAP1 JUMP JUMPDEST DUP2 DUP2 SUB DUP2 DUP2 GT ISZERO PUSH2 0x972 JUMPI PUSH2 0x972 PUSH2 0x945 JUMP JUMPDEST DUP1 DUP3 ADD DUP1 DUP3 GT ISZERO PUSH2 0x972 JUMPI PUSH2 0x972 PUSH2 0x945 JUMP INVALID LOG2 PUSH5 0x6970667358 0x22 SLT KECCAK256 PUSH27 0x3E3252ECA53179D8555C9CC8D57F83F5967DAC4EB436A2C80F361C 0xC9 CALLCODE SWAP6 PUSH20 0x64736F6C63430008140033000000000000000000 "},"methodIdentifiers":{"beneficiary()":"38af3eed","claim()":"4e71d92d","claimableAmount()":"a556f846","cliffDuration()":"d85349f7","cliffEnd()":"9130297b","getVestingInfo()":"dc25a300","lockedAmount()":"6ab28bc8","startTimestamp()":"e6fd48bc","token()":"fc0c546a","totalAllocation()":"79203dc4","totalClaimed()":"d54ad2a1","vestedAmount()":"44b1231f","vestedPercentBps()":"0e3b6d8a","vestingDuration()":"1514617e","vestingEnd()":"84a1931f"}}}}}