{"contracts/SAFEStaking.sol":{"SAFEStaking":{"abi":[{"inputs":[{"internalType":"address","name":"_safeToken","type":"address"},{"internalType":"address","name":"_rewardToken","type":"address"}],"stateMutability":"nonpayable","type":"constructor"},{"inputs":[{"internalType":"address","name":"owner","type":"address"}],"name":"OwnableInvalidOwner","type":"error"},{"inputs":[{"internalType":"address","name":"account","type":"address"}],"name":"OwnableUnauthorizedAccount","type":"error"},{"inputs":[],"name":"ReentrancyGuardReentrantCall","type":"error"},{"inputs":[{"internalType":"address","name":"token","type":"address"}],"name":"SafeERC20FailedOperation","type":"error"},{"anonymous":false,"inputs":[{"indexed":true,"internalType":"address","name":"previousOwner","type":"address"},{"indexed":true,"internalType":"address","name":"newOwner","type":"address"}],"name":"OwnershipTransferred","type":"event"},{"anonymous":false,"inputs":[{"indexed":false,"internalType":"uint256","name":"usdcAmount","type":"uint256"},{"indexed":false,"internalType":"uint256","name":"totalStaked","type":"uint256"},{"indexed":false,"internalType":"uint256","name":"rewardPerShare","type":"uint256"}],"name":"RevenueDeposited","type":"event"},{"anonymous":false,"inputs":[{"indexed":true,"internalType":"address","name":"user","type":"address"},{"indexed":false,"internalType":"uint256","name":"usdcAmount","type":"uint256"}],"name":"RewardsClaimed","type":"event"},{"anonymous":false,"inputs":[{"indexed":true,"internalType":"address","name":"user","type":"address"},{"indexed":false,"internalType":"uint256","name":"amount","type":"uint256"},{"indexed":false,"internalType":"uint256","name":"totalUserStaked","type":"uint256"}],"name":"Staked","type":"event"},{"anonymous":false,"inputs":[{"indexed":true,"internalType":"address","name":"user","type":"address"},{"indexed":false,"internalType":"uint8","name":"newTier","type":"uint8"}],"name":"TierChanged","type":"event"},{"anonymous":false,"inputs":[{"indexed":true,"internalType":"address","name":"user","type":"address"},{"indexed":false,"internalType":"uint256","name":"amount","type":"uint256"},{"indexed":false,"internalType":"uint256","name":"unlockTime","type":"uint256"}],"name":"UnstakeRequested","type":"event"},{"anonymous":false,"inputs":[{"indexed":true,"internalType":"address","name":"user","type":"address"},{"indexed":false,"internalType":"uint256","name":"amount","type":"uint256"}],"name":"Withdrawn","type":"event"},{"inputs":[],"name":"BRONZE_THRESHOLD","outputs":[{"internalType":"uint256","name":"","type":"uint256"}],"stateMutability":"view","type":"function"},{"inputs":[],"name":"DIAMOND_THRESHOLD","outputs":[{"internalType":"uint256","name":"","type":"uint256"}],"stateMutability":"view","type":"function"},{"inputs":[],"name":"GOLD_THRESHOLD","outputs":[{"internalType":"uint256","name":"","type":"uint256"}],"stateMutability":"view","type":"function"},{"inputs":[],"name":"MIN_STAKE","outputs":[{"internalType":"uint256","name":"","type":"uint256"}],"stateMutability":"view","type":"function"},{"inputs":[],"name":"PLATINUM_THRESHOLD","outputs":[{"internalType":"uint256","name":"","type":"uint256"}],"stateMutability":"view","type":"function"},{"inputs":[],"name":"SILVER_THRESHOLD","outputs":[{"internalType":"uint256","name":"","type":"uint256"}],"stateMutability":"view","type":"function"},{"inputs":[],"name":"UNSTAKE_COOLDOWN","outputs":[{"internalType":"uint256","name":"","type":"uint256"}],"stateMutability":"view","type":"function"},{"inputs":[],"name":"accRewardPerShare","outputs":[{"internalType":"uint256","name":"","type":"uint256"}],"stateMutability":"view","type":"function"},{"inputs":[],"name":"claimRewards","outputs":[],"stateMutability":"nonpayable","type":"function"},{"inputs":[{"internalType":"uint256","name":"usdcAmount","type":"uint256"}],"name":"depositRevenue","outputs":[],"stateMutability":"nonpayable","type":"function"},{"inputs":[{"internalType":"uint256","name":"stakeAmount","type":"uint256"}],"name":"estimatedAnnualYield","outputs":[{"internalType":"uint256","name":"","type":"uint256"}],"stateMutability":"view","type":"function"},{"inputs":[],"name":"getRevenueHistoryCount","outputs":[{"internalType":"uint256","name":"","type":"uint256"}],"stateMutability":"view","type":"function"},{"inputs":[{"internalType":"address","name":"user","type":"address"}],"name":"getTier","outputs":[{"internalType":"uint8","name":"","type":"uint8"}],"stateMutability":"view","type":"function"},{"inputs":[{"internalType":"address","name":"user","type":"address"}],"name":"getUnstakeRequests","outputs":[{"components":[{"internalType":"uint256","name":"amount","type":"uint256"},{"internalType":"uint256","name":"unlockTime","type":"uint256"}],"internalType":"struct SAFEStaking.UnstakeRequest[]","name":"","type":"tuple[]"}],"stateMutability":"view","type":"function"},{"inputs":[{"internalType":"address","name":"user","type":"address"}],"name":"getUserStakes","outputs":[{"components":[{"internalType":"uint256","name":"amount","type":"uint256"},{"internalType":"uint256","name":"stakedAt","type":"uint256"},{"internalType":"uint256","name":"rewardDebt","type":"uint256"}],"internalType":"struct SAFEStaking.StakeInfo[]","name":"","type":"tuple[]"}],"stateMutability":"view","type":"function"},{"inputs":[{"internalType":"address","name":"user","type":"address"}],"name":"getUserSummary","outputs":[{"internalType":"uint256","name":"stakedAmount","type":"uint256"},{"internalType":"uint8","name":"tier","type":"uint8"},{"internalType":"uint256","name":"pendingUsdc","type":"uint256"},{"internalType":"uint256","name":"totalClaimedUsdc","type":"uint256"}],"stateMutability":"view","type":"function"},{"inputs":[],"name":"owner","outputs":[{"internalType":"address","name":"","type":"address"}],"stateMutability":"view","type":"function"},{"inputs":[{"internalType":"address","name":"user","type":"address"}],"name":"pendingRewards","outputs":[{"internalType":"uint256","name":"","type":"uint256"}],"stateMutability":"view","type":"function"},{"inputs":[],"name":"renounceOwnership","outputs":[],"stateMutability":"nonpayable","type":"function"},{"inputs":[{"internalType":"uint256","name":"stakeIndex","type":"uint256"}],"name":"requestUnstake","outputs":[],"stateMutability":"nonpayable","type":"function"},{"inputs":[{"internalType":"uint256","name":"","type":"uint256"}],"name":"revenueHistory","outputs":[{"internalType":"uint256","name":"usdcAmount","type":"uint256"},{"internalType":"uint256","name":"totalStaked","type":"uint256"},{"internalType":"uint256","name":"timestamp","type":"uint256"}],"stateMutability":"view","type":"function"},{"inputs":[],"name":"rewardToken","outputs":[{"internalType":"contract IERC20","name":"","type":"address"}],"stateMutability":"view","type":"function"},{"inputs":[],"name":"safeToken","outputs":[{"internalType":"contract IERC20","name":"","type":"address"}],"stateMutability":"view","type":"function"},{"inputs":[{"internalType":"uint256","name":"amount","type":"uint256"}],"name":"stake","outputs":[],"stateMutability":"nonpayable","type":"function"},{"inputs":[],"name":"totalRewardsDistributed","outputs":[{"internalType":"uint256","name":"","type":"uint256"}],"stateMutability":"view","type":"function"},{"inputs":[],"name":"totalStaked","outputs":[{"internalType":"uint256","name":"","type":"uint256"}],"stateMutability":"view","type":"function"},{"inputs":[{"internalType":"address","name":"","type":"address"}],"name":"totalStakedByUser","outputs":[{"internalType":"uint256","name":"","type":"uint256"}],"stateMutability":"view","type":"function"},{"inputs":[],"name":"totalStakers","outputs":[{"internalType":"uint256","name":"","type":"uint256"}],"stateMutability":"view","type":"function"},{"inputs":[{"internalType":"address","name":"newOwner","type":"address"}],"name":"transferOwnership","outputs":[],"stateMutability":"nonpayable","type":"function"},{"inputs":[{"internalType":"address","name":"","type":"address"},{"internalType":"uint256","name":"","type":"uint256"}],"name":"unstakeRequests","outputs":[{"internalType":"uint256","name":"amount","type":"uint256"},{"internalType":"uint256","name":"unlockTime","type":"uint256"}],"stateMutability":"view","type":"function"},{"inputs":[{"internalType":"address","name":"","type":"address"}],"name":"userClaimedRewards","outputs":[{"internalType":"uint256","name":"","type":"uint256"}],"stateMutability":"view","type":"function"},{"inputs":[{"internalType":"address","name":"","type":"address"}],"name":"userRewardDebt","outputs":[{"internalType":"uint256","name":"","type":"uint256"}],"stateMutability":"view","type":"function"},{"inputs":[{"internalType":"address","name":"","type":"address"},{"internalType":"uint256","name":"","type":"uint256"}],"name":"userStakes","outputs":[{"internalType":"uint256","name":"amount","type":"uint256"},{"internalType":"uint256","name":"stakedAt","type":"uint256"},{"internalType":"uint256","name":"rewardDebt","type":"uint256"}],"stateMutability":"view","type":"function"},{"inputs":[],"name":"withdraw","outputs":[],"stateMutability":"nonpayable","type":"function"}],"evm":{"bytecode":{"linkReferences":{},"object":"60c06040523480156200001157600080fd5b506040516200195438038062001954833981016040819052620000349162000196565b33806200005c57604051631e4fbdf760e01b8152600060048201526024015b60405180910390fd5b620000678162000129565b50600180556001600160a01b038216620000b95760405162461bcd60e51b815260206004820152601260248201527124b73b30b634b21029a0a322903a37b5b2b760711b604482015260640162000053565b6001600160a01b038116620001115760405162461bcd60e51b815260206004820152601460248201527f496e76616c69642072657761726420746f6b656e000000000000000000000000604482015260640162000053565b6001600160a01b039182166080521660a052620001ce565b600080546001600160a01b038381166001600160a01b0319831681178455604051919092169283917f8be0079c531659141344cd1fd0a4f28419497f9722a3daafe3b4186f6b6457e09190a35050565b80516001600160a01b03811681146200019157600080fd5b919050565b60008060408385031215620001aa57600080fd5b620001b58362000179565b9150620001c56020840162000179565b90509250929050565b60805160a05161173d62000217600039600081816104e8015281816108b70152818161110f015261132a0152600081816102b501528181610a590152610de5015261173d6000f3fe608060405234801561001057600080fd5b50600436106102055760003560e01c8063842e29811161011a578063b5d5b5fa116100ad578063cb1c2b5c1161007c578063cb1c2b5c14610388578063d5362824146104bf578063ee172546146104c7578063f2fde38b146104d0578063f7c618c1146104e357600080fd5b8063b5d5b5fa14610479578063bc1ca3e91461048c578063c1a0db301461049f578063caaffae9146104af57600080fd5b806391174e41116100e957806391174e4114610418578063939d623714610438578063a694fc3a14610441578063b45aae521461045457600080fd5b8063842e2981146103a957806386989038146103c95780638da5cb5b146103d25780638fbd0c2d146103e357600080fd5b80634b3fd05a1161019d578063569739741161016c578063569739741461035057806366442a061461036057806369a2f02614610388578063715018a614610398578063817b1cd2146103a057600080fd5b80634b3fd05a146102b05780634bf6f9e7146102ef5780634d0772e51461030f57806355739d261461033d57600080fd5b806331d7a262116101d957806331d7a2621461026d578063372500ab146102805780633ccfd60b14610288578063489aa0331461029057600080fd5b8062f1197c1461020a5780630b60c58f1461023d5780630b8df9f1146102475780632309572114610258575b600080fd5b61022a610218366004611546565b60096020526000908152604090205481565b6040519081526020015b60405180910390f35b61022a62093a8081565b61022a69010f0cf064dd5920000081565b61026b610266366004611568565b61050a565b005b61022a61027b366004611546565b610753565b61026b6107f5565b61026b61091f565b61022a61029e366004611546565b60046020526000908152604090205481565b6102d77f000000000000000000000000000000000000000000000000000000000000000081565b6040516001600160a01b039091168152602001610234565b61022a6102fd366004611546565b600a6020526000908152604090205481565b61032261031d366004611568565b610aec565b60408051938452602084019290925290820152606001610234565b61022a61034b366004611568565b610b1f565b61022a683635c9adc5dea0000081565b61037361036e366004611581565b610bbf565b60408051928352602083019190915201610234565b61022a68056bc75e2d6310000081565b61026b610bfb565b61022a60055481565b6103bc6103b7366004611546565b610c0d565b60405161023491906115ab565b61022a60065481565b6000546001600160a01b03166102d7565b6103f66103f1366004611546565b610ca0565b6040805194855260ff9093166020850152918301526060820152608001610234565b61042b610426366004611546565b610cfa565b6040516102349190611604565b61022a60075481565b61026b61044f366004611568565b610d78565b610467610462366004611546565b610f9b565b60405160ff9091168152602001610234565b610322610487366004611581565b61103b565b61026b61049a366004611568565b61107d565b61022a681b1ae4d6e2ef50000081565b61022a68878678326eac90000081565b600b5461022a565b61022a60085481565b61026b6104de366004611546565b611277565b6102d77f000000000000000000000000000000000000000000000000000000000000000081565b6105126112b2565b33600090815260026020526040902054811061056b5760405162461bcd60e51b8152602060048201526013602482015272092dcecc2d8d2c840e6e8c2d6ca40d2dcc8caf606b1b60448201526064015b60405180910390fd5b610574336112dc565b33600090815260026020526040812080548390811061059557610595611646565b9060005260206000209060030201905060008160000154116105ee5760405162461bcd60e51b81526020600482015260126024820152714e6f7468696e6720746f20756e7374616b6560701b6044820152606401610562565b805460006105ff62093a8042611672565b336000818152600360209081526040808320815180830183528881528084018781528254600181810185559387528587209251600290910290920191825551910155828855928252600490529081208054929350849290919061066390849061168b565b92505081905550816005600082825461067c919061168b565b909155505060075433600090815260046020526040902054670de0b6b3a7640000916106a79161169e565b6106b191906116b5565b336000818152600a60205260408120929092556106cd90610f9b565b60405160ff8216815290915033907f3c109e259b6cd4a1c6eaf6464d2874a6760b328c94829cfbc5733d97341acfda9060200160405180910390a2604080518481526020810184905233917f57e41df54512c76148b5ba9b643d149752b0d35e493b969bd017d0a3fe5228cf910160405180910390a25050505061075060018055565b50565b6001600160a01b038116600090815260046020526040812054810361077a57506000919050565b6007546001600160a01b0383166000908152600460205260408120549091670de0b6b3a7640000916107ac919061169e565b6107b691906116b5565b6001600160a01b0384166000908152600a60205260409020549091508082116107e3575060009392505050565b6107ed818361168b565b949350505050565b6107fd6112b2565b600061080833610753565b9050600081116108475760405162461bcd60e51b815260206004820152600a6024820152694e6f207265776172647360b01b6044820152606401610562565b60075433600090815260046020526040902054670de0b6b3a76400009161086d9161169e565b61087791906116b5565b336000908152600a60209081526040808320939093556009905290812080548392906108a4908490611672565b909155506108de90506001600160a01b037f0000000000000000000000000000000000000000000000000000000000000000163383611399565b60405181815233907ffc30cddea38e2bf4d6ea7d3f9ed3b6ad7f176419f4963bd81318067a4aee73fe9060200160405180910390a25061091d60018055565b565b6109276112b2565b336000908152600360205260408120815b8154811015610a05574282828154811061095457610954611646565b906000526020600020906002020160010154111580156109975750600082828154811061098357610983611646565b906000526020600020906002020160000154115b156109f3578181815481106109ae576109ae611646565b906000526020600020906002020160000154836109cb9190611672565b925060008282815481106109e1576109e1611646565b60009182526020909120600290910201555b806109fd816116d7565b915050610938565b5060008211610a4c5760405162461bcd60e51b81526020600482015260136024820152724e6f7468696e6720746f20776974686472617760681b6044820152606401610562565b610a806001600160a01b037f0000000000000000000000000000000000000000000000000000000000000000163384611399565b336000908152600460205260408120549003610aac5760068054906000610aa6836116f0565b91905055505b60405182815233907f7084f5476618d8e60b11ef0d7d3f06914655adb8793e28ff7f018d4c76d505d59060200160405180910390a2505061091d60018055565b600b8181548110610afc57600080fd5b600091825260209091206003909102018054600182015460029092015490925083565b600b546000901580610b315750600554155b15610b3e57506000919050565b600b805460009190610b529060019061168b565b81548110610b6257610b62611646565b6000918252602080832060408051606081018252600390940290910180548085526001820154938501939093526002015490830152909250610ba590600c61169e565b600554909150610bb5858361169e565b6107ed91906116b5565b60036020528160005260406000208181548110610bdb57600080fd5b600091825260209091206002909102018054600190910154909250905082565b610c036113fd565b61091d600061142a565b6001600160a01b0381166000908152600260209081526040808320805482518185028101850190935280835260609492939192909184015b82821015610c955783829060005260206000209060030201604051806060016040529081600082015481526020016001820154815260200160028201548152505081526020019060010190610c45565b505050509050919050565b6001600160a01b038116600090815260046020526040812054819081908190610cc886610f9b565b610cd187610753565b6001600160a01b0397909716600090815260096020526040902054919790969550909350915050565b6001600160a01b0381166000908152600360209081526040808320805482518185028101850190935280835260609492939192909184015b82821015610c9557838290600052602060002090600202016040518060400160405290816000820154815260200160018201548152505081526020019060010190610d32565b610d806112b2565b68056bc75e2d63100000811015610dcf5760405162461bcd60e51b815260206004820152601360248201527242656c6f77206d696e696d756d207374616b6560681b6044820152606401610562565b610dd8336112dc565b610e0d6001600160a01b037f00000000000000000000000000000000000000000000000000000000000000001633308461147a565b3360008181526004602081815260408084208054600280855283872084516060810186528a815242818801908152958101898152825460018181018555938b52888b20925160039091029092019182559551918101919091559351930192909255948452919052825490159284929091610e88908490611672565b925050819055508160056000828254610ea19190611672565b909155505060075433600090815260046020526040902054670de0b6b3a764000091610ecc9161169e565b610ed691906116b5565b336000908152600a60205260409020558015610f025760068054906000610efc836116d7565b91905055505b6000610f0d33610f9b565b60405160ff8216815290915033907f3c109e259b6cd4a1c6eaf6464d2874a6760b328c94829cfbc5733d97341acfda9060200160405180910390a233600081815260046020908152604091829020548251878152918201527f1449c6dd7851abc30abf37f57715f492010519147cc2652fbc38202c18a6ee90910160405180910390a2505061075060018055565b6001600160a01b03811660009081526004602052604081205469010f0cf064dd592000008110610fce5750600592915050565b68878678326eac9000008110610fe75750600492915050565b683635c9adc5dea0000081106110005750600392915050565b681b1ae4d6e2ef50000081106110195750600292915050565b68056bc75e2d6310000081106110325750600192915050565b50600092915050565b6002602052816000526040600020818154811061105757600080fd5b600091825260209091206003909102018054600182015460029092015490935090915083565b6110856113fd565b600081116110c35760405162461bcd60e51b815260206004820152600b60248201526a16995c9bc8185b5bdd5b9d60aa1b6044820152606401610562565b6000600554116111025760405162461bcd60e51b815260206004820152600a6024820152694e6f207374616b65727360b01b6044820152606401610562565b6111376001600160a01b037f00000000000000000000000000000000000000000000000000000000000000001633308461147a565b60055461114c82670de0b6b3a764000061169e565b61115691906116b5565b600760008282546111679190611672565b9250508190555080600860008282546111809190611672565b9091555050604080516060808201835283825260058054602080850191825242858701908152600b805460018101825560009190915295517f0175b7a638427703f0dbe7bb9bbf987a2551717b34e79f33b5b1008d1fa01db960039097029687015591517f0175b7a638427703f0dbe7bb9bbf987a2551717b34e79f33b5b1008d1fa01dba86015590517f0175b7a638427703f0dbe7bb9bbf987a2551717b34e79f33b5b1008d1fa01dbb9094019390935554600754845186815293840191909152928201929092527f271447a7fc6bd5726818ce06a9d9ffdecd61963481f678d3903cc5bacc523c86910160405180910390a150565b61127f6113fd565b6001600160a01b0381166112a957604051631e4fbdf760e01b815260006004820152602401610562565b6107508161142a565b6002600154036112d557604051633ee5aeb560e01b815260040160405180910390fd5b6002600155565b60006112e782610753565b90508015611395576001600160a01b03821660009081526009602052604081208054839290611317908490611672565b9091555061135190506001600160a01b037f0000000000000000000000000000000000000000000000000000000000000000168383611399565b816001600160a01b03167ffc30cddea38e2bf4d6ea7d3f9ed3b6ad7f176419f4963bd81318067a4aee73fe8260405161138c91815260200190565b60405180910390a25b5050565b6040516001600160a01b038381166024830152604482018390526113f891859182169063a9059cbb906064015b604051602081830303815290604052915060e01b6020820180516001600160e01b0383818316178352505050506114b9565b505050565b6000546001600160a01b0316331461091d5760405163118cdaa760e01b8152336004820152602401610562565b600080546001600160a01b038381166001600160a01b0319831681178455604051919092169283917f8be0079c531659141344cd1fd0a4f28419497f9722a3daafe3b4186f6b6457e09190a35050565b6040516001600160a01b0384811660248301528381166044830152606482018390526114b39186918216906323b872dd906084016113c6565b50505050565b600080602060008451602086016000885af1806114dc576040513d6000823e3d81fd5b50506000513d915081156114f4578060011415611501565b6001600160a01b0384163b155b156114b357604051635274afe760e01b81526001600160a01b0385166004820152602401610562565b80356001600160a01b038116811461154157600080fd5b919050565b60006020828403121561155857600080fd5b6115618261152a565b9392505050565b60006020828403121561157a57600080fd5b5035919050565b6000806040838503121561159457600080fd5b61159d8361152a565b946020939093013593505050565b602080825282518282018190526000919060409081850190868401855b828110156115f757815180518552868101518786015285015185850152606090930192908501906001016115c8565b5091979650505050505050565b602080825282518282018190526000919060409081850190868401855b828110156115f757815180518552860151868501529284019290850190600101611621565b634e487b7160e01b600052603260045260246000fd5b634e487b7160e01b600052601160045260246000fd5b808201808211156116855761168561165c565b92915050565b818103818111156116855761168561165c565b80820281158282048414176116855761168561165c565b6000826116d257634e487b7160e01b600052601260045260246000fd5b500490565b6000600182016116e9576116e961165c565b5060010190565b6000816116ff576116ff61165c565b50600019019056fea264697066735822122035415e376b230f341dd35f8195d3d36537ffee47e0f66f8cc8cda587e742d36c64736f6c63430008140033","opcodes":"PUSH1 0xC0 PUSH1 0x40 MSTORE CALLVALUE DUP1 ISZERO PUSH3 0x11 JUMPI PUSH1 0x0 DUP1 REVERT JUMPDEST POP PUSH1 0x40 MLOAD PUSH3 0x1954 CODESIZE SUB DUP1 PUSH3 0x1954 DUP4 CODECOPY DUP2 ADD PUSH1 0x40 DUP2 SWAP1 MSTORE PUSH3 0x34 SWAP2 PUSH3 0x196 JUMP JUMPDEST CALLER DUP1 PUSH3 0x5C JUMPI PUSH1 0x40 MLOAD PUSH4 0x1E4FBDF7 PUSH1 0xE0 SHL DUP2 MSTORE PUSH1 0x0 PUSH1 0x4 DUP3 ADD MSTORE PUSH1 0x24 ADD JUMPDEST PUSH1 0x40 MLOAD DUP1 SWAP2 SUB SWAP1 REVERT JUMPDEST PUSH3 0x67 DUP2 PUSH3 0x129 JUMP JUMPDEST POP PUSH1 0x1 DUP1 SSTORE PUSH1 0x1 PUSH1 0x1 PUSH1 0xA0 SHL SUB DUP3 AND PUSH3 0xB9 JUMPI PUSH1 0x40 MLOAD PUSH3 0x461BCD PUSH1 0xE5 SHL DUP2 MSTORE PUSH1 0x20 PUSH1 0x4 DUP3 ADD MSTORE PUSH1 0x12 PUSH1 0x24 DUP3 ADD MSTORE PUSH18 0x24B73B30B634B21029A0A322903A37B5B2B7 PUSH1 0x71 SHL PUSH1 0x44 DUP3 ADD MSTORE PUSH1 0x64 ADD PUSH3 0x53 JUMP JUMPDEST PUSH1 0x1 PUSH1 0x1 PUSH1 0xA0 SHL SUB DUP2 AND PUSH3 0x111 JUMPI PUSH1 0x40 MLOAD PUSH3 0x461BCD PUSH1 0xE5 SHL DUP2 MSTORE PUSH1 0x20 PUSH1 0x4 DUP3 ADD MSTORE PUSH1 0x14 PUSH1 0x24 DUP3 ADD MSTORE PUSH32 0x496E76616C69642072657761726420746F6B656E000000000000000000000000 PUSH1 0x44 DUP3 ADD MSTORE PUSH1 0x64 ADD PUSH3 0x53 JUMP JUMPDEST PUSH1 0x1 PUSH1 0x1 PUSH1 0xA0 SHL SUB SWAP2 DUP3 AND PUSH1 0x80 MSTORE AND PUSH1 0xA0 MSTORE PUSH3 0x1CE JUMP JUMPDEST PUSH1 0x0 DUP1 SLOAD PUSH1 0x1 PUSH1 0x1 PUSH1 0xA0 SHL SUB DUP4 DUP2 AND PUSH1 0x1 PUSH1 0x1 PUSH1 0xA0 SHL SUB NOT DUP4 AND DUP2 OR DUP5 SSTORE PUSH1 0x40 MLOAD SWAP2 SWAP1 SWAP3 AND SWAP3 DUP4 SWAP2 PUSH32 0x8BE0079C531659141344CD1FD0A4F28419497F9722A3DAAFE3B4186F6B6457E0 SWAP2 SWAP1 LOG3 POP POP JUMP JUMPDEST DUP1 MLOAD PUSH1 0x1 PUSH1 0x1 PUSH1 0xA0 SHL SUB DUP2 AND DUP2 EQ PUSH3 0x191 JUMPI PUSH1 0x0 DUP1 REVERT JUMPDEST SWAP2 SWAP1 POP JUMP JUMPDEST PUSH1 0x0 DUP1 PUSH1 0x40 DUP4 DUP6 SUB SLT ISZERO PUSH3 0x1AA JUMPI PUSH1 0x0 DUP1 REVERT JUMPDEST PUSH3 0x1B5 DUP4 PUSH3 0x179 JUMP JUMPDEST SWAP2 POP PUSH3 0x1C5 PUSH1 0x20 DUP5 ADD PUSH3 0x179 JUMP JUMPDEST SWAP1 POP SWAP3 POP SWAP3 SWAP1 POP JUMP JUMPDEST PUSH1 0x80 MLOAD PUSH1 0xA0 MLOAD PUSH2 0x173D PUSH3 0x217 PUSH1 0x0 CODECOPY PUSH1 0x0 DUP2 DUP2 PUSH2 0x4E8 ADD MSTORE DUP2 DUP2 PUSH2 0x8B7 ADD MSTORE DUP2 DUP2 PUSH2 0x110F ADD MSTORE PUSH2 0x132A ADD MSTORE PUSH1 0x0 DUP2 DUP2 PUSH2 0x2B5 ADD MSTORE DUP2 DUP2 PUSH2 0xA59 ADD MSTORE PUSH2 0xDE5 ADD MSTORE PUSH2 0x173D PUSH1 0x0 RETURN INVALID PUSH1 0x80 PUSH1 0x40 MSTORE CALLVALUE DUP1 ISZERO PUSH2 0x10 JUMPI PUSH1 0x0 DUP1 REVERT JUMPDEST POP PUSH1 0x4 CALLDATASIZE LT PUSH2 0x205 JUMPI PUSH1 0x0 CALLDATALOAD PUSH1 0xE0 SHR DUP1 PUSH4 0x842E2981 GT PUSH2 0x11A JUMPI DUP1 PUSH4 0xB5D5B5FA GT PUSH2 0xAD JUMPI DUP1 PUSH4 0xCB1C2B5C GT PUSH2 0x7C JUMPI DUP1 PUSH4 0xCB1C2B5C EQ PUSH2 0x388 JUMPI DUP1 PUSH4 0xD5362824 EQ PUSH2 0x4BF JUMPI DUP1 PUSH4 0xEE172546 EQ PUSH2 0x4C7 JUMPI DUP1 PUSH4 0xF2FDE38B EQ PUSH2 0x4D0 JUMPI DUP1 PUSH4 0xF7C618C1 EQ PUSH2 0x4E3 JUMPI PUSH1 0x0 DUP1 REVERT JUMPDEST DUP1 PUSH4 0xB5D5B5FA EQ PUSH2 0x479 JUMPI DUP1 PUSH4 0xBC1CA3E9 EQ PUSH2 0x48C JUMPI DUP1 PUSH4 0xC1A0DB30 EQ PUSH2 0x49F JUMPI DUP1 PUSH4 0xCAAFFAE9 EQ PUSH2 0x4AF JUMPI PUSH1 0x0 DUP1 REVERT JUMPDEST DUP1 PUSH4 0x91174E41 GT PUSH2 0xE9 JUMPI DUP1 PUSH4 0x91174E41 EQ PUSH2 0x418 JUMPI DUP1 PUSH4 0x939D6237 EQ PUSH2 0x438 JUMPI DUP1 PUSH4 0xA694FC3A EQ PUSH2 0x441 JUMPI DUP1 PUSH4 0xB45AAE52 EQ PUSH2 0x454 JUMPI PUSH1 0x0 DUP1 REVERT JUMPDEST DUP1 PUSH4 0x842E2981 EQ PUSH2 0x3A9 JUMPI DUP1 PUSH4 0x86989038 EQ PUSH2 0x3C9 JUMPI DUP1 PUSH4 0x8DA5CB5B EQ PUSH2 0x3D2 JUMPI DUP1 PUSH4 0x8FBD0C2D EQ PUSH2 0x3E3 JUMPI PUSH1 0x0 DUP1 REVERT JUMPDEST DUP1 PUSH4 0x4B3FD05A GT PUSH2 0x19D JUMPI DUP1 PUSH4 0x56973974 GT PUSH2 0x16C JUMPI DUP1 PUSH4 0x56973974 EQ PUSH2 0x350 JUMPI DUP1 PUSH4 0x66442A06 EQ PUSH2 0x360 JUMPI DUP1 PUSH4 0x69A2F026 EQ PUSH2 0x388 JUMPI DUP1 PUSH4 0x715018A6 EQ PUSH2 0x398 JUMPI DUP1 PUSH4 0x817B1CD2 EQ PUSH2 0x3A0 JUMPI PUSH1 0x0 DUP1 REVERT JUMPDEST DUP1 PUSH4 0x4B3FD05A EQ PUSH2 0x2B0 JUMPI DUP1 PUSH4 0x4BF6F9E7 EQ PUSH2 0x2EF JUMPI DUP1 PUSH4 0x4D0772E5 EQ PUSH2 0x30F JUMPI DUP1 PUSH4 0x55739D26 EQ PUSH2 0x33D JUMPI PUSH1 0x0 DUP1 REVERT JUMPDEST DUP1 PUSH4 0x31D7A262 GT PUSH2 0x1D9 JUMPI DUP1 PUSH4 0x31D7A262 EQ PUSH2 0x26D JUMPI DUP1 PUSH4 0x372500AB EQ PUSH2 0x280 JUMPI DUP1 PUSH4 0x3CCFD60B EQ PUSH2 0x288 JUMPI DUP1 PUSH4 0x489AA033 EQ PUSH2 0x290 JUMPI PUSH1 0x0 DUP1 REVERT JUMPDEST DUP1 PUSH3 0xF1197C EQ PUSH2 0x20A JUMPI DUP1 PUSH4 0xB60C58F EQ PUSH2 0x23D JUMPI DUP1 PUSH4 0xB8DF9F1 EQ PUSH2 0x247 JUMPI DUP1 PUSH4 0x23095721 EQ PUSH2 0x258 JUMPI JUMPDEST PUSH1 0x0 DUP1 REVERT JUMPDEST PUSH2 0x22A PUSH2 0x218 CALLDATASIZE PUSH1 0x4 PUSH2 0x1546 JUMP JUMPDEST PUSH1 0x9 PUSH1 0x20 MSTORE PUSH1 0x0 SWAP1 DUP2 MSTORE PUSH1 0x40 SWAP1 KECCAK256 SLOAD DUP2 JUMP JUMPDEST PUSH1 0x40 MLOAD SWAP1 DUP2 MSTORE PUSH1 0x20 ADD JUMPDEST PUSH1 0x40 MLOAD DUP1 SWAP2 SUB SWAP1 RETURN JUMPDEST PUSH2 0x22A PUSH3 0x93A80 DUP2 JUMP JUMPDEST PUSH2 0x22A PUSH10 0x10F0CF064DD59200000 DUP2 JUMP JUMPDEST PUSH2 0x26B PUSH2 0x266 CALLDATASIZE PUSH1 0x4 PUSH2 0x1568 JUMP JUMPDEST PUSH2 0x50A JUMP JUMPDEST STOP JUMPDEST PUSH2 0x22A PUSH2 0x27B CALLDATASIZE PUSH1 0x4 PUSH2 0x1546 JUMP JUMPDEST PUSH2 0x753 JUMP JUMPDEST PUSH2 0x26B PUSH2 0x7F5 JUMP JUMPDEST PUSH2 0x26B PUSH2 0x91F JUMP JUMPDEST PUSH2 0x22A PUSH2 0x29E CALLDATASIZE PUSH1 0x4 PUSH2 0x1546 JUMP JUMPDEST PUSH1 0x4 PUSH1 0x20 MSTORE PUSH1 0x0 SWAP1 DUP2 MSTORE PUSH1 0x40 SWAP1 KECCAK256 SLOAD DUP2 JUMP JUMPDEST PUSH2 0x2D7 PUSH32 0x0 DUP2 JUMP JUMPDEST PUSH1 0x40 MLOAD PUSH1 0x1 PUSH1 0x1 PUSH1 0xA0 SHL SUB SWAP1 SWAP2 AND DUP2 MSTORE PUSH1 0x20 ADD PUSH2 0x234 JUMP JUMPDEST PUSH2 0x22A PUSH2 0x2FD CALLDATASIZE PUSH1 0x4 PUSH2 0x1546 JUMP JUMPDEST PUSH1 0xA PUSH1 0x20 MSTORE PUSH1 0x0 SWAP1 DUP2 MSTORE PUSH1 0x40 SWAP1 KECCAK256 SLOAD DUP2 JUMP JUMPDEST PUSH2 0x322 PUSH2 0x31D CALLDATASIZE PUSH1 0x4 PUSH2 0x1568 JUMP JUMPDEST PUSH2 0xAEC JUMP JUMPDEST PUSH1 0x40 DUP1 MLOAD SWAP4 DUP5 MSTORE PUSH1 0x20 DUP5 ADD SWAP3 SWAP1 SWAP3 MSTORE SWAP1 DUP3 ADD MSTORE PUSH1 0x60 ADD PUSH2 0x234 JUMP JUMPDEST PUSH2 0x22A PUSH2 0x34B CALLDATASIZE PUSH1 0x4 PUSH2 0x1568 JUMP JUMPDEST PUSH2 0xB1F JUMP JUMPDEST PUSH2 0x22A PUSH9 0x3635C9ADC5DEA00000 DUP2 JUMP JUMPDEST PUSH2 0x373 PUSH2 0x36E CALLDATASIZE PUSH1 0x4 PUSH2 0x1581 JUMP JUMPDEST PUSH2 0xBBF JUMP JUMPDEST PUSH1 0x40 DUP1 MLOAD SWAP3 DUP4 MSTORE PUSH1 0x20 DUP4 ADD SWAP2 SWAP1 SWAP2 MSTORE ADD PUSH2 0x234 JUMP JUMPDEST PUSH2 0x22A PUSH9 0x56BC75E2D63100000 DUP2 JUMP JUMPDEST PUSH2 0x26B PUSH2 0xBFB JUMP JUMPDEST PUSH2 0x22A PUSH1 0x5 SLOAD DUP2 JUMP JUMPDEST PUSH2 0x3BC PUSH2 0x3B7 CALLDATASIZE PUSH1 0x4 PUSH2 0x1546 JUMP JUMPDEST PUSH2 0xC0D JUMP JUMPDEST PUSH1 0x40 MLOAD PUSH2 0x234 SWAP2 SWAP1 PUSH2 0x15AB JUMP JUMPDEST PUSH2 0x22A PUSH1 0x6 SLOAD DUP2 JUMP JUMPDEST PUSH1 0x0 SLOAD PUSH1 0x1 PUSH1 0x1 PUSH1 0xA0 SHL SUB AND PUSH2 0x2D7 JUMP JUMPDEST PUSH2 0x3F6 PUSH2 0x3F1 CALLDATASIZE PUSH1 0x4 PUSH2 0x1546 JUMP JUMPDEST PUSH2 0xCA0 JUMP JUMPDEST PUSH1 0x40 DUP1 MLOAD SWAP5 DUP6 MSTORE PUSH1 0xFF SWAP1 SWAP4 AND PUSH1 0x20 DUP6 ADD MSTORE SWAP2 DUP4 ADD MSTORE PUSH1 0x60 DUP3 ADD MSTORE PUSH1 0x80 ADD PUSH2 0x234 JUMP JUMPDEST PUSH2 0x42B PUSH2 0x426 CALLDATASIZE PUSH1 0x4 PUSH2 0x1546 JUMP JUMPDEST PUSH2 0xCFA JUMP JUMPDEST PUSH1 0x40 MLOAD PUSH2 0x234 SWAP2 SWAP1 PUSH2 0x1604 JUMP JUMPDEST PUSH2 0x22A PUSH1 0x7 SLOAD DUP2 JUMP JUMPDEST PUSH2 0x26B PUSH2 0x44F CALLDATASIZE PUSH1 0x4 PUSH2 0x1568 JUMP JUMPDEST PUSH2 0xD78 JUMP JUMPDEST PUSH2 0x467 PUSH2 0x462 CALLDATASIZE PUSH1 0x4 PUSH2 0x1546 JUMP JUMPDEST PUSH2 0xF9B JUMP JUMPDEST PUSH1 0x40 MLOAD PUSH1 0xFF SWAP1 SWAP2 AND DUP2 MSTORE PUSH1 0x20 ADD PUSH2 0x234 JUMP JUMPDEST PUSH2 0x322 PUSH2 0x487 CALLDATASIZE PUSH1 0x4 PUSH2 0x1581 JUMP JUMPDEST PUSH2 0x103B JUMP JUMPDEST PUSH2 0x26B PUSH2 0x49A CALLDATASIZE PUSH1 0x4 PUSH2 0x1568 JUMP JUMPDEST PUSH2 0x107D JUMP JUMPDEST PUSH2 0x22A PUSH9 0x1B1AE4D6E2EF500000 DUP2 JUMP JUMPDEST PUSH2 0x22A PUSH9 0x878678326EAC900000 DUP2 JUMP JUMPDEST PUSH1 0xB SLOAD PUSH2 0x22A JUMP JUMPDEST PUSH2 0x22A PUSH1 0x8 SLOAD DUP2 JUMP JUMPDEST PUSH2 0x26B PUSH2 0x4DE CALLDATASIZE PUSH1 0x4 PUSH2 0x1546 JUMP JUMPDEST PUSH2 0x1277 JUMP JUMPDEST PUSH2 0x2D7 PUSH32 0x0 DUP2 JUMP JUMPDEST PUSH2 0x512 PUSH2 0x12B2 JUMP JUMPDEST CALLER PUSH1 0x0 SWAP1 DUP2 MSTORE PUSH1 0x2 PUSH1 0x20 MSTORE PUSH1 0x40 SWAP1 KECCAK256 SLOAD DUP2 LT PUSH2 0x56B JUMPI PUSH1 0x40 MLOAD PUSH3 0x461BCD PUSH1 0xE5 SHL DUP2 MSTORE PUSH1 0x20 PUSH1 0x4 DUP3 ADD MSTORE PUSH1 0x13 PUSH1 0x24 DUP3 ADD MSTORE PUSH19 0x92DCECC2D8D2C840E6E8C2D6CA40D2DCC8CAF PUSH1 0x6B SHL PUSH1 0x44 DUP3 ADD MSTORE PUSH1 0x64 ADD JUMPDEST PUSH1 0x40 MLOAD DUP1 SWAP2 SUB SWAP1 REVERT JUMPDEST PUSH2 0x574 CALLER PUSH2 0x12DC JUMP JUMPDEST CALLER PUSH1 0x0 SWAP1 DUP2 MSTORE PUSH1 0x2 PUSH1 0x20 MSTORE PUSH1 0x40 DUP2 KECCAK256 DUP1 SLOAD DUP4 SWAP1 DUP2 LT PUSH2 0x595 JUMPI PUSH2 0x595 PUSH2 0x1646 JUMP JUMPDEST SWAP1 PUSH1 0x0 MSTORE PUSH1 0x20 PUSH1 0x0 KECCAK256 SWAP1 PUSH1 0x3 MUL ADD SWAP1 POP PUSH1 0x0 DUP2 PUSH1 0x0 ADD SLOAD GT PUSH2 0x5EE JUMPI PUSH1 0x40 MLOAD PUSH3 0x461BCD PUSH1 0xE5 SHL DUP2 MSTORE PUSH1 0x20 PUSH1 0x4 DUP3 ADD MSTORE PUSH1 0x12 PUSH1 0x24 DUP3 ADD MSTORE PUSH18 0x4E6F7468696E6720746F20756E7374616B65 PUSH1 0x70 SHL PUSH1 0x44 DUP3 ADD MSTORE PUSH1 0x64 ADD PUSH2 0x562 JUMP JUMPDEST DUP1 SLOAD PUSH1 0x0 PUSH2 0x5FF PUSH3 0x93A80 TIMESTAMP PUSH2 0x1672 JUMP JUMPDEST CALLER PUSH1 0x0 DUP2 DUP2 MSTORE PUSH1 0x3 PUSH1 0x20 SWAP1 DUP2 MSTORE PUSH1 0x40 DUP1 DUP4 KECCAK256 DUP2 MLOAD DUP1 DUP4 ADD DUP4 MSTORE DUP9 DUP2 MSTORE DUP1 DUP5 ADD DUP8 DUP2 MSTORE DUP3 SLOAD PUSH1 0x1 DUP2 DUP2 ADD DUP6 SSTORE SWAP4 DUP8 MSTORE DUP6 DUP8 KECCAK256 SWAP3 MLOAD PUSH1 0x2 SWAP1 SWAP2 MUL SWAP1 SWAP3 ADD SWAP2 DUP3 SSTORE MLOAD SWAP2 ADD SSTORE DUP3 DUP9 SSTORE SWAP3 DUP3 MSTORE PUSH1 0x4 SWAP1 MSTORE SWAP1 DUP2 KECCAK256 DUP1 SLOAD SWAP3 SWAP4 POP DUP5 SWAP3 SWAP1 SWAP2 SWAP1 PUSH2 0x663 SWAP1 DUP5 SWAP1 PUSH2 0x168B JUMP JUMPDEST SWAP3 POP POP DUP2 SWAP1 SSTORE POP DUP2 PUSH1 0x5 PUSH1 0x0 DUP3 DUP3 SLOAD PUSH2 0x67C SWAP2 SWAP1 PUSH2 0x168B JUMP JUMPDEST SWAP1 SWAP2 SSTORE POP POP PUSH1 0x7 SLOAD CALLER PUSH1 0x0 SWAP1 DUP2 MSTORE PUSH1 0x4 PUSH1 0x20 MSTORE PUSH1 0x40 SWAP1 KECCAK256 SLOAD PUSH8 0xDE0B6B3A7640000 SWAP2 PUSH2 0x6A7 SWAP2 PUSH2 0x169E JUMP JUMPDEST PUSH2 0x6B1 SWAP2 SWAP1 PUSH2 0x16B5 JUMP JUMPDEST CALLER PUSH1 0x0 DUP2 DUP2 MSTORE PUSH1 0xA PUSH1 0x20 MSTORE PUSH1 0x40 DUP2 KECCAK256 SWAP3 SWAP1 SWAP3 SSTORE PUSH2 0x6CD SWAP1 PUSH2 0xF9B JUMP JUMPDEST PUSH1 0x40 MLOAD PUSH1 0xFF DUP3 AND DUP2 MSTORE SWAP1 SWAP2 POP CALLER SWAP1 PUSH32 0x3C109E259B6CD4A1C6EAF6464D2874A6760B328C94829CFBC5733D97341ACFDA SWAP1 PUSH1 0x20 ADD PUSH1 0x40 MLOAD DUP1 SWAP2 SUB SWAP1 LOG2 PUSH1 0x40 DUP1 MLOAD DUP5 DUP2 MSTORE PUSH1 0x20 DUP2 ADD DUP5 SWAP1 MSTORE CALLER SWAP2 PUSH32 0x57E41DF54512C76148B5BA9B643D149752B0D35E493B969BD017D0A3FE5228CF SWAP2 ADD PUSH1 0x40 MLOAD DUP1 SWAP2 SUB SWAP1 LOG2 POP POP POP POP PUSH2 0x750 PUSH1 0x1 DUP1 SSTORE JUMP JUMPDEST POP JUMP JUMPDEST PUSH1 0x1 PUSH1 0x1 PUSH1 0xA0 SHL SUB DUP2 AND PUSH1 0x0 SWAP1 DUP2 MSTORE PUSH1 0x4 PUSH1 0x20 MSTORE PUSH1 0x40 DUP2 KECCAK256 SLOAD DUP2 SUB PUSH2 0x77A JUMPI POP PUSH1 0x0 SWAP2 SWAP1 POP JUMP JUMPDEST PUSH1 0x7 SLOAD PUSH1 0x1 PUSH1 0x1 PUSH1 0xA0 SHL SUB DUP4 AND PUSH1 0x0 SWAP1 DUP2 MSTORE PUSH1 0x4 PUSH1 0x20 MSTORE PUSH1 0x40 DUP2 KECCAK256 SLOAD SWAP1 SWAP2 PUSH8 0xDE0B6B3A7640000 SWAP2 PUSH2 0x7AC SWAP2 SWAP1 PUSH2 0x169E JUMP JUMPDEST PUSH2 0x7B6 SWAP2 SWAP1 PUSH2 0x16B5 JUMP JUMPDEST PUSH1 0x1 PUSH1 0x1 PUSH1 0xA0 SHL SUB DUP5 AND PUSH1 0x0 SWAP1 DUP2 MSTORE PUSH1 0xA PUSH1 0x20 MSTORE PUSH1 0x40 SWAP1 KECCAK256 SLOAD SWAP1 SWAP2 POP DUP1 DUP3 GT PUSH2 0x7E3 JUMPI POP PUSH1 0x0 SWAP4 SWAP3 POP POP POP JUMP JUMPDEST PUSH2 0x7ED DUP2 DUP4 PUSH2 0x168B JUMP JUMPDEST SWAP5 SWAP4 POP POP POP POP JUMP JUMPDEST PUSH2 0x7FD PUSH2 0x12B2 JUMP JUMPDEST PUSH1 0x0 PUSH2 0x808 CALLER PUSH2 0x753 JUMP JUMPDEST SWAP1 POP PUSH1 0x0 DUP2 GT PUSH2 0x847 JUMPI PUSH1 0x40 MLOAD PUSH3 0x461BCD PUSH1 0xE5 SHL DUP2 MSTORE PUSH1 0x20 PUSH1 0x4 DUP3 ADD MSTORE PUSH1 0xA PUSH1 0x24 DUP3 ADD MSTORE PUSH10 0x4E6F2072657761726473 PUSH1 0xB0 SHL PUSH1 0x44 DUP3 ADD MSTORE PUSH1 0x64 ADD PUSH2 0x562 JUMP JUMPDEST PUSH1 0x7 SLOAD CALLER PUSH1 0x0 SWAP1 DUP2 MSTORE PUSH1 0x4 PUSH1 0x20 MSTORE PUSH1 0x40 SWAP1 KECCAK256 SLOAD PUSH8 0xDE0B6B3A7640000 SWAP2 PUSH2 0x86D SWAP2 PUSH2 0x169E JUMP JUMPDEST PUSH2 0x877 SWAP2 SWAP1 PUSH2 0x16B5 JUMP JUMPDEST CALLER PUSH1 0x0 SWAP1 DUP2 MSTORE PUSH1 0xA PUSH1 0x20 SWAP1 DUP2 MSTORE PUSH1 0x40 DUP1 DUP4 KECCAK256 SWAP4 SWAP1 SWAP4 SSTORE PUSH1 0x9 SWAP1 MSTORE SWAP1 DUP2 KECCAK256 DUP1 SLOAD DUP4 SWAP3 SWAP1 PUSH2 0x8A4 SWAP1 DUP5 SWAP1 PUSH2 0x1672 JUMP JUMPDEST SWAP1 SWAP2 SSTORE POP PUSH2 0x8DE SWAP1 POP PUSH1 0x1 PUSH1 0x1 PUSH1 0xA0 SHL SUB PUSH32 0x0 AND CALLER DUP4 PUSH2 0x1399 JUMP JUMPDEST PUSH1 0x40 MLOAD DUP2 DUP2 MSTORE CALLER SWAP1 PUSH32 0xFC30CDDEA38E2BF4D6EA7D3F9ED3B6AD7F176419F4963BD81318067A4AEE73FE SWAP1 PUSH1 0x20 ADD PUSH1 0x40 MLOAD DUP1 SWAP2 SUB SWAP1 LOG2 POP PUSH2 0x91D PUSH1 0x1 DUP1 SSTORE JUMP JUMPDEST JUMP JUMPDEST PUSH2 0x927 PUSH2 0x12B2 JUMP JUMPDEST CALLER PUSH1 0x0 SWAP1 DUP2 MSTORE PUSH1 0x3 PUSH1 0x20 MSTORE PUSH1 0x40 DUP2 KECCAK256 DUP2 JUMPDEST DUP2 SLOAD DUP2 LT ISZERO PUSH2 0xA05 JUMPI TIMESTAMP DUP3 DUP3 DUP2 SLOAD DUP2 LT PUSH2 0x954 JUMPI PUSH2 0x954 PUSH2 0x1646 JUMP JUMPDEST SWAP1 PUSH1 0x0 MSTORE PUSH1 0x20 PUSH1 0x0 KECCAK256 SWAP1 PUSH1 0x2 MUL ADD PUSH1 0x1 ADD SLOAD GT ISZERO DUP1 ISZERO PUSH2 0x997 JUMPI POP PUSH1 0x0 DUP3 DUP3 DUP2 SLOAD DUP2 LT PUSH2 0x983 JUMPI PUSH2 0x983 PUSH2 0x1646 JUMP JUMPDEST SWAP1 PUSH1 0x0 MSTORE PUSH1 0x20 PUSH1 0x0 KECCAK256 SWAP1 PUSH1 0x2 MUL ADD PUSH1 0x0 ADD SLOAD GT JUMPDEST ISZERO PUSH2 0x9F3 JUMPI DUP2 DUP2 DUP2 SLOAD DUP2 LT PUSH2 0x9AE JUMPI PUSH2 0x9AE PUSH2 0x1646 JUMP JUMPDEST SWAP1 PUSH1 0x0 MSTORE PUSH1 0x20 PUSH1 0x0 KECCAK256 SWAP1 PUSH1 0x2 MUL ADD PUSH1 0x0 ADD SLOAD DUP4 PUSH2 0x9CB SWAP2 SWAP1 PUSH2 0x1672 JUMP JUMPDEST SWAP3 POP PUSH1 0x0 DUP3 DUP3 DUP2 SLOAD DUP2 LT PUSH2 0x9E1 JUMPI PUSH2 0x9E1 PUSH2 0x1646 JUMP JUMPDEST PUSH1 0x0 SWAP2 DUP3 MSTORE PUSH1 0x20 SWAP1 SWAP2 KECCAK256 PUSH1 0x2 SWAP1 SWAP2 MUL ADD SSTORE JUMPDEST DUP1 PUSH2 0x9FD DUP2 PUSH2 0x16D7 JUMP JUMPDEST SWAP2 POP POP PUSH2 0x938 JUMP JUMPDEST POP PUSH1 0x0 DUP3 GT PUSH2 0xA4C JUMPI PUSH1 0x40 MLOAD PUSH3 0x461BCD PUSH1 0xE5 SHL DUP2 MSTORE PUSH1 0x20 PUSH1 0x4 DUP3 ADD MSTORE PUSH1 0x13 PUSH1 0x24 DUP3 ADD MSTORE PUSH19 0x4E6F7468696E6720746F207769746864726177 PUSH1 0x68 SHL PUSH1 0x44 DUP3 ADD MSTORE PUSH1 0x64 ADD PUSH2 0x562 JUMP JUMPDEST PUSH2 0xA80 PUSH1 0x1 PUSH1 0x1 PUSH1 0xA0 SHL SUB PUSH32 0x0 AND CALLER DUP5 PUSH2 0x1399 JUMP JUMPDEST CALLER PUSH1 0x0 SWAP1 DUP2 MSTORE PUSH1 0x4 PUSH1 0x20 MSTORE PUSH1 0x40 DUP2 KECCAK256 SLOAD SWAP1 SUB PUSH2 0xAAC JUMPI PUSH1 0x6 DUP1 SLOAD SWAP1 PUSH1 0x0 PUSH2 0xAA6 DUP4 PUSH2 0x16F0 JUMP JUMPDEST SWAP2 SWAP1 POP SSTORE POP JUMPDEST PUSH1 0x40 MLOAD DUP3 DUP2 MSTORE CALLER SWAP1 PUSH32 0x7084F5476618D8E60B11EF0D7D3F06914655ADB8793E28FF7F018D4C76D505D5 SWAP1 PUSH1 0x20 ADD PUSH1 0x40 MLOAD DUP1 SWAP2 SUB SWAP1 LOG2 POP POP PUSH2 0x91D PUSH1 0x1 DUP1 SSTORE JUMP JUMPDEST PUSH1 0xB DUP2 DUP2 SLOAD DUP2 LT PUSH2 0xAFC JUMPI PUSH1 0x0 DUP1 REVERT JUMPDEST PUSH1 0x0 SWAP2 DUP3 MSTORE PUSH1 0x20 SWAP1 SWAP2 KECCAK256 PUSH1 0x3 SWAP1 SWAP2 MUL ADD DUP1 SLOAD PUSH1 0x1 DUP3 ADD SLOAD PUSH1 0x2 SWAP1 SWAP3 ADD SLOAD SWAP1 SWAP3 POP DUP4 JUMP JUMPDEST PUSH1 0xB SLOAD PUSH1 0x0 SWAP1 ISZERO DUP1 PUSH2 0xB31 JUMPI POP PUSH1 0x5 SLOAD ISZERO JUMPDEST ISZERO PUSH2 0xB3E JUMPI POP PUSH1 0x0 SWAP2 SWAP1 POP JUMP JUMPDEST PUSH1 0xB DUP1 SLOAD PUSH1 0x0 SWAP2 SWAP1 PUSH2 0xB52 SWAP1 PUSH1 0x1 SWAP1 PUSH2 0x168B JUMP JUMPDEST DUP2 SLOAD DUP2 LT PUSH2 0xB62 JUMPI PUSH2 0xB62 PUSH2 0x1646 JUMP JUMPDEST PUSH1 0x0 SWAP2 DUP3 MSTORE PUSH1 0x20 DUP1 DUP4 KECCAK256 PUSH1 0x40 DUP1 MLOAD PUSH1 0x60 DUP2 ADD DUP3 MSTORE PUSH1 0x3 SWAP1 SWAP5 MUL SWAP1 SWAP2 ADD DUP1 SLOAD DUP1 DUP6 MSTORE PUSH1 0x1 DUP3 ADD SLOAD SWAP4 DUP6 ADD SWAP4 SWAP1 SWAP4 MSTORE PUSH1 0x2 ADD SLOAD SWAP1 DUP4 ADD MSTORE SWAP1 SWAP3 POP PUSH2 0xBA5 SWAP1 PUSH1 0xC PUSH2 0x169E JUMP JUMPDEST PUSH1 0x5 SLOAD SWAP1 SWAP2 POP PUSH2 0xBB5 DUP6 DUP4 PUSH2 0x169E JUMP JUMPDEST PUSH2 0x7ED SWAP2 SWAP1 PUSH2 0x16B5 JUMP JUMPDEST PUSH1 0x3 PUSH1 0x20 MSTORE DUP2 PUSH1 0x0 MSTORE PUSH1 0x40 PUSH1 0x0 KECCAK256 DUP2 DUP2 SLOAD DUP2 LT PUSH2 0xBDB JUMPI PUSH1 0x0 DUP1 REVERT JUMPDEST PUSH1 0x0 SWAP2 DUP3 MSTORE PUSH1 0x20 SWAP1 SWAP2 KECCAK256 PUSH1 0x2 SWAP1 SWAP2 MUL ADD DUP1 SLOAD PUSH1 0x1 SWAP1 SWAP2 ADD SLOAD SWAP1 SWAP3 POP SWAP1 POP DUP3 JUMP JUMPDEST PUSH2 0xC03 PUSH2 0x13FD JUMP JUMPDEST PUSH2 0x91D PUSH1 0x0 PUSH2 0x142A JUMP JUMPDEST PUSH1 0x1 PUSH1 0x1 PUSH1 0xA0 SHL SUB DUP2 AND PUSH1 0x0 SWAP1 DUP2 MSTORE PUSH1 0x2 PUSH1 0x20 SWAP1 DUP2 MSTORE PUSH1 0x40 DUP1 DUP4 KECCAK256 DUP1 SLOAD DUP3 MLOAD DUP2 DUP6 MUL DUP2 ADD DUP6 ADD SWAP1 SWAP4 MSTORE DUP1 DUP4 MSTORE PUSH1 0x60 SWAP5 SWAP3 SWAP4 SWAP2 SWAP3 SWAP1 SWAP2 DUP5 ADD JUMPDEST DUP3 DUP3 LT ISZERO PUSH2 0xC95 JUMPI DUP4 DUP3 SWAP1 PUSH1 0x0 MSTORE PUSH1 0x20 PUSH1 0x0 KECCAK256 SWAP1 PUSH1 0x3 MUL ADD PUSH1 0x40 MLOAD DUP1 PUSH1 0x60 ADD PUSH1 0x40 MSTORE SWAP1 DUP2 PUSH1 0x0 DUP3 ADD SLOAD DUP2 MSTORE PUSH1 0x20 ADD PUSH1 0x1 DUP3 ADD SLOAD DUP2 MSTORE PUSH1 0x20 ADD PUSH1 0x2 DUP3 ADD SLOAD DUP2 MSTORE POP POP DUP2 MSTORE PUSH1 0x20 ADD SWAP1 PUSH1 0x1 ADD SWAP1 PUSH2 0xC45 JUMP JUMPDEST POP POP POP POP SWAP1 POP SWAP2 SWAP1 POP JUMP JUMPDEST PUSH1 0x1 PUSH1 0x1 PUSH1 0xA0 SHL SUB DUP2 AND PUSH1 0x0 SWAP1 DUP2 MSTORE PUSH1 0x4 PUSH1 0x20 MSTORE PUSH1 0x40 DUP2 KECCAK256 SLOAD DUP2 SWAP1 DUP2 SWAP1 DUP2 SWAP1 PUSH2 0xCC8 DUP7 PUSH2 0xF9B JUMP JUMPDEST PUSH2 0xCD1 DUP8 PUSH2 0x753 JUMP JUMPDEST PUSH1 0x1 PUSH1 0x1 PUSH1 0xA0 SHL SUB SWAP8 SWAP1 SWAP8 AND PUSH1 0x0 SWAP1 DUP2 MSTORE PUSH1 0x9 PUSH1 0x20 MSTORE PUSH1 0x40 SWAP1 KECCAK256 SLOAD SWAP2 SWAP8 SWAP1 SWAP7 SWAP6 POP SWAP1 SWAP4 POP SWAP2 POP POP JUMP JUMPDEST PUSH1 0x1 PUSH1 0x1 PUSH1 0xA0 SHL SUB DUP2 AND PUSH1 0x0 SWAP1 DUP2 MSTORE PUSH1 0x3 PUSH1 0x20 SWAP1 DUP2 MSTORE PUSH1 0x40 DUP1 DUP4 KECCAK256 DUP1 SLOAD DUP3 MLOAD DUP2 DUP6 MUL DUP2 ADD DUP6 ADD SWAP1 SWAP4 MSTORE DUP1 DUP4 MSTORE PUSH1 0x60 SWAP5 SWAP3 SWAP4 SWAP2 SWAP3 SWAP1 SWAP2 DUP5 ADD JUMPDEST DUP3 DUP3 LT ISZERO PUSH2 0xC95 JUMPI DUP4 DUP3 SWAP1 PUSH1 0x0 MSTORE PUSH1 0x20 PUSH1 0x0 KECCAK256 SWAP1 PUSH1 0x2 MUL ADD PUSH1 0x40 MLOAD DUP1 PUSH1 0x40 ADD PUSH1 0x40 MSTORE SWAP1 DUP2 PUSH1 0x0 DUP3 ADD SLOAD DUP2 MSTORE PUSH1 0x20 ADD PUSH1 0x1 DUP3 ADD SLOAD DUP2 MSTORE POP POP DUP2 MSTORE PUSH1 0x20 ADD SWAP1 PUSH1 0x1 ADD SWAP1 PUSH2 0xD32 JUMP JUMPDEST PUSH2 0xD80 PUSH2 0x12B2 JUMP JUMPDEST PUSH9 0x56BC75E2D63100000 DUP2 LT ISZERO PUSH2 0xDCF JUMPI PUSH1 0x40 MLOAD PUSH3 0x461BCD PUSH1 0xE5 SHL DUP2 MSTORE PUSH1 0x20 PUSH1 0x4 DUP3 ADD MSTORE PUSH1 0x13 PUSH1 0x24 DUP3 ADD MSTORE PUSH19 0x42656C6F77206D696E696D756D207374616B65 PUSH1 0x68 SHL PUSH1 0x44 DUP3 ADD MSTORE PUSH1 0x64 ADD PUSH2 0x562 JUMP JUMPDEST PUSH2 0xDD8 CALLER PUSH2 0x12DC JUMP JUMPDEST PUSH2 0xE0D PUSH1 0x1 PUSH1 0x1 PUSH1 0xA0 SHL SUB PUSH32 0x0 AND CALLER ADDRESS DUP5 PUSH2 0x147A JUMP JUMPDEST CALLER PUSH1 0x0 DUP2 DUP2 MSTORE PUSH1 0x4 PUSH1 0x20 DUP2 DUP2 MSTORE PUSH1 0x40 DUP1 DUP5 KECCAK256 DUP1 SLOAD PUSH1 0x2 DUP1 DUP6 MSTORE DUP4 DUP8 KECCAK256 DUP5 MLOAD PUSH1 0x60 DUP2 ADD DUP7 MSTORE DUP11 DUP2 MSTORE TIMESTAMP DUP2 DUP9 ADD SWAP1 DUP2 MSTORE SWAP6 DUP2 ADD DUP10 DUP2 MSTORE DUP3 SLOAD PUSH1 0x1 DUP2 DUP2 ADD DUP6 SSTORE SWAP4 DUP12 MSTORE DUP9 DUP12 KECCAK256 SWAP3 MLOAD PUSH1 0x3 SWAP1 SWAP2 MUL SWAP1 SWAP3 ADD SWAP2 DUP3 SSTORE SWAP6 MLOAD SWAP2 DUP2 ADD SWAP2 SWAP1 SWAP2 SSTORE SWAP4 MLOAD SWAP4 ADD SWAP3 SWAP1 SWAP3 SSTORE SWAP5 DUP5 MSTORE SWAP2 SWAP1 MSTORE DUP3 SLOAD SWAP1 ISZERO SWAP3 DUP5 SWAP3 SWAP1 SWAP2 PUSH2 0xE88 SWAP1 DUP5 SWAP1 PUSH2 0x1672 JUMP JUMPDEST SWAP3 POP POP DUP2 SWAP1 SSTORE POP DUP2 PUSH1 0x5 PUSH1 0x0 DUP3 DUP3 SLOAD PUSH2 0xEA1 SWAP2 SWAP1 PUSH2 0x1672 JUMP JUMPDEST SWAP1 SWAP2 SSTORE POP POP PUSH1 0x7 SLOAD CALLER PUSH1 0x0 SWAP1 DUP2 MSTORE PUSH1 0x4 PUSH1 0x20 MSTORE PUSH1 0x40 SWAP1 KECCAK256 SLOAD PUSH8 0xDE0B6B3A7640000 SWAP2 PUSH2 0xECC SWAP2 PUSH2 0x169E JUMP JUMPDEST PUSH2 0xED6 SWAP2 SWAP1 PUSH2 0x16B5 JUMP JUMPDEST CALLER PUSH1 0x0 SWAP1 DUP2 MSTORE PUSH1 0xA PUSH1 0x20 MSTORE PUSH1 0x40 SWAP1 KECCAK256 SSTORE DUP1 ISZERO PUSH2 0xF02 JUMPI PUSH1 0x6 DUP1 SLOAD SWAP1 PUSH1 0x0 PUSH2 0xEFC DUP4 PUSH2 0x16D7 JUMP JUMPDEST SWAP2 SWAP1 POP SSTORE POP JUMPDEST PUSH1 0x0 PUSH2 0xF0D CALLER PUSH2 0xF9B JUMP JUMPDEST PUSH1 0x40 MLOAD PUSH1 0xFF DUP3 AND DUP2 MSTORE SWAP1 SWAP2 POP CALLER SWAP1 PUSH32 0x3C109E259B6CD4A1C6EAF6464D2874A6760B328C94829CFBC5733D97341ACFDA SWAP1 PUSH1 0x20 ADD PUSH1 0x40 MLOAD DUP1 SWAP2 SUB SWAP1 LOG2 CALLER PUSH1 0x0 DUP2 DUP2 MSTORE PUSH1 0x4 PUSH1 0x20 SWAP1 DUP2 MSTORE PUSH1 0x40 SWAP2 DUP3 SWAP1 KECCAK256 SLOAD DUP3 MLOAD DUP8 DUP2 MSTORE SWAP2 DUP3 ADD MSTORE PUSH32 0x1449C6DD7851ABC30ABF37F57715F492010519147CC2652FBC38202C18A6EE90 SWAP2 ADD PUSH1 0x40 MLOAD DUP1 SWAP2 SUB SWAP1 LOG2 POP POP PUSH2 0x750 PUSH1 0x1 DUP1 SSTORE JUMP JUMPDEST PUSH1 0x1 PUSH1 0x1 PUSH1 0xA0 SHL SUB DUP2 AND PUSH1 0x0 SWAP1 DUP2 MSTORE PUSH1 0x4 PUSH1 0x20 MSTORE PUSH1 0x40 DUP2 KECCAK256 SLOAD PUSH10 0x10F0CF064DD59200000 DUP2 LT PUSH2 0xFCE JUMPI POP PUSH1 0x5 SWAP3 SWAP2 POP POP JUMP JUMPDEST PUSH9 0x878678326EAC900000 DUP2 LT PUSH2 0xFE7 JUMPI POP PUSH1 0x4 SWAP3 SWAP2 POP POP JUMP JUMPDEST PUSH9 0x3635C9ADC5DEA00000 DUP2 LT PUSH2 0x1000 JUMPI POP PUSH1 0x3 SWAP3 SWAP2 POP POP JUMP JUMPDEST PUSH9 0x1B1AE4D6E2EF500000 DUP2 LT PUSH2 0x1019 JUMPI POP PUSH1 0x2 SWAP3 SWAP2 POP POP JUMP JUMPDEST PUSH9 0x56BC75E2D63100000 DUP2 LT PUSH2 0x1032 JUMPI POP PUSH1 0x1 SWAP3 SWAP2 POP POP JUMP JUMPDEST POP PUSH1 0x0 SWAP3 SWAP2 POP POP JUMP JUMPDEST PUSH1 0x2 PUSH1 0x20 MSTORE DUP2 PUSH1 0x0 MSTORE PUSH1 0x40 PUSH1 0x0 KECCAK256 DUP2 DUP2 SLOAD DUP2 LT PUSH2 0x1057 JUMPI PUSH1 0x0 DUP1 REVERT JUMPDEST PUSH1 0x0 SWAP2 DUP3 MSTORE PUSH1 0x20 SWAP1 SWAP2 KECCAK256 PUSH1 0x3 SWAP1 SWAP2 MUL ADD DUP1 SLOAD PUSH1 0x1 DUP3 ADD SLOAD PUSH1 0x2 SWAP1 SWAP3 ADD SLOAD SWAP1 SWAP4 POP SWAP1 SWAP2 POP DUP4 JUMP JUMPDEST PUSH2 0x1085 PUSH2 0x13FD JUMP JUMPDEST PUSH1 0x0 DUP2 GT PUSH2 0x10C3 JUMPI PUSH1 0x40 MLOAD PUSH3 0x461BCD PUSH1 0xE5 SHL DUP2 MSTORE PUSH1 0x20 PUSH1 0x4 DUP3 ADD MSTORE PUSH1 0xB PUSH1 0x24 DUP3 ADD MSTORE PUSH11 0x16995C9BC8185B5BDD5B9D PUSH1 0xAA SHL PUSH1 0x44 DUP3 ADD MSTORE PUSH1 0x64 ADD PUSH2 0x562 JUMP JUMPDEST PUSH1 0x0 PUSH1 0x5 SLOAD GT PUSH2 0x1102 JUMPI PUSH1 0x40 MLOAD PUSH3 0x461BCD PUSH1 0xE5 SHL DUP2 MSTORE PUSH1 0x20 PUSH1 0x4 DUP3 ADD MSTORE PUSH1 0xA PUSH1 0x24 DUP3 ADD MSTORE PUSH10 0x4E6F207374616B657273 PUSH1 0xB0 SHL PUSH1 0x44 DUP3 ADD MSTORE PUSH1 0x64 ADD PUSH2 0x562 JUMP JUMPDEST PUSH2 0x1137 PUSH1 0x1 PUSH1 0x1 PUSH1 0xA0 SHL SUB PUSH32 0x0 AND CALLER ADDRESS DUP5 PUSH2 0x147A JUMP JUMPDEST PUSH1 0x5 SLOAD PUSH2 0x114C DUP3 PUSH8 0xDE0B6B3A7640000 PUSH2 0x169E JUMP JUMPDEST PUSH2 0x1156 SWAP2 SWAP1 PUSH2 0x16B5 JUMP JUMPDEST PUSH1 0x7 PUSH1 0x0 DUP3 DUP3 SLOAD PUSH2 0x1167 SWAP2 SWAP1 PUSH2 0x1672 JUMP JUMPDEST SWAP3 POP POP DUP2 SWAP1 SSTORE POP DUP1 PUSH1 0x8 PUSH1 0x0 DUP3 DUP3 SLOAD PUSH2 0x1180 SWAP2 SWAP1 PUSH2 0x1672 JUMP JUMPDEST SWAP1 SWAP2 SSTORE POP POP PUSH1 0x40 DUP1 MLOAD PUSH1 0x60 DUP1 DUP3 ADD DUP4 MSTORE DUP4 DUP3 MSTORE PUSH1 0x5 DUP1 SLOAD PUSH1 0x20 DUP1 DUP6 ADD SWAP2 DUP3 MSTORE TIMESTAMP DUP6 DUP8 ADD SWAP1 DUP2 MSTORE PUSH1 0xB DUP1 SLOAD PUSH1 0x1 DUP2 ADD DUP3 SSTORE PUSH1 0x0 SWAP2 SWAP1 SWAP2 MSTORE SWAP6 MLOAD PUSH32 0x175B7A638427703F0DBE7BB9BBF987A2551717B34E79F33B5B1008D1FA01DB9 PUSH1 0x3 SWAP1 SWAP8 MUL SWAP7 DUP8 ADD SSTORE SWAP2 MLOAD PUSH32 0x175B7A638427703F0DBE7BB9BBF987A2551717B34E79F33B5B1008D1FA01DBA DUP7 ADD SSTORE SWAP1 MLOAD PUSH32 0x175B7A638427703F0DBE7BB9BBF987A2551717B34E79F33B5B1008D1FA01DBB SWAP1 SWAP5 ADD SWAP4 SWAP1 SWAP4 SSTORE SLOAD PUSH1 0x7 SLOAD DUP5 MLOAD DUP7 DUP2 MSTORE SWAP4 DUP5 ADD SWAP2 SWAP1 SWAP2 MSTORE SWAP3 DUP3 ADD SWAP3 SWAP1 SWAP3 MSTORE PUSH32 0x271447A7FC6BD5726818CE06A9D9FFDECD61963481F678D3903CC5BACC523C86 SWAP2 ADD PUSH1 0x40 MLOAD DUP1 SWAP2 SUB SWAP1 LOG1 POP JUMP JUMPDEST PUSH2 0x127F PUSH2 0x13FD JUMP JUMPDEST PUSH1 0x1 PUSH1 0x1 PUSH1 0xA0 SHL SUB DUP2 AND PUSH2 0x12A9 JUMPI PUSH1 0x40 MLOAD PUSH4 0x1E4FBDF7 PUSH1 0xE0 SHL DUP2 MSTORE PUSH1 0x0 PUSH1 0x4 DUP3 ADD MSTORE PUSH1 0x24 ADD PUSH2 0x562 JUMP JUMPDEST PUSH2 0x750 DUP2 PUSH2 0x142A JUMP JUMPDEST PUSH1 0x2 PUSH1 0x1 SLOAD SUB PUSH2 0x12D5 JUMPI PUSH1 0x40 MLOAD PUSH4 0x3EE5AEB5 PUSH1 0xE0 SHL DUP2 MSTORE PUSH1 0x4 ADD PUSH1 0x40 MLOAD DUP1 SWAP2 SUB SWAP1 REVERT JUMPDEST PUSH1 0x2 PUSH1 0x1 SSTORE JUMP JUMPDEST PUSH1 0x0 PUSH2 0x12E7 DUP3 PUSH2 0x753 JUMP JUMPDEST SWAP1 POP DUP1 ISZERO PUSH2 0x1395 JUMPI PUSH1 0x1 PUSH1 0x1 PUSH1 0xA0 SHL SUB DUP3 AND PUSH1 0x0 SWAP1 DUP2 MSTORE PUSH1 0x9 PUSH1 0x20 MSTORE PUSH1 0x40 DUP2 KECCAK256 DUP1 SLOAD DUP4 SWAP3 SWAP1 PUSH2 0x1317 SWAP1 DUP5 SWAP1 PUSH2 0x1672 JUMP JUMPDEST SWAP1 SWAP2 SSTORE POP PUSH2 0x1351 SWAP1 POP PUSH1 0x1 PUSH1 0x1 PUSH1 0xA0 SHL SUB PUSH32 0x0 AND DUP4 DUP4 PUSH2 0x1399 JUMP JUMPDEST DUP2 PUSH1 0x1 PUSH1 0x1 PUSH1 0xA0 SHL SUB AND PUSH32 0xFC30CDDEA38E2BF4D6EA7D3F9ED3B6AD7F176419F4963BD81318067A4AEE73FE DUP3 PUSH1 0x40 MLOAD PUSH2 0x138C SWAP2 DUP2 MSTORE PUSH1 0x20 ADD SWAP1 JUMP JUMPDEST PUSH1 0x40 MLOAD DUP1 SWAP2 SUB SWAP1 LOG2 JUMPDEST POP POP JUMP JUMPDEST PUSH1 0x40 MLOAD PUSH1 0x1 PUSH1 0x1 PUSH1 0xA0 SHL SUB DUP4 DUP2 AND PUSH1 0x24 DUP4 ADD MSTORE PUSH1 0x44 DUP3 ADD DUP4 SWAP1 MSTORE PUSH2 0x13F8 SWAP2 DUP6 SWAP2 DUP3 AND SWAP1 PUSH4 0xA9059CBB SWAP1 PUSH1 0x64 ADD JUMPDEST PUSH1 0x40 MLOAD PUSH1 0x20 DUP2 DUP4 SUB SUB DUP2 MSTORE SWAP1 PUSH1 0x40 MSTORE SWAP2 POP PUSH1 0xE0 SHL PUSH1 0x20 DUP3 ADD DUP1 MLOAD PUSH1 0x1 PUSH1 0x1 PUSH1 0xE0 SHL SUB DUP4 DUP2 DUP4 AND OR DUP4 MSTORE POP POP POP POP PUSH2 0x14B9 JUMP JUMPDEST POP POP POP JUMP JUMPDEST PUSH1 0x0 SLOAD PUSH1 0x1 PUSH1 0x1 PUSH1 0xA0 SHL SUB AND CALLER EQ PUSH2 0x91D JUMPI PUSH1 0x40 MLOAD PUSH4 0x118CDAA7 PUSH1 0xE0 SHL DUP2 MSTORE CALLER PUSH1 0x4 DUP3 ADD MSTORE PUSH1 0x24 ADD PUSH2 0x562 JUMP JUMPDEST PUSH1 0x0 DUP1 SLOAD PUSH1 0x1 PUSH1 0x1 PUSH1 0xA0 SHL SUB DUP4 DUP2 AND PUSH1 0x1 PUSH1 0x1 PUSH1 0xA0 SHL SUB NOT DUP4 AND DUP2 OR DUP5 SSTORE PUSH1 0x40 MLOAD SWAP2 SWAP1 SWAP3 AND SWAP3 DUP4 SWAP2 PUSH32 0x8BE0079C531659141344CD1FD0A4F28419497F9722A3DAAFE3B4186F6B6457E0 SWAP2 SWAP1 LOG3 POP POP JUMP JUMPDEST PUSH1 0x40 MLOAD PUSH1 0x1 PUSH1 0x1 PUSH1 0xA0 SHL SUB DUP5 DUP2 AND PUSH1 0x24 DUP4 ADD MSTORE DUP4 DUP2 AND PUSH1 0x44 DUP4 ADD MSTORE PUSH1 0x64 DUP3 ADD DUP4 SWAP1 MSTORE PUSH2 0x14B3 SWAP2 DUP7 SWAP2 DUP3 AND SWAP1 PUSH4 0x23B872DD SWAP1 PUSH1 0x84 ADD PUSH2 0x13C6 JUMP JUMPDEST POP POP POP POP JUMP JUMPDEST PUSH1 0x0 DUP1 PUSH1 0x20 PUSH1 0x0 DUP5 MLOAD PUSH1 0x20 DUP7 ADD PUSH1 0x0 DUP9 GAS CALL DUP1 PUSH2 0x14DC JUMPI PUSH1 0x40 MLOAD RETURNDATASIZE PUSH1 0x0 DUP3 RETURNDATACOPY RETURNDATASIZE DUP2 REVERT JUMPDEST POP POP PUSH1 0x0 MLOAD RETURNDATASIZE SWAP2 POP DUP2 ISZERO PUSH2 0x14F4 JUMPI DUP1 PUSH1 0x1 EQ ISZERO PUSH2 0x1501 JUMP JUMPDEST PUSH1 0x1 PUSH1 0x1 PUSH1 0xA0 SHL SUB DUP5 AND EXTCODESIZE ISZERO JUMPDEST ISZERO PUSH2 0x14B3 JUMPI PUSH1 0x40 MLOAD PUSH4 0x5274AFE7 PUSH1 0xE0 SHL DUP2 MSTORE PUSH1 0x1 PUSH1 0x1 PUSH1 0xA0 SHL SUB DUP6 AND PUSH1 0x4 DUP3 ADD MSTORE PUSH1 0x24 ADD PUSH2 0x562 JUMP JUMPDEST DUP1 CALLDATALOAD PUSH1 0x1 PUSH1 0x1 PUSH1 0xA0 SHL SUB DUP2 AND DUP2 EQ PUSH2 0x1541 JUMPI PUSH1 0x0 DUP1 REVERT JUMPDEST SWAP2 SWAP1 POP JUMP JUMPDEST PUSH1 0x0 PUSH1 0x20 DUP3 DUP5 SUB SLT ISZERO PUSH2 0x1558 JUMPI PUSH1 0x0 DUP1 REVERT JUMPDEST PUSH2 0x1561 DUP3 PUSH2 0x152A JUMP JUMPDEST SWAP4 SWAP3 POP POP POP JUMP JUMPDEST PUSH1 0x0 PUSH1 0x20 DUP3 DUP5 SUB SLT ISZERO PUSH2 0x157A JUMPI PUSH1 0x0 DUP1 REVERT JUMPDEST POP CALLDATALOAD SWAP2 SWAP1 POP JUMP JUMPDEST PUSH1 0x0 DUP1 PUSH1 0x40 DUP4 DUP6 SUB SLT ISZERO PUSH2 0x1594 JUMPI PUSH1 0x0 DUP1 REVERT JUMPDEST PUSH2 0x159D DUP4 PUSH2 0x152A JUMP JUMPDEST SWAP5 PUSH1 0x20 SWAP4 SWAP1 SWAP4 ADD CALLDATALOAD SWAP4 POP POP POP JUMP JUMPDEST PUSH1 0x20 DUP1 DUP3 MSTORE DUP3 MLOAD DUP3 DUP3 ADD DUP2 SWAP1 MSTORE PUSH1 0x0 SWAP2 SWAP1 PUSH1 0x40 SWAP1 DUP2 DUP6 ADD SWAP1 DUP7 DUP5 ADD DUP6 JUMPDEST DUP3 DUP2 LT ISZERO PUSH2 0x15F7 JUMPI DUP2 MLOAD DUP1 MLOAD DUP6 MSTORE DUP7 DUP2 ADD MLOAD DUP8 DUP7 ADD MSTORE DUP6 ADD MLOAD DUP6 DUP6 ADD MSTORE PUSH1 0x60 SWAP1 SWAP4 ADD SWAP3 SWAP1 DUP6 ADD SWAP1 PUSH1 0x1 ADD PUSH2 0x15C8 JUMP JUMPDEST POP SWAP2 SWAP8 SWAP7 POP POP POP POP POP POP POP JUMP JUMPDEST PUSH1 0x20 DUP1 DUP3 MSTORE DUP3 MLOAD DUP3 DUP3 ADD DUP2 SWAP1 MSTORE PUSH1 0x0 SWAP2 SWAP1 PUSH1 0x40 SWAP1 DUP2 DUP6 ADD SWAP1 DUP7 DUP5 ADD DUP6 JUMPDEST DUP3 DUP2 LT ISZERO PUSH2 0x15F7 JUMPI DUP2 MLOAD DUP1 MLOAD DUP6 MSTORE DUP7 ADD MLOAD DUP7 DUP6 ADD MSTORE SWAP3 DUP5 ADD SWAP3 SWAP1 DUP6 ADD SWAP1 PUSH1 0x1 ADD PUSH2 0x1621 JUMP JUMPDEST PUSH4 0x4E487B71 PUSH1 0xE0 SHL PUSH1 0x0 MSTORE PUSH1 0x32 PUSH1 0x4 MSTORE PUSH1 0x24 PUSH1 0x0 REVERT JUMPDEST PUSH4 0x4E487B71 PUSH1 0xE0 SHL PUSH1 0x0 MSTORE PUSH1 0x11 PUSH1 0x4 MSTORE PUSH1 0x24 PUSH1 0x0 REVERT JUMPDEST DUP1 DUP3 ADD DUP1 DUP3 GT ISZERO PUSH2 0x1685 JUMPI PUSH2 0x1685 PUSH2 0x165C JUMP JUMPDEST SWAP3 SWAP2 POP POP JUMP JUMPDEST DUP2 DUP2 SUB DUP2 DUP2 GT ISZERO PUSH2 0x1685 JUMPI PUSH2 0x1685 PUSH2 0x165C JUMP JUMPDEST DUP1 DUP3 MUL DUP2 ISZERO DUP3 DUP3 DIV DUP5 EQ OR PUSH2 0x1685 JUMPI PUSH2 0x1685 PUSH2 0x165C JUMP JUMPDEST PUSH1 0x0 DUP3 PUSH2 0x16D2 JUMPI PUSH4 0x4E487B71 PUSH1 0xE0 SHL PUSH1 0x0 MSTORE PUSH1 0x12 PUSH1 0x4 MSTORE PUSH1 0x24 PUSH1 0x0 REVERT JUMPDEST POP DIV SWAP1 JUMP JUMPDEST PUSH1 0x0 PUSH1 0x1 DUP3 ADD PUSH2 0x16E9 JUMPI PUSH2 0x16E9 PUSH2 0x165C JUMP JUMPDEST POP PUSH1 0x1 ADD SWAP1 JUMP JUMPDEST PUSH1 0x0 DUP2 PUSH2 0x16FF JUMPI PUSH2 0x16FF PUSH2 0x165C JUMP JUMPDEST POP PUSH1 0x0 NOT ADD SWAP1 JUMP INVALID LOG2 PUSH5 0x6970667358 0x22 SLT KECCAK256 CALLDATALOAD COINBASE 0x5E CALLDATACOPY PUSH12 0x230F341DD35F8195D3D36537 SELFDESTRUCT 0xEE SELFBALANCE 0xE0 0xF6 PUSH16 0x8CC8CDA587E742D36C64736F6C634300 ADDMOD EQ STOP CALLER "},"methodIdentifiers":{"BRONZE_THRESHOLD()":"69a2f026","DIAMOND_THRESHOLD()":"0b8df9f1","GOLD_THRESHOLD()":"56973974","MIN_STAKE()":"cb1c2b5c","PLATINUM_THRESHOLD()":"caaffae9","SILVER_THRESHOLD()":"c1a0db30","UNSTAKE_COOLDOWN()":"0b60c58f","accRewardPerShare()":"939d6237","claimRewards()":"372500ab","depositRevenue(uint256)":"bc1ca3e9","estimatedAnnualYield(uint256)":"55739d26","getRevenueHistoryCount()":"d5362824","getTier(address)":"b45aae52","getUnstakeRequests(address)":"91174e41","getUserStakes(address)":"842e2981","getUserSummary(address)":"8fbd0c2d","owner()":"8da5cb5b","pendingRewards(address)":"31d7a262","renounceOwnership()":"715018a6","requestUnstake(uint256)":"23095721","revenueHistory(uint256)":"4d0772e5","rewardToken()":"f7c618c1","safeToken()":"4b3fd05a","stake(uint256)":"a694fc3a","totalRewardsDistributed()":"ee172546","totalStaked()":"817b1cd2","totalStakedByUser(address)":"489aa033","totalStakers()":"86989038","transferOwnership(address)":"f2fde38b","unstakeRequests(address,uint256)":"66442a06","userClaimedRewards(address)":"00f1197c","userRewardDebt(address)":"4bf6f9e7","userStakes(address,uint256)":"b5d5b5fa","withdraw()":"3ccfd60b"}}}}}