{"contracts/SAFEToken.sol":{"SAFEToken":{"abi":[{"inputs":[{"internalType":"address","name":"_communityRewardsWallet","type":"address"},{"internalType":"address","name":"_liquidityWallet","type":"address"}],"stateMutability":"nonpayable","type":"constructor"},{"inputs":[{"internalType":"address","name":"spender","type":"address"},{"internalType":"uint256","name":"allowance","type":"uint256"},{"internalType":"uint256","name":"needed","type":"uint256"}],"name":"ERC20InsufficientAllowance","type":"error"},{"inputs":[{"internalType":"address","name":"sender","type":"address"},{"internalType":"uint256","name":"balance","type":"uint256"},{"internalType":"uint256","name":"needed","type":"uint256"}],"name":"ERC20InsufficientBalance","type":"error"},{"inputs":[{"internalType":"address","name":"approver","type":"address"}],"name":"ERC20InvalidApprover","type":"error"},{"inputs":[{"internalType":"address","name":"receiver","type":"address"}],"name":"ERC20InvalidReceiver","type":"error"},{"inputs":[{"internalType":"address","name":"sender","type":"address"}],"name":"ERC20InvalidSender","type":"error"},{"inputs":[{"internalType":"address","name":"spender","type":"address"}],"name":"ERC20InvalidSpender","type":"error"},{"inputs":[{"internalType":"address","name":"owner","type":"address"}],"name":"OwnableInvalidOwner","type":"error"},{"inputs":[{"internalType":"address","name":"account","type":"address"}],"name":"OwnableUnauthorizedAccount","type":"error"},{"anonymous":false,"inputs":[{"indexed":true,"internalType":"address","name":"owner","type":"address"},{"indexed":true,"internalType":"address","name":"spender","type":"address"},{"indexed":false,"internalType":"uint256","name":"value","type":"uint256"}],"name":"Approval","type":"event"},{"anonymous":false,"inputs":[{"indexed":false,"internalType":"uint256","name":"amount","type":"uint256"},{"indexed":false,"internalType":"uint256","name":"totalBuybackBurned","type":"uint256"}],"name":"BuybackBurned","type":"event"},{"anonymous":false,"inputs":[{"indexed":true,"internalType":"address","name":"to","type":"address"},{"indexed":false,"internalType":"uint256","name":"amount","type":"uint256"}],"name":"CommunityRewardsMinted","type":"event"},{"anonymous":false,"inputs":[{"indexed":false,"internalType":"uint256","name":"month","type":"uint256"},{"indexed":false,"internalType":"uint256","name":"emitted","type":"uint256"},{"indexed":false,"internalType":"uint256","name":"burned","type":"uint256"}],"name":"MonthlyStatsRecorded","type":"event"},{"anonymous":false,"inputs":[{"indexed":true,"internalType":"address","name":"previousOwner","type":"address"},{"indexed":true,"internalType":"address","name":"newOwner","type":"address"}],"name":"OwnershipTransferred","type":"event"},{"anonymous":false,"inputs":[{"indexed":true,"internalType":"address","name":"user","type":"address"},{"indexed":false,"internalType":"uint256","name":"spent","type":"uint256"},{"indexed":false,"internalType":"uint256","name":"burned","type":"uint256"}],"name":"SpendBurned","type":"event"},{"anonymous":false,"inputs":[{"indexed":true,"internalType":"address","name":"vestingContract","type":"address"},{"indexed":false,"internalType":"uint256","name":"amount","type":"uint256"}],"name":"TeamTokensMintedToVesting","type":"event"},{"anonymous":false,"inputs":[{"indexed":true,"internalType":"address","name":"from","type":"address"},{"indexed":false,"internalType":"uint256","name":"amount","type":"uint256"}],"name":"TokensRecycled","type":"event"},{"anonymous":false,"inputs":[{"indexed":true,"internalType":"address","name":"from","type":"address"},{"indexed":true,"internalType":"address","name":"to","type":"address"},{"indexed":false,"internalType":"uint256","name":"value","type":"uint256"}],"name":"Transfer","type":"event"},{"anonymous":false,"inputs":[{"indexed":true,"internalType":"address","name":"vestingContract","type":"address"},{"indexed":false,"internalType":"uint256","name":"amount","type":"uint256"}],"name":"TreasuryTokensMintedToVesting","type":"event"},{"anonymous":false,"inputs":[{"indexed":false,"internalType":"address","name":"team","type":"address"},{"indexed":false,"internalType":"address","name":"treasury","type":"address"}],"name":"VestingContractsLocked","type":"event"},{"inputs":[],"name":"BUYBACK_ALLOCATION","outputs":[{"internalType":"uint256","name":"","type":"uint256"}],"stateMutability":"view","type":"function"},{"inputs":[],"name":"COMMUNITY_ALLOCATION","outputs":[{"internalType":"uint256","name":"","type":"uint256"}],"stateMutability":"view","type":"function"},{"inputs":[],"name":"HALVING_INTERVAL","outputs":[{"internalType":"uint256","name":"","type":"uint256"}],"stateMutability":"view","type":"function"},{"inputs":[],"name":"INITIAL_MONTHLY_CAP","outputs":[{"internalType":"uint256","name":"","type":"uint256"}],"stateMutability":"view","type":"function"},{"inputs":[],"name":"LIQUIDITY_ALLOCATION","outputs":[{"internalType":"uint256","name":"","type":"uint256"}],"stateMutability":"view","type":"function"},{"inputs":[],"name":"MAX_SUPPLY","outputs":[{"internalType":"uint256","name":"","type":"uint256"}],"stateMutability":"view","type":"function"},{"inputs":[],"name":"TEAM_ALLOCATION","outputs":[{"internalType":"uint256","name":"","type":"uint256"}],"stateMutability":"view","type":"function"},{"inputs":[],"name":"TREASURY_ALLOCATION","outputs":[{"internalType":"uint256","name":"","type":"uint256"}],"stateMutability":"view","type":"function"},{"inputs":[{"internalType":"address","name":"owner","type":"address"},{"internalType":"address","name":"spender","type":"address"}],"name":"allowance","outputs":[{"internalType":"uint256","name":"","type":"uint256"}],"stateMutability":"view","type":"function"},{"inputs":[{"internalType":"address","name":"spender","type":"address"},{"internalType":"uint256","name":"value","type":"uint256"}],"name":"approve","outputs":[{"internalType":"bool","name":"","type":"bool"}],"stateMutability":"nonpayable","type":"function"},{"inputs":[{"internalType":"address","name":"account","type":"address"}],"name":"balanceOf","outputs":[{"internalType":"uint256","name":"","type":"uint256"}],"stateMutability":"view","type":"function"},{"inputs":[{"internalType":"uint256","name":"value","type":"uint256"}],"name":"burn","outputs":[],"stateMutability":"nonpayable","type":"function"},{"inputs":[{"internalType":"address","name":"account","type":"address"},{"internalType":"uint256","name":"value","type":"uint256"}],"name":"burnFrom","outputs":[],"stateMutability":"nonpayable","type":"function"},{"inputs":[{"internalType":"uint256","name":"amount","type":"uint256"}],"name":"buybackBurn","outputs":[],"stateMutability":"nonpayable","type":"function"},{"inputs":[],"name":"communityMinted","outputs":[{"internalType":"uint256","name":"","type":"uint256"}],"stateMutability":"view","type":"function"},{"inputs":[],"name":"communityRewardsWallet","outputs":[{"internalType":"address","name":"","type":"address"}],"stateMutability":"view","type":"function"},{"inputs":[],"name":"currentMonthIndex","outputs":[{"internalType":"uint256","name":"","type":"uint256"}],"stateMutability":"view","type":"function"},{"inputs":[],"name":"decimals","outputs":[{"internalType":"uint8","name":"","type":"uint8"}],"stateMutability":"view","type":"function"},{"inputs":[],"name":"deployTimestamp","outputs":[{"internalType":"uint256","name":"","type":"uint256"}],"stateMutability":"view","type":"function"},{"inputs":[],"name":"getAvailableForRewards","outputs":[{"internalType":"uint256","name":"","type":"uint256"}],"stateMutability":"view","type":"function"},{"inputs":[],"name":"getCurrentMonthlyCap","outputs":[{"internalType":"uint256","name":"","type":"uint256"}],"stateMutability":"view","type":"function"},{"inputs":[],"name":"getMonthlyStatsCount","outputs":[{"internalType":"uint256","name":"","type":"uint256"}],"stateMutability":"view","type":"function"},{"inputs":[],"name":"getRemainingAllocations","outputs":[{"internalType":"uint256","name":"communityRemaining","type":"uint256"},{"internalType":"uint256","name":"treasuryRemaining","type":"uint256"},{"internalType":"uint256","name":"teamRemaining","type":"uint256"},{"internalType":"uint256","name":"liquidityRemaining","type":"uint256"},{"internalType":"uint256","name":"recycledAvailable","type":"uint256"}],"stateMutability":"view","type":"function"},{"inputs":[],"name":"getRevenueEmissionRatioBps","outputs":[{"internalType":"uint256","name":"","type":"uint256"}],"stateMutability":"view","type":"function"},{"inputs":[],"name":"isNetDeflationary","outputs":[{"internalType":"bool","name":"deflationary","type":"bool"},{"internalType":"uint256","name":"currentMonthEmitted","type":"uint256"},{"internalType":"uint256","name":"currentMonthBurned","type":"uint256"},{"internalType":"int256","name":"netFlow","type":"int256"}],"stateMutability":"view","type":"function"},{"inputs":[],"name":"lastMonthReset","outputs":[{"internalType":"uint256","name":"","type":"uint256"}],"stateMutability":"view","type":"function"},{"inputs":[],"name":"liquidityMinted","outputs":[{"internalType":"uint256","name":"","type":"uint256"}],"stateMutability":"view","type":"function"},{"inputs":[],"name":"liquidityWallet","outputs":[{"internalType":"address","name":"","type":"address"}],"stateMutability":"view","type":"function"},{"inputs":[{"internalType":"address","name":"to","type":"address"},{"internalType":"uint256","name":"amount","type":"uint256"}],"name":"mintCommunityRewards","outputs":[],"stateMutability":"nonpayable","type":"function"},{"inputs":[{"internalType":"uint256","name":"amount","type":"uint256"}],"name":"mintToTeamVesting","outputs":[],"stateMutability":"nonpayable","type":"function"},{"inputs":[{"internalType":"uint256","name":"amount","type":"uint256"}],"name":"mintToTreasuryVesting","outputs":[],"stateMutability":"nonpayable","type":"function"},{"inputs":[],"name":"monthlyEmitted","outputs":[{"internalType":"uint256","name":"","type":"uint256"}],"stateMutability":"view","type":"function"},{"inputs":[{"internalType":"uint256","name":"","type":"uint256"}],"name":"monthlyStats","outputs":[{"internalType":"uint256","name":"emitted","type":"uint256"},{"internalType":"uint256","name":"burned","type":"uint256"},{"internalType":"uint256","name":"timestamp","type":"uint256"}],"stateMutability":"view","type":"function"},{"inputs":[],"name":"name","outputs":[{"internalType":"string","name":"","type":"string"}],"stateMutability":"view","type":"function"},{"inputs":[],"name":"owner","outputs":[{"internalType":"address","name":"","type":"address"}],"stateMutability":"view","type":"function"},{"inputs":[],"name":"recycledPool","outputs":[{"internalType":"uint256","name":"","type":"uint256"}],"stateMutability":"view","type":"function"},{"inputs":[],"name":"renounceOwnership","outputs":[],"stateMutability":"nonpayable","type":"function"},{"inputs":[{"internalType":"address","name":"_teamVesting","type":"address"},{"internalType":"address","name":"_treasuryVesting","type":"address"}],"name":"setAndLockVestingContracts","outputs":[],"stateMutability":"nonpayable","type":"function"},{"inputs":[{"internalType":"uint256","name":"amount","type":"uint256"}],"name":"spendAndBurn","outputs":[],"stateMutability":"nonpayable","type":"function"},{"inputs":[],"name":"symbol","outputs":[{"internalType":"string","name":"","type":"string"}],"stateMutability":"view","type":"function"},{"inputs":[],"name":"teamMinted","outputs":[{"internalType":"uint256","name":"","type":"uint256"}],"stateMutability":"view","type":"function"},{"inputs":[],"name":"teamVestingContract","outputs":[{"internalType":"address","name":"","type":"address"}],"stateMutability":"view","type":"function"},{"inputs":[],"name":"totalBuybackBurned","outputs":[{"internalType":"uint256","name":"","type":"uint256"}],"stateMutability":"view","type":"function"},{"inputs":[],"name":"totalEmitted","outputs":[{"internalType":"uint256","name":"","type":"uint256"}],"stateMutability":"view","type":"function"},{"inputs":[],"name":"totalSpendBurned","outputs":[{"internalType":"uint256","name":"","type":"uint256"}],"stateMutability":"view","type":"function"},{"inputs":[],"name":"totalSupply","outputs":[{"internalType":"uint256","name":"","type":"uint256"}],"stateMutability":"view","type":"function"},{"inputs":[{"internalType":"address","name":"to","type":"address"},{"internalType":"uint256","name":"value","type":"uint256"}],"name":"transfer","outputs":[{"internalType":"bool","name":"","type":"bool"}],"stateMutability":"nonpayable","type":"function"},{"inputs":[{"internalType":"address","name":"from","type":"address"},{"internalType":"address","name":"to","type":"address"},{"internalType":"uint256","name":"value","type":"uint256"}],"name":"transferFrom","outputs":[{"internalType":"bool","name":"","type":"bool"}],"stateMutability":"nonpayable","type":"function"},{"inputs":[{"internalType":"address","name":"newOwner","type":"address"}],"name":"transferOwnership","outputs":[],"stateMutability":"nonpayable","type":"function"},{"inputs":[],"name":"treasuryMinted","outputs":[{"internalType":"uint256","name":"","type":"uint256"}],"stateMutability":"view","type":"function"},{"inputs":[],"name":"treasuryVestingContract","outputs":[{"internalType":"address","name":"","type":"address"}],"stateMutability":"view","type":"function"},{"inputs":[],"name":"vestingContractsLocked","outputs":[{"internalType":"bool","name":"","type":"bool"}],"stateMutability":"view","type":"function"}],"evm":{"bytecode":{"linkReferences":{},"object":"60806040523480156200001157600080fd5b50604051620020c1380380620020c1833981016040819052620000349162000474565b336040518060400160405280601181526020017029b0b332a9b1b7b934b733902a37b5b2b760791b815250604051806040016040528060048152602001635341464560e01b81525081600390816200008d919062000551565b5060046200009c828262000551565b5050506001600160a01b038116620000cf57604051631e4fbdf760e01b8152600060048201526024015b60405180910390fd5b620000da8162000294565b506001600160a01b038216620001335760405162461bcd60e51b815260206004820152601860248201527f496e76616c696420636f6d6d756e6974792077616c6c657400000000000000006044820152606401620000c6565b6001600160a01b0381166200018b5760405162461bcd60e51b815260206004820152601860248201527f496e76616c6964206c69717569646974792077616c6c657400000000000000006044820152606401620000c6565b600880546001600160a01b038085166001600160a01b0319928316179092556009805492841692909116919091179055426013819055601555620001db816a084595161401484a000000620002e6565b50506a084595161401484a000000600d55604080516060810182526000808252602082018181524293830193845260118054600181018255925291517f31ecc21a745e3968a04e9570e4425bc18fa8019c68028196b546d1669c200c6860039092029182015590517f31ecc21a745e3968a04e9570e4425bc18fa8019c68028196b546d1669c200c6982015590517f31ecc21a745e3968a04e9570e4425bc18fa8019c68028196b546d1669c200c6a9091015562000645565b600580546001600160a01b038381166001600160a01b0319831681179093556040519116919082907f8be0079c531659141344cd1fd0a4f28419497f9722a3daafe3b4186f6b6457e090600090a35050565b6001600160a01b038216620003125760405163ec442f0560e01b815260006004820152602401620000c6565b620003206000838362000324565b5050565b6001600160a01b038316620003535780600260008282546200034791906200061d565b90915550620003c79050565b6001600160a01b03831660009081526020819052604090205481811015620003a85760405163391434e360e21b81526001600160a01b03851660048201526024810182905260448101839052606401620000c6565b6001600160a01b03841660009081526020819052604090209082900390555b6001600160a01b038216620003e55760028054829003905562000404565b6001600160a01b03821660009081526020819052604090208054820190555b816001600160a01b0316836001600160a01b03167fddf252ad1be2c89b69c2b068fc378daa952ba7f163c4a11628f55a4df523b3ef836040516200044a91815260200190565b60405180910390a3505050565b80516001600160a01b03811681146200046f57600080fd5b919050565b600080604083850312156200048857600080fd5b620004938362000457565b9150620004a36020840162000457565b90509250929050565b634e487b7160e01b600052604160045260246000fd5b600181811c90821680620004d757607f821691505b602082108103620004f857634e487b7160e01b600052602260045260246000fd5b50919050565b601f8211156200054c57600081815260208120601f850160051c81016020861015620005275750805b601f850160051c820191505b81811015620005485782815560010162000533565b5050505b505050565b81516001600160401b038111156200056d576200056d620004ac565b62000585816200057e8454620004c2565b84620004fe565b602080601f831160018114620005bd5760008415620005a45750858301515b600019600386901b1c1916600185901b17855562000548565b600085815260208120601f198616915b82811015620005ee57888601518255948401946001909101908401620005cd565b50858210156200060d5787850151600019600388901b60f8161c191681555b5050505050600190811b01905550565b808201808211156200063f57634e487b7160e01b600052601160045260246000fd5b92915050565b611a6c80620006556000396000f3fe608060405234801561001057600080fd5b506004361061030c5760003560e01c8063993eb1c51161019d578063db891a9d116100e9578063ef7297de116100a2578063f2fde38b1161007c578063f2fde38b146106a1578063f9428f38146104f4578063fd99cbed1461057b578063fdd0f3ca146106b457600080fd5b8063ef7297de14610651578063f1c2c8cc14610664578063f1c7c2d01461068e57600080fd5b8063db891a9d146105d6578063dd62ed3e146105df578063de22678614610618578063df0244b11461062b578063df93cbf014610634578063e8b5498d1461064857600080fd5b8063bf1ad7e011610156578063d02d6af311610130578063d02d6af31461059e578063d042959e146105b1578063d4698016146105ba578063d9c5b0d3146105cd57600080fd5b8063bf1ad7e01461057b578063c332dafc1461058d578063c93d0ece1461059557600080fd5b8063993eb1c514610506578063a9059cbb14610518578063a96094891461052b578063aeb0cd6c14610533578063b1545e801461053c578063b1d9adfd1461054d57600080fd5b80635adca6591161025c57806379cc6790116102155780638da5cb5b116101ef5780638da5cb5b146104d25780638eab0751146104e357806395d89b41146104ec578063969b8cba146104f457600080fd5b806379cc6790146104a45780637e802500146104b75780637eb917b8146104ca57600080fd5b80635adca6591461041c5780635fd9491d1461044c578063607ad0d7146104575780636ea327141461046057806370a0823114610473578063715018a61461049c57600080fd5b8063313ce567116102c957806345540afb116102a357806345540afb146103e55780634b19eff5146103ed5780635014a15b1461040057806350ed58421461041357600080fd5b8063313ce567146103af57806332cb6b0c146103be57806342966c68146103d057600080fd5b806306fdde0314610311578063095ea7b31461032f578063138bb81a1461035257806318160ddd1461036957806323b872dd146103715780632fcbb5a214610384575b600080fd5b6103196106bd565b60405161032691906117f3565b60405180910390f35b61034261033d36600461185d565b61074f565b6040519015158152602001610326565b61035b60155481565b604051908152602001610326565b60025461035b565b61034261037f366004611887565b610769565b600854610397906001600160a01b031681565b6040516001600160a01b039091168152602001610326565b60405160128152602001610326565b61035b6a52b7d2dcc80cd2e400000081565b6103e36103de3660046118c3565b61078d565b005b61035b61079a565b6103e36103fb36600461185d565b6107e1565b6103e361040e3660046118dc565b610a51565b61035b60125481565b610424610bc1565b604080519586526020860194909452928401919091526060830152608082015260a001610326565b61035b6301e1338081565b61035b60135481565b600754610397906001600160a01b031681565b61035b61048136600461190f565b6001600160a01b031660009081526020819052604090205490565b6103e3610c3e565b6103e36104b236600461185d565b610c52565b6103e36104c53660046118c3565b610c6b565b61035b610da0565b6005546001600160a01b0316610397565b61035b600d5481565b610319610dcd565b61035b6a084595161401484a00000081565b61035b6a211654585005212800000081565b61034261052636600461185d565b610ddc565b60115461035b565b61035b60105481565b61035b6969e10de76676d080000081565b61056061055b3660046118c3565b610dea565b60408051938452602084019290925290820152606001610326565b61035b6a108b2a2c2802909400000081565b61035b610e1d565b61035b600e5481565b6103e36105ac3660046118c3565b610ea5565b61035b60165481565b600954610397906001600160a01b031681565b61035b600a5481565b61035b60145481565b61035b6105ed3660046118dc565b6001600160a01b03918216600090815260016020908152604080832093909416825291909152205490565b6103e36106263660046118c3565b610fe3565b61035b600f5481565b60075461034290600160a01b900460ff1681565b61035b600c5481565b600654610397906001600160a01b031681565b61066c611111565b6040805194151585526020850193909352918301526060820152608001610326565b6103e361069c3660046118c3565b611183565b6103e36106af36600461190f565b611294565b61035b600b5481565b6060600380546106cc90611931565b80601f01602080910402602001604051908101604052809291908181526020018280546106f890611931565b80156107455780601f1061071a57610100808354040283529160200191610745565b820191906000526020600020905b81548152906001019060200180831161072857829003601f168201915b5050505050905090565b60003361075d8185856112cf565b60019150505b92915050565b6000336107778582856112e1565b610782858585611360565b506001949350505050565b61079733826113bf565b50565b6000600f546000036107ad575061271090565b6000601054600e546107bf9190611981565b600f549091506107d182612710611994565b6107db91906119ab565b91505090565b6107e96113f5565b6015546107f99062278d00611981565b421061081157610807611422565b6000601455426015555b600061081b610e1d565b9050808260145461082c9190611981565b111561087f5760405162461bcd60e51b815260206004820152601c60248201527f4d6f6e74686c7920656d697373696f6e2063617020726561636865640000000060448201526064015b60405180910390fd5b6000600a546a211654585005212800000061089a91906119cd565b90508083116108ca5782600a60008282546108b59190611981565b909155506108c59050848461156c565b6109dd565b80156109715760006108dc82856119cd565b90506016548111156109305760405162461bcd60e51b815260206004820152601860248201527f4578636565647320617661696c61626c6520746f6b656e7300000000000000006044820152606401610876565b81600a60008282546109429190611981565b92505081905550806016600082825461095b91906119cd565b9091555061096b9050858561156c565b506109dd565b6016548311156109bb5760405162461bcd60e51b8152602060048201526015602482015274115e18d959591cc81c9958de58db1959081c1bdbdb605a1b6044820152606401610876565b82601660008282546109cd91906119cd565b909155506109dd9050848461156c565b82601460008282546109ef9190611981565b9250508190555082600f6000828254610a089190611981565b90915550506040518381526001600160a01b038516907f3a832159051a6db655623c10d4ec98d67945b02b49ca3b5d2e65656570a095d69060200160405180910390a250505050565b610a596113f5565b600754600160a01b900460ff1615610aa45760405162461bcd60e51b815260206004820152600e60248201526d105b1c9958591e481b1bd8dad95960921b6044820152606401610876565b6001600160a01b038216610af15760405162461bcd60e51b8152602060048201526014602482015273496e76616c6964207465616d2076657374696e6760601b6044820152606401610876565b6001600160a01b038116610b475760405162461bcd60e51b815260206004820152601860248201527f496e76616c69642074726561737572792076657374696e6700000000000000006044820152606401610876565b600680546001600160a01b038481166001600160a01b03199092168217909255600780546001600160a81b031916928416928317600160a01b1790556040805191825260208201929092527ffe895cfd0ed449f30167a1c6d088e27fb72a5280c1f3de4a9106feaf8924c339910160405180910390a15050565b6000806000806000600a546a2116545850052128000000610be291906119cd565b600b54610bfa906a108b2a2c280290940000006119cd565b600c54610c12906a108b2a2c280290940000006119cd565b600d54610c2a906a084595161401484a0000006119cd565b601654945094509450945094509091929394565b610c466113f5565b610c5060006115a2565b565b610c5d8233836112e1565b610c6782826113bf565b5050565b610c736113f5565b600754600160a01b900460ff16610cc55760405162461bcd60e51b815260206004820152601660248201527515995cdd1a5b99c81b9bdd0818dbdb999a59dd5c995960521b6044820152606401610876565b6a108b2a2c2802909400000081600c54610cdf9190611981565b1115610d2d5760405162461bcd60e51b815260206004820152601760248201527f45786365656473207465616d20616c6c6f636174696f6e0000000000000000006044820152606401610876565b80600c6000828254610d3f9190611981565b9091555050600654610d5a906001600160a01b03168261156c565b6006546040518281526001600160a01b03909116907f2275eaa3e963dba9852fdc7268a0ad55c5f4e0089d865def9438cf5687dcdcec906020015b60405180910390a250565b6000601654600a546a2116545850052128000000610dbe91906119cd565b610dc89190611981565b905090565b6060600480546106cc90611931565b60003361075d818585611360565b60118181548110610dfa57600080fd5b600091825260209091206003909102018054600182015460029092015490925083565b6000806301e1338060135442610e3391906119cd565b610e3d91906119ab565b90506969e10de76676d080000060005b8281108015610e5c5750600a81105b15610e8057610e6c6002836119ab565b915080610e78816119e0565b915050610e4d565b5069021e19e0c9bab2400000811015610763575069021e19e0c9bab240000092915050565b33600090815260208190526040902054811115610efb5760405162461bcd60e51b8152602060048201526014602482015273496e73756666696369656e742062616c616e636560601b6044820152606401610876565b6000610f086002836119ab565b90506000610f1682846119cd565b9050610f2233846113bf565b8060166000828254610f349190611981565b925050819055508160106000828254610f4d9190611981565b909155505060115415610fa35760118054839190610f6d906001906119cd565b81548110610f7d57610f7d6119f9565b90600052602060002090600302016001016000828254610f9d9190611981565b90915550505b604080518481526020810184905233917f45f04836f6ec64442b9e2ff56bbec9a27411e644c985f1f7974f676cf184e6fa910160405180910390a2505050565b610feb6113f5565b600754600160a01b900460ff1661103d5760405162461bcd60e51b815260206004820152601660248201527515995cdd1a5b99c81b9bdd0818dbdb999a59dd5c995960521b6044820152606401610876565b6a108b2a2c2802909400000081600b546110579190611981565b11156110a55760405162461bcd60e51b815260206004820152601b60248201527f4578636565647320747265617375727920616c6c6f636174696f6e00000000006044820152606401610876565b80600b60008282546110b79190611981565b90915550506007546110d2906001600160a01b03168261156c565b6007546040518281526001600160a01b03909116907f76dece047ff7ad87a0a2971cb0d585dbbd5bf0abe78c1161a1d018ab6011611f90602001610d95565b601454601154600091829182918291829061112d576000611160565b6011805461113d906001906119cd565b8154811061114d5761114d6119f9565b9060005260206000209060030201600101545b9050600061116e8383611a0f565b60008112159893975091955090935090915050565b61118b6113f5565b336000908152602081905260409020548111156111e15760405162461bcd60e51b8152602060048201526014602482015273496e73756666696369656e742062616c616e636560601b6044820152606401610876565b6111eb33826113bf565b80600e60008282546111fd9190611981565b909155505060115415611253576011805482919061121d906001906119cd565b8154811061122d5761122d6119f9565b9060005260206000209060030201600101600082825461124d9190611981565b90915550505b600e546040805183815260208101929092527fc65a4c73cfd820dccb7079db9e52bb2c09dfd56f9221e7d815e201b726b5c39d91015b60405180910390a150565b61129c6113f5565b6001600160a01b0381166112c657604051631e4fbdf760e01b815260006004820152602401610876565b610797816115a2565b6112dc83838360016115f4565b505050565b6001600160a01b0383811660009081526001602090815260408083209386168352929052205460001981101561135a578181101561134b57604051637dc7a0d960e11b81526001600160a01b03841660048201526024810182905260448101839052606401610876565b61135a848484840360006115f4565b50505050565b6001600160a01b03831661138a57604051634b637e8f60e11b815260006004820152602401610876565b6001600160a01b0382166113b45760405163ec442f0560e01b815260006004820152602401610876565b6112dc8383836116c9565b6001600160a01b0382166113e957604051634b637e8f60e11b815260006004820152602401610876565b610c67826000836116c9565b6005546001600160a01b03163314610c505760405163118cdaa760e01b8152336004820152602401610876565b6040805160608101825260008082526020820181815242938301938452601180546001810182559281905292517f31ecc21a745e3968a04e9570e4425bc18fa8019c68028196b546d1669c200c68600390930292830155517f31ecc21a745e3968a04e9570e4425bc18fa8019c68028196b546d1669c200c6982015591517f31ecc21a745e3968a04e9570e4425bc18fa8019c68028196b546d1669c200c6a9092019190915554600211610c50576011546000906114e2906002906119cd565b90507f8f7a79ad52b9fda3f9bf5900ef0b392d4716e52f49b4a43e98472e199bdb221c8160118381548110611519576115196119f9565b9060005260206000209060030201600001546011848154811061153e5761153e6119f9565b6000918252602091829020600160039092020101546040805194855291840192909252820152606001611289565b6001600160a01b0382166115965760405163ec442f0560e01b815260006004820152602401610876565b610c67600083836116c9565b600580546001600160a01b038381166001600160a01b0319831681179093556040519116919082907f8be0079c531659141344cd1fd0a4f28419497f9722a3daafe3b4186f6b6457e090600090a35050565b6001600160a01b03841661161e5760405163e602df0560e01b815260006004820152602401610876565b6001600160a01b03831661164857604051634a1406b160e11b815260006004820152602401610876565b6001600160a01b038085166000908152600160209081526040808320938716835292905220829055801561135a57826001600160a01b0316846001600160a01b03167f8c5be1e5ebec7d5bd14f71427d1e84f3dd0314c0f7b2291e5b200ac8c7c3b925846040516116bb91815260200190565b60405180910390a350505050565b6001600160a01b0383166116f45780600260008282546116e99190611981565b909155506117669050565b6001600160a01b038316600090815260208190526040902054818110156117475760405163391434e360e21b81526001600160a01b03851660048201526024810182905260448101839052606401610876565b6001600160a01b03841660009081526020819052604090209082900390555b6001600160a01b038216611782576002805482900390556117a1565b6001600160a01b03821660009081526020819052604090208054820190555b816001600160a01b0316836001600160a01b03167fddf252ad1be2c89b69c2b068fc378daa952ba7f163c4a11628f55a4df523b3ef836040516117e691815260200190565b60405180910390a3505050565b600060208083528351808285015260005b8181101561182057858101830151858201604001528201611804565b506000604082860101526040601f19601f8301168501019250505092915050565b80356001600160a01b038116811461185857600080fd5b919050565b6000806040838503121561187057600080fd5b61187983611841565b946020939093013593505050565b60008060006060848603121561189c57600080fd5b6118a584611841565b92506118b360208501611841565b9150604084013590509250925092565b6000602082840312156118d557600080fd5b5035919050565b600080604083850312156118ef57600080fd5b6118f883611841565b915061190660208401611841565b90509250929050565b60006020828403121561192157600080fd5b61192a82611841565b9392505050565b600181811c9082168061194557607f821691505b60208210810361196557634e487b7160e01b600052602260045260246000fd5b50919050565b634e487b7160e01b600052601160045260246000fd5b808201808211156107635761076361196b565b80820281158282048414176107635761076361196b565b6000826119c857634e487b7160e01b600052601260045260246000fd5b500490565b818103818111156107635761076361196b565b6000600182016119f2576119f261196b565b5060010190565b634e487b7160e01b600052603260045260246000fd5b8181036000831280158383131683831282161715611a2f57611a2f61196b565b509291505056fea2646970667358221220fd8bee4e222bae724a262ff14493c55dbfdb9f069c51de982b0f86fb4241d2cb64736f6c63430008140033","opcodes":"PUSH1 0x80 PUSH1 0x40 MSTORE CALLVALUE DUP1 ISZERO PUSH3 0x11 JUMPI PUSH1 0x0 DUP1 REVERT JUMPDEST POP PUSH1 0x40 MLOAD PUSH3 0x20C1 CODESIZE SUB DUP1 PUSH3 0x20C1 DUP4 CODECOPY DUP2 ADD PUSH1 0x40 DUP2 SWAP1 MSTORE PUSH3 0x34 SWAP2 PUSH3 0x474 JUMP JUMPDEST CALLER PUSH1 0x40 MLOAD DUP1 PUSH1 0x40 ADD PUSH1 0x40 MSTORE DUP1 PUSH1 0x11 DUP2 MSTORE PUSH1 0x20 ADD PUSH17 0x29B0B332A9B1B7B934B733902A37B5B2B7 PUSH1 0x79 SHL DUP2 MSTORE POP PUSH1 0x40 MLOAD DUP1 PUSH1 0x40 ADD PUSH1 0x40 MSTORE DUP1 PUSH1 0x4 DUP2 MSTORE PUSH1 0x20 ADD PUSH4 0x53414645 PUSH1 0xE0 SHL DUP2 MSTORE POP DUP2 PUSH1 0x3 SWAP1 DUP2 PUSH3 0x8D SWAP2 SWAP1 PUSH3 0x551 JUMP JUMPDEST POP PUSH1 0x4 PUSH3 0x9C DUP3 DUP3 PUSH3 0x551 JUMP JUMPDEST POP POP POP PUSH1 0x1 PUSH1 0x1 PUSH1 0xA0 SHL SUB DUP2 AND PUSH3 0xCF JUMPI PUSH1 0x40 MLOAD PUSH4 0x1E4FBDF7 PUSH1 0xE0 SHL DUP2 MSTORE PUSH1 0x0 PUSH1 0x4 DUP3 ADD MSTORE PUSH1 0x24 ADD JUMPDEST PUSH1 0x40 MLOAD DUP1 SWAP2 SUB SWAP1 REVERT JUMPDEST PUSH3 0xDA DUP2 PUSH3 0x294 JUMP JUMPDEST POP PUSH1 0x1 PUSH1 0x1 PUSH1 0xA0 SHL SUB DUP3 AND PUSH3 0x133 JUMPI PUSH1 0x40 MLOAD PUSH3 0x461BCD PUSH1 0xE5 SHL DUP2 MSTORE PUSH1 0x20 PUSH1 0x4 DUP3 ADD MSTORE PUSH1 0x18 PUSH1 0x24 DUP3 ADD MSTORE PUSH32 0x496E76616C696420636F6D6D756E6974792077616C6C65740000000000000000 PUSH1 0x44 DUP3 ADD MSTORE PUSH1 0x64 ADD PUSH3 0xC6 JUMP JUMPDEST PUSH1 0x1 PUSH1 0x1 PUSH1 0xA0 SHL SUB DUP2 AND PUSH3 0x18B JUMPI PUSH1 0x40 MLOAD PUSH3 0x461BCD PUSH1 0xE5 SHL DUP2 MSTORE PUSH1 0x20 PUSH1 0x4 DUP3 ADD MSTORE PUSH1 0x18 PUSH1 0x24 DUP3 ADD MSTORE PUSH32 0x496E76616C6964206C69717569646974792077616C6C65740000000000000000 PUSH1 0x44 DUP3 ADD MSTORE PUSH1 0x64 ADD PUSH3 0xC6 JUMP JUMPDEST PUSH1 0x8 DUP1 SLOAD PUSH1 0x1 PUSH1 0x1 PUSH1 0xA0 SHL SUB DUP1 DUP6 AND PUSH1 0x1 PUSH1 0x1 PUSH1 0xA0 SHL SUB NOT SWAP3 DUP4 AND OR SWAP1 SWAP3 SSTORE PUSH1 0x9 DUP1 SLOAD SWAP3 DUP5 AND SWAP3 SWAP1 SWAP2 AND SWAP2 SWAP1 SWAP2 OR SWAP1 SSTORE TIMESTAMP PUSH1 0x13 DUP2 SWAP1 SSTORE PUSH1 0x15 SSTORE PUSH3 0x1DB DUP2 PUSH11 0x84595161401484A000000 PUSH3 0x2E6 JUMP JUMPDEST POP POP PUSH11 0x84595161401484A000000 PUSH1 0xD SSTORE PUSH1 0x40 DUP1 MLOAD PUSH1 0x60 DUP2 ADD DUP3 MSTORE PUSH1 0x0 DUP1 DUP3 MSTORE PUSH1 0x20 DUP3 ADD DUP2 DUP2 MSTORE TIMESTAMP SWAP4 DUP4 ADD SWAP4 DUP5 MSTORE PUSH1 0x11 DUP1 SLOAD PUSH1 0x1 DUP2 ADD DUP3 SSTORE SWAP3 MSTORE SWAP2 MLOAD PUSH32 0x31ECC21A745E3968A04E9570E4425BC18FA8019C68028196B546D1669C200C68 PUSH1 0x3 SWAP1 SWAP3 MUL SWAP2 DUP3 ADD SSTORE SWAP1 MLOAD PUSH32 0x31ECC21A745E3968A04E9570E4425BC18FA8019C68028196B546D1669C200C69 DUP3 ADD SSTORE SWAP1 MLOAD PUSH32 0x31ECC21A745E3968A04E9570E4425BC18FA8019C68028196B546D1669C200C6A SWAP1 SWAP2 ADD SSTORE PUSH3 0x645 JUMP JUMPDEST PUSH1 0x5 DUP1 SLOAD PUSH1 0x1 PUSH1 0x1 PUSH1 0xA0 SHL SUB DUP4 DUP2 AND PUSH1 0x1 PUSH1 0x1 PUSH1 0xA0 SHL SUB NOT DUP4 AND DUP2 OR SWAP1 SWAP4 SSTORE PUSH1 0x40 MLOAD SWAP2 AND SWAP2 SWAP1 DUP3 SWAP1 PUSH32 0x8BE0079C531659141344CD1FD0A4F28419497F9722A3DAAFE3B4186F6B6457E0 SWAP1 PUSH1 0x0 SWAP1 LOG3 POP POP JUMP JUMPDEST PUSH1 0x1 PUSH1 0x1 PUSH1 0xA0 SHL SUB DUP3 AND PUSH3 0x312 JUMPI PUSH1 0x40 MLOAD PUSH4 0xEC442F05 PUSH1 0xE0 SHL DUP2 MSTORE PUSH1 0x0 PUSH1 0x4 DUP3 ADD MSTORE PUSH1 0x24 ADD PUSH3 0xC6 JUMP JUMPDEST PUSH3 0x320 PUSH1 0x0 DUP4 DUP4 PUSH3 0x324 JUMP JUMPDEST POP POP JUMP JUMPDEST PUSH1 0x1 PUSH1 0x1 PUSH1 0xA0 SHL SUB DUP4 AND PUSH3 0x353 JUMPI DUP1 PUSH1 0x2 PUSH1 0x0 DUP3 DUP3 SLOAD PUSH3 0x347 SWAP2 SWAP1 PUSH3 0x61D JUMP JUMPDEST SWAP1 SWAP2 SSTORE POP PUSH3 0x3C7 SWAP1 POP JUMP JUMPDEST PUSH1 0x1 PUSH1 0x1 PUSH1 0xA0 SHL SUB DUP4 AND PUSH1 0x0 SWAP1 DUP2 MSTORE PUSH1 0x20 DUP2 SWAP1 MSTORE PUSH1 0x40 SWAP1 KECCAK256 SLOAD DUP2 DUP2 LT ISZERO PUSH3 0x3A8 JUMPI PUSH1 0x40 MLOAD PUSH4 0x391434E3 PUSH1 0xE2 SHL DUP2 MSTORE PUSH1 0x1 PUSH1 0x1 PUSH1 0xA0 SHL SUB DUP6 AND PUSH1 0x4 DUP3 ADD MSTORE PUSH1 0x24 DUP2 ADD DUP3 SWAP1 MSTORE PUSH1 0x44 DUP2 ADD DUP4 SWAP1 MSTORE PUSH1 0x64 ADD PUSH3 0xC6 JUMP JUMPDEST PUSH1 0x1 PUSH1 0x1 PUSH1 0xA0 SHL SUB DUP5 AND PUSH1 0x0 SWAP1 DUP2 MSTORE PUSH1 0x20 DUP2 SWAP1 MSTORE PUSH1 0x40 SWAP1 KECCAK256 SWAP1 DUP3 SWAP1 SUB SWAP1 SSTORE JUMPDEST PUSH1 0x1 PUSH1 0x1 PUSH1 0xA0 SHL SUB DUP3 AND PUSH3 0x3E5 JUMPI PUSH1 0x2 DUP1 SLOAD DUP3 SWAP1 SUB SWAP1 SSTORE PUSH3 0x404 JUMP JUMPDEST PUSH1 0x1 PUSH1 0x1 PUSH1 0xA0 SHL SUB DUP3 AND PUSH1 0x0 SWAP1 DUP2 MSTORE PUSH1 0x20 DUP2 SWAP1 MSTORE PUSH1 0x40 SWAP1 KECCAK256 DUP1 SLOAD DUP3 ADD SWAP1 SSTORE JUMPDEST DUP2 PUSH1 0x1 PUSH1 0x1 PUSH1 0xA0 SHL SUB AND DUP4 PUSH1 0x1 PUSH1 0x1 PUSH1 0xA0 SHL SUB AND PUSH32 0xDDF252AD1BE2C89B69C2B068FC378DAA952BA7F163C4A11628F55A4DF523B3EF DUP4 PUSH1 0x40 MLOAD PUSH3 0x44A SWAP2 DUP2 MSTORE PUSH1 0x20 ADD SWAP1 JUMP JUMPDEST PUSH1 0x40 MLOAD DUP1 SWAP2 SUB SWAP1 LOG3 POP POP POP JUMP JUMPDEST DUP1 MLOAD PUSH1 0x1 PUSH1 0x1 PUSH1 0xA0 SHL SUB DUP2 AND DUP2 EQ PUSH3 0x46F JUMPI PUSH1 0x0 DUP1 REVERT JUMPDEST SWAP2 SWAP1 POP JUMP JUMPDEST PUSH1 0x0 DUP1 PUSH1 0x40 DUP4 DUP6 SUB SLT ISZERO PUSH3 0x488 JUMPI PUSH1 0x0 DUP1 REVERT JUMPDEST PUSH3 0x493 DUP4 PUSH3 0x457 JUMP JUMPDEST SWAP2 POP PUSH3 0x4A3 PUSH1 0x20 DUP5 ADD PUSH3 0x457 JUMP JUMPDEST SWAP1 POP SWAP3 POP SWAP3 SWAP1 POP JUMP JUMPDEST PUSH4 0x4E487B71 PUSH1 0xE0 SHL PUSH1 0x0 MSTORE PUSH1 0x41 PUSH1 0x4 MSTORE PUSH1 0x24 PUSH1 0x0 REVERT JUMPDEST PUSH1 0x1 DUP2 DUP2 SHR SWAP1 DUP3 AND DUP1 PUSH3 0x4D7 JUMPI PUSH1 0x7F DUP3 AND SWAP2 POP JUMPDEST PUSH1 0x20 DUP3 LT DUP2 SUB PUSH3 0x4F8 JUMPI PUSH4 0x4E487B71 PUSH1 0xE0 SHL PUSH1 0x0 MSTORE PUSH1 0x22 PUSH1 0x4 MSTORE PUSH1 0x24 PUSH1 0x0 REVERT JUMPDEST POP SWAP2 SWAP1 POP JUMP JUMPDEST PUSH1 0x1F DUP3 GT ISZERO PUSH3 0x54C JUMPI PUSH1 0x0 DUP2 DUP2 MSTORE PUSH1 0x20 DUP2 KECCAK256 PUSH1 0x1F DUP6 ADD PUSH1 0x5 SHR DUP2 ADD PUSH1 0x20 DUP7 LT ISZERO PUSH3 0x527 JUMPI POP DUP1 JUMPDEST PUSH1 0x1F DUP6 ADD PUSH1 0x5 SHR DUP3 ADD SWAP2 POP JUMPDEST DUP2 DUP2 LT ISZERO PUSH3 0x548 JUMPI DUP3 DUP2 SSTORE PUSH1 0x1 ADD PUSH3 0x533 JUMP JUMPDEST POP POP POP JUMPDEST POP POP POP JUMP JUMPDEST DUP2 MLOAD PUSH1 0x1 PUSH1 0x1 PUSH1 0x40 SHL SUB DUP2 GT ISZERO PUSH3 0x56D JUMPI PUSH3 0x56D PUSH3 0x4AC JUMP JUMPDEST PUSH3 0x585 DUP2 PUSH3 0x57E DUP5 SLOAD PUSH3 0x4C2 JUMP JUMPDEST DUP5 PUSH3 0x4FE JUMP JUMPDEST PUSH1 0x20 DUP1 PUSH1 0x1F DUP4 GT PUSH1 0x1 DUP2 EQ PUSH3 0x5BD JUMPI PUSH1 0x0 DUP5 ISZERO PUSH3 0x5A4 JUMPI POP DUP6 DUP4 ADD MLOAD JUMPDEST PUSH1 0x0 NOT PUSH1 0x3 DUP7 SWAP1 SHL SHR NOT AND PUSH1 0x1 DUP6 SWAP1 SHL OR DUP6 SSTORE PUSH3 0x548 JUMP JUMPDEST PUSH1 0x0 DUP6 DUP2 MSTORE PUSH1 0x20 DUP2 KECCAK256 PUSH1 0x1F NOT DUP7 AND SWAP2 JUMPDEST DUP3 DUP2 LT ISZERO PUSH3 0x5EE JUMPI DUP9 DUP7 ADD MLOAD DUP3 SSTORE SWAP5 DUP5 ADD SWAP5 PUSH1 0x1 SWAP1 SWAP2 ADD SWAP1 DUP5 ADD PUSH3 0x5CD JUMP JUMPDEST POP DUP6 DUP3 LT ISZERO PUSH3 0x60D JUMPI DUP8 DUP6 ADD MLOAD PUSH1 0x0 NOT PUSH1 0x3 DUP9 SWAP1 SHL PUSH1 0xF8 AND SHR NOT AND DUP2 SSTORE JUMPDEST POP POP POP POP POP PUSH1 0x1 SWAP1 DUP2 SHL ADD SWAP1 SSTORE POP JUMP JUMPDEST DUP1 DUP3 ADD DUP1 DUP3 GT ISZERO PUSH3 0x63F JUMPI PUSH4 0x4E487B71 PUSH1 0xE0 SHL PUSH1 0x0 MSTORE PUSH1 0x11 PUSH1 0x4 MSTORE PUSH1 0x24 PUSH1 0x0 REVERT JUMPDEST SWAP3 SWAP2 POP POP JUMP JUMPDEST PUSH2 0x1A6C DUP1 PUSH3 0x655 PUSH1 0x0 CODECOPY PUSH1 0x0 RETURN INVALID PUSH1 0x80 PUSH1 0x40 MSTORE CALLVALUE DUP1 ISZERO PUSH2 0x10 JUMPI PUSH1 0x0 DUP1 REVERT JUMPDEST POP PUSH1 0x4 CALLDATASIZE LT PUSH2 0x30C JUMPI PUSH1 0x0 CALLDATALOAD PUSH1 0xE0 SHR DUP1 PUSH4 0x993EB1C5 GT PUSH2 0x19D JUMPI DUP1 PUSH4 0xDB891A9D GT PUSH2 0xE9 JUMPI DUP1 PUSH4 0xEF7297DE GT PUSH2 0xA2 JUMPI DUP1 PUSH4 0xF2FDE38B GT PUSH2 0x7C JUMPI DUP1 PUSH4 0xF2FDE38B EQ PUSH2 0x6A1 JUMPI DUP1 PUSH4 0xF9428F38 EQ PUSH2 0x4F4 JUMPI DUP1 PUSH4 0xFD99CBED EQ PUSH2 0x57B JUMPI DUP1 PUSH4 0xFDD0F3CA EQ PUSH2 0x6B4 JUMPI PUSH1 0x0 DUP1 REVERT JUMPDEST DUP1 PUSH4 0xEF7297DE EQ PUSH2 0x651 JUMPI DUP1 PUSH4 0xF1C2C8CC EQ PUSH2 0x664 JUMPI DUP1 PUSH4 0xF1C7C2D0 EQ PUSH2 0x68E JUMPI PUSH1 0x0 DUP1 REVERT JUMPDEST DUP1 PUSH4 0xDB891A9D EQ PUSH2 0x5D6 JUMPI DUP1 PUSH4 0xDD62ED3E EQ PUSH2 0x5DF JUMPI DUP1 PUSH4 0xDE226786 EQ PUSH2 0x618 JUMPI DUP1 PUSH4 0xDF0244B1 EQ PUSH2 0x62B JUMPI DUP1 PUSH4 0xDF93CBF0 EQ PUSH2 0x634 JUMPI DUP1 PUSH4 0xE8B5498D EQ PUSH2 0x648 JUMPI PUSH1 0x0 DUP1 REVERT JUMPDEST DUP1 PUSH4 0xBF1AD7E0 GT PUSH2 0x156 JUMPI DUP1 PUSH4 0xD02D6AF3 GT PUSH2 0x130 JUMPI DUP1 PUSH4 0xD02D6AF3 EQ PUSH2 0x59E JUMPI DUP1 PUSH4 0xD042959E EQ PUSH2 0x5B1 JUMPI DUP1 PUSH4 0xD4698016 EQ PUSH2 0x5BA JUMPI DUP1 PUSH4 0xD9C5B0D3 EQ PUSH2 0x5CD JUMPI PUSH1 0x0 DUP1 REVERT JUMPDEST DUP1 PUSH4 0xBF1AD7E0 EQ PUSH2 0x57B JUMPI DUP1 PUSH4 0xC332DAFC EQ PUSH2 0x58D JUMPI DUP1 PUSH4 0xC93D0ECE EQ PUSH2 0x595 JUMPI PUSH1 0x0 DUP1 REVERT JUMPDEST DUP1 PUSH4 0x993EB1C5 EQ PUSH2 0x506 JUMPI DUP1 PUSH4 0xA9059CBB EQ PUSH2 0x518 JUMPI DUP1 PUSH4 0xA9609489 EQ PUSH2 0x52B JUMPI DUP1 PUSH4 0xAEB0CD6C EQ PUSH2 0x533 JUMPI DUP1 PUSH4 0xB1545E80 EQ PUSH2 0x53C JUMPI DUP1 PUSH4 0xB1D9ADFD EQ PUSH2 0x54D JUMPI PUSH1 0x0 DUP1 REVERT JUMPDEST DUP1 PUSH4 0x5ADCA659 GT PUSH2 0x25C JUMPI DUP1 PUSH4 0x79CC6790 GT PUSH2 0x215 JUMPI DUP1 PUSH4 0x8DA5CB5B GT PUSH2 0x1EF JUMPI DUP1 PUSH4 0x8DA5CB5B EQ PUSH2 0x4D2 JUMPI DUP1 PUSH4 0x8EAB0751 EQ PUSH2 0x4E3 JUMPI DUP1 PUSH4 0x95D89B41 EQ PUSH2 0x4EC JUMPI DUP1 PUSH4 0x969B8CBA EQ PUSH2 0x4F4 JUMPI PUSH1 0x0 DUP1 REVERT JUMPDEST DUP1 PUSH4 0x79CC6790 EQ PUSH2 0x4A4 JUMPI DUP1 PUSH4 0x7E802500 EQ PUSH2 0x4B7 JUMPI DUP1 PUSH4 0x7EB917B8 EQ PUSH2 0x4CA JUMPI PUSH1 0x0 DUP1 REVERT JUMPDEST DUP1 PUSH4 0x5ADCA659 EQ PUSH2 0x41C JUMPI DUP1 PUSH4 0x5FD9491D EQ PUSH2 0x44C JUMPI DUP1 PUSH4 0x607AD0D7 EQ PUSH2 0x457 JUMPI DUP1 PUSH4 0x6EA32714 EQ PUSH2 0x460 JUMPI DUP1 PUSH4 0x70A08231 EQ PUSH2 0x473 JUMPI DUP1 PUSH4 0x715018A6 EQ PUSH2 0x49C JUMPI PUSH1 0x0 DUP1 REVERT JUMPDEST DUP1 PUSH4 0x313CE567 GT PUSH2 0x2C9 JUMPI DUP1 PUSH4 0x45540AFB GT PUSH2 0x2A3 JUMPI DUP1 PUSH4 0x45540AFB EQ PUSH2 0x3E5 JUMPI DUP1 PUSH4 0x4B19EFF5 EQ PUSH2 0x3ED JUMPI DUP1 PUSH4 0x5014A15B EQ PUSH2 0x400 JUMPI DUP1 PUSH4 0x50ED5842 EQ PUSH2 0x413 JUMPI PUSH1 0x0 DUP1 REVERT JUMPDEST DUP1 PUSH4 0x313CE567 EQ PUSH2 0x3AF JUMPI DUP1 PUSH4 0x32CB6B0C EQ PUSH2 0x3BE JUMPI DUP1 PUSH4 0x42966C68 EQ PUSH2 0x3D0 JUMPI PUSH1 0x0 DUP1 REVERT JUMPDEST DUP1 PUSH4 0x6FDDE03 EQ PUSH2 0x311 JUMPI DUP1 PUSH4 0x95EA7B3 EQ PUSH2 0x32F JUMPI DUP1 PUSH4 0x138BB81A EQ PUSH2 0x352 JUMPI DUP1 PUSH4 0x18160DDD EQ PUSH2 0x369 JUMPI DUP1 PUSH4 0x23B872DD EQ PUSH2 0x371 JUMPI DUP1 PUSH4 0x2FCBB5A2 EQ PUSH2 0x384 JUMPI JUMPDEST PUSH1 0x0 DUP1 REVERT JUMPDEST PUSH2 0x319 PUSH2 0x6BD JUMP JUMPDEST PUSH1 0x40 MLOAD PUSH2 0x326 SWAP2 SWAP1 PUSH2 0x17F3 JUMP JUMPDEST PUSH1 0x40 MLOAD DUP1 SWAP2 SUB SWAP1 RETURN JUMPDEST PUSH2 0x342 PUSH2 0x33D CALLDATASIZE PUSH1 0x4 PUSH2 0x185D JUMP JUMPDEST PUSH2 0x74F JUMP JUMPDEST PUSH1 0x40 MLOAD SWAP1 ISZERO ISZERO DUP2 MSTORE PUSH1 0x20 ADD PUSH2 0x326 JUMP JUMPDEST PUSH2 0x35B PUSH1 0x15 SLOAD DUP2 JUMP JUMPDEST PUSH1 0x40 MLOAD SWAP1 DUP2 MSTORE PUSH1 0x20 ADD PUSH2 0x326 JUMP JUMPDEST PUSH1 0x2 SLOAD PUSH2 0x35B JUMP JUMPDEST PUSH2 0x342 PUSH2 0x37F CALLDATASIZE PUSH1 0x4 PUSH2 0x1887 JUMP JUMPDEST PUSH2 0x769 JUMP JUMPDEST PUSH1 0x8 SLOAD PUSH2 0x397 SWAP1 PUSH1 0x1 PUSH1 0x1 PUSH1 0xA0 SHL SUB AND DUP2 JUMP JUMPDEST PUSH1 0x40 MLOAD PUSH1 0x1 PUSH1 0x1 PUSH1 0xA0 SHL SUB SWAP1 SWAP2 AND DUP2 MSTORE PUSH1 0x20 ADD PUSH2 0x326 JUMP JUMPDEST PUSH1 0x40 MLOAD PUSH1 0x12 DUP2 MSTORE PUSH1 0x20 ADD PUSH2 0x326 JUMP JUMPDEST PUSH2 0x35B PUSH11 0x52B7D2DCC80CD2E4000000 DUP2 JUMP JUMPDEST PUSH2 0x3E3 PUSH2 0x3DE CALLDATASIZE PUSH1 0x4 PUSH2 0x18C3 JUMP JUMPDEST PUSH2 0x78D JUMP JUMPDEST STOP JUMPDEST PUSH2 0x35B PUSH2 0x79A JUMP JUMPDEST PUSH2 0x3E3 PUSH2 0x3FB CALLDATASIZE PUSH1 0x4 PUSH2 0x185D JUMP JUMPDEST PUSH2 0x7E1 JUMP JUMPDEST PUSH2 0x3E3 PUSH2 0x40E CALLDATASIZE PUSH1 0x4 PUSH2 0x18DC JUMP JUMPDEST PUSH2 0xA51 JUMP JUMPDEST PUSH2 0x35B PUSH1 0x12 SLOAD DUP2 JUMP JUMPDEST PUSH2 0x424 PUSH2 0xBC1 JUMP JUMPDEST PUSH1 0x40 DUP1 MLOAD SWAP6 DUP7 MSTORE PUSH1 0x20 DUP7 ADD SWAP5 SWAP1 SWAP5 MSTORE SWAP3 DUP5 ADD SWAP2 SWAP1 SWAP2 MSTORE PUSH1 0x60 DUP4 ADD MSTORE PUSH1 0x80 DUP3 ADD MSTORE PUSH1 0xA0 ADD PUSH2 0x326 JUMP JUMPDEST PUSH2 0x35B PUSH4 0x1E13380 DUP2 JUMP JUMPDEST PUSH2 0x35B PUSH1 0x13 SLOAD DUP2 JUMP JUMPDEST PUSH1 0x7 SLOAD PUSH2 0x397 SWAP1 PUSH1 0x1 PUSH1 0x1 PUSH1 0xA0 SHL SUB AND DUP2 JUMP JUMPDEST PUSH2 0x35B PUSH2 0x481 CALLDATASIZE PUSH1 0x4 PUSH2 0x190F JUMP JUMPDEST PUSH1 0x1 PUSH1 0x1 PUSH1 0xA0 SHL SUB AND PUSH1 0x0 SWAP1 DUP2 MSTORE PUSH1 0x20 DUP2 SWAP1 MSTORE PUSH1 0x40 SWAP1 KECCAK256 SLOAD SWAP1 JUMP JUMPDEST PUSH2 0x3E3 PUSH2 0xC3E JUMP JUMPDEST PUSH2 0x3E3 PUSH2 0x4B2 CALLDATASIZE PUSH1 0x4 PUSH2 0x185D JUMP JUMPDEST PUSH2 0xC52 JUMP JUMPDEST PUSH2 0x3E3 PUSH2 0x4C5 CALLDATASIZE PUSH1 0x4 PUSH2 0x18C3 JUMP JUMPDEST PUSH2 0xC6B JUMP JUMPDEST PUSH2 0x35B PUSH2 0xDA0 JUMP JUMPDEST PUSH1 0x5 SLOAD PUSH1 0x1 PUSH1 0x1 PUSH1 0xA0 SHL SUB AND PUSH2 0x397 JUMP JUMPDEST PUSH2 0x35B PUSH1 0xD SLOAD DUP2 JUMP JUMPDEST PUSH2 0x319 PUSH2 0xDCD JUMP JUMPDEST PUSH2 0x35B PUSH11 0x84595161401484A000000 DUP2 JUMP JUMPDEST PUSH2 0x35B PUSH11 0x2116545850052128000000 DUP2 JUMP JUMPDEST PUSH2 0x342 PUSH2 0x526 CALLDATASIZE PUSH1 0x4 PUSH2 0x185D JUMP JUMPDEST PUSH2 0xDDC JUMP JUMPDEST PUSH1 0x11 SLOAD PUSH2 0x35B JUMP JUMPDEST PUSH2 0x35B PUSH1 0x10 SLOAD DUP2 JUMP JUMPDEST PUSH2 0x35B PUSH10 0x69E10DE76676D0800000 DUP2 JUMP JUMPDEST PUSH2 0x560 PUSH2 0x55B CALLDATASIZE PUSH1 0x4 PUSH2 0x18C3 JUMP JUMPDEST PUSH2 0xDEA JUMP JUMPDEST PUSH1 0x40 DUP1 MLOAD SWAP4 DUP5 MSTORE PUSH1 0x20 DUP5 ADD SWAP3 SWAP1 SWAP3 MSTORE SWAP1 DUP3 ADD MSTORE PUSH1 0x60 ADD PUSH2 0x326 JUMP JUMPDEST PUSH2 0x35B PUSH11 0x108B2A2C28029094000000 DUP2 JUMP JUMPDEST PUSH2 0x35B PUSH2 0xE1D JUMP JUMPDEST PUSH2 0x35B PUSH1 0xE SLOAD DUP2 JUMP JUMPDEST PUSH2 0x3E3 PUSH2 0x5AC CALLDATASIZE PUSH1 0x4 PUSH2 0x18C3 JUMP JUMPDEST PUSH2 0xEA5 JUMP JUMPDEST PUSH2 0x35B PUSH1 0x16 SLOAD DUP2 JUMP JUMPDEST PUSH1 0x9 SLOAD PUSH2 0x397 SWAP1 PUSH1 0x1 PUSH1 0x1 PUSH1 0xA0 SHL SUB AND DUP2 JUMP JUMPDEST PUSH2 0x35B PUSH1 0xA SLOAD DUP2 JUMP JUMPDEST PUSH2 0x35B PUSH1 0x14 SLOAD DUP2 JUMP JUMPDEST PUSH2 0x35B PUSH2 0x5ED CALLDATASIZE PUSH1 0x4 PUSH2 0x18DC JUMP JUMPDEST PUSH1 0x1 PUSH1 0x1 PUSH1 0xA0 SHL SUB SWAP2 DUP3 AND PUSH1 0x0 SWAP1 DUP2 MSTORE PUSH1 0x1 PUSH1 0x20 SWAP1 DUP2 MSTORE PUSH1 0x40 DUP1 DUP4 KECCAK256 SWAP4 SWAP1 SWAP5 AND DUP3 MSTORE SWAP2 SWAP1 SWAP2 MSTORE KECCAK256 SLOAD SWAP1 JUMP JUMPDEST PUSH2 0x3E3 PUSH2 0x626 CALLDATASIZE PUSH1 0x4 PUSH2 0x18C3 JUMP JUMPDEST PUSH2 0xFE3 JUMP JUMPDEST PUSH2 0x35B PUSH1 0xF SLOAD DUP2 JUMP JUMPDEST PUSH1 0x7 SLOAD PUSH2 0x342 SWAP1 PUSH1 0x1 PUSH1 0xA0 SHL SWAP1 DIV PUSH1 0xFF AND DUP2 JUMP JUMPDEST PUSH2 0x35B PUSH1 0xC SLOAD DUP2 JUMP JUMPDEST PUSH1 0x6 SLOAD PUSH2 0x397 SWAP1 PUSH1 0x1 PUSH1 0x1 PUSH1 0xA0 SHL SUB AND DUP2 JUMP JUMPDEST PUSH2 0x66C PUSH2 0x1111 JUMP JUMPDEST PUSH1 0x40 DUP1 MLOAD SWAP5 ISZERO ISZERO DUP6 MSTORE PUSH1 0x20 DUP6 ADD SWAP4 SWAP1 SWAP4 MSTORE SWAP2 DUP4 ADD MSTORE PUSH1 0x60 DUP3 ADD MSTORE PUSH1 0x80 ADD PUSH2 0x326 JUMP JUMPDEST PUSH2 0x3E3 PUSH2 0x69C CALLDATASIZE PUSH1 0x4 PUSH2 0x18C3 JUMP JUMPDEST PUSH2 0x1183 JUMP JUMPDEST PUSH2 0x3E3 PUSH2 0x6AF CALLDATASIZE PUSH1 0x4 PUSH2 0x190F JUMP JUMPDEST PUSH2 0x1294 JUMP JUMPDEST PUSH2 0x35B PUSH1 0xB SLOAD DUP2 JUMP JUMPDEST PUSH1 0x60 PUSH1 0x3 DUP1 SLOAD PUSH2 0x6CC SWAP1 PUSH2 0x1931 JUMP JUMPDEST DUP1 PUSH1 0x1F ADD PUSH1 0x20 DUP1 SWAP2 DIV MUL PUSH1 0x20 ADD PUSH1 0x40 MLOAD SWAP1 DUP2 ADD PUSH1 0x40 MSTORE DUP1 SWAP3 SWAP2 SWAP1 DUP2 DUP2 MSTORE PUSH1 0x20 ADD DUP3 DUP1 SLOAD PUSH2 0x6F8 SWAP1 PUSH2 0x1931 JUMP JUMPDEST DUP1 ISZERO PUSH2 0x745 JUMPI DUP1 PUSH1 0x1F LT PUSH2 0x71A JUMPI PUSH2 0x100 DUP1 DUP4 SLOAD DIV MUL DUP4 MSTORE SWAP2 PUSH1 0x20 ADD SWAP2 PUSH2 0x745 JUMP JUMPDEST DUP3 ADD SWAP2 SWAP1 PUSH1 0x0 MSTORE PUSH1 0x20 PUSH1 0x0 KECCAK256 SWAP1 JUMPDEST DUP2 SLOAD DUP2 MSTORE SWAP1 PUSH1 0x1 ADD SWAP1 PUSH1 0x20 ADD DUP1 DUP4 GT PUSH2 0x728 JUMPI DUP3 SWAP1 SUB PUSH1 0x1F AND DUP3 ADD SWAP2 JUMPDEST POP POP POP POP POP SWAP1 POP SWAP1 JUMP JUMPDEST PUSH1 0x0 CALLER PUSH2 0x75D DUP2 DUP6 DUP6 PUSH2 0x12CF JUMP JUMPDEST PUSH1 0x1 SWAP2 POP POP JUMPDEST SWAP3 SWAP2 POP POP JUMP JUMPDEST PUSH1 0x0 CALLER PUSH2 0x777 DUP6 DUP3 DUP6 PUSH2 0x12E1 JUMP JUMPDEST PUSH2 0x782 DUP6 DUP6 DUP6 PUSH2 0x1360 JUMP JUMPDEST POP PUSH1 0x1 SWAP5 SWAP4 POP POP POP POP JUMP JUMPDEST PUSH2 0x797 CALLER DUP3 PUSH2 0x13BF JUMP JUMPDEST POP JUMP JUMPDEST PUSH1 0x0 PUSH1 0xF SLOAD PUSH1 0x0 SUB PUSH2 0x7AD JUMPI POP PUSH2 0x2710 SWAP1 JUMP JUMPDEST PUSH1 0x0 PUSH1 0x10 SLOAD PUSH1 0xE SLOAD PUSH2 0x7BF SWAP2 SWAP1 PUSH2 0x1981 JUMP JUMPDEST PUSH1 0xF SLOAD SWAP1 SWAP2 POP PUSH2 0x7D1 DUP3 PUSH2 0x2710 PUSH2 0x1994 JUMP JUMPDEST PUSH2 0x7DB SWAP2 SWAP1 PUSH2 0x19AB JUMP JUMPDEST SWAP2 POP POP SWAP1 JUMP JUMPDEST PUSH2 0x7E9 PUSH2 0x13F5 JUMP JUMPDEST PUSH1 0x15 SLOAD PUSH2 0x7F9 SWAP1 PUSH3 0x278D00 PUSH2 0x1981 JUMP JUMPDEST TIMESTAMP LT PUSH2 0x811 JUMPI PUSH2 0x807 PUSH2 0x1422 JUMP JUMPDEST PUSH1 0x0 PUSH1 0x14 SSTORE TIMESTAMP PUSH1 0x15 SSTORE JUMPDEST PUSH1 0x0 PUSH2 0x81B PUSH2 0xE1D JUMP JUMPDEST SWAP1 POP DUP1 DUP3 PUSH1 0x14 SLOAD PUSH2 0x82C SWAP2 SWAP1 PUSH2 0x1981 JUMP JUMPDEST GT ISZERO PUSH2 0x87F JUMPI PUSH1 0x40 MLOAD PUSH3 0x461BCD PUSH1 0xE5 SHL DUP2 MSTORE PUSH1 0x20 PUSH1 0x4 DUP3 ADD MSTORE PUSH1 0x1C PUSH1 0x24 DUP3 ADD MSTORE PUSH32 0x4D6F6E74686C7920656D697373696F6E20636170207265616368656400000000 PUSH1 0x44 DUP3 ADD MSTORE PUSH1 0x64 ADD JUMPDEST PUSH1 0x40 MLOAD DUP1 SWAP2 SUB SWAP1 REVERT JUMPDEST PUSH1 0x0 PUSH1 0xA SLOAD PUSH11 0x2116545850052128000000 PUSH2 0x89A SWAP2 SWAP1 PUSH2 0x19CD JUMP JUMPDEST SWAP1 POP DUP1 DUP4 GT PUSH2 0x8CA JUMPI DUP3 PUSH1 0xA PUSH1 0x0 DUP3 DUP3 SLOAD PUSH2 0x8B5 SWAP2 SWAP1 PUSH2 0x1981 JUMP JUMPDEST SWAP1 SWAP2 SSTORE POP PUSH2 0x8C5 SWAP1 POP DUP5 DUP5 PUSH2 0x156C JUMP JUMPDEST PUSH2 0x9DD JUMP JUMPDEST DUP1 ISZERO PUSH2 0x971 JUMPI PUSH1 0x0 PUSH2 0x8DC DUP3 DUP6 PUSH2 0x19CD JUMP JUMPDEST SWAP1 POP PUSH1 0x16 SLOAD DUP2 GT ISZERO PUSH2 0x930 JUMPI PUSH1 0x40 MLOAD PUSH3 0x461BCD PUSH1 0xE5 SHL DUP2 MSTORE PUSH1 0x20 PUSH1 0x4 DUP3 ADD MSTORE PUSH1 0x18 PUSH1 0x24 DUP3 ADD MSTORE PUSH32 0x4578636565647320617661696C61626C6520746F6B656E730000000000000000 PUSH1 0x44 DUP3 ADD MSTORE PUSH1 0x64 ADD PUSH2 0x876 JUMP JUMPDEST DUP2 PUSH1 0xA PUSH1 0x0 DUP3 DUP3 SLOAD PUSH2 0x942 SWAP2 SWAP1 PUSH2 0x1981 JUMP JUMPDEST SWAP3 POP POP DUP2 SWAP1 SSTORE POP DUP1 PUSH1 0x16 PUSH1 0x0 DUP3 DUP3 SLOAD PUSH2 0x95B SWAP2 SWAP1 PUSH2 0x19CD JUMP JUMPDEST SWAP1 SWAP2 SSTORE POP PUSH2 0x96B SWAP1 POP DUP6 DUP6 PUSH2 0x156C JUMP JUMPDEST POP PUSH2 0x9DD JUMP JUMPDEST PUSH1 0x16 SLOAD DUP4 GT ISZERO PUSH2 0x9BB JUMPI PUSH1 0x40 MLOAD PUSH3 0x461BCD PUSH1 0xE5 SHL DUP2 MSTORE PUSH1 0x20 PUSH1 0x4 DUP3 ADD MSTORE PUSH1 0x15 PUSH1 0x24 DUP3 ADD MSTORE PUSH21 0x115E18D959591CC81C9958DE58DB1959081C1BDBDB PUSH1 0x5A SHL PUSH1 0x44 DUP3 ADD MSTORE PUSH1 0x64 ADD PUSH2 0x876 JUMP JUMPDEST DUP3 PUSH1 0x16 PUSH1 0x0 DUP3 DUP3 SLOAD PUSH2 0x9CD SWAP2 SWAP1 PUSH2 0x19CD JUMP JUMPDEST SWAP1 SWAP2 SSTORE POP PUSH2 0x9DD SWAP1 POP DUP5 DUP5 PUSH2 0x156C JUMP JUMPDEST DUP3 PUSH1 0x14 PUSH1 0x0 DUP3 DUP3 SLOAD PUSH2 0x9EF SWAP2 SWAP1 PUSH2 0x1981 JUMP JUMPDEST SWAP3 POP POP DUP2 SWAP1 SSTORE POP DUP3 PUSH1 0xF PUSH1 0x0 DUP3 DUP3 SLOAD PUSH2 0xA08 SWAP2 SWAP1 PUSH2 0x1981 JUMP JUMPDEST SWAP1 SWAP2 SSTORE POP POP PUSH1 0x40 MLOAD DUP4 DUP2 MSTORE PUSH1 0x1 PUSH1 0x1 PUSH1 0xA0 SHL SUB DUP6 AND SWAP1 PUSH32 0x3A832159051A6DB655623C10D4EC98D67945B02B49CA3B5D2E65656570A095D6 SWAP1 PUSH1 0x20 ADD PUSH1 0x40 MLOAD DUP1 SWAP2 SUB SWAP1 LOG2 POP POP POP POP JUMP JUMPDEST PUSH2 0xA59 PUSH2 0x13F5 JUMP JUMPDEST PUSH1 0x7 SLOAD PUSH1 0x1 PUSH1 0xA0 SHL SWAP1 DIV PUSH1 0xFF AND ISZERO PUSH2 0xAA4 JUMPI PUSH1 0x40 MLOAD PUSH3 0x461BCD PUSH1 0xE5 SHL DUP2 MSTORE PUSH1 0x20 PUSH1 0x4 DUP3 ADD MSTORE PUSH1 0xE PUSH1 0x24 DUP3 ADD MSTORE PUSH14 0x105B1C9958591E481B1BD8DAD959 PUSH1 0x92 SHL PUSH1 0x44 DUP3 ADD MSTORE PUSH1 0x64 ADD PUSH2 0x876 JUMP JUMPDEST PUSH1 0x1 PUSH1 0x1 PUSH1 0xA0 SHL SUB DUP3 AND PUSH2 0xAF1 JUMPI PUSH1 0x40 MLOAD PUSH3 0x461BCD PUSH1 0xE5 SHL DUP2 MSTORE PUSH1 0x20 PUSH1 0x4 DUP3 ADD MSTORE PUSH1 0x14 PUSH1 0x24 DUP3 ADD MSTORE PUSH20 0x496E76616C6964207465616D2076657374696E67 PUSH1 0x60 SHL PUSH1 0x44 DUP3 ADD MSTORE PUSH1 0x64 ADD PUSH2 0x876 JUMP JUMPDEST PUSH1 0x1 PUSH1 0x1 PUSH1 0xA0 SHL SUB DUP2 AND PUSH2 0xB47 JUMPI PUSH1 0x40 MLOAD PUSH3 0x461BCD PUSH1 0xE5 SHL DUP2 MSTORE PUSH1 0x20 PUSH1 0x4 DUP3 ADD MSTORE PUSH1 0x18 PUSH1 0x24 DUP3 ADD MSTORE PUSH32 0x496E76616C69642074726561737572792076657374696E670000000000000000 PUSH1 0x44 DUP3 ADD MSTORE PUSH1 0x64 ADD PUSH2 0x876 JUMP JUMPDEST PUSH1 0x6 DUP1 SLOAD PUSH1 0x1 PUSH1 0x1 PUSH1 0xA0 SHL SUB DUP5 DUP2 AND PUSH1 0x1 PUSH1 0x1 PUSH1 0xA0 SHL SUB NOT SWAP1 SWAP3 AND DUP3 OR SWAP1 SWAP3 SSTORE PUSH1 0x7 DUP1 SLOAD PUSH1 0x1 PUSH1 0x1 PUSH1 0xA8 SHL SUB NOT AND SWAP3 DUP5 AND SWAP3 DUP4 OR PUSH1 0x1 PUSH1 0xA0 SHL OR SWAP1 SSTORE PUSH1 0x40 DUP1 MLOAD SWAP2 DUP3 MSTORE PUSH1 0x20 DUP3 ADD SWAP3 SWAP1 SWAP3 MSTORE PUSH32 0xFE895CFD0ED449F30167A1C6D088E27FB72A5280C1F3DE4A9106FEAF8924C339 SWAP2 ADD PUSH1 0x40 MLOAD DUP1 SWAP2 SUB SWAP1 LOG1 POP POP JUMP JUMPDEST PUSH1 0x0 DUP1 PUSH1 0x0 DUP1 PUSH1 0x0 PUSH1 0xA SLOAD PUSH11 0x2116545850052128000000 PUSH2 0xBE2 SWAP2 SWAP1 PUSH2 0x19CD JUMP JUMPDEST PUSH1 0xB SLOAD PUSH2 0xBFA SWAP1 PUSH11 0x108B2A2C28029094000000 PUSH2 0x19CD JUMP JUMPDEST PUSH1 0xC SLOAD PUSH2 0xC12 SWAP1 PUSH11 0x108B2A2C28029094000000 PUSH2 0x19CD JUMP JUMPDEST PUSH1 0xD SLOAD PUSH2 0xC2A SWAP1 PUSH11 0x84595161401484A000000 PUSH2 0x19CD JUMP JUMPDEST PUSH1 0x16 SLOAD SWAP5 POP SWAP5 POP SWAP5 POP SWAP5 POP SWAP5 POP SWAP1 SWAP2 SWAP3 SWAP4 SWAP5 JUMP JUMPDEST PUSH2 0xC46 PUSH2 0x13F5 JUMP JUMPDEST PUSH2 0xC50 PUSH1 0x0 PUSH2 0x15A2 JUMP JUMPDEST JUMP JUMPDEST PUSH2 0xC5D DUP3 CALLER DUP4 PUSH2 0x12E1 JUMP JUMPDEST PUSH2 0xC67 DUP3 DUP3 PUSH2 0x13BF JUMP JUMPDEST POP POP JUMP JUMPDEST PUSH2 0xC73 PUSH2 0x13F5 JUMP JUMPDEST PUSH1 0x7 SLOAD PUSH1 0x1 PUSH1 0xA0 SHL SWAP1 DIV PUSH1 0xFF AND PUSH2 0xCC5 JUMPI PUSH1 0x40 MLOAD PUSH3 0x461BCD PUSH1 0xE5 SHL DUP2 MSTORE PUSH1 0x20 PUSH1 0x4 DUP3 ADD MSTORE PUSH1 0x16 PUSH1 0x24 DUP3 ADD MSTORE PUSH22 0x15995CDD1A5B99C81B9BDD0818DBDB999A59DD5C9959 PUSH1 0x52 SHL PUSH1 0x44 DUP3 ADD MSTORE PUSH1 0x64 ADD PUSH2 0x876 JUMP JUMPDEST PUSH11 0x108B2A2C28029094000000 DUP2 PUSH1 0xC SLOAD PUSH2 0xCDF SWAP2 SWAP1 PUSH2 0x1981 JUMP JUMPDEST GT ISZERO PUSH2 0xD2D JUMPI PUSH1 0x40 MLOAD PUSH3 0x461BCD PUSH1 0xE5 SHL DUP2 MSTORE PUSH1 0x20 PUSH1 0x4 DUP3 ADD MSTORE PUSH1 0x17 PUSH1 0x24 DUP3 ADD MSTORE PUSH32 0x45786365656473207465616D20616C6C6F636174696F6E000000000000000000 PUSH1 0x44 DUP3 ADD MSTORE PUSH1 0x64 ADD PUSH2 0x876 JUMP JUMPDEST DUP1 PUSH1 0xC PUSH1 0x0 DUP3 DUP3 SLOAD PUSH2 0xD3F SWAP2 SWAP1 PUSH2 0x1981 JUMP JUMPDEST SWAP1 SWAP2 SSTORE POP POP PUSH1 0x6 SLOAD PUSH2 0xD5A SWAP1 PUSH1 0x1 PUSH1 0x1 PUSH1 0xA0 SHL SUB AND DUP3 PUSH2 0x156C JUMP JUMPDEST PUSH1 0x6 SLOAD PUSH1 0x40 MLOAD DUP3 DUP2 MSTORE PUSH1 0x1 PUSH1 0x1 PUSH1 0xA0 SHL SUB SWAP1 SWAP2 AND SWAP1 PUSH32 0x2275EAA3E963DBA9852FDC7268A0AD55C5F4E0089D865DEF9438CF5687DCDCEC SWAP1 PUSH1 0x20 ADD JUMPDEST PUSH1 0x40 MLOAD DUP1 SWAP2 SUB SWAP1 LOG2 POP JUMP JUMPDEST PUSH1 0x0 PUSH1 0x16 SLOAD PUSH1 0xA SLOAD PUSH11 0x2116545850052128000000 PUSH2 0xDBE SWAP2 SWAP1 PUSH2 0x19CD JUMP JUMPDEST PUSH2 0xDC8 SWAP2 SWAP1 PUSH2 0x1981 JUMP JUMPDEST SWAP1 POP SWAP1 JUMP JUMPDEST PUSH1 0x60 PUSH1 0x4 DUP1 SLOAD PUSH2 0x6CC SWAP1 PUSH2 0x1931 JUMP JUMPDEST PUSH1 0x0 CALLER PUSH2 0x75D DUP2 DUP6 DUP6 PUSH2 0x1360 JUMP JUMPDEST PUSH1 0x11 DUP2 DUP2 SLOAD DUP2 LT PUSH2 0xDFA JUMPI PUSH1 0x0 DUP1 REVERT JUMPDEST PUSH1 0x0 SWAP2 DUP3 MSTORE PUSH1 0x20 SWAP1 SWAP2 KECCAK256 PUSH1 0x3 SWAP1 SWAP2 MUL ADD DUP1 SLOAD PUSH1 0x1 DUP3 ADD SLOAD PUSH1 0x2 SWAP1 SWAP3 ADD SLOAD SWAP1 SWAP3 POP DUP4 JUMP JUMPDEST PUSH1 0x0 DUP1 PUSH4 0x1E13380 PUSH1 0x13 SLOAD TIMESTAMP PUSH2 0xE33 SWAP2 SWAP1 PUSH2 0x19CD JUMP JUMPDEST PUSH2 0xE3D SWAP2 SWAP1 PUSH2 0x19AB JUMP JUMPDEST SWAP1 POP PUSH10 0x69E10DE76676D0800000 PUSH1 0x0 JUMPDEST DUP3 DUP2 LT DUP1 ISZERO PUSH2 0xE5C JUMPI POP PUSH1 0xA DUP2 LT JUMPDEST ISZERO PUSH2 0xE80 JUMPI PUSH2 0xE6C PUSH1 0x2 DUP4 PUSH2 0x19AB JUMP JUMPDEST SWAP2 POP DUP1 PUSH2 0xE78 DUP2 PUSH2 0x19E0 JUMP JUMPDEST SWAP2 POP POP PUSH2 0xE4D JUMP JUMPDEST POP PUSH10 0x21E19E0C9BAB2400000 DUP2 LT ISZERO PUSH2 0x763 JUMPI POP PUSH10 0x21E19E0C9BAB2400000 SWAP3 SWAP2 POP POP JUMP JUMPDEST CALLER PUSH1 0x0 SWAP1 DUP2 MSTORE PUSH1 0x20 DUP2 SWAP1 MSTORE PUSH1 0x40 SWAP1 KECCAK256 SLOAD DUP2 GT ISZERO PUSH2 0xEFB JUMPI PUSH1 0x40 MLOAD PUSH3 0x461BCD PUSH1 0xE5 SHL DUP2 MSTORE PUSH1 0x20 PUSH1 0x4 DUP3 ADD MSTORE PUSH1 0x14 PUSH1 0x24 DUP3 ADD MSTORE PUSH20 0x496E73756666696369656E742062616C616E6365 PUSH1 0x60 SHL PUSH1 0x44 DUP3 ADD MSTORE PUSH1 0x64 ADD PUSH2 0x876 JUMP JUMPDEST PUSH1 0x0 PUSH2 0xF08 PUSH1 0x2 DUP4 PUSH2 0x19AB JUMP JUMPDEST SWAP1 POP PUSH1 0x0 PUSH2 0xF16 DUP3 DUP5 PUSH2 0x19CD JUMP JUMPDEST SWAP1 POP PUSH2 0xF22 CALLER DUP5 PUSH2 0x13BF JUMP JUMPDEST DUP1 PUSH1 0x16 PUSH1 0x0 DUP3 DUP3 SLOAD PUSH2 0xF34 SWAP2 SWAP1 PUSH2 0x1981 JUMP JUMPDEST SWAP3 POP POP DUP2 SWAP1 SSTORE POP DUP2 PUSH1 0x10 PUSH1 0x0 DUP3 DUP3 SLOAD PUSH2 0xF4D SWAP2 SWAP1 PUSH2 0x1981 JUMP JUMPDEST SWAP1 SWAP2 SSTORE POP POP PUSH1 0x11 SLOAD ISZERO PUSH2 0xFA3 JUMPI PUSH1 0x11 DUP1 SLOAD DUP4 SWAP2 SWAP1 PUSH2 0xF6D SWAP1 PUSH1 0x1 SWAP1 PUSH2 0x19CD JUMP JUMPDEST DUP2 SLOAD DUP2 LT PUSH2 0xF7D JUMPI PUSH2 0xF7D PUSH2 0x19F9 JUMP JUMPDEST SWAP1 PUSH1 0x0 MSTORE PUSH1 0x20 PUSH1 0x0 KECCAK256 SWAP1 PUSH1 0x3 MUL ADD PUSH1 0x1 ADD PUSH1 0x0 DUP3 DUP3 SLOAD PUSH2 0xF9D SWAP2 SWAP1 PUSH2 0x1981 JUMP JUMPDEST SWAP1 SWAP2 SSTORE POP POP JUMPDEST PUSH1 0x40 DUP1 MLOAD DUP5 DUP2 MSTORE PUSH1 0x20 DUP2 ADD DUP5 SWAP1 MSTORE CALLER SWAP2 PUSH32 0x45F04836F6EC64442B9E2FF56BBEC9A27411E644C985F1F7974F676CF184E6FA SWAP2 ADD PUSH1 0x40 MLOAD DUP1 SWAP2 SUB SWAP1 LOG2 POP POP POP JUMP JUMPDEST PUSH2 0xFEB PUSH2 0x13F5 JUMP JUMPDEST PUSH1 0x7 SLOAD PUSH1 0x1 PUSH1 0xA0 SHL SWAP1 DIV PUSH1 0xFF AND PUSH2 0x103D JUMPI PUSH1 0x40 MLOAD PUSH3 0x461BCD PUSH1 0xE5 SHL DUP2 MSTORE PUSH1 0x20 PUSH1 0x4 DUP3 ADD MSTORE PUSH1 0x16 PUSH1 0x24 DUP3 ADD MSTORE PUSH22 0x15995CDD1A5B99C81B9BDD0818DBDB999A59DD5C9959 PUSH1 0x52 SHL PUSH1 0x44 DUP3 ADD MSTORE PUSH1 0x64 ADD PUSH2 0x876 JUMP JUMPDEST PUSH11 0x108B2A2C28029094000000 DUP2 PUSH1 0xB SLOAD PUSH2 0x1057 SWAP2 SWAP1 PUSH2 0x1981 JUMP JUMPDEST GT ISZERO PUSH2 0x10A5 JUMPI PUSH1 0x40 MLOAD PUSH3 0x461BCD PUSH1 0xE5 SHL DUP2 MSTORE PUSH1 0x20 PUSH1 0x4 DUP3 ADD MSTORE PUSH1 0x1B PUSH1 0x24 DUP3 ADD MSTORE PUSH32 0x4578636565647320747265617375727920616C6C6F636174696F6E0000000000 PUSH1 0x44 DUP3 ADD MSTORE PUSH1 0x64 ADD PUSH2 0x876 JUMP JUMPDEST DUP1 PUSH1 0xB PUSH1 0x0 DUP3 DUP3 SLOAD PUSH2 0x10B7 SWAP2 SWAP1 PUSH2 0x1981 JUMP JUMPDEST SWAP1 SWAP2 SSTORE POP POP PUSH1 0x7 SLOAD PUSH2 0x10D2 SWAP1 PUSH1 0x1 PUSH1 0x1 PUSH1 0xA0 SHL SUB AND DUP3 PUSH2 0x156C JUMP JUMPDEST PUSH1 0x7 SLOAD PUSH1 0x40 MLOAD DUP3 DUP2 MSTORE PUSH1 0x1 PUSH1 0x1 PUSH1 0xA0 SHL SUB SWAP1 SWAP2 AND SWAP1 PUSH32 0x76DECE047FF7AD87A0A2971CB0D585DBBD5BF0ABE78C1161A1D018AB6011611F SWAP1 PUSH1 0x20 ADD PUSH2 0xD95 JUMP JUMPDEST PUSH1 0x14 SLOAD PUSH1 0x11 SLOAD PUSH1 0x0 SWAP2 DUP3 SWAP2 DUP3 SWAP2 DUP3 SWAP2 DUP3 SWAP1 PUSH2 0x112D JUMPI PUSH1 0x0 PUSH2 0x1160 JUMP JUMPDEST PUSH1 0x11 DUP1 SLOAD PUSH2 0x113D SWAP1 PUSH1 0x1 SWAP1 PUSH2 0x19CD JUMP JUMPDEST DUP2 SLOAD DUP2 LT PUSH2 0x114D JUMPI PUSH2 0x114D PUSH2 0x19F9 JUMP JUMPDEST SWAP1 PUSH1 0x0 MSTORE PUSH1 0x20 PUSH1 0x0 KECCAK256 SWAP1 PUSH1 0x3 MUL ADD PUSH1 0x1 ADD SLOAD JUMPDEST SWAP1 POP PUSH1 0x0 PUSH2 0x116E DUP4 DUP4 PUSH2 0x1A0F JUMP JUMPDEST PUSH1 0x0 DUP2 SLT ISZERO SWAP9 SWAP4 SWAP8 POP SWAP2 SWAP6 POP SWAP1 SWAP4 POP SWAP1 SWAP2 POP POP JUMP JUMPDEST PUSH2 0x118B PUSH2 0x13F5 JUMP JUMPDEST CALLER PUSH1 0x0 SWAP1 DUP2 MSTORE PUSH1 0x20 DUP2 SWAP1 MSTORE PUSH1 0x40 SWAP1 KECCAK256 SLOAD DUP2 GT ISZERO PUSH2 0x11E1 JUMPI PUSH1 0x40 MLOAD PUSH3 0x461BCD PUSH1 0xE5 SHL DUP2 MSTORE PUSH1 0x20 PUSH1 0x4 DUP3 ADD MSTORE PUSH1 0x14 PUSH1 0x24 DUP3 ADD MSTORE PUSH20 0x496E73756666696369656E742062616C616E6365 PUSH1 0x60 SHL PUSH1 0x44 DUP3 ADD MSTORE PUSH1 0x64 ADD PUSH2 0x876 JUMP JUMPDEST PUSH2 0x11EB CALLER DUP3 PUSH2 0x13BF JUMP JUMPDEST DUP1 PUSH1 0xE PUSH1 0x0 DUP3 DUP3 SLOAD PUSH2 0x11FD SWAP2 SWAP1 PUSH2 0x1981 JUMP JUMPDEST SWAP1 SWAP2 SSTORE POP POP PUSH1 0x11 SLOAD ISZERO PUSH2 0x1253 JUMPI PUSH1 0x11 DUP1 SLOAD DUP3 SWAP2 SWAP1 PUSH2 0x121D SWAP1 PUSH1 0x1 SWAP1 PUSH2 0x19CD JUMP JUMPDEST DUP2 SLOAD DUP2 LT PUSH2 0x122D JUMPI PUSH2 0x122D PUSH2 0x19F9 JUMP JUMPDEST SWAP1 PUSH1 0x0 MSTORE PUSH1 0x20 PUSH1 0x0 KECCAK256 SWAP1 PUSH1 0x3 MUL ADD PUSH1 0x1 ADD PUSH1 0x0 DUP3 DUP3 SLOAD PUSH2 0x124D SWAP2 SWAP1 PUSH2 0x1981 JUMP JUMPDEST SWAP1 SWAP2 SSTORE POP POP JUMPDEST PUSH1 0xE SLOAD PUSH1 0x40 DUP1 MLOAD DUP4 DUP2 MSTORE PUSH1 0x20 DUP2 ADD SWAP3 SWAP1 SWAP3 MSTORE PUSH32 0xC65A4C73CFD820DCCB7079DB9E52BB2C09DFD56F9221E7D815E201B726B5C39D SWAP2 ADD JUMPDEST PUSH1 0x40 MLOAD DUP1 SWAP2 SUB SWAP1 LOG1 POP JUMP JUMPDEST PUSH2 0x129C PUSH2 0x13F5 JUMP JUMPDEST PUSH1 0x1 PUSH1 0x1 PUSH1 0xA0 SHL SUB DUP2 AND PUSH2 0x12C6 JUMPI PUSH1 0x40 MLOAD PUSH4 0x1E4FBDF7 PUSH1 0xE0 SHL DUP2 MSTORE PUSH1 0x0 PUSH1 0x4 DUP3 ADD MSTORE PUSH1 0x24 ADD PUSH2 0x876 JUMP JUMPDEST PUSH2 0x797 DUP2 PUSH2 0x15A2 JUMP JUMPDEST PUSH2 0x12DC DUP4 DUP4 DUP4 PUSH1 0x1 PUSH2 0x15F4 JUMP JUMPDEST POP POP POP JUMP JUMPDEST PUSH1 0x1 PUSH1 0x1 PUSH1 0xA0 SHL SUB DUP4 DUP2 AND PUSH1 0x0 SWAP1 DUP2 MSTORE PUSH1 0x1 PUSH1 0x20 SWAP1 DUP2 MSTORE PUSH1 0x40 DUP1 DUP4 KECCAK256 SWAP4 DUP7 AND DUP4 MSTORE SWAP3 SWAP1 MSTORE KECCAK256 SLOAD PUSH1 0x0 NOT DUP2 LT ISZERO PUSH2 0x135A JUMPI DUP2 DUP2 LT ISZERO PUSH2 0x134B JUMPI PUSH1 0x40 MLOAD PUSH4 0x7DC7A0D9 PUSH1 0xE1 SHL DUP2 MSTORE PUSH1 0x1 PUSH1 0x1 PUSH1 0xA0 SHL SUB DUP5 AND PUSH1 0x4 DUP3 ADD MSTORE PUSH1 0x24 DUP2 ADD DUP3 SWAP1 MSTORE PUSH1 0x44 DUP2 ADD DUP4 SWAP1 MSTORE PUSH1 0x64 ADD PUSH2 0x876 JUMP JUMPDEST PUSH2 0x135A DUP5 DUP5 DUP5 DUP5 SUB PUSH1 0x0 PUSH2 0x15F4 JUMP JUMPDEST POP POP POP POP JUMP JUMPDEST PUSH1 0x1 PUSH1 0x1 PUSH1 0xA0 SHL SUB DUP4 AND PUSH2 0x138A JUMPI PUSH1 0x40 MLOAD PUSH4 0x4B637E8F PUSH1 0xE1 SHL DUP2 MSTORE PUSH1 0x0 PUSH1 0x4 DUP3 ADD MSTORE PUSH1 0x24 ADD PUSH2 0x876 JUMP JUMPDEST PUSH1 0x1 PUSH1 0x1 PUSH1 0xA0 SHL SUB DUP3 AND PUSH2 0x13B4 JUMPI PUSH1 0x40 MLOAD PUSH4 0xEC442F05 PUSH1 0xE0 SHL DUP2 MSTORE PUSH1 0x0 PUSH1 0x4 DUP3 ADD MSTORE PUSH1 0x24 ADD PUSH2 0x876 JUMP JUMPDEST PUSH2 0x12DC DUP4 DUP4 DUP4 PUSH2 0x16C9 JUMP JUMPDEST PUSH1 0x1 PUSH1 0x1 PUSH1 0xA0 SHL SUB DUP3 AND PUSH2 0x13E9 JUMPI PUSH1 0x40 MLOAD PUSH4 0x4B637E8F PUSH1 0xE1 SHL DUP2 MSTORE PUSH1 0x0 PUSH1 0x4 DUP3 ADD MSTORE PUSH1 0x24 ADD PUSH2 0x876 JUMP JUMPDEST PUSH2 0xC67 DUP3 PUSH1 0x0 DUP4 PUSH2 0x16C9 JUMP JUMPDEST PUSH1 0x5 SLOAD PUSH1 0x1 PUSH1 0x1 PUSH1 0xA0 SHL SUB AND CALLER EQ PUSH2 0xC50 JUMPI PUSH1 0x40 MLOAD PUSH4 0x118CDAA7 PUSH1 0xE0 SHL DUP2 MSTORE CALLER PUSH1 0x4 DUP3 ADD MSTORE PUSH1 0x24 ADD PUSH2 0x876 JUMP JUMPDEST PUSH1 0x40 DUP1 MLOAD PUSH1 0x60 DUP2 ADD DUP3 MSTORE PUSH1 0x0 DUP1 DUP3 MSTORE PUSH1 0x20 DUP3 ADD DUP2 DUP2 MSTORE TIMESTAMP SWAP4 DUP4 ADD SWAP4 DUP5 MSTORE PUSH1 0x11 DUP1 SLOAD PUSH1 0x1 DUP2 ADD DUP3 SSTORE SWAP3 DUP2 SWAP1 MSTORE SWAP3 MLOAD PUSH32 0x31ECC21A745E3968A04E9570E4425BC18FA8019C68028196B546D1669C200C68 PUSH1 0x3 SWAP1 SWAP4 MUL SWAP3 DUP4 ADD SSTORE MLOAD PUSH32 0x31ECC21A745E3968A04E9570E4425BC18FA8019C68028196B546D1669C200C69 DUP3 ADD SSTORE SWAP2 MLOAD PUSH32 0x31ECC21A745E3968A04E9570E4425BC18FA8019C68028196B546D1669C200C6A SWAP1 SWAP3 ADD SWAP2 SWAP1 SWAP2 SSTORE SLOAD PUSH1 0x2 GT PUSH2 0xC50 JUMPI PUSH1 0x11 SLOAD PUSH1 0x0 SWAP1 PUSH2 0x14E2 SWAP1 PUSH1 0x2 SWAP1 PUSH2 0x19CD JUMP JUMPDEST SWAP1 POP PUSH32 0x8F7A79AD52B9FDA3F9BF5900EF0B392D4716E52F49B4A43E98472E199BDB221C DUP2 PUSH1 0x11 DUP4 DUP2 SLOAD DUP2 LT PUSH2 0x1519 JUMPI PUSH2 0x1519 PUSH2 0x19F9 JUMP JUMPDEST SWAP1 PUSH1 0x0 MSTORE PUSH1 0x20 PUSH1 0x0 KECCAK256 SWAP1 PUSH1 0x3 MUL ADD PUSH1 0x0 ADD SLOAD PUSH1 0x11 DUP5 DUP2 SLOAD DUP2 LT PUSH2 0x153E JUMPI PUSH2 0x153E PUSH2 0x19F9 JUMP JUMPDEST PUSH1 0x0 SWAP2 DUP3 MSTORE PUSH1 0x20 SWAP2 DUP3 SWAP1 KECCAK256 PUSH1 0x1 PUSH1 0x3 SWAP1 SWAP3 MUL ADD ADD SLOAD PUSH1 0x40 DUP1 MLOAD SWAP5 DUP6 MSTORE SWAP2 DUP5 ADD SWAP3 SWAP1 SWAP3 MSTORE DUP3 ADD MSTORE PUSH1 0x60 ADD PUSH2 0x1289 JUMP JUMPDEST PUSH1 0x1 PUSH1 0x1 PUSH1 0xA0 SHL SUB DUP3 AND PUSH2 0x1596 JUMPI PUSH1 0x40 MLOAD PUSH4 0xEC442F05 PUSH1 0xE0 SHL DUP2 MSTORE PUSH1 0x0 PUSH1 0x4 DUP3 ADD MSTORE PUSH1 0x24 ADD PUSH2 0x876 JUMP JUMPDEST PUSH2 0xC67 PUSH1 0x0 DUP4 DUP4 PUSH2 0x16C9 JUMP JUMPDEST PUSH1 0x5 DUP1 SLOAD PUSH1 0x1 PUSH1 0x1 PUSH1 0xA0 SHL SUB DUP4 DUP2 AND PUSH1 0x1 PUSH1 0x1 PUSH1 0xA0 SHL SUB NOT DUP4 AND DUP2 OR SWAP1 SWAP4 SSTORE PUSH1 0x40 MLOAD SWAP2 AND SWAP2 SWAP1 DUP3 SWAP1 PUSH32 0x8BE0079C531659141344CD1FD0A4F28419497F9722A3DAAFE3B4186F6B6457E0 SWAP1 PUSH1 0x0 SWAP1 LOG3 POP POP JUMP JUMPDEST PUSH1 0x1 PUSH1 0x1 PUSH1 0xA0 SHL SUB DUP5 AND PUSH2 0x161E JUMPI PUSH1 0x40 MLOAD PUSH4 0xE602DF05 PUSH1 0xE0 SHL DUP2 MSTORE PUSH1 0x0 PUSH1 0x4 DUP3 ADD MSTORE PUSH1 0x24 ADD PUSH2 0x876 JUMP JUMPDEST PUSH1 0x1 PUSH1 0x1 PUSH1 0xA0 SHL SUB DUP4 AND PUSH2 0x1648 JUMPI PUSH1 0x40 MLOAD PUSH4 0x4A1406B1 PUSH1 0xE1 SHL DUP2 MSTORE PUSH1 0x0 PUSH1 0x4 DUP3 ADD MSTORE PUSH1 0x24 ADD PUSH2 0x876 JUMP JUMPDEST PUSH1 0x1 PUSH1 0x1 PUSH1 0xA0 SHL SUB DUP1 DUP6 AND PUSH1 0x0 SWAP1 DUP2 MSTORE PUSH1 0x1 PUSH1 0x20 SWAP1 DUP2 MSTORE PUSH1 0x40 DUP1 DUP4 KECCAK256 SWAP4 DUP8 AND DUP4 MSTORE SWAP3 SWAP1 MSTORE KECCAK256 DUP3 SWAP1 SSTORE DUP1 ISZERO PUSH2 0x135A JUMPI DUP3 PUSH1 0x1 PUSH1 0x1 PUSH1 0xA0 SHL SUB AND DUP5 PUSH1 0x1 PUSH1 0x1 PUSH1 0xA0 SHL SUB AND PUSH32 0x8C5BE1E5EBEC7D5BD14F71427D1E84F3DD0314C0F7B2291E5B200AC8C7C3B925 DUP5 PUSH1 0x40 MLOAD PUSH2 0x16BB SWAP2 DUP2 MSTORE PUSH1 0x20 ADD SWAP1 JUMP JUMPDEST PUSH1 0x40 MLOAD DUP1 SWAP2 SUB SWAP1 LOG3 POP POP POP POP JUMP JUMPDEST PUSH1 0x1 PUSH1 0x1 PUSH1 0xA0 SHL SUB DUP4 AND PUSH2 0x16F4 JUMPI DUP1 PUSH1 0x2 PUSH1 0x0 DUP3 DUP3 SLOAD PUSH2 0x16E9 SWAP2 SWAP1 PUSH2 0x1981 JUMP JUMPDEST SWAP1 SWAP2 SSTORE POP PUSH2 0x1766 SWAP1 POP JUMP JUMPDEST PUSH1 0x1 PUSH1 0x1 PUSH1 0xA0 SHL SUB DUP4 AND PUSH1 0x0 SWAP1 DUP2 MSTORE PUSH1 0x20 DUP2 SWAP1 MSTORE PUSH1 0x40 SWAP1 KECCAK256 SLOAD DUP2 DUP2 LT ISZERO PUSH2 0x1747 JUMPI PUSH1 0x40 MLOAD PUSH4 0x391434E3 PUSH1 0xE2 SHL DUP2 MSTORE PUSH1 0x1 PUSH1 0x1 PUSH1 0xA0 SHL SUB DUP6 AND PUSH1 0x4 DUP3 ADD MSTORE PUSH1 0x24 DUP2 ADD DUP3 SWAP1 MSTORE PUSH1 0x44 DUP2 ADD DUP4 SWAP1 MSTORE PUSH1 0x64 ADD PUSH2 0x876 JUMP JUMPDEST PUSH1 0x1 PUSH1 0x1 PUSH1 0xA0 SHL SUB DUP5 AND PUSH1 0x0 SWAP1 DUP2 MSTORE PUSH1 0x20 DUP2 SWAP1 MSTORE PUSH1 0x40 SWAP1 KECCAK256 SWAP1 DUP3 SWAP1 SUB SWAP1 SSTORE JUMPDEST PUSH1 0x1 PUSH1 0x1 PUSH1 0xA0 SHL SUB DUP3 AND PUSH2 0x1782 JUMPI PUSH1 0x2 DUP1 SLOAD DUP3 SWAP1 SUB SWAP1 SSTORE PUSH2 0x17A1 JUMP JUMPDEST PUSH1 0x1 PUSH1 0x1 PUSH1 0xA0 SHL SUB DUP3 AND PUSH1 0x0 SWAP1 DUP2 MSTORE PUSH1 0x20 DUP2 SWAP1 MSTORE PUSH1 0x40 SWAP1 KECCAK256 DUP1 SLOAD DUP3 ADD SWAP1 SSTORE JUMPDEST DUP2 PUSH1 0x1 PUSH1 0x1 PUSH1 0xA0 SHL SUB AND DUP4 PUSH1 0x1 PUSH1 0x1 PUSH1 0xA0 SHL SUB AND PUSH32 0xDDF252AD1BE2C89B69C2B068FC378DAA952BA7F163C4A11628F55A4DF523B3EF DUP4 PUSH1 0x40 MLOAD PUSH2 0x17E6 SWAP2 DUP2 MSTORE PUSH1 0x20 ADD SWAP1 JUMP JUMPDEST PUSH1 0x40 MLOAD DUP1 SWAP2 SUB SWAP1 LOG3 POP POP POP JUMP JUMPDEST PUSH1 0x0 PUSH1 0x20 DUP1 DUP4 MSTORE DUP4 MLOAD DUP1 DUP3 DUP6 ADD MSTORE PUSH1 0x0 JUMPDEST DUP2 DUP2 LT ISZERO PUSH2 0x1820 JUMPI DUP6 DUP2 ADD DUP4 ADD MLOAD DUP6 DUP3 ADD PUSH1 0x40 ADD MSTORE DUP3 ADD PUSH2 0x1804 JUMP JUMPDEST POP PUSH1 0x0 PUSH1 0x40 DUP3 DUP7 ADD ADD MSTORE PUSH1 0x40 PUSH1 0x1F NOT PUSH1 0x1F DUP4 ADD AND DUP6 ADD ADD SWAP3 POP POP POP SWAP3 SWAP2 POP POP JUMP JUMPDEST DUP1 CALLDATALOAD PUSH1 0x1 PUSH1 0x1 PUSH1 0xA0 SHL SUB DUP2 AND DUP2 EQ PUSH2 0x1858 JUMPI PUSH1 0x0 DUP1 REVERT JUMPDEST SWAP2 SWAP1 POP JUMP JUMPDEST PUSH1 0x0 DUP1 PUSH1 0x40 DUP4 DUP6 SUB SLT ISZERO PUSH2 0x1870 JUMPI PUSH1 0x0 DUP1 REVERT JUMPDEST PUSH2 0x1879 DUP4 PUSH2 0x1841 JUMP JUMPDEST SWAP5 PUSH1 0x20 SWAP4 SWAP1 SWAP4 ADD CALLDATALOAD SWAP4 POP POP POP JUMP JUMPDEST PUSH1 0x0 DUP1 PUSH1 0x0 PUSH1 0x60 DUP5 DUP7 SUB SLT ISZERO PUSH2 0x189C JUMPI PUSH1 0x0 DUP1 REVERT JUMPDEST PUSH2 0x18A5 DUP5 PUSH2 0x1841 JUMP JUMPDEST SWAP3 POP PUSH2 0x18B3 PUSH1 0x20 DUP6 ADD PUSH2 0x1841 JUMP JUMPDEST SWAP2 POP PUSH1 0x40 DUP5 ADD CALLDATALOAD SWAP1 POP SWAP3 POP SWAP3 POP SWAP3 JUMP JUMPDEST PUSH1 0x0 PUSH1 0x20 DUP3 DUP5 SUB SLT ISZERO PUSH2 0x18D5 JUMPI PUSH1 0x0 DUP1 REVERT JUMPDEST POP CALLDATALOAD SWAP2 SWAP1 POP JUMP JUMPDEST PUSH1 0x0 DUP1 PUSH1 0x40 DUP4 DUP6 SUB SLT ISZERO PUSH2 0x18EF JUMPI PUSH1 0x0 DUP1 REVERT JUMPDEST PUSH2 0x18F8 DUP4 PUSH2 0x1841 JUMP JUMPDEST SWAP2 POP PUSH2 0x1906 PUSH1 0x20 DUP5 ADD PUSH2 0x1841 JUMP JUMPDEST SWAP1 POP SWAP3 POP SWAP3 SWAP1 POP JUMP JUMPDEST PUSH1 0x0 PUSH1 0x20 DUP3 DUP5 SUB SLT ISZERO PUSH2 0x1921 JUMPI PUSH1 0x0 DUP1 REVERT JUMPDEST PUSH2 0x192A DUP3 PUSH2 0x1841 JUMP JUMPDEST SWAP4 SWAP3 POP POP POP JUMP JUMPDEST PUSH1 0x1 DUP2 DUP2 SHR SWAP1 DUP3 AND DUP1 PUSH2 0x1945 JUMPI PUSH1 0x7F DUP3 AND SWAP2 POP JUMPDEST PUSH1 0x20 DUP3 LT DUP2 SUB PUSH2 0x1965 JUMPI PUSH4 0x4E487B71 PUSH1 0xE0 SHL PUSH1 0x0 MSTORE PUSH1 0x22 PUSH1 0x4 MSTORE PUSH1 0x24 PUSH1 0x0 REVERT JUMPDEST POP SWAP2 SWAP1 POP JUMP JUMPDEST PUSH4 0x4E487B71 PUSH1 0xE0 SHL PUSH1 0x0 MSTORE PUSH1 0x11 PUSH1 0x4 MSTORE PUSH1 0x24 PUSH1 0x0 REVERT JUMPDEST DUP1 DUP3 ADD DUP1 DUP3 GT ISZERO PUSH2 0x763 JUMPI PUSH2 0x763 PUSH2 0x196B JUMP JUMPDEST DUP1 DUP3 MUL DUP2 ISZERO DUP3 DUP3 DIV DUP5 EQ OR PUSH2 0x763 JUMPI PUSH2 0x763 PUSH2 0x196B JUMP JUMPDEST PUSH1 0x0 DUP3 PUSH2 0x19C8 JUMPI PUSH4 0x4E487B71 PUSH1 0xE0 SHL PUSH1 0x0 MSTORE PUSH1 0x12 PUSH1 0x4 MSTORE PUSH1 0x24 PUSH1 0x0 REVERT JUMPDEST POP DIV SWAP1 JUMP JUMPDEST DUP2 DUP2 SUB DUP2 DUP2 GT ISZERO PUSH2 0x763 JUMPI PUSH2 0x763 PUSH2 0x196B JUMP JUMPDEST PUSH1 0x0 PUSH1 0x1 DUP3 ADD PUSH2 0x19F2 JUMPI PUSH2 0x19F2 PUSH2 0x196B JUMP JUMPDEST POP PUSH1 0x1 ADD SWAP1 JUMP JUMPDEST PUSH4 0x4E487B71 PUSH1 0xE0 SHL PUSH1 0x0 MSTORE PUSH1 0x32 PUSH1 0x4 MSTORE PUSH1 0x24 PUSH1 0x0 REVERT JUMPDEST DUP2 DUP2 SUB PUSH1 0x0 DUP4 SLT DUP1 ISZERO DUP4 DUP4 SGT AND DUP4 DUP4 SLT DUP3 AND OR ISZERO PUSH2 0x1A2F JUMPI PUSH2 0x1A2F PUSH2 0x196B JUMP JUMPDEST POP SWAP3 SWAP2 POP POP JUMP INVALID LOG2 PUSH5 0x6970667358 0x22 SLT KECCAK256 REVERT DUP12 0xEE 0x4E 0x22 0x2B 0xAE PUSH19 0x4A262FF14493C55DBFDB9F069C51DE982B0F86 0xFB TIMESTAMP COINBASE 0xD2 0xCB PUSH5 0x736F6C6343 STOP ADDMOD EQ STOP CALLER "},"methodIdentifiers":{"BUYBACK_ALLOCATION()":"969b8cba","COMMUNITY_ALLOCATION()":"993eb1c5","HALVING_INTERVAL()":"5fd9491d","INITIAL_MONTHLY_CAP()":"b1545e80","LIQUIDITY_ALLOCATION()":"f9428f38","MAX_SUPPLY()":"32cb6b0c","TEAM_ALLOCATION()":"fd99cbed","TREASURY_ALLOCATION()":"bf1ad7e0","allowance(address,address)":"dd62ed3e","approve(address,uint256)":"095ea7b3","balanceOf(address)":"70a08231","burn(uint256)":"42966c68","burnFrom(address,uint256)":"79cc6790","buybackBurn(uint256)":"f1c7c2d0","communityMinted()":"d9c5b0d3","communityRewardsWallet()":"2fcbb5a2","currentMonthIndex()":"50ed5842","decimals()":"313ce567","deployTimestamp()":"607ad0d7","getAvailableForRewards()":"7eb917b8","getCurrentMonthlyCap()":"c332dafc","getMonthlyStatsCount()":"a9609489","getRemainingAllocations()":"5adca659","getRevenueEmissionRatioBps()":"45540afb","isNetDeflationary()":"f1c2c8cc","lastMonthReset()":"138bb81a","liquidityMinted()":"8eab0751","liquidityWallet()":"d4698016","mintCommunityRewards(address,uint256)":"4b19eff5","mintToTeamVesting(uint256)":"7e802500","mintToTreasuryVesting(uint256)":"de226786","monthlyEmitted()":"db891a9d","monthlyStats(uint256)":"b1d9adfd","name()":"06fdde03","owner()":"8da5cb5b","recycledPool()":"d042959e","renounceOwnership()":"715018a6","setAndLockVestingContracts(address,address)":"5014a15b","spendAndBurn(uint256)":"d02d6af3","symbol()":"95d89b41","teamMinted()":"e8b5498d","teamVestingContract()":"ef7297de","totalBuybackBurned()":"c93d0ece","totalEmitted()":"df0244b1","totalSpendBurned()":"aeb0cd6c","totalSupply()":"18160ddd","transfer(address,uint256)":"a9059cbb","transferFrom(address,address,uint256)":"23b872dd","transferOwnership(address)":"f2fde38b","treasuryMinted()":"fdd0f3ca","treasuryVestingContract()":"6ea32714","vestingContractsLocked()":"df93cbf0"}}}}}