{"contracts/PredictionRegistry.sol":{"PredictionRegistry":{"abi":[{"inputs":[],"stateMutability":"nonpayable","type":"constructor"},{"inputs":[{"internalType":"address","name":"owner","type":"address"}],"name":"OwnableInvalidOwner","type":"error"},{"inputs":[{"internalType":"address","name":"account","type":"address"}],"name":"OwnableUnauthorizedAccount","type":"error"},{"anonymous":false,"inputs":[{"indexed":false,"internalType":"uint256","name":"totalValidated","type":"uint256"},{"indexed":false,"internalType":"uint256","name":"correct","type":"uint256"},{"indexed":false,"internalType":"uint256","name":"accuracyBps","type":"uint256"}],"name":"AccuracyUpdated","type":"event"},{"anonymous":false,"inputs":[{"indexed":true,"internalType":"address","name":"previousOwner","type":"address"},{"indexed":true,"internalType":"address","name":"newOwner","type":"address"}],"name":"OwnershipTransferred","type":"event"},{"anonymous":false,"inputs":[{"indexed":true,"internalType":"bytes32","name":"commitmentHash","type":"bytes32"},{"indexed":true,"internalType":"uint256","name":"productId","type":"uint256"},{"indexed":false,"internalType":"uint8","name":"riskLevel","type":"uint8"},{"indexed":false,"internalType":"uint8","name":"safeScore","type":"uint8"},{"indexed":false,"internalType":"uint16","name":"windowDays","type":"uint16"},{"indexed":false,"internalType":"uint64","name":"expiresAt","type":"uint64"}],"name":"PredictionCommitted","type":"event"},{"anonymous":false,"inputs":[{"indexed":true,"internalType":"bytes32","name":"commitmentHash","type":"bytes32"},{"indexed":true,"internalType":"uint256","name":"productId","type":"uint256"},{"indexed":false,"internalType":"bool","name":"incidentOccurred","type":"bool"},{"indexed":false,"internalType":"bool","name":"predictionCorrect","type":"bool"}],"name":"PredictionValidated","type":"event"},{"anonymous":false,"inputs":[{"indexed":true,"internalType":"uint256","name":"weekIndex","type":"uint256"},{"indexed":false,"internalType":"bytes32","name":"merkleRoot","type":"bytes32"},{"indexed":false,"internalType":"uint256","name":"predictionCount","type":"uint256"},{"indexed":false,"internalType":"string","name":"ipfsHash","type":"string"}],"name":"WeeklyBatchCommitted","type":"event"},{"inputs":[{"internalType":"bytes32","name":"commitmentHash","type":"bytes32"},{"internalType":"uint256","name":"productId","type":"uint256"},{"internalType":"uint8","name":"riskLevel","type":"uint8"},{"internalType":"uint8","name":"safeScore","type":"uint8"},{"internalType":"uint16","name":"windowDays","type":"uint16"}],"name":"commitPrediction","outputs":[],"stateMutability":"nonpayable","type":"function"},{"inputs":[{"internalType":"bytes32[]","name":"hashes","type":"bytes32[]"},{"internalType":"uint256[]","name":"productIds","type":"uint256[]"},{"internalType":"uint8[]","name":"riskLevels","type":"uint8[]"},{"internalType":"uint8[]","name":"safeScores","type":"uint8[]"},{"internalType":"uint16[]","name":"windowDays","type":"uint16[]"}],"name":"commitPredictionsBatch","outputs":[],"stateMutability":"nonpayable","type":"function"},{"inputs":[{"internalType":"bytes32","name":"merkleRoot","type":"bytes32"},{"internalType":"uint256","name":"predictionCount","type":"uint256"},{"internalType":"uint64","name":"weekStart","type":"uint64"},{"internalType":"string","name":"ipfsHash","type":"string"}],"name":"commitWeeklyBatch","outputs":[],"stateMutability":"nonpayable","type":"function"},{"inputs":[{"internalType":"uint8","name":"","type":"uint8"}],"name":"correctByRisk","outputs":[{"internalType":"uint256","name":"","type":"uint256"}],"stateMutability":"view","type":"function"},{"inputs":[],"name":"correctPredictions","outputs":[{"internalType":"uint256","name":"","type":"uint256"}],"stateMutability":"view","type":"function"},{"inputs":[{"internalType":"uint8","name":"riskLevel","type":"uint8"}],"name":"getAccuracyByRisk","outputs":[{"internalType":"uint256","name":"total","type":"uint256"},{"internalType":"uint256","name":"correct","type":"uint256"},{"internalType":"uint256","name":"accuracyBps","type":"uint256"}],"stateMutability":"view","type":"function"},{"inputs":[],"name":"getAccuracyStats","outputs":[{"internalType":"uint256","name":"total","type":"uint256"},{"internalType":"uint256","name":"validated","type":"uint256"},{"internalType":"uint256","name":"correct","type":"uint256"},{"internalType":"uint256","name":"incorrect","type":"uint256"},{"internalType":"uint256","name":"accuracyBps","type":"uint256"}],"stateMutability":"view","type":"function"},{"inputs":[{"internalType":"bytes32","name":"hash","type":"bytes32"}],"name":"getPrediction","outputs":[{"components":[{"internalType":"bytes32","name":"commitmentHash","type":"bytes32"},{"internalType":"uint256","name":"productId","type":"uint256"},{"internalType":"uint8","name":"riskLevel","type":"uint8"},{"internalType":"uint8","name":"safeScoreAtPrediction","type":"uint8"},{"internalType":"uint16","name":"windowDays","type":"uint16"},{"internalType":"uint64","name":"timestamp","type":"uint64"},{"internalType":"uint64","name":"expiresAt","type":"uint64"},{"internalType":"bool","name":"validated","type":"bool"},{"internalType":"bool","name":"incidentOccurred","type":"bool"},{"internalType":"uint64","name":"validatedAt","type":"uint64"}],"internalType":"struct PredictionRegistry.Prediction","name":"","type":"tuple"}],"stateMutability":"view","type":"function"},{"inputs":[{"internalType":"uint256","name":"productId","type":"uint256"}],"name":"getProductPredictions","outputs":[{"internalType":"bytes32[]","name":"","type":"bytes32[]"}],"stateMutability":"view","type":"function"},{"inputs":[{"internalType":"uint256","name":"index","type":"uint256"}],"name":"getWeeklyCommitment","outputs":[{"components":[{"internalType":"bytes32","name":"merkleRoot","type":"bytes32"},{"internalType":"uint256","name":"predictionCount","type":"uint256"},{"internalType":"uint64","name":"weekStart","type":"uint64"},{"internalType":"uint64","name":"timestamp","type":"uint64"},{"internalType":"string","name":"ipfsHash","type":"string"}],"internalType":"struct PredictionRegistry.WeeklyCommitment","name":"","type":"tuple"}],"stateMutability":"view","type":"function"},{"inputs":[],"name":"getWeeklyCommitmentsCount","outputs":[{"internalType":"uint256","name":"","type":"uint256"}],"stateMutability":"view","type":"function"},{"inputs":[],"name":"incorrectPredictions","outputs":[{"internalType":"uint256","name":"","type":"uint256"}],"stateMutability":"view","type":"function"},{"inputs":[],"name":"owner","outputs":[{"internalType":"address","name":"","type":"address"}],"stateMutability":"view","type":"function"},{"inputs":[{"internalType":"uint256","name":"","type":"uint256"}],"name":"predictionHashes","outputs":[{"internalType":"bytes32","name":"","type":"bytes32"}],"stateMutability":"view","type":"function"},{"inputs":[{"internalType":"bytes32","name":"","type":"bytes32"}],"name":"predictions","outputs":[{"internalType":"bytes32","name":"commitmentHash","type":"bytes32"},{"internalType":"uint256","name":"productId","type":"uint256"},{"internalType":"uint8","name":"riskLevel","type":"uint8"},{"internalType":"uint8","name":"safeScoreAtPrediction","type":"uint8"},{"internalType":"uint16","name":"windowDays","type":"uint16"},{"internalType":"uint64","name":"timestamp","type":"uint64"},{"internalType":"uint64","name":"expiresAt","type":"uint64"},{"internalType":"bool","name":"validated","type":"bool"},{"internalType":"bool","name":"incidentOccurred","type":"bool"},{"internalType":"uint64","name":"validatedAt","type":"uint64"}],"stateMutability":"view","type":"function"},{"inputs":[{"internalType":"uint8","name":"","type":"uint8"}],"name":"predictionsByRisk","outputs":[{"internalType":"uint256","name":"","type":"uint256"}],"stateMutability":"view","type":"function"},{"inputs":[{"internalType":"uint256","name":"","type":"uint256"},{"internalType":"uint256","name":"","type":"uint256"}],"name":"productPredictions","outputs":[{"internalType":"bytes32","name":"","type":"bytes32"}],"stateMutability":"view","type":"function"},{"inputs":[],"name":"renounceOwnership","outputs":[],"stateMutability":"nonpayable","type":"function"},{"inputs":[],"name":"totalPredictions","outputs":[{"internalType":"uint256","name":"","type":"uint256"}],"stateMutability":"view","type":"function"},{"inputs":[{"internalType":"address","name":"newOwner","type":"address"}],"name":"transferOwnership","outputs":[],"stateMutability":"nonpayable","type":"function"},{"inputs":[{"internalType":"bytes32[]","name":"hashes","type":"bytes32[]"}],"name":"validateExpiredPredictions","outputs":[],"stateMutability":"nonpayable","type":"function"},{"inputs":[{"internalType":"bytes32","name":"commitmentHash","type":"bytes32"},{"internalType":"bool","name":"incidentOccurred","type":"bool"}],"name":"validatePrediction","outputs":[],"stateMutability":"nonpayable","type":"function"},{"inputs":[],"name":"validatedPredictions","outputs":[{"internalType":"uint256","name":"","type":"uint256"}],"stateMutability":"view","type":"function"},{"inputs":[{"internalType":"bytes32","name":"hash","type":"bytes32"},{"internalType":"uint64","name":"beforeTimestamp","type":"uint64"}],"name":"verifyPredictionAnterior","outputs":[{"internalType":"bool","name":"exists","type":"bool"},{"internalType":"bool","name":"isAnterior","type":"bool"},{"internalType":"uint64","name":"committedAt","type":"uint64"}],"stateMutability":"view","type":"function"},{"inputs":[{"internalType":"uint256","name":"","type":"uint256"}],"name":"weeklyCommitments","outputs":[{"internalType":"bytes32","name":"merkleRoot","type":"bytes32"},{"internalType":"uint256","name":"predictionCount","type":"uint256"},{"internalType":"uint64","name":"weekStart","type":"uint64"},{"internalType":"uint64","name":"timestamp","type":"uint64"},{"internalType":"string","name":"ipfsHash","type":"string"}],"stateMutability":"view","type":"function"}],"evm":{"bytecode":{"linkReferences":{},"object":"608060405234801561001057600080fd5b50338061003757604051631e4fbdf760e01b81526000600482015260240160405180910390fd5b61004081610046565b50610096565b600080546001600160a01b038381166001600160a01b0319831681178455604051919092169283917f8be0079c531659141344cd1fd0a4f28419497f9722a3daafe3b4186f6b6457e09190a35050565b61230b806100a56000396000f3fe608060405234801561001057600080fd5b50600436106101735760003560e01c806375469891116100de578063c83918bb11610097578063e445471211610071578063e445471214610570578063e7248d4214610578578063eca5266114610598578063f2fde38b146105a157600080fd5b8063c83918bb1461042f578063cf97cfa214610442578063dc6423ab1461045557600080fd5b8063754698911461036b578063779bd5621461039b57806388a1b8ba146103a45780638da5cb5b146103b7578063909375b2146103d2578063a5003e971461040b57600080fd5b80634a4512d4116101305780634a4512d41461021d57806353fed5551461023d5780635830d58d1461025d5780635a75814d146102665780635d9eaeaf14610279578063715018a61461036357600080fd5b806302320458146101785780630940f843146101ab5780630e3d209f146101b45780631db7125d146101c95780633891566b146101f75780633fac2aad1461020a575b600080fd5b610198610186366004611ac4565b600a6020526000908152604090205481565b6040519081526020015b60405180910390f35b61019860085481565b6101c76101c2366004611b31565b6105b4565b005b6101dc6101d7366004611ac4565b610b3d565b604080519384526020840192909252908201526060016101a2565b610198610205366004611c21565b610b88565b610198610218366004611c3a565b610ba9565b61023061022b366004611c21565b610bda565b6040516101a29190611c5c565b61019861024b366004611ac4565b60096020526000908152604090205481565b61019860065481565b6101c7610274366004611cb2565b610c3c565b6102fb610287366004611c21565b600160208190526000918252604090912080549181015460029091015460ff80821691610100810482169161ffff62010000830416916001600160401b036401000000008204811692600160601b8304821692600160a01b8104821692600160a81b820490921691600160b01b909104168a565b604080519a8b5260208b019990995260ff978816988a019890985295909416606088015261ffff90921660808701526001600160401b0390811660a087015290811660c086015290151560e085015290151561010084015216610120820152610140016101a2565b6101c761107a565b61037361108e565b604080519586526020860194909452928401919091526060830152608082015260a0016101a2565b61019860055481565b6101c76103b2366004611d09565b6110c8565b6000546040516001600160a01b0390911681526020016101a2565b6103e56103e0366004611d61565b61131c565b60408051931515845291151560208401526001600160401b0316908201526060016101a2565b61041e610419366004611c21565b6113fe565b6040516101a2959493929190611dd3565b6101c761043d366004611e16565b6114d9565b6101c7610450366004611e4b565b611731565b610563610463366004611c21565b6040805161014081018252600080825260208201819052918101829052606081018290526080810182905260a0810182905260c0810182905260e081018290526101008101829052610120810191909152506000908152600160208181526040928390208351610140810185528154815292810154918301919091526002015460ff808216938301939093526101008082048416606084015261ffff6201000083041660808401526001600160401b036401000000008304811660a0850152600160601b8304811660c0850152600160a01b83048516151560e0850152600160a81b8304909416151590830152600160b01b900490911661012082015290565b6040516101a29190611ede565b600354610198565b61058b610586366004611c21565b611880565b6040516101a29190611faa565b61019860075481565b6101c76105af366004612004565b6119f3565b6105bc611a31565b8887146105e45760405162461bcd60e51b81526004016105db9061202d565b60405180910390fd5b8885146106035760405162461bcd60e51b81526004016105db9061202d565b8883146106225760405162461bcd60e51b81526004016105db9061202d565b8881146106415760405162461bcd60e51b81526004016105db9061202d565b60005b89811015610b3057600160008c8c8481811061066257610662612056565b90506020020135815260200190815260200160002060020160049054906101000a90046001600160401b03166001600160401b0316600003610b1e5760008383838181106106b2576106b2612056565b90506020020160208101906106c7919061206c565b6106d89061ffff166201518061209d565b6106e79062ffffff16426120bc565b90506040518061014001604052808d8d8581811061070757610707612056565b9050602002013581526020018b8b8581811061072557610725612056565b90506020020135815260200189898581811061074357610743612056565b90506020020160208101906107589190611ac4565b60ff16815260200187878581811061077257610772612056565b90506020020160208101906107879190611ac4565b60ff1681526020018585858181106107a1576107a1612056565b90506020020160208101906107b6919061206c565b61ffff1681526001600160401b034281166020830152831660408201526000606082018190526080820181905260a09091018190526001908e8e8681811061080057610800612056565b6020908102929092013583525081810192909252604090810160002083518155918301516001830155820151600291820180546060850151608086015160a087015160c088015160e0890151610100808b0151610120909b015160ff998a1661ffff199098169790971798909516909402969096176bffffffffffffffffffff000019166201000061ffff909316929092026bffffffffffffffff000000001916919091176401000000006001600160401b03928316021768ffffffffffffffffff60601b1916600160601b9582169590950260ff60a01b191694909417600160a01b911515919091021768ffffffffffffffffff60a81b1916600160a81b9515159590950267ffffffffffffffff60b01b191694909417600160b01b9290941691909102929092179091558c8c8481811061093e5761093e612056565b83546001810185556000948552602080862092029390930135920191909155506004908b8b8581811061097357610973612056565b9050602002013581526020019081526020016000208c8c8481811061099a5761099a612056565b835460018101855560009485526020808620920293909301359201919091555060058054916109c8836120d5565b9190505550600960008989858181106109e3576109e3612056565b90506020020160208101906109f89190611ac4565b60ff16815260208101919091526040016000908120805491610a19836120d5565b9190505550898983818110610a3057610a30612056565b905060200201358c8c84818110610a4957610a49612056565b905060200201357f53f4f3dc92d47ecd50d9c5832f23173dd82a67a464c300d2914d5766c1a121b78a8a86818110610a8357610a83612056565b9050602002016020810190610a989190611ac4565b898987818110610aaa57610aaa612056565b9050602002016020810190610abf9190611ac4565b888888818110610ad157610ad1612056565b9050602002016020810190610ae6919061206c565b6040805160ff948516815293909216602084015261ffff16908201526001600160401b038516606082015260800160405180910390a3505b80610b28816120d5565b915050610644565b5050505050505050505050565b60ff8116600090815260096020908152604080832054600a909252822054909182610b69576000610b80565b82610b76836127106120ee565b610b809190612105565b929491935050565b60028181548110610b9857600080fd5b600091825260209091200154905081565b60046020528160005260406000208181548110610bc557600080fd5b90600052602060002001600091509150505481565b600081815260046020908152604091829020805483518184028101840190945280845260609392830182828015610c3057602002820191906000526020600020905b815481526020019060010190808311610c1c575b50505050509050919050565b610c44611a31565b60008581526001602052604090206002015464010000000090046001600160401b031615610ca85760405162461bcd60e51b8152602060048201526011602482015270105b1c9958591e4818dbdb5b5a5d1d1959607a1b60448201526064016105db565b60048360ff161115610cf15760405162461bcd60e51b8152602060048201526012602482015271125b9d985b1a59081c9a5cdac81b195d995b60721b60448201526064016105db565b60648260ff161115610d355760405162461bcd60e51b815260206004820152600d60248201526c496e76616c69642073636f726560981b60448201526064016105db565b60008161ffff16118015610d4f575061016d8161ffff1611155b610d8c5760405162461bcd60e51b815260206004820152600e60248201526d496e76616c69642077696e646f7760901b60448201526064016105db565b6000610d9f61ffff83166201518061209d565b610dae9062ffffff16426120bc565b90506040518061014001604052808781526020018681526020018560ff1681526020018460ff1681526020018361ffff168152602001426001600160401b03168152602001826001600160401b0316815260200160001515815260200160001515815260200160006001600160401b031681525060016000888152602001908152602001600020600082015181600001556020820151816001015560408201518160020160006101000a81548160ff021916908360ff16021790555060608201518160020160016101000a81548160ff021916908360ff16021790555060808201518160020160026101000a81548161ffff021916908361ffff16021790555060a08201518160020160046101000a8154816001600160401b0302191690836001600160401b0316021790555060c082015181600201600c6101000a8154816001600160401b0302191690836001600160401b0316021790555060e08201518160020160146101000a81548160ff0219169083151502179055506101008201518160020160156101000a81548160ff0219169083151502179055506101208201518160020160166101000a8154816001600160401b0302191690836001600160401b0316021790555090505060028690806001815401808255809150506001900390600052602060002001600090919091909150556004600086815260200190815260200160002086908060018154018082558091505060019003906000526020600020016000909190919091505560056000815480929190610ff0906120d5565b909155505060ff84166000908152600960205260408120805491611013836120d5565b90915550506040805160ff86811682528516602082015261ffff8416818301526001600160401b03831660608201529051869188917f53f4f3dc92d47ecd50d9c5832f23173dd82a67a464c300d2914d5766c1a121b79181900360800190a3505050505050565b611082611a31565b61108c6000611a5e565b565b6005546006546007546008546000836110a85760006110bf565b836110b5846127106120ee565b6110bf9190612105565b90509091929394565b6110d0611a31565b60005b8181101561129e576000600160008585858181106110f3576110f3612056565b90506020020135815260200190815260200160002090508060020160049054906101000a90046001600160401b03166001600160401b0316600003611138575061128c565b6002810154600160a01b900460ff1615611152575061128c565b6002810154600160601b90046001600160401b0316421015611174575061128c565b6002810180546001600160401b034216600160b01b0269ffffffffffffffffffff60a01b1990911617600160a01b179055600680549060006111b5836120d5565b909155505060028181015460ff161161120957600780549060006111d8836120d5565b9091555050600281015460ff166000908152600a602052604081208054916111ff836120d5565b919050555061121f565b60088054906000611219836120d5565b91905055505b806001015484848481811061123657611236612056565b600285810154604080516000815260ff9092169290921115602080830191909152825193029490940135937fc9e875e3ec15aca14cb4008858b8891079a81de3fc5e43c72e738ab2c392380893508290030190a3505b80611296816120d5565b9150506110d3565b50600080600654116112b15760006112cd565b6006546007546112c3906127106120ee565b6112cd9190612105565b60065460075460408051928352602083019190915281018290529091507fbabbdbfaa73d31b3ae3c0697fec47dcd3d768a10c7aefe454de02f2d4771b4c29060600160405180910390a1505050565b600082815260016020818152604080842081516101408101835281548152938101549284019290925260029091015460ff808216928401929092526101008082048316606085015261ffff6201000083041660808501526001600160401b036401000000008304811660a08601819052600160601b8404821660c0870152600160a01b84048516151560e0870152600160a81b8404909416151591850191909152600160b01b909104166101208301528015801593929084906113f45750846001600160401b03168160a001516001600160401b0316105b9250509250925092565b6003818154811061140e57600080fd5b6000918252602090912060049091020180546001820154600283015460038401805493955091936001600160401b0380831694600160401b9093041692909161145690612127565b80601f016020809104026020016040519081016040528092919081815260200182805461148290612127565b80156114cf5780601f106114a4576101008083540402835291602001916114cf565b820191906000526020600020905b8154815290600101906020018083116114b257829003601f168201915b5050505050905085565b6114e1611a31565b6000828152600160205260408120600281015490916401000000009091046001600160401b0316900361154d5760405162461bcd60e51b8152602060048201526014602482015273141c99591a58dd1a5bdb881b9bdd08199bdd5b9960621b60448201526064016105db565b6002810154600160a01b900460ff161561159d5760405162461bcd60e51b8152602060048201526011602482015270105b1c9958591e481d985b1a59185d1959607a1b60448201526064016105db565b600281018054600160a01b61ffff60a01b19909116600160a81b85151502171767ffffffffffffffff60b01b1916600160b01b426001600160401b031602179055600680549060006115ee836120d5565b90915550506002810154600090600360ff9091161061160e575081611612565b5081155b80156116595760078054906000611628836120d5565b9091555050600282015460ff166000908152600a6020526040812080549161164f836120d5565b919050555061166f565b60088054906000611669836120d5565b91905055505b6001820154604080518515158152831515602082015286917fc9e875e3ec15aca14cb4008858b8891079a81de3fc5e43c72e738ab2c3923808910160405180910390a3600080600654116116c45760006116e0565b6006546007546116d6906127106120ee565b6116e09190612105565b60065460075460408051928352602083019190915281018290529091507fbabbdbfaa73d31b3ae3c0697fec47dcd3d768a10c7aefe454de02f2d4771b4c29060600160405180910390a15050505050565b611739611a31565b60036040518060a00160405280878152602001868152602001856001600160401b03168152602001426001600160401b0316815260200184848080601f01602080910402602001604051908101604052809392919081815260200183838082843760009201829052509390945250508354600181810186559482526020918290208451600490920201908155908301519381019390935550604081015160028301805460608401516001600160401b03908116600160401b026fffffffffffffffffffffffffffffffff199092169316929092179190911790556080810151909190600382019061182a90826121c6565b505060035461183c9150600190612285565b7f1e7adcd7b9406cd2a4d481c9c990477524be46984629b3e13d7d8451622429bb868685856040516118719493929190612298565b60405180910390a25050505050565b6040805160a081018252600080825260208201819052918101829052606080820192909252608081019190915260035482106118ee5760405162461bcd60e51b815260206004820152600d60248201526c092dcecc2d8d2c840d2dcc8caf609b1b60448201526064016105db565b6003828154811061190157611901612056565b60009182526020918290206040805160a08101825260049093029091018054835260018101549383019390935260028301546001600160401b0380821692840192909252600160401b900416606082015260038201805491929160808401919061196a90612127565b80601f016020809104026020016040519081016040528092919081815260200182805461199690612127565b80156119e35780601f106119b8576101008083540402835291602001916119e3565b820191906000526020600020905b8154815290600101906020018083116119c657829003601f168201915b5050505050815250509050919050565b6119fb611a31565b6001600160a01b038116611a2557604051631e4fbdf760e01b8152600060048201526024016105db565b611a2e81611a5e565b50565b6000546001600160a01b0316331461108c5760405163118cdaa760e01b81523360048201526024016105db565b600080546001600160a01b038381166001600160a01b0319831681178455604051919092169283917f8be0079c531659141344cd1fd0a4f28419497f9722a3daafe3b4186f6b6457e09190a35050565b803560ff81168114611abf57600080fd5b919050565b600060208284031215611ad657600080fd5b611adf82611aae565b9392505050565b60008083601f840112611af857600080fd5b5081356001600160401b03811115611b0f57600080fd5b6020830191508360208260051b8501011115611b2a57600080fd5b9250929050565b60008060008060008060008060008060a08b8d031215611b5057600080fd5b8a356001600160401b0380821115611b6757600080fd5b611b738e838f01611ae6565b909c509a5060208d0135915080821115611b8c57600080fd5b611b988e838f01611ae6565b909a50985060408d0135915080821115611bb157600080fd5b611bbd8e838f01611ae6565b909850965060608d0135915080821115611bd657600080fd5b611be28e838f01611ae6565b909650945060808d0135915080821115611bfb57600080fd5b50611c088d828e01611ae6565b915080935050809150509295989b9194979a5092959850565b600060208284031215611c3357600080fd5b5035919050565b60008060408385031215611c4d57600080fd5b50508035926020909101359150565b6020808252825182820181905260009190848201906040850190845b81811015611c9457835183529284019291840191600101611c78565b50909695505050505050565b803561ffff81168114611abf57600080fd5b600080600080600060a08688031215611cca57600080fd5b8535945060208601359350611ce160408701611aae565b9250611cef60608701611aae565b9150611cfd60808701611ca0565b90509295509295909350565b60008060208385031215611d1c57600080fd5b82356001600160401b03811115611d3257600080fd5b611d3e85828601611ae6565b90969095509350505050565b80356001600160401b0381168114611abf57600080fd5b60008060408385031215611d7457600080fd5b82359150611d8460208401611d4a565b90509250929050565b6000815180845260005b81811015611db357602081850181015186830182015201611d97565b506000602082860101526020601f19601f83011685010191505092915050565b85815284602082015260006001600160401b03808616604084015280851660608401525060a06080830152611e0b60a0830184611d8d565b979650505050505050565b60008060408385031215611e2957600080fd5b8235915060208301358015158114611e4057600080fd5b809150509250929050565b600080600080600060808688031215611e6357600080fd5b8535945060208601359350611e7a60408701611d4a565b925060608601356001600160401b0380821115611e9657600080fd5b818801915088601f830112611eaa57600080fd5b813581811115611eb957600080fd5b896020828501011115611ecb57600080fd5b9699959850939650602001949392505050565b60006101408201905082518252602083015160208301526040830151611f09604084018260ff169052565b506060830151611f1e606084018260ff169052565b506080830151611f34608084018261ffff169052565b5060a0830151611f4f60a08401826001600160401b03169052565b5060c0830151611f6a60c08401826001600160401b03169052565b5060e0830151611f7e60e084018215159052565b5061010083810151151590830152610120808401516001600160401b038116828501525b505092915050565b602081528151602082015260208201516040820152600060408301516001600160401b0380821660608501528060608601511660808501525050608083015160a080840152611ffc60c0840182611d8d565b949350505050565b60006020828403121561201657600080fd5b81356001600160a01b0381168114611adf57600080fd5b6020808252600f908201526e098cadccee8d040dad2e6dac2e8c6d608b1b604082015260600190565b634e487b7160e01b600052603260045260246000fd5b60006020828403121561207e57600080fd5b611adf82611ca0565b634e487b7160e01b600052601160045260246000fd5b62ffffff818116838216028082169190828114611fa257611fa2612087565b808201808211156120cf576120cf612087565b92915050565b6000600182016120e7576120e7612087565b5060010190565b80820281158282048414176120cf576120cf612087565b60008261212257634e487b7160e01b600052601260045260246000fd5b500490565b600181811c9082168061213b57607f821691505b60208210810361215b57634e487b7160e01b600052602260045260246000fd5b50919050565b634e487b7160e01b600052604160045260246000fd5b601f8211156121c157600081815260208120601f850160051c8101602086101561219e5750805b601f850160051c820191505b818110156121bd578281556001016121aa565b5050505b505050565b81516001600160401b038111156121df576121df612161565b6121f3816121ed8454612127565b84612177565b602080601f83116001811461222857600084156122105750858301515b600019600386901b1c1916600185901b1785556121bd565b600085815260208120601f198616915b8281101561225757888601518255948401946001909101908401612238565b50858210156122755787850151600019600388901b60f8161c191681555b5050505050600190811b01905550565b818103818111156120cf576120cf612087565b84815283602082015260606040820152816060820152818360808301376000818301608090810191909152601f909201601f19160101939250505056fea2646970667358221220c16b65823808c9253e021506dfed53cd37fa4abc5b20db5a4eadb4ebb40d3ddb64736f6c63430008140033","opcodes":"PUSH1 0x80 PUSH1 0x40 MSTORE CALLVALUE DUP1 ISZERO PUSH2 0x10 JUMPI PUSH1 0x0 DUP1 REVERT JUMPDEST POP CALLER DUP1 PUSH2 0x37 JUMPI PUSH1 0x40 MLOAD PUSH4 0x1E4FBDF7 PUSH1 0xE0 SHL DUP2 MSTORE PUSH1 0x0 PUSH1 0x4 DUP3 ADD MSTORE PUSH1 0x24 ADD PUSH1 0x40 MLOAD DUP1 SWAP2 SUB SWAP1 REVERT JUMPDEST PUSH2 0x40 DUP2 PUSH2 0x46 JUMP JUMPDEST POP PUSH2 0x96 JUMP JUMPDEST PUSH1 0x0 DUP1 SLOAD PUSH1 0x1 PUSH1 0x1 PUSH1 0xA0 SHL SUB DUP4 DUP2 AND PUSH1 0x1 PUSH1 0x1 PUSH1 0xA0 SHL SUB NOT DUP4 AND DUP2 OR DUP5 SSTORE PUSH1 0x40 MLOAD SWAP2 SWAP1 SWAP3 AND SWAP3 DUP4 SWAP2 PUSH32 0x8BE0079C531659141344CD1FD0A4F28419497F9722A3DAAFE3B4186F6B6457E0 SWAP2 SWAP1 LOG3 POP POP JUMP JUMPDEST PUSH2 0x230B DUP1 PUSH2 0xA5 PUSH1 0x0 CODECOPY PUSH1 0x0 RETURN INVALID PUSH1 0x80 PUSH1 0x40 MSTORE CALLVALUE DUP1 ISZERO PUSH2 0x10 JUMPI PUSH1 0x0 DUP1 REVERT JUMPDEST POP PUSH1 0x4 CALLDATASIZE LT PUSH2 0x173 JUMPI PUSH1 0x0 CALLDATALOAD PUSH1 0xE0 SHR DUP1 PUSH4 0x75469891 GT PUSH2 0xDE JUMPI DUP1 PUSH4 0xC83918BB GT PUSH2 0x97 JUMPI DUP1 PUSH4 0xE4454712 GT PUSH2 0x71 JUMPI DUP1 PUSH4 0xE4454712 EQ PUSH2 0x570 JUMPI DUP1 PUSH4 0xE7248D42 EQ PUSH2 0x578 JUMPI DUP1 PUSH4 0xECA52661 EQ PUSH2 0x598 JUMPI DUP1 PUSH4 0xF2FDE38B EQ PUSH2 0x5A1 JUMPI PUSH1 0x0 DUP1 REVERT JUMPDEST DUP1 PUSH4 0xC83918BB EQ PUSH2 0x42F JUMPI DUP1 PUSH4 0xCF97CFA2 EQ PUSH2 0x442 JUMPI DUP1 PUSH4 0xDC6423AB EQ PUSH2 0x455 JUMPI PUSH1 0x0 DUP1 REVERT JUMPDEST DUP1 PUSH4 0x75469891 EQ PUSH2 0x36B JUMPI DUP1 PUSH4 0x779BD562 EQ PUSH2 0x39B JUMPI DUP1 PUSH4 0x88A1B8BA EQ PUSH2 0x3A4 JUMPI DUP1 PUSH4 0x8DA5CB5B EQ PUSH2 0x3B7 JUMPI DUP1 PUSH4 0x909375B2 EQ PUSH2 0x3D2 JUMPI DUP1 PUSH4 0xA5003E97 EQ PUSH2 0x40B JUMPI PUSH1 0x0 DUP1 REVERT JUMPDEST DUP1 PUSH4 0x4A4512D4 GT PUSH2 0x130 JUMPI DUP1 PUSH4 0x4A4512D4 EQ PUSH2 0x21D JUMPI DUP1 PUSH4 0x53FED555 EQ PUSH2 0x23D JUMPI DUP1 PUSH4 0x5830D58D EQ PUSH2 0x25D JUMPI DUP1 PUSH4 0x5A75814D EQ PUSH2 0x266 JUMPI DUP1 PUSH4 0x5D9EAEAF EQ PUSH2 0x279 JUMPI DUP1 PUSH4 0x715018A6 EQ PUSH2 0x363 JUMPI PUSH1 0x0 DUP1 REVERT JUMPDEST DUP1 PUSH4 0x2320458 EQ PUSH2 0x178 JUMPI DUP1 PUSH4 0x940F843 EQ PUSH2 0x1AB JUMPI DUP1 PUSH4 0xE3D209F EQ PUSH2 0x1B4 JUMPI DUP1 PUSH4 0x1DB7125D EQ PUSH2 0x1C9 JUMPI DUP1 PUSH4 0x3891566B EQ PUSH2 0x1F7 JUMPI DUP1 PUSH4 0x3FAC2AAD EQ PUSH2 0x20A JUMPI JUMPDEST PUSH1 0x0 DUP1 REVERT JUMPDEST PUSH2 0x198 PUSH2 0x186 CALLDATASIZE PUSH1 0x4 PUSH2 0x1AC4 JUMP JUMPDEST PUSH1 0xA PUSH1 0x20 MSTORE PUSH1 0x0 SWAP1 DUP2 MSTORE PUSH1 0x40 SWAP1 KECCAK256 SLOAD DUP2 JUMP JUMPDEST PUSH1 0x40 MLOAD SWAP1 DUP2 MSTORE PUSH1 0x20 ADD JUMPDEST PUSH1 0x40 MLOAD DUP1 SWAP2 SUB SWAP1 RETURN JUMPDEST PUSH2 0x198 PUSH1 0x8 SLOAD DUP2 JUMP JUMPDEST PUSH2 0x1C7 PUSH2 0x1C2 CALLDATASIZE PUSH1 0x4 PUSH2 0x1B31 JUMP JUMPDEST PUSH2 0x5B4 JUMP JUMPDEST STOP JUMPDEST PUSH2 0x1DC PUSH2 0x1D7 CALLDATASIZE PUSH1 0x4 PUSH2 0x1AC4 JUMP JUMPDEST PUSH2 0xB3D JUMP JUMPDEST PUSH1 0x40 DUP1 MLOAD SWAP4 DUP5 MSTORE PUSH1 0x20 DUP5 ADD SWAP3 SWAP1 SWAP3 MSTORE SWAP1 DUP3 ADD MSTORE PUSH1 0x60 ADD PUSH2 0x1A2 JUMP JUMPDEST PUSH2 0x198 PUSH2 0x205 CALLDATASIZE PUSH1 0x4 PUSH2 0x1C21 JUMP JUMPDEST PUSH2 0xB88 JUMP JUMPDEST PUSH2 0x198 PUSH2 0x218 CALLDATASIZE PUSH1 0x4 PUSH2 0x1C3A JUMP JUMPDEST PUSH2 0xBA9 JUMP JUMPDEST PUSH2 0x230 PUSH2 0x22B CALLDATASIZE PUSH1 0x4 PUSH2 0x1C21 JUMP JUMPDEST PUSH2 0xBDA JUMP JUMPDEST PUSH1 0x40 MLOAD PUSH2 0x1A2 SWAP2 SWAP1 PUSH2 0x1C5C JUMP JUMPDEST PUSH2 0x198 PUSH2 0x24B CALLDATASIZE PUSH1 0x4 PUSH2 0x1AC4 JUMP JUMPDEST PUSH1 0x9 PUSH1 0x20 MSTORE PUSH1 0x0 SWAP1 DUP2 MSTORE PUSH1 0x40 SWAP1 KECCAK256 SLOAD DUP2 JUMP JUMPDEST PUSH2 0x198 PUSH1 0x6 SLOAD DUP2 JUMP JUMPDEST PUSH2 0x1C7 PUSH2 0x274 CALLDATASIZE PUSH1 0x4 PUSH2 0x1CB2 JUMP JUMPDEST PUSH2 0xC3C JUMP JUMPDEST PUSH2 0x2FB PUSH2 0x287 CALLDATASIZE PUSH1 0x4 PUSH2 0x1C21 JUMP JUMPDEST PUSH1 0x1 PUSH1 0x20 DUP2 SWAP1 MSTORE PUSH1 0x0 SWAP2 DUP3 MSTORE PUSH1 0x40 SWAP1 SWAP2 KECCAK256 DUP1 SLOAD SWAP2 DUP2 ADD SLOAD PUSH1 0x2 SWAP1 SWAP2 ADD SLOAD PUSH1 0xFF DUP1 DUP3 AND SWAP2 PUSH2 0x100 DUP2 DIV DUP3 AND SWAP2 PUSH2 0xFFFF PUSH3 0x10000 DUP4 DIV AND SWAP2 PUSH1 0x1 PUSH1 0x1 PUSH1 0x40 SHL SUB PUSH5 0x100000000 DUP3 DIV DUP2 AND SWAP3 PUSH1 0x1 PUSH1 0x60 SHL DUP4 DIV DUP3 AND SWAP3 PUSH1 0x1 PUSH1 0xA0 SHL DUP2 DIV DUP3 AND SWAP3 PUSH1 0x1 PUSH1 0xA8 SHL DUP3 DIV SWAP1 SWAP3 AND SWAP2 PUSH1 0x1 PUSH1 0xB0 SHL SWAP1 SWAP2 DIV AND DUP11 JUMP JUMPDEST PUSH1 0x40 DUP1 MLOAD SWAP11 DUP12 MSTORE PUSH1 0x20 DUP12 ADD SWAP10 SWAP1 SWAP10 MSTORE PUSH1 0xFF SWAP8 DUP9 AND SWAP9 DUP11 ADD SWAP9 SWAP1 SWAP9 MSTORE SWAP6 SWAP1 SWAP5 AND PUSH1 0x60 DUP9 ADD MSTORE PUSH2 0xFFFF SWAP1 SWAP3 AND PUSH1 0x80 DUP8 ADD MSTORE PUSH1 0x1 PUSH1 0x1 PUSH1 0x40 SHL SUB SWAP1 DUP2 AND PUSH1 0xA0 DUP8 ADD MSTORE SWAP1 DUP2 AND PUSH1 0xC0 DUP7 ADD MSTORE SWAP1 ISZERO ISZERO PUSH1 0xE0 DUP6 ADD MSTORE SWAP1 ISZERO ISZERO PUSH2 0x100 DUP5 ADD MSTORE AND PUSH2 0x120 DUP3 ADD MSTORE PUSH2 0x140 ADD PUSH2 0x1A2 JUMP JUMPDEST PUSH2 0x1C7 PUSH2 0x107A JUMP JUMPDEST PUSH2 0x373 PUSH2 0x108E JUMP JUMPDEST PUSH1 0x40 DUP1 MLOAD SWAP6 DUP7 MSTORE PUSH1 0x20 DUP7 ADD SWAP5 SWAP1 SWAP5 MSTORE SWAP3 DUP5 ADD SWAP2 SWAP1 SWAP2 MSTORE PUSH1 0x60 DUP4 ADD MSTORE PUSH1 0x80 DUP3 ADD MSTORE PUSH1 0xA0 ADD PUSH2 0x1A2 JUMP JUMPDEST PUSH2 0x198 PUSH1 0x5 SLOAD DUP2 JUMP JUMPDEST PUSH2 0x1C7 PUSH2 0x3B2 CALLDATASIZE PUSH1 0x4 PUSH2 0x1D09 JUMP JUMPDEST PUSH2 0x10C8 JUMP JUMPDEST PUSH1 0x0 SLOAD PUSH1 0x40 MLOAD PUSH1 0x1 PUSH1 0x1 PUSH1 0xA0 SHL SUB SWAP1 SWAP2 AND DUP2 MSTORE PUSH1 0x20 ADD PUSH2 0x1A2 JUMP JUMPDEST PUSH2 0x3E5 PUSH2 0x3E0 CALLDATASIZE PUSH1 0x4 PUSH2 0x1D61 JUMP JUMPDEST PUSH2 0x131C JUMP JUMPDEST PUSH1 0x40 DUP1 MLOAD SWAP4 ISZERO ISZERO DUP5 MSTORE SWAP2 ISZERO ISZERO PUSH1 0x20 DUP5 ADD MSTORE PUSH1 0x1 PUSH1 0x1 PUSH1 0x40 SHL SUB AND SWAP1 DUP3 ADD MSTORE PUSH1 0x60 ADD PUSH2 0x1A2 JUMP JUMPDEST PUSH2 0x41E PUSH2 0x419 CALLDATASIZE PUSH1 0x4 PUSH2 0x1C21 JUMP JUMPDEST PUSH2 0x13FE JUMP JUMPDEST PUSH1 0x40 MLOAD PUSH2 0x1A2 SWAP6 SWAP5 SWAP4 SWAP3 SWAP2 SWAP1 PUSH2 0x1DD3 JUMP JUMPDEST PUSH2 0x1C7 PUSH2 0x43D CALLDATASIZE PUSH1 0x4 PUSH2 0x1E16 JUMP JUMPDEST PUSH2 0x14D9 JUMP JUMPDEST PUSH2 0x1C7 PUSH2 0x450 CALLDATASIZE PUSH1 0x4 PUSH2 0x1E4B JUMP JUMPDEST PUSH2 0x1731 JUMP JUMPDEST PUSH2 0x563 PUSH2 0x463 CALLDATASIZE PUSH1 0x4 PUSH2 0x1C21 JUMP JUMPDEST PUSH1 0x40 DUP1 MLOAD PUSH2 0x140 DUP2 ADD DUP3 MSTORE PUSH1 0x0 DUP1 DUP3 MSTORE PUSH1 0x20 DUP3 ADD DUP2 SWAP1 MSTORE SWAP2 DUP2 ADD DUP3 SWAP1 MSTORE PUSH1 0x60 DUP2 ADD DUP3 SWAP1 MSTORE PUSH1 0x80 DUP2 ADD DUP3 SWAP1 MSTORE PUSH1 0xA0 DUP2 ADD DUP3 SWAP1 MSTORE PUSH1 0xC0 DUP2 ADD DUP3 SWAP1 MSTORE PUSH1 0xE0 DUP2 ADD DUP3 SWAP1 MSTORE PUSH2 0x100 DUP2 ADD DUP3 SWAP1 MSTORE PUSH2 0x120 DUP2 ADD SWAP2 SWAP1 SWAP2 MSTORE POP PUSH1 0x0 SWAP1 DUP2 MSTORE PUSH1 0x1 PUSH1 0x20 DUP2 DUP2 MSTORE PUSH1 0x40 SWAP3 DUP4 SWAP1 KECCAK256 DUP4 MLOAD PUSH2 0x140 DUP2 ADD DUP6 MSTORE DUP2 SLOAD DUP2 MSTORE SWAP3 DUP2 ADD SLOAD SWAP2 DUP4 ADD SWAP2 SWAP1 SWAP2 MSTORE PUSH1 0x2 ADD SLOAD PUSH1 0xFF DUP1 DUP3 AND SWAP4 DUP4 ADD SWAP4 SWAP1 SWAP4 MSTORE PUSH2 0x100 DUP1 DUP3 DIV DUP5 AND PUSH1 0x60 DUP5 ADD MSTORE PUSH2 0xFFFF PUSH3 0x10000 DUP4 DIV AND PUSH1 0x80 DUP5 ADD MSTORE PUSH1 0x1 PUSH1 0x1 PUSH1 0x40 SHL SUB PUSH5 0x100000000 DUP4 DIV DUP2 AND PUSH1 0xA0 DUP6 ADD MSTORE PUSH1 0x1 PUSH1 0x60 SHL DUP4 DIV DUP2 AND PUSH1 0xC0 DUP6 ADD MSTORE PUSH1 0x1 PUSH1 0xA0 SHL DUP4 DIV DUP6 AND ISZERO ISZERO PUSH1 0xE0 DUP6 ADD MSTORE PUSH1 0x1 PUSH1 0xA8 SHL DUP4 DIV SWAP1 SWAP5 AND ISZERO ISZERO SWAP1 DUP4 ADD MSTORE PUSH1 0x1 PUSH1 0xB0 SHL SWAP1 DIV SWAP1 SWAP2 AND PUSH2 0x120 DUP3 ADD MSTORE SWAP1 JUMP JUMPDEST PUSH1 0x40 MLOAD PUSH2 0x1A2 SWAP2 SWAP1 PUSH2 0x1EDE JUMP JUMPDEST PUSH1 0x3 SLOAD PUSH2 0x198 JUMP JUMPDEST PUSH2 0x58B PUSH2 0x586 CALLDATASIZE PUSH1 0x4 PUSH2 0x1C21 JUMP JUMPDEST PUSH2 0x1880 JUMP JUMPDEST PUSH1 0x40 MLOAD PUSH2 0x1A2 SWAP2 SWAP1 PUSH2 0x1FAA JUMP JUMPDEST PUSH2 0x198 PUSH1 0x7 SLOAD DUP2 JUMP JUMPDEST PUSH2 0x1C7 PUSH2 0x5AF CALLDATASIZE PUSH1 0x4 PUSH2 0x2004 JUMP JUMPDEST PUSH2 0x19F3 JUMP JUMPDEST PUSH2 0x5BC PUSH2 0x1A31 JUMP JUMPDEST DUP9 DUP8 EQ PUSH2 0x5E4 JUMPI PUSH1 0x40 MLOAD PUSH3 0x461BCD PUSH1 0xE5 SHL DUP2 MSTORE PUSH1 0x4 ADD PUSH2 0x5DB SWAP1 PUSH2 0x202D JUMP JUMPDEST PUSH1 0x40 MLOAD DUP1 SWAP2 SUB SWAP1 REVERT JUMPDEST DUP9 DUP6 EQ PUSH2 0x603 JUMPI PUSH1 0x40 MLOAD PUSH3 0x461BCD PUSH1 0xE5 SHL DUP2 MSTORE PUSH1 0x4 ADD PUSH2 0x5DB SWAP1 PUSH2 0x202D JUMP JUMPDEST DUP9 DUP4 EQ PUSH2 0x622 JUMPI PUSH1 0x40 MLOAD PUSH3 0x461BCD PUSH1 0xE5 SHL DUP2 MSTORE PUSH1 0x4 ADD PUSH2 0x5DB SWAP1 PUSH2 0x202D JUMP JUMPDEST DUP9 DUP2 EQ PUSH2 0x641 JUMPI PUSH1 0x40 MLOAD PUSH3 0x461BCD PUSH1 0xE5 SHL DUP2 MSTORE PUSH1 0x4 ADD PUSH2 0x5DB SWAP1 PUSH2 0x202D JUMP JUMPDEST PUSH1 0x0 JUMPDEST DUP10 DUP2 LT ISZERO PUSH2 0xB30 JUMPI PUSH1 0x1 PUSH1 0x0 DUP13 DUP13 DUP5 DUP2 DUP2 LT PUSH2 0x662 JUMPI PUSH2 0x662 PUSH2 0x2056 JUMP JUMPDEST SWAP1 POP PUSH1 0x20 MUL ADD CALLDATALOAD DUP2 MSTORE PUSH1 0x20 ADD SWAP1 DUP2 MSTORE PUSH1 0x20 ADD PUSH1 0x0 KECCAK256 PUSH1 0x2 ADD PUSH1 0x4 SWAP1 SLOAD SWAP1 PUSH2 0x100 EXP SWAP1 DIV PUSH1 0x1 PUSH1 0x1 PUSH1 0x40 SHL SUB AND PUSH1 0x1 PUSH1 0x1 PUSH1 0x40 SHL SUB AND PUSH1 0x0 SUB PUSH2 0xB1E JUMPI PUSH1 0x0 DUP4 DUP4 DUP4 DUP2 DUP2 LT PUSH2 0x6B2 JUMPI PUSH2 0x6B2 PUSH2 0x2056 JUMP JUMPDEST SWAP1 POP PUSH1 0x20 MUL ADD PUSH1 0x20 DUP2 ADD SWAP1 PUSH2 0x6C7 SWAP2 SWAP1 PUSH2 0x206C JUMP JUMPDEST PUSH2 0x6D8 SWAP1 PUSH2 0xFFFF AND PUSH3 0x15180 PUSH2 0x209D JUMP JUMPDEST PUSH2 0x6E7 SWAP1 PUSH3 0xFFFFFF AND TIMESTAMP PUSH2 0x20BC JUMP JUMPDEST SWAP1 POP PUSH1 0x40 MLOAD DUP1 PUSH2 0x140 ADD PUSH1 0x40 MSTORE DUP1 DUP14 DUP14 DUP6 DUP2 DUP2 LT PUSH2 0x707 JUMPI PUSH2 0x707 PUSH2 0x2056 JUMP JUMPDEST SWAP1 POP PUSH1 0x20 MUL ADD CALLDATALOAD DUP2 MSTORE PUSH1 0x20 ADD DUP12 DUP12 DUP6 DUP2 DUP2 LT PUSH2 0x725 JUMPI PUSH2 0x725 PUSH2 0x2056 JUMP JUMPDEST SWAP1 POP PUSH1 0x20 MUL ADD CALLDATALOAD DUP2 MSTORE PUSH1 0x20 ADD DUP10 DUP10 DUP6 DUP2 DUP2 LT PUSH2 0x743 JUMPI PUSH2 0x743 PUSH2 0x2056 JUMP JUMPDEST SWAP1 POP PUSH1 0x20 MUL ADD PUSH1 0x20 DUP2 ADD SWAP1 PUSH2 0x758 SWAP2 SWAP1 PUSH2 0x1AC4 JUMP JUMPDEST PUSH1 0xFF AND DUP2 MSTORE PUSH1 0x20 ADD DUP8 DUP8 DUP6 DUP2 DUP2 LT PUSH2 0x772 JUMPI PUSH2 0x772 PUSH2 0x2056 JUMP JUMPDEST SWAP1 POP PUSH1 0x20 MUL ADD PUSH1 0x20 DUP2 ADD SWAP1 PUSH2 0x787 SWAP2 SWAP1 PUSH2 0x1AC4 JUMP JUMPDEST PUSH1 0xFF AND DUP2 MSTORE PUSH1 0x20 ADD DUP6 DUP6 DUP6 DUP2 DUP2 LT PUSH2 0x7A1 JUMPI PUSH2 0x7A1 PUSH2 0x2056 JUMP JUMPDEST SWAP1 POP PUSH1 0x20 MUL ADD PUSH1 0x20 DUP2 ADD SWAP1 PUSH2 0x7B6 SWAP2 SWAP1 PUSH2 0x206C JUMP JUMPDEST PUSH2 0xFFFF AND DUP2 MSTORE PUSH1 0x1 PUSH1 0x1 PUSH1 0x40 SHL SUB TIMESTAMP DUP2 AND PUSH1 0x20 DUP4 ADD MSTORE DUP4 AND PUSH1 0x40 DUP3 ADD MSTORE PUSH1 0x0 PUSH1 0x60 DUP3 ADD DUP2 SWAP1 MSTORE PUSH1 0x80 DUP3 ADD DUP2 SWAP1 MSTORE PUSH1 0xA0 SWAP1 SWAP2 ADD DUP2 SWAP1 MSTORE PUSH1 0x1 SWAP1 DUP15 DUP15 DUP7 DUP2 DUP2 LT PUSH2 0x800 JUMPI PUSH2 0x800 PUSH2 0x2056 JUMP JUMPDEST PUSH1 0x20 SWAP1 DUP2 MUL SWAP3 SWAP1 SWAP3 ADD CALLDATALOAD DUP4 MSTORE POP DUP2 DUP2 ADD SWAP3 SWAP1 SWAP3 MSTORE PUSH1 0x40 SWAP1 DUP2 ADD PUSH1 0x0 KECCAK256 DUP4 MLOAD DUP2 SSTORE SWAP2 DUP4 ADD MLOAD PUSH1 0x1 DUP4 ADD SSTORE DUP3 ADD MLOAD PUSH1 0x2 SWAP2 DUP3 ADD DUP1 SLOAD PUSH1 0x60 DUP6 ADD MLOAD PUSH1 0x80 DUP7 ADD MLOAD PUSH1 0xA0 DUP8 ADD MLOAD PUSH1 0xC0 DUP9 ADD MLOAD PUSH1 0xE0 DUP10 ADD MLOAD PUSH2 0x100 DUP1 DUP12 ADD MLOAD PUSH2 0x120 SWAP1 SWAP12 ADD MLOAD PUSH1 0xFF SWAP10 DUP11 AND PUSH2 0xFFFF NOT SWAP1 SWAP9 AND SWAP8 SWAP1 SWAP8 OR SWAP9 SWAP1 SWAP6 AND SWAP1 SWAP5 MUL SWAP7 SWAP1 SWAP7 OR PUSH12 0xFFFFFFFFFFFFFFFFFFFF0000 NOT AND PUSH3 0x10000 PUSH2 0xFFFF SWAP1 SWAP4 AND SWAP3 SWAP1 SWAP3 MUL PUSH12 0xFFFFFFFFFFFFFFFF00000000 NOT AND SWAP2 SWAP1 SWAP2 OR PUSH5 0x100000000 PUSH1 0x1 PUSH1 0x1 PUSH1 0x40 SHL SUB SWAP3 DUP4 AND MUL OR PUSH9 0xFFFFFFFFFFFFFFFFFF PUSH1 0x60 SHL NOT AND PUSH1 0x1 PUSH1 0x60 SHL SWAP6 DUP3 AND SWAP6 SWAP1 SWAP6 MUL PUSH1 0xFF PUSH1 0xA0 SHL NOT AND SWAP5 SWAP1 SWAP5 OR PUSH1 0x1 PUSH1 0xA0 SHL SWAP2 ISZERO ISZERO SWAP2 SWAP1 SWAP2 MUL OR PUSH9 0xFFFFFFFFFFFFFFFFFF PUSH1 0xA8 SHL NOT AND PUSH1 0x1 PUSH1 0xA8 SHL SWAP6 ISZERO ISZERO SWAP6 SWAP1 SWAP6 MUL PUSH8 0xFFFFFFFFFFFFFFFF PUSH1 0xB0 SHL NOT AND SWAP5 SWAP1 SWAP5 OR PUSH1 0x1 PUSH1 0xB0 SHL SWAP3 SWAP1 SWAP5 AND SWAP2 SWAP1 SWAP2 MUL SWAP3 SWAP1 SWAP3 OR SWAP1 SWAP2 SSTORE DUP13 DUP13 DUP5 DUP2 DUP2 LT PUSH2 0x93E JUMPI PUSH2 0x93E PUSH2 0x2056 JUMP JUMPDEST DUP4 SLOAD PUSH1 0x1 DUP2 ADD DUP6 SSTORE PUSH1 0x0 SWAP5 DUP6 MSTORE PUSH1 0x20 DUP1 DUP7 KECCAK256 SWAP3 MUL SWAP4 SWAP1 SWAP4 ADD CALLDATALOAD SWAP3 ADD SWAP2 SWAP1 SWAP2 SSTORE POP PUSH1 0x4 SWAP1 DUP12 DUP12 DUP6 DUP2 DUP2 LT PUSH2 0x973 JUMPI PUSH2 0x973 PUSH2 0x2056 JUMP JUMPDEST SWAP1 POP PUSH1 0x20 MUL ADD CALLDATALOAD DUP2 MSTORE PUSH1 0x20 ADD SWAP1 DUP2 MSTORE PUSH1 0x20 ADD PUSH1 0x0 KECCAK256 DUP13 DUP13 DUP5 DUP2 DUP2 LT PUSH2 0x99A JUMPI PUSH2 0x99A PUSH2 0x2056 JUMP JUMPDEST DUP4 SLOAD PUSH1 0x1 DUP2 ADD DUP6 SSTORE PUSH1 0x0 SWAP5 DUP6 MSTORE PUSH1 0x20 DUP1 DUP7 KECCAK256 SWAP3 MUL SWAP4 SWAP1 SWAP4 ADD CALLDATALOAD SWAP3 ADD SWAP2 SWAP1 SWAP2 SSTORE POP PUSH1 0x5 DUP1 SLOAD SWAP2 PUSH2 0x9C8 DUP4 PUSH2 0x20D5 JUMP JUMPDEST SWAP2 SWAP1 POP SSTORE POP PUSH1 0x9 PUSH1 0x0 DUP10 DUP10 DUP6 DUP2 DUP2 LT PUSH2 0x9E3 JUMPI PUSH2 0x9E3 PUSH2 0x2056 JUMP JUMPDEST SWAP1 POP PUSH1 0x20 MUL ADD PUSH1 0x20 DUP2 ADD SWAP1 PUSH2 0x9F8 SWAP2 SWAP1 PUSH2 0x1AC4 JUMP JUMPDEST PUSH1 0xFF AND DUP2 MSTORE PUSH1 0x20 DUP2 ADD SWAP2 SWAP1 SWAP2 MSTORE PUSH1 0x40 ADD PUSH1 0x0 SWAP1 DUP2 KECCAK256 DUP1 SLOAD SWAP2 PUSH2 0xA19 DUP4 PUSH2 0x20D5 JUMP JUMPDEST SWAP2 SWAP1 POP SSTORE POP DUP10 DUP10 DUP4 DUP2 DUP2 LT PUSH2 0xA30 JUMPI PUSH2 0xA30 PUSH2 0x2056 JUMP JUMPDEST SWAP1 POP PUSH1 0x20 MUL ADD CALLDATALOAD DUP13 DUP13 DUP5 DUP2 DUP2 LT PUSH2 0xA49 JUMPI PUSH2 0xA49 PUSH2 0x2056 JUMP JUMPDEST SWAP1 POP PUSH1 0x20 MUL ADD CALLDATALOAD PUSH32 0x53F4F3DC92D47ECD50D9C5832F23173DD82A67A464C300D2914D5766C1A121B7 DUP11 DUP11 DUP7 DUP2 DUP2 LT PUSH2 0xA83 JUMPI PUSH2 0xA83 PUSH2 0x2056 JUMP JUMPDEST SWAP1 POP PUSH1 0x20 MUL ADD PUSH1 0x20 DUP2 ADD SWAP1 PUSH2 0xA98 SWAP2 SWAP1 PUSH2 0x1AC4 JUMP JUMPDEST DUP10 DUP10 DUP8 DUP2 DUP2 LT PUSH2 0xAAA JUMPI PUSH2 0xAAA PUSH2 0x2056 JUMP JUMPDEST SWAP1 POP PUSH1 0x20 MUL ADD PUSH1 0x20 DUP2 ADD SWAP1 PUSH2 0xABF SWAP2 SWAP1 PUSH2 0x1AC4 JUMP JUMPDEST DUP9 DUP9 DUP9 DUP2 DUP2 LT PUSH2 0xAD1 JUMPI PUSH2 0xAD1 PUSH2 0x2056 JUMP JUMPDEST SWAP1 POP PUSH1 0x20 MUL ADD PUSH1 0x20 DUP2 ADD SWAP1 PUSH2 0xAE6 SWAP2 SWAP1 PUSH2 0x206C JUMP JUMPDEST PUSH1 0x40 DUP1 MLOAD PUSH1 0xFF SWAP5 DUP6 AND DUP2 MSTORE SWAP4 SWAP1 SWAP3 AND PUSH1 0x20 DUP5 ADD MSTORE PUSH2 0xFFFF AND SWAP1 DUP3 ADD MSTORE PUSH1 0x1 PUSH1 0x1 PUSH1 0x40 SHL SUB DUP6 AND PUSH1 0x60 DUP3 ADD MSTORE PUSH1 0x80 ADD PUSH1 0x40 MLOAD DUP1 SWAP2 SUB SWAP1 LOG3 POP JUMPDEST DUP1 PUSH2 0xB28 DUP2 PUSH2 0x20D5 JUMP JUMPDEST SWAP2 POP POP PUSH2 0x644 JUMP JUMPDEST POP POP POP POP POP POP POP POP POP POP POP JUMP JUMPDEST PUSH1 0xFF DUP2 AND PUSH1 0x0 SWAP1 DUP2 MSTORE PUSH1 0x9 PUSH1 0x20 SWAP1 DUP2 MSTORE PUSH1 0x40 DUP1 DUP4 KECCAK256 SLOAD PUSH1 0xA SWAP1 SWAP3 MSTORE DUP3 KECCAK256 SLOAD SWAP1 SWAP2 DUP3 PUSH2 0xB69 JUMPI PUSH1 0x0 PUSH2 0xB80 JUMP JUMPDEST DUP3 PUSH2 0xB76 DUP4 PUSH2 0x2710 PUSH2 0x20EE JUMP JUMPDEST PUSH2 0xB80 SWAP2 SWAP1 PUSH2 0x2105 JUMP JUMPDEST SWAP3 SWAP5 SWAP2 SWAP4 POP POP JUMP JUMPDEST PUSH1 0x2 DUP2 DUP2 SLOAD DUP2 LT PUSH2 0xB98 JUMPI PUSH1 0x0 DUP1 REVERT JUMPDEST PUSH1 0x0 SWAP2 DUP3 MSTORE PUSH1 0x20 SWAP1 SWAP2 KECCAK256 ADD SLOAD SWAP1 POP DUP2 JUMP JUMPDEST PUSH1 0x4 PUSH1 0x20 MSTORE DUP2 PUSH1 0x0 MSTORE PUSH1 0x40 PUSH1 0x0 KECCAK256 DUP2 DUP2 SLOAD DUP2 LT PUSH2 0xBC5 JUMPI PUSH1 0x0 DUP1 REVERT JUMPDEST SWAP1 PUSH1 0x0 MSTORE PUSH1 0x20 PUSH1 0x0 KECCAK256 ADD PUSH1 0x0 SWAP2 POP SWAP2 POP POP SLOAD DUP2 JUMP JUMPDEST PUSH1 0x0 DUP2 DUP2 MSTORE PUSH1 0x4 PUSH1 0x20 SWAP1 DUP2 MSTORE PUSH1 0x40 SWAP2 DUP3 SWAP1 KECCAK256 DUP1 SLOAD DUP4 MLOAD DUP2 DUP5 MUL DUP2 ADD DUP5 ADD SWAP1 SWAP5 MSTORE DUP1 DUP5 MSTORE PUSH1 0x60 SWAP4 SWAP3 DUP4 ADD DUP3 DUP3 DUP1 ISZERO PUSH2 0xC30 JUMPI PUSH1 0x20 MUL DUP3 ADD SWAP2 SWAP1 PUSH1 0x0 MSTORE PUSH1 0x20 PUSH1 0x0 KECCAK256 SWAP1 JUMPDEST DUP2 SLOAD DUP2 MSTORE PUSH1 0x20 ADD SWAP1 PUSH1 0x1 ADD SWAP1 DUP1 DUP4 GT PUSH2 0xC1C JUMPI JUMPDEST POP POP POP POP POP SWAP1 POP SWAP2 SWAP1 POP JUMP JUMPDEST PUSH2 0xC44 PUSH2 0x1A31 JUMP JUMPDEST PUSH1 0x0 DUP6 DUP2 MSTORE PUSH1 0x1 PUSH1 0x20 MSTORE PUSH1 0x40 SWAP1 KECCAK256 PUSH1 0x2 ADD SLOAD PUSH5 0x100000000 SWAP1 DIV PUSH1 0x1 PUSH1 0x1 PUSH1 0x40 SHL SUB AND ISZERO PUSH2 0xCA8 JUMPI PUSH1 0x40 MLOAD PUSH3 0x461BCD PUSH1 0xE5 SHL DUP2 MSTORE PUSH1 0x20 PUSH1 0x4 DUP3 ADD MSTORE PUSH1 0x11 PUSH1 0x24 DUP3 ADD MSTORE PUSH17 0x105B1C9958591E4818DBDB5B5A5D1D1959 PUSH1 0x7A SHL PUSH1 0x44 DUP3 ADD MSTORE PUSH1 0x64 ADD PUSH2 0x5DB JUMP JUMPDEST PUSH1 0x4 DUP4 PUSH1 0xFF AND GT ISZERO PUSH2 0xCF1 JUMPI PUSH1 0x40 MLOAD PUSH3 0x461BCD PUSH1 0xE5 SHL DUP2 MSTORE PUSH1 0x20 PUSH1 0x4 DUP3 ADD MSTORE PUSH1 0x12 PUSH1 0x24 DUP3 ADD MSTORE PUSH18 0x125B9D985B1A59081C9A5CDAC81B195D995B PUSH1 0x72 SHL PUSH1 0x44 DUP3 ADD MSTORE PUSH1 0x64 ADD PUSH2 0x5DB JUMP JUMPDEST PUSH1 0x64 DUP3 PUSH1 0xFF AND GT ISZERO PUSH2 0xD35 JUMPI PUSH1 0x40 MLOAD PUSH3 0x461BCD PUSH1 0xE5 SHL DUP2 MSTORE PUSH1 0x20 PUSH1 0x4 DUP3 ADD MSTORE PUSH1 0xD PUSH1 0x24 DUP3 ADD MSTORE PUSH13 0x496E76616C69642073636F7265 PUSH1 0x98 SHL PUSH1 0x44 DUP3 ADD MSTORE PUSH1 0x64 ADD PUSH2 0x5DB JUMP JUMPDEST PUSH1 0x0 DUP2 PUSH2 0xFFFF AND GT DUP1 ISZERO PUSH2 0xD4F JUMPI POP PUSH2 0x16D DUP2 PUSH2 0xFFFF AND GT ISZERO JUMPDEST PUSH2 0xD8C JUMPI PUSH1 0x40 MLOAD PUSH3 0x461BCD PUSH1 0xE5 SHL DUP2 MSTORE PUSH1 0x20 PUSH1 0x4 DUP3 ADD MSTORE PUSH1 0xE PUSH1 0x24 DUP3 ADD MSTORE PUSH14 0x496E76616C69642077696E646F77 PUSH1 0x90 SHL PUSH1 0x44 DUP3 ADD MSTORE PUSH1 0x64 ADD PUSH2 0x5DB JUMP JUMPDEST PUSH1 0x0 PUSH2 0xD9F PUSH2 0xFFFF DUP4 AND PUSH3 0x15180 PUSH2 0x209D JUMP JUMPDEST PUSH2 0xDAE SWAP1 PUSH3 0xFFFFFF AND TIMESTAMP PUSH2 0x20BC JUMP JUMPDEST SWAP1 POP PUSH1 0x40 MLOAD DUP1 PUSH2 0x140 ADD PUSH1 0x40 MSTORE DUP1 DUP8 DUP2 MSTORE PUSH1 0x20 ADD DUP7 DUP2 MSTORE PUSH1 0x20 ADD DUP6 PUSH1 0xFF AND DUP2 MSTORE PUSH1 0x20 ADD DUP5 PUSH1 0xFF AND DUP2 MSTORE PUSH1 0x20 ADD DUP4 PUSH2 0xFFFF AND DUP2 MSTORE PUSH1 0x20 ADD TIMESTAMP PUSH1 0x1 PUSH1 0x1 PUSH1 0x40 SHL SUB AND DUP2 MSTORE PUSH1 0x20 ADD DUP3 PUSH1 0x1 PUSH1 0x1 PUSH1 0x40 SHL SUB AND DUP2 MSTORE PUSH1 0x20 ADD PUSH1 0x0 ISZERO ISZERO DUP2 MSTORE PUSH1 0x20 ADD PUSH1 0x0 ISZERO ISZERO DUP2 MSTORE PUSH1 0x20 ADD PUSH1 0x0 PUSH1 0x1 PUSH1 0x1 PUSH1 0x40 SHL SUB AND DUP2 MSTORE POP PUSH1 0x1 PUSH1 0x0 DUP9 DUP2 MSTORE PUSH1 0x20 ADD SWAP1 DUP2 MSTORE PUSH1 0x20 ADD PUSH1 0x0 KECCAK256 PUSH1 0x0 DUP3 ADD MLOAD DUP2 PUSH1 0x0 ADD SSTORE PUSH1 0x20 DUP3 ADD MLOAD DUP2 PUSH1 0x1 ADD SSTORE PUSH1 0x40 DUP3 ADD MLOAD DUP2 PUSH1 0x2 ADD PUSH1 0x0 PUSH2 0x100 EXP DUP2 SLOAD DUP2 PUSH1 0xFF MUL NOT AND SWAP1 DUP4 PUSH1 0xFF AND MUL OR SWAP1 SSTORE POP PUSH1 0x60 DUP3 ADD MLOAD DUP2 PUSH1 0x2 ADD PUSH1 0x1 PUSH2 0x100 EXP DUP2 SLOAD DUP2 PUSH1 0xFF MUL NOT AND SWAP1 DUP4 PUSH1 0xFF AND MUL OR SWAP1 SSTORE POP PUSH1 0x80 DUP3 ADD MLOAD DUP2 PUSH1 0x2 ADD PUSH1 0x2 PUSH2 0x100 EXP DUP2 SLOAD DUP2 PUSH2 0xFFFF MUL NOT AND SWAP1 DUP4 PUSH2 0xFFFF AND MUL OR SWAP1 SSTORE POP PUSH1 0xA0 DUP3 ADD MLOAD DUP2 PUSH1 0x2 ADD PUSH1 0x4 PUSH2 0x100 EXP DUP2 SLOAD DUP2 PUSH1 0x1 PUSH1 0x1 PUSH1 0x40 SHL SUB MUL NOT AND SWAP1 DUP4 PUSH1 0x1 PUSH1 0x1 PUSH1 0x40 SHL SUB AND MUL OR SWAP1 SSTORE POP PUSH1 0xC0 DUP3 ADD MLOAD DUP2 PUSH1 0x2 ADD PUSH1 0xC PUSH2 0x100 EXP DUP2 SLOAD DUP2 PUSH1 0x1 PUSH1 0x1 PUSH1 0x40 SHL SUB MUL NOT AND SWAP1 DUP4 PUSH1 0x1 PUSH1 0x1 PUSH1 0x40 SHL SUB AND MUL OR SWAP1 SSTORE POP PUSH1 0xE0 DUP3 ADD MLOAD DUP2 PUSH1 0x2 ADD PUSH1 0x14 PUSH2 0x100 EXP DUP2 SLOAD DUP2 PUSH1 0xFF MUL NOT AND SWAP1 DUP4 ISZERO ISZERO MUL OR SWAP1 SSTORE POP PUSH2 0x100 DUP3 ADD MLOAD DUP2 PUSH1 0x2 ADD PUSH1 0x15 PUSH2 0x100 EXP DUP2 SLOAD DUP2 PUSH1 0xFF MUL NOT AND SWAP1 DUP4 ISZERO ISZERO MUL OR SWAP1 SSTORE POP PUSH2 0x120 DUP3 ADD MLOAD DUP2 PUSH1 0x2 ADD PUSH1 0x16 PUSH2 0x100 EXP DUP2 SLOAD DUP2 PUSH1 0x1 PUSH1 0x1 PUSH1 0x40 SHL SUB MUL NOT AND SWAP1 DUP4 PUSH1 0x1 PUSH1 0x1 PUSH1 0x40 SHL SUB AND MUL OR SWAP1 SSTORE POP SWAP1 POP POP PUSH1 0x2 DUP7 SWAP1 DUP1 PUSH1 0x1 DUP2 SLOAD ADD DUP1 DUP3 SSTORE DUP1 SWAP2 POP POP PUSH1 0x1 SWAP1 SUB SWAP1 PUSH1 0x0 MSTORE PUSH1 0x20 PUSH1 0x0 KECCAK256 ADD PUSH1 0x0 SWAP1 SWAP2 SWAP1 SWAP2 SWAP1 SWAP2 POP SSTORE PUSH1 0x4 PUSH1 0x0 DUP7 DUP2 MSTORE PUSH1 0x20 ADD SWAP1 DUP2 MSTORE PUSH1 0x20 ADD PUSH1 0x0 KECCAK256 DUP7 SWAP1 DUP1 PUSH1 0x1 DUP2 SLOAD ADD DUP1 DUP3 SSTORE DUP1 SWAP2 POP POP PUSH1 0x1 SWAP1 SUB SWAP1 PUSH1 0x0 MSTORE PUSH1 0x20 PUSH1 0x0 KECCAK256 ADD PUSH1 0x0 SWAP1 SWAP2 SWAP1 SWAP2 SWAP1 SWAP2 POP SSTORE PUSH1 0x5 PUSH1 0x0 DUP2 SLOAD DUP1 SWAP3 SWAP2 SWAP1 PUSH2 0xFF0 SWAP1 PUSH2 0x20D5 JUMP JUMPDEST SWAP1 SWAP2 SSTORE POP POP PUSH1 0xFF DUP5 AND PUSH1 0x0 SWAP1 DUP2 MSTORE PUSH1 0x9 PUSH1 0x20 MSTORE PUSH1 0x40 DUP2 KECCAK256 DUP1 SLOAD SWAP2 PUSH2 0x1013 DUP4 PUSH2 0x20D5 JUMP JUMPDEST SWAP1 SWAP2 SSTORE POP POP PUSH1 0x40 DUP1 MLOAD PUSH1 0xFF DUP7 DUP2 AND DUP3 MSTORE DUP6 AND PUSH1 0x20 DUP3 ADD MSTORE PUSH2 0xFFFF DUP5 AND DUP2 DUP4 ADD MSTORE PUSH1 0x1 PUSH1 0x1 PUSH1 0x40 SHL SUB DUP4 AND PUSH1 0x60 DUP3 ADD MSTORE SWAP1 MLOAD DUP7 SWAP2 DUP9 SWAP2 PUSH32 0x53F4F3DC92D47ECD50D9C5832F23173DD82A67A464C300D2914D5766C1A121B7 SWAP2 DUP2 SWAP1 SUB PUSH1 0x80 ADD SWAP1 LOG3 POP POP POP POP POP POP JUMP JUMPDEST PUSH2 0x1082 PUSH2 0x1A31 JUMP JUMPDEST PUSH2 0x108C PUSH1 0x0 PUSH2 0x1A5E JUMP JUMPDEST JUMP JUMPDEST PUSH1 0x5 SLOAD PUSH1 0x6 SLOAD PUSH1 0x7 SLOAD PUSH1 0x8 SLOAD PUSH1 0x0 DUP4 PUSH2 0x10A8 JUMPI PUSH1 0x0 PUSH2 0x10BF JUMP JUMPDEST DUP4 PUSH2 0x10B5 DUP5 PUSH2 0x2710 PUSH2 0x20EE JUMP JUMPDEST PUSH2 0x10BF SWAP2 SWAP1 PUSH2 0x2105 JUMP JUMPDEST SWAP1 POP SWAP1 SWAP2 SWAP3 SWAP4 SWAP5 JUMP JUMPDEST PUSH2 0x10D0 PUSH2 0x1A31 JUMP JUMPDEST PUSH1 0x0 JUMPDEST DUP2 DUP2 LT ISZERO PUSH2 0x129E JUMPI PUSH1 0x0 PUSH1 0x1 PUSH1 0x0 DUP6 DUP6 DUP6 DUP2 DUP2 LT PUSH2 0x10F3 JUMPI PUSH2 0x10F3 PUSH2 0x2056 JUMP JUMPDEST SWAP1 POP PUSH1 0x20 MUL ADD CALLDATALOAD DUP2 MSTORE PUSH1 0x20 ADD SWAP1 DUP2 MSTORE PUSH1 0x20 ADD PUSH1 0x0 KECCAK256 SWAP1 POP DUP1 PUSH1 0x2 ADD PUSH1 0x4 SWAP1 SLOAD SWAP1 PUSH2 0x100 EXP SWAP1 DIV PUSH1 0x1 PUSH1 0x1 PUSH1 0x40 SHL SUB AND PUSH1 0x1 PUSH1 0x1 PUSH1 0x40 SHL SUB AND PUSH1 0x0 SUB PUSH2 0x1138 JUMPI POP PUSH2 0x128C JUMP JUMPDEST PUSH1 0x2 DUP2 ADD SLOAD PUSH1 0x1 PUSH1 0xA0 SHL SWAP1 DIV PUSH1 0xFF AND ISZERO PUSH2 0x1152 JUMPI POP PUSH2 0x128C JUMP JUMPDEST PUSH1 0x2 DUP2 ADD SLOAD PUSH1 0x1 PUSH1 0x60 SHL SWAP1 DIV PUSH1 0x1 PUSH1 0x1 PUSH1 0x40 SHL SUB AND TIMESTAMP LT ISZERO PUSH2 0x1174 JUMPI POP PUSH2 0x128C JUMP JUMPDEST PUSH1 0x2 DUP2 ADD DUP1 SLOAD PUSH1 0x1 PUSH1 0x1 PUSH1 0x40 SHL SUB TIMESTAMP AND PUSH1 0x1 PUSH1 0xB0 SHL MUL PUSH10 0xFFFFFFFFFFFFFFFFFFFF PUSH1 0xA0 SHL NOT SWAP1 SWAP2 AND OR PUSH1 0x1 PUSH1 0xA0 SHL OR SWAP1 SSTORE PUSH1 0x6 DUP1 SLOAD SWAP1 PUSH1 0x0 PUSH2 0x11B5 DUP4 PUSH2 0x20D5 JUMP JUMPDEST SWAP1 SWAP2 SSTORE POP POP PUSH1 0x2 DUP2 DUP2 ADD SLOAD PUSH1 0xFF AND GT PUSH2 0x1209 JUMPI PUSH1 0x7 DUP1 SLOAD SWAP1 PUSH1 0x0 PUSH2 0x11D8 DUP4 PUSH2 0x20D5 JUMP JUMPDEST SWAP1 SWAP2 SSTORE POP POP PUSH1 0x2 DUP2 ADD SLOAD PUSH1 0xFF AND PUSH1 0x0 SWAP1 DUP2 MSTORE PUSH1 0xA PUSH1 0x20 MSTORE PUSH1 0x40 DUP2 KECCAK256 DUP1 SLOAD SWAP2 PUSH2 0x11FF DUP4 PUSH2 0x20D5 JUMP JUMPDEST SWAP2 SWAP1 POP SSTORE POP PUSH2 0x121F JUMP JUMPDEST PUSH1 0x8 DUP1 SLOAD SWAP1 PUSH1 0x0 PUSH2 0x1219 DUP4 PUSH2 0x20D5 JUMP JUMPDEST SWAP2 SWAP1 POP SSTORE POP JUMPDEST DUP1 PUSH1 0x1 ADD SLOAD DUP5 DUP5 DUP5 DUP2 DUP2 LT PUSH2 0x1236 JUMPI PUSH2 0x1236 PUSH2 0x2056 JUMP JUMPDEST PUSH1 0x2 DUP6 DUP2 ADD SLOAD PUSH1 0x40 DUP1 MLOAD PUSH1 0x0 DUP2 MSTORE PUSH1 0xFF SWAP1 SWAP3 AND SWAP3 SWAP1 SWAP3 GT ISZERO PUSH1 0x20 DUP1 DUP4 ADD SWAP2 SWAP1 SWAP2 MSTORE DUP3 MLOAD SWAP4 MUL SWAP5 SWAP1 SWAP5 ADD CALLDATALOAD SWAP4 PUSH32 0xC9E875E3EC15ACA14CB4008858B8891079A81DE3FC5E43C72E738AB2C3923808 SWAP4 POP DUP3 SWAP1 SUB ADD SWAP1 LOG3 POP JUMPDEST DUP1 PUSH2 0x1296 DUP2 PUSH2 0x20D5 JUMP JUMPDEST SWAP2 POP POP PUSH2 0x10D3 JUMP JUMPDEST POP PUSH1 0x0 DUP1 PUSH1 0x6 SLOAD GT PUSH2 0x12B1 JUMPI PUSH1 0x0 PUSH2 0x12CD JUMP JUMPDEST PUSH1 0x6 SLOAD PUSH1 0x7 SLOAD PUSH2 0x12C3 SWAP1 PUSH2 0x2710 PUSH2 0x20EE JUMP JUMPDEST PUSH2 0x12CD SWAP2 SWAP1 PUSH2 0x2105 JUMP JUMPDEST PUSH1 0x6 SLOAD PUSH1 0x7 SLOAD PUSH1 0x40 DUP1 MLOAD SWAP3 DUP4 MSTORE PUSH1 0x20 DUP4 ADD SWAP2 SWAP1 SWAP2 MSTORE DUP2 ADD DUP3 SWAP1 MSTORE SWAP1 SWAP2 POP PUSH32 0xBABBDBFAA73D31B3AE3C0697FEC47DCD3D768A10C7AEFE454DE02F2D4771B4C2 SWAP1 PUSH1 0x60 ADD PUSH1 0x40 MLOAD DUP1 SWAP2 SUB SWAP1 LOG1 POP POP POP JUMP JUMPDEST PUSH1 0x0 DUP3 DUP2 MSTORE PUSH1 0x1 PUSH1 0x20 DUP2 DUP2 MSTORE PUSH1 0x40 DUP1 DUP5 KECCAK256 DUP2 MLOAD PUSH2 0x140 DUP2 ADD DUP4 MSTORE DUP2 SLOAD DUP2 MSTORE SWAP4 DUP2 ADD SLOAD SWAP3 DUP5 ADD SWAP3 SWAP1 SWAP3 MSTORE PUSH1 0x2 SWAP1 SWAP2 ADD SLOAD PUSH1 0xFF DUP1 DUP3 AND SWAP3 DUP5 ADD SWAP3 SWAP1 SWAP3 MSTORE PUSH2 0x100 DUP1 DUP3 DIV DUP4 AND PUSH1 0x60 DUP6 ADD MSTORE PUSH2 0xFFFF PUSH3 0x10000 DUP4 DIV AND PUSH1 0x80 DUP6 ADD MSTORE PUSH1 0x1 PUSH1 0x1 PUSH1 0x40 SHL SUB PUSH5 0x100000000 DUP4 DIV DUP2 AND PUSH1 0xA0 DUP7 ADD DUP2 SWAP1 MSTORE PUSH1 0x1 PUSH1 0x60 SHL DUP5 DIV DUP3 AND PUSH1 0xC0 DUP8 ADD MSTORE PUSH1 0x1 PUSH1 0xA0 SHL DUP5 DIV DUP6 AND ISZERO ISZERO PUSH1 0xE0 DUP8 ADD MSTORE PUSH1 0x1 PUSH1 0xA8 SHL DUP5 DIV SWAP1 SWAP5 AND ISZERO ISZERO SWAP2 DUP6 ADD SWAP2 SWAP1 SWAP2 MSTORE PUSH1 0x1 PUSH1 0xB0 SHL SWAP1 SWAP2 DIV AND PUSH2 0x120 DUP4 ADD MSTORE DUP1 ISZERO DUP1 ISZERO SWAP4 SWAP3 SWAP1 DUP5 SWAP1 PUSH2 0x13F4 JUMPI POP DUP5 PUSH1 0x1 PUSH1 0x1 PUSH1 0x40 SHL SUB AND DUP2 PUSH1 0xA0 ADD MLOAD PUSH1 0x1 PUSH1 0x1 PUSH1 0x40 SHL SUB AND LT JUMPDEST SWAP3 POP POP SWAP3 POP SWAP3 POP SWAP3 JUMP JUMPDEST PUSH1 0x3 DUP2 DUP2 SLOAD DUP2 LT PUSH2 0x140E JUMPI PUSH1 0x0 DUP1 REVERT JUMPDEST PUSH1 0x0 SWAP2 DUP3 MSTORE PUSH1 0x20 SWAP1 SWAP2 KECCAK256 PUSH1 0x4 SWAP1 SWAP2 MUL ADD DUP1 SLOAD PUSH1 0x1 DUP3 ADD SLOAD PUSH1 0x2 DUP4 ADD SLOAD PUSH1 0x3 DUP5 ADD DUP1 SLOAD SWAP4 SWAP6 POP SWAP2 SWAP4 PUSH1 0x1 PUSH1 0x1 PUSH1 0x40 SHL SUB DUP1 DUP4 AND SWAP5 PUSH1 0x1 PUSH1 0x40 SHL SWAP1 SWAP4 DIV AND SWAP3 SWAP1 SWAP2 PUSH2 0x1456 SWAP1 PUSH2 0x2127 JUMP JUMPDEST DUP1 PUSH1 0x1F ADD PUSH1 0x20 DUP1 SWAP2 DIV MUL PUSH1 0x20 ADD PUSH1 0x40 MLOAD SWAP1 DUP2 ADD PUSH1 0x40 MSTORE DUP1 SWAP3 SWAP2 SWAP1 DUP2 DUP2 MSTORE PUSH1 0x20 ADD DUP3 DUP1 SLOAD PUSH2 0x1482 SWAP1 PUSH2 0x2127 JUMP JUMPDEST DUP1 ISZERO PUSH2 0x14CF JUMPI DUP1 PUSH1 0x1F LT PUSH2 0x14A4 JUMPI PUSH2 0x100 DUP1 DUP4 SLOAD DIV MUL DUP4 MSTORE SWAP2 PUSH1 0x20 ADD SWAP2 PUSH2 0x14CF JUMP JUMPDEST DUP3 ADD SWAP2 SWAP1 PUSH1 0x0 MSTORE PUSH1 0x20 PUSH1 0x0 KECCAK256 SWAP1 JUMPDEST DUP2 SLOAD DUP2 MSTORE SWAP1 PUSH1 0x1 ADD SWAP1 PUSH1 0x20 ADD DUP1 DUP4 GT PUSH2 0x14B2 JUMPI DUP3 SWAP1 SUB PUSH1 0x1F AND DUP3 ADD SWAP2 JUMPDEST POP POP POP POP POP SWAP1 POP DUP6 JUMP JUMPDEST PUSH2 0x14E1 PUSH2 0x1A31 JUMP JUMPDEST PUSH1 0x0 DUP3 DUP2 MSTORE PUSH1 0x1 PUSH1 0x20 MSTORE PUSH1 0x40 DUP2 KECCAK256 PUSH1 0x2 DUP2 ADD SLOAD SWAP1 SWAP2 PUSH5 0x100000000 SWAP1 SWAP2 DIV PUSH1 0x1 PUSH1 0x1 PUSH1 0x40 SHL SUB AND SWAP1 SUB PUSH2 0x154D JUMPI PUSH1 0x40 MLOAD PUSH3 0x461BCD PUSH1 0xE5 SHL DUP2 MSTORE PUSH1 0x20 PUSH1 0x4 DUP3 ADD MSTORE PUSH1 0x14 PUSH1 0x24 DUP3 ADD MSTORE PUSH20 0x141C99591A58DD1A5BDB881B9BDD08199BDD5B99 PUSH1 0x62 SHL PUSH1 0x44 DUP3 ADD MSTORE PUSH1 0x64 ADD PUSH2 0x5DB JUMP JUMPDEST PUSH1 0x2 DUP2 ADD SLOAD PUSH1 0x1 PUSH1 0xA0 SHL SWAP1 DIV PUSH1 0xFF AND ISZERO PUSH2 0x159D JUMPI PUSH1 0x40 MLOAD PUSH3 0x461BCD PUSH1 0xE5 SHL DUP2 MSTORE PUSH1 0x20 PUSH1 0x4 DUP3 ADD MSTORE PUSH1 0x11 PUSH1 0x24 DUP3 ADD MSTORE PUSH17 0x105B1C9958591E481D985B1A59185D1959 PUSH1 0x7A SHL PUSH1 0x44 DUP3 ADD MSTORE PUSH1 0x64 ADD PUSH2 0x5DB JUMP JUMPDEST PUSH1 0x2 DUP2 ADD DUP1 SLOAD PUSH1 0x1 PUSH1 0xA0 SHL PUSH2 0xFFFF PUSH1 0xA0 SHL NOT SWAP1 SWAP2 AND PUSH1 0x1 PUSH1 0xA8 SHL DUP6 ISZERO ISZERO MUL OR OR PUSH8 0xFFFFFFFFFFFFFFFF PUSH1 0xB0 SHL NOT AND PUSH1 0x1 PUSH1 0xB0 SHL TIMESTAMP PUSH1 0x1 PUSH1 0x1 PUSH1 0x40 SHL SUB AND MUL OR SWAP1 SSTORE PUSH1 0x6 DUP1 SLOAD SWAP1 PUSH1 0x0 PUSH2 0x15EE DUP4 PUSH2 0x20D5 JUMP JUMPDEST SWAP1 SWAP2 SSTORE POP POP PUSH1 0x2 DUP2 ADD SLOAD PUSH1 0x0 SWAP1 PUSH1 0x3 PUSH1 0xFF SWAP1 SWAP2 AND LT PUSH2 0x160E JUMPI POP DUP2 PUSH2 0x1612 JUMP JUMPDEST POP DUP2 ISZERO JUMPDEST DUP1 ISZERO PUSH2 0x1659 JUMPI PUSH1 0x7 DUP1 SLOAD SWAP1 PUSH1 0x0 PUSH2 0x1628 DUP4 PUSH2 0x20D5 JUMP JUMPDEST SWAP1 SWAP2 SSTORE POP POP PUSH1 0x2 DUP3 ADD SLOAD PUSH1 0xFF AND PUSH1 0x0 SWAP1 DUP2 MSTORE PUSH1 0xA PUSH1 0x20 MSTORE PUSH1 0x40 DUP2 KECCAK256 DUP1 SLOAD SWAP2 PUSH2 0x164F DUP4 PUSH2 0x20D5 JUMP JUMPDEST SWAP2 SWAP1 POP SSTORE POP PUSH2 0x166F JUMP JUMPDEST PUSH1 0x8 DUP1 SLOAD SWAP1 PUSH1 0x0 PUSH2 0x1669 DUP4 PUSH2 0x20D5 JUMP JUMPDEST SWAP2 SWAP1 POP SSTORE POP JUMPDEST PUSH1 0x1 DUP3 ADD SLOAD PUSH1 0x40 DUP1 MLOAD DUP6 ISZERO ISZERO DUP2 MSTORE DUP4 ISZERO ISZERO PUSH1 0x20 DUP3 ADD MSTORE DUP7 SWAP2 PUSH32 0xC9E875E3EC15ACA14CB4008858B8891079A81DE3FC5E43C72E738AB2C3923808 SWAP2 ADD PUSH1 0x40 MLOAD DUP1 SWAP2 SUB SWAP1 LOG3 PUSH1 0x0 DUP1 PUSH1 0x6 SLOAD GT PUSH2 0x16C4 JUMPI PUSH1 0x0 PUSH2 0x16E0 JUMP JUMPDEST PUSH1 0x6 SLOAD PUSH1 0x7 SLOAD PUSH2 0x16D6 SWAP1 PUSH2 0x2710 PUSH2 0x20EE JUMP JUMPDEST PUSH2 0x16E0 SWAP2 SWAP1 PUSH2 0x2105 JUMP JUMPDEST PUSH1 0x6 SLOAD PUSH1 0x7 SLOAD PUSH1 0x40 DUP1 MLOAD SWAP3 DUP4 MSTORE PUSH1 0x20 DUP4 ADD SWAP2 SWAP1 SWAP2 MSTORE DUP2 ADD DUP3 SWAP1 MSTORE SWAP1 SWAP2 POP PUSH32 0xBABBDBFAA73D31B3AE3C0697FEC47DCD3D768A10C7AEFE454DE02F2D4771B4C2 SWAP1 PUSH1 0x60 ADD PUSH1 0x40 MLOAD DUP1 SWAP2 SUB SWAP1 LOG1 POP POP POP POP POP JUMP JUMPDEST PUSH2 0x1739 PUSH2 0x1A31 JUMP JUMPDEST PUSH1 0x3 PUSH1 0x40 MLOAD DUP1 PUSH1 0xA0 ADD PUSH1 0x40 MSTORE DUP1 DUP8 DUP2 MSTORE PUSH1 0x20 ADD DUP7 DUP2 MSTORE PUSH1 0x20 ADD DUP6 PUSH1 0x1 PUSH1 0x1 PUSH1 0x40 SHL SUB AND DUP2 MSTORE PUSH1 0x20 ADD TIMESTAMP PUSH1 0x1 PUSH1 0x1 PUSH1 0x40 SHL SUB AND DUP2 MSTORE PUSH1 0x20 ADD DUP5 DUP5 DUP1 DUP1 PUSH1 0x1F ADD PUSH1 0x20 DUP1 SWAP2 DIV MUL PUSH1 0x20 ADD PUSH1 0x40 MLOAD SWAP1 DUP2 ADD PUSH1 0x40 MSTORE DUP1 SWAP4 SWAP3 SWAP2 SWAP1 DUP2 DUP2 MSTORE PUSH1 0x20 ADD DUP4 DUP4 DUP1 DUP3 DUP5 CALLDATACOPY PUSH1 0x0 SWAP3 ADD DUP3 SWAP1 MSTORE POP SWAP4 SWAP1 SWAP5 MSTORE POP POP DUP4 SLOAD PUSH1 0x1 DUP2 DUP2 ADD DUP7 SSTORE SWAP5 DUP3 MSTORE PUSH1 0x20 SWAP2 DUP3 SWAP1 KECCAK256 DUP5 MLOAD PUSH1 0x4 SWAP1 SWAP3 MUL ADD SWAP1 DUP2 SSTORE SWAP1 DUP4 ADD MLOAD SWAP4 DUP2 ADD SWAP4 SWAP1 SWAP4 SSTORE POP PUSH1 0x40 DUP2 ADD MLOAD PUSH1 0x2 DUP4 ADD DUP1 SLOAD PUSH1 0x60 DUP5 ADD MLOAD PUSH1 0x1 PUSH1 0x1 PUSH1 0x40 SHL SUB SWAP1 DUP2 AND PUSH1 0x1 PUSH1 0x40 SHL MUL PUSH16 0xFFFFFFFFFFFFFFFFFFFFFFFFFFFFFFFF NOT SWAP1 SWAP3 AND SWAP4 AND SWAP3 SWAP1 SWAP3 OR SWAP2 SWAP1 SWAP2 OR SWAP1 SSTORE PUSH1 0x80 DUP2 ADD MLOAD SWAP1 SWAP2 SWAP1 PUSH1 0x3 DUP3 ADD SWAP1 PUSH2 0x182A SWAP1 DUP3 PUSH2 0x21C6 JUMP JUMPDEST POP POP PUSH1 0x3 SLOAD PUSH2 0x183C SWAP2 POP PUSH1 0x1 SWAP1 PUSH2 0x2285 JUMP JUMPDEST PUSH32 0x1E7ADCD7B9406CD2A4D481C9C990477524BE46984629B3E13D7D8451622429BB DUP7 DUP7 DUP6 DUP6 PUSH1 0x40 MLOAD PUSH2 0x1871 SWAP5 SWAP4 SWAP3 SWAP2 SWAP1 PUSH2 0x2298 JUMP JUMPDEST PUSH1 0x40 MLOAD DUP1 SWAP2 SUB SWAP1 LOG2 POP POP POP POP POP JUMP JUMPDEST PUSH1 0x40 DUP1 MLOAD PUSH1 0xA0 DUP2 ADD DUP3 MSTORE PUSH1 0x0 DUP1 DUP3 MSTORE PUSH1 0x20 DUP3 ADD DUP2 SWAP1 MSTORE SWAP2 DUP2 ADD DUP3 SWAP1 MSTORE PUSH1 0x60 DUP1 DUP3 ADD SWAP3 SWAP1 SWAP3 MSTORE PUSH1 0x80 DUP2 ADD SWAP2 SWAP1 SWAP2 MSTORE PUSH1 0x3 SLOAD DUP3 LT PUSH2 0x18EE JUMPI PUSH1 0x40 MLOAD PUSH3 0x461BCD PUSH1 0xE5 SHL DUP2 MSTORE PUSH1 0x20 PUSH1 0x4 DUP3 ADD MSTORE PUSH1 0xD PUSH1 0x24 DUP3 ADD MSTORE PUSH13 0x92DCECC2D8D2C840D2DCC8CAF PUSH1 0x9B SHL PUSH1 0x44 DUP3 ADD MSTORE PUSH1 0x64 ADD PUSH2 0x5DB JUMP JUMPDEST PUSH1 0x3 DUP3 DUP2 SLOAD DUP2 LT PUSH2 0x1901 JUMPI PUSH2 0x1901 PUSH2 0x2056 JUMP JUMPDEST PUSH1 0x0 SWAP2 DUP3 MSTORE PUSH1 0x20 SWAP2 DUP3 SWAP1 KECCAK256 PUSH1 0x40 DUP1 MLOAD PUSH1 0xA0 DUP2 ADD DUP3 MSTORE PUSH1 0x4 SWAP1 SWAP4 MUL SWAP1 SWAP2 ADD DUP1 SLOAD DUP4 MSTORE PUSH1 0x1 DUP2 ADD SLOAD SWAP4 DUP4 ADD SWAP4 SWAP1 SWAP4 MSTORE PUSH1 0x2 DUP4 ADD SLOAD PUSH1 0x1 PUSH1 0x1 PUSH1 0x40 SHL SUB DUP1 DUP3 AND SWAP3 DUP5 ADD SWAP3 SWAP1 SWAP3 MSTORE PUSH1 0x1 PUSH1 0x40 SHL SWAP1 DIV AND PUSH1 0x60 DUP3 ADD MSTORE PUSH1 0x3 DUP3 ADD DUP1 SLOAD SWAP2 SWAP3 SWAP2 PUSH1 0x80 DUP5 ADD SWAP2 SWAP1 PUSH2 0x196A SWAP1 PUSH2 0x2127 JUMP JUMPDEST DUP1 PUSH1 0x1F ADD PUSH1 0x20 DUP1 SWAP2 DIV MUL PUSH1 0x20 ADD PUSH1 0x40 MLOAD SWAP1 DUP2 ADD PUSH1 0x40 MSTORE DUP1 SWAP3 SWAP2 SWAP1 DUP2 DUP2 MSTORE PUSH1 0x20 ADD DUP3 DUP1 SLOAD PUSH2 0x1996 SWAP1 PUSH2 0x2127 JUMP JUMPDEST DUP1 ISZERO PUSH2 0x19E3 JUMPI DUP1 PUSH1 0x1F LT PUSH2 0x19B8 JUMPI PUSH2 0x100 DUP1 DUP4 SLOAD DIV MUL DUP4 MSTORE SWAP2 PUSH1 0x20 ADD SWAP2 PUSH2 0x19E3 JUMP JUMPDEST DUP3 ADD SWAP2 SWAP1 PUSH1 0x0 MSTORE PUSH1 0x20 PUSH1 0x0 KECCAK256 SWAP1 JUMPDEST DUP2 SLOAD DUP2 MSTORE SWAP1 PUSH1 0x1 ADD SWAP1 PUSH1 0x20 ADD DUP1 DUP4 GT PUSH2 0x19C6 JUMPI DUP3 SWAP1 SUB PUSH1 0x1F AND DUP3 ADD SWAP2 JUMPDEST POP POP POP POP POP DUP2 MSTORE POP POP SWAP1 POP SWAP2 SWAP1 POP JUMP JUMPDEST PUSH2 0x19FB PUSH2 0x1A31 JUMP JUMPDEST PUSH1 0x1 PUSH1 0x1 PUSH1 0xA0 SHL SUB DUP2 AND PUSH2 0x1A25 JUMPI PUSH1 0x40 MLOAD PUSH4 0x1E4FBDF7 PUSH1 0xE0 SHL DUP2 MSTORE PUSH1 0x0 PUSH1 0x4 DUP3 ADD MSTORE PUSH1 0x24 ADD PUSH2 0x5DB JUMP JUMPDEST PUSH2 0x1A2E DUP2 PUSH2 0x1A5E JUMP JUMPDEST POP JUMP JUMPDEST PUSH1 0x0 SLOAD PUSH1 0x1 PUSH1 0x1 PUSH1 0xA0 SHL SUB AND CALLER EQ PUSH2 0x108C JUMPI PUSH1 0x40 MLOAD PUSH4 0x118CDAA7 PUSH1 0xE0 SHL DUP2 MSTORE CALLER PUSH1 0x4 DUP3 ADD MSTORE PUSH1 0x24 ADD PUSH2 0x5DB JUMP JUMPDEST PUSH1 0x0 DUP1 SLOAD PUSH1 0x1 PUSH1 0x1 PUSH1 0xA0 SHL SUB DUP4 DUP2 AND PUSH1 0x1 PUSH1 0x1 PUSH1 0xA0 SHL SUB NOT DUP4 AND DUP2 OR DUP5 SSTORE PUSH1 0x40 MLOAD SWAP2 SWAP1 SWAP3 AND SWAP3 DUP4 SWAP2 PUSH32 0x8BE0079C531659141344CD1FD0A4F28419497F9722A3DAAFE3B4186F6B6457E0 SWAP2 SWAP1 LOG3 POP POP JUMP JUMPDEST DUP1 CALLDATALOAD PUSH1 0xFF DUP2 AND DUP2 EQ PUSH2 0x1ABF JUMPI PUSH1 0x0 DUP1 REVERT JUMPDEST SWAP2 SWAP1 POP JUMP JUMPDEST PUSH1 0x0 PUSH1 0x20 DUP3 DUP5 SUB SLT ISZERO PUSH2 0x1AD6 JUMPI PUSH1 0x0 DUP1 REVERT JUMPDEST PUSH2 0x1ADF DUP3 PUSH2 0x1AAE JUMP JUMPDEST SWAP4 SWAP3 POP POP POP JUMP JUMPDEST PUSH1 0x0 DUP1 DUP4 PUSH1 0x1F DUP5 ADD SLT PUSH2 0x1AF8 JUMPI PUSH1 0x0 DUP1 REVERT JUMPDEST POP DUP2 CALLDATALOAD PUSH1 0x1 PUSH1 0x1 PUSH1 0x40 SHL SUB DUP2 GT ISZERO PUSH2 0x1B0F JUMPI PUSH1 0x0 DUP1 REVERT JUMPDEST PUSH1 0x20 DUP4 ADD SWAP2 POP DUP4 PUSH1 0x20 DUP3 PUSH1 0x5 SHL DUP6 ADD ADD GT ISZERO PUSH2 0x1B2A JUMPI PUSH1 0x0 DUP1 REVERT JUMPDEST SWAP3 POP SWAP3 SWAP1 POP JUMP JUMPDEST PUSH1 0x0 DUP1 PUSH1 0x0 DUP1 PUSH1 0x0 DUP1 PUSH1 0x0 DUP1 PUSH1 0x0 DUP1 PUSH1 0xA0 DUP12 DUP14 SUB SLT ISZERO PUSH2 0x1B50 JUMPI PUSH1 0x0 DUP1 REVERT JUMPDEST DUP11 CALLDATALOAD PUSH1 0x1 PUSH1 0x1 PUSH1 0x40 SHL SUB DUP1 DUP3 GT ISZERO PUSH2 0x1B67 JUMPI PUSH1 0x0 DUP1 REVERT JUMPDEST PUSH2 0x1B73 DUP15 DUP4 DUP16 ADD PUSH2 0x1AE6 JUMP JUMPDEST SWAP1 SWAP13 POP SWAP11 POP PUSH1 0x20 DUP14 ADD CALLDATALOAD SWAP2 POP DUP1 DUP3 GT ISZERO PUSH2 0x1B8C JUMPI PUSH1 0x0 DUP1 REVERT JUMPDEST PUSH2 0x1B98 DUP15 DUP4 DUP16 ADD PUSH2 0x1AE6 JUMP JUMPDEST SWAP1 SWAP11 POP SWAP9 POP PUSH1 0x40 DUP14 ADD CALLDATALOAD SWAP2 POP DUP1 DUP3 GT ISZERO PUSH2 0x1BB1 JUMPI PUSH1 0x0 DUP1 REVERT JUMPDEST PUSH2 0x1BBD DUP15 DUP4 DUP16 ADD PUSH2 0x1AE6 JUMP JUMPDEST SWAP1 SWAP9 POP SWAP7 POP PUSH1 0x60 DUP14 ADD CALLDATALOAD SWAP2 POP DUP1 DUP3 GT ISZERO PUSH2 0x1BD6 JUMPI PUSH1 0x0 DUP1 REVERT JUMPDEST PUSH2 0x1BE2 DUP15 DUP4 DUP16 ADD PUSH2 0x1AE6 JUMP JUMPDEST SWAP1 SWAP7 POP SWAP5 POP PUSH1 0x80 DUP14 ADD CALLDATALOAD SWAP2 POP DUP1 DUP3 GT ISZERO PUSH2 0x1BFB JUMPI PUSH1 0x0 DUP1 REVERT JUMPDEST POP PUSH2 0x1C08 DUP14 DUP3 DUP15 ADD PUSH2 0x1AE6 JUMP JUMPDEST SWAP2 POP DUP1 SWAP4 POP POP DUP1 SWAP2 POP POP SWAP3 SWAP6 SWAP9 SWAP12 SWAP2 SWAP5 SWAP8 SWAP11 POP SWAP3 SWAP6 SWAP9 POP JUMP JUMPDEST PUSH1 0x0 PUSH1 0x20 DUP3 DUP5 SUB SLT ISZERO PUSH2 0x1C33 JUMPI PUSH1 0x0 DUP1 REVERT JUMPDEST POP CALLDATALOAD SWAP2 SWAP1 POP JUMP JUMPDEST PUSH1 0x0 DUP1 PUSH1 0x40 DUP4 DUP6 SUB SLT ISZERO PUSH2 0x1C4D JUMPI PUSH1 0x0 DUP1 REVERT JUMPDEST POP POP DUP1 CALLDATALOAD SWAP3 PUSH1 0x20 SWAP1 SWAP2 ADD CALLDATALOAD SWAP2 POP JUMP JUMPDEST PUSH1 0x20 DUP1 DUP3 MSTORE DUP3 MLOAD DUP3 DUP3 ADD DUP2 SWAP1 MSTORE PUSH1 0x0 SWAP2 SWAP1 DUP5 DUP3 ADD SWAP1 PUSH1 0x40 DUP6 ADD SWAP1 DUP5 JUMPDEST DUP2 DUP2 LT ISZERO PUSH2 0x1C94 JUMPI DUP4 MLOAD DUP4 MSTORE SWAP3 DUP5 ADD SWAP3 SWAP2 DUP5 ADD SWAP2 PUSH1 0x1 ADD PUSH2 0x1C78 JUMP JUMPDEST POP SWAP1 SWAP7 SWAP6 POP POP POP POP POP POP JUMP JUMPDEST DUP1 CALLDATALOAD PUSH2 0xFFFF DUP2 AND DUP2 EQ PUSH2 0x1ABF JUMPI PUSH1 0x0 DUP1 REVERT JUMPDEST PUSH1 0x0 DUP1 PUSH1 0x0 DUP1 PUSH1 0x0 PUSH1 0xA0 DUP7 DUP9 SUB SLT ISZERO PUSH2 0x1CCA JUMPI PUSH1 0x0 DUP1 REVERT JUMPDEST DUP6 CALLDATALOAD SWAP5 POP PUSH1 0x20 DUP7 ADD CALLDATALOAD SWAP4 POP PUSH2 0x1CE1 PUSH1 0x40 DUP8 ADD PUSH2 0x1AAE JUMP JUMPDEST SWAP3 POP PUSH2 0x1CEF PUSH1 0x60 DUP8 ADD PUSH2 0x1AAE JUMP JUMPDEST SWAP2 POP PUSH2 0x1CFD PUSH1 0x80 DUP8 ADD PUSH2 0x1CA0 JUMP JUMPDEST SWAP1 POP SWAP3 SWAP6 POP SWAP3 SWAP6 SWAP1 SWAP4 POP JUMP JUMPDEST PUSH1 0x0 DUP1 PUSH1 0x20 DUP4 DUP6 SUB SLT ISZERO PUSH2 0x1D1C JUMPI PUSH1 0x0 DUP1 REVERT JUMPDEST DUP3 CALLDATALOAD PUSH1 0x1 PUSH1 0x1 PUSH1 0x40 SHL SUB DUP2 GT ISZERO PUSH2 0x1D32 JUMPI PUSH1 0x0 DUP1 REVERT JUMPDEST PUSH2 0x1D3E DUP6 DUP3 DUP7 ADD PUSH2 0x1AE6 JUMP JUMPDEST SWAP1 SWAP7 SWAP1 SWAP6 POP SWAP4 POP POP POP POP JUMP JUMPDEST DUP1 CALLDATALOAD PUSH1 0x1 PUSH1 0x1 PUSH1 0x40 SHL SUB DUP2 AND DUP2 EQ PUSH2 0x1ABF JUMPI PUSH1 0x0 DUP1 REVERT JUMPDEST PUSH1 0x0 DUP1 PUSH1 0x40 DUP4 DUP6 SUB SLT ISZERO PUSH2 0x1D74 JUMPI PUSH1 0x0 DUP1 REVERT JUMPDEST DUP3 CALLDATALOAD SWAP2 POP PUSH2 0x1D84 PUSH1 0x20 DUP5 ADD PUSH2 0x1D4A JUMP JUMPDEST SWAP1 POP SWAP3 POP SWAP3 SWAP1 POP JUMP JUMPDEST PUSH1 0x0 DUP2 MLOAD DUP1 DUP5 MSTORE PUSH1 0x0 JUMPDEST DUP2 DUP2 LT ISZERO PUSH2 0x1DB3 JUMPI PUSH1 0x20 DUP2 DUP6 ADD DUP2 ADD MLOAD DUP7 DUP4 ADD DUP3 ADD MSTORE ADD PUSH2 0x1D97 JUMP JUMPDEST POP PUSH1 0x0 PUSH1 0x20 DUP3 DUP7 ADD ADD MSTORE PUSH1 0x20 PUSH1 0x1F NOT PUSH1 0x1F DUP4 ADD AND DUP6 ADD ADD SWAP2 POP POP SWAP3 SWAP2 POP POP JUMP JUMPDEST DUP6 DUP2 MSTORE DUP5 PUSH1 0x20 DUP3 ADD MSTORE PUSH1 0x0 PUSH1 0x1 PUSH1 0x1 PUSH1 0x40 SHL SUB DUP1 DUP7 AND PUSH1 0x40 DUP5 ADD MSTORE DUP1 DUP6 AND PUSH1 0x60 DUP5 ADD MSTORE POP PUSH1 0xA0 PUSH1 0x80 DUP4 ADD MSTORE PUSH2 0x1E0B PUSH1 0xA0 DUP4 ADD DUP5 PUSH2 0x1D8D JUMP JUMPDEST SWAP8 SWAP7 POP POP POP POP POP POP POP JUMP JUMPDEST PUSH1 0x0 DUP1 PUSH1 0x40 DUP4 DUP6 SUB SLT ISZERO PUSH2 0x1E29 JUMPI PUSH1 0x0 DUP1 REVERT JUMPDEST DUP3 CALLDATALOAD SWAP2 POP PUSH1 0x20 DUP4 ADD CALLDATALOAD DUP1 ISZERO ISZERO DUP2 EQ PUSH2 0x1E40 JUMPI PUSH1 0x0 DUP1 REVERT JUMPDEST DUP1 SWAP2 POP POP SWAP3 POP SWAP3 SWAP1 POP JUMP JUMPDEST PUSH1 0x0 DUP1 PUSH1 0x0 DUP1 PUSH1 0x0 PUSH1 0x80 DUP7 DUP9 SUB SLT ISZERO PUSH2 0x1E63 JUMPI PUSH1 0x0 DUP1 REVERT JUMPDEST DUP6 CALLDATALOAD SWAP5 POP PUSH1 0x20 DUP7 ADD CALLDATALOAD SWAP4 POP PUSH2 0x1E7A PUSH1 0x40 DUP8 ADD PUSH2 0x1D4A JUMP JUMPDEST SWAP3 POP PUSH1 0x60 DUP7 ADD CALLDATALOAD PUSH1 0x1 PUSH1 0x1 PUSH1 0x40 SHL SUB DUP1 DUP3 GT ISZERO PUSH2 0x1E96 JUMPI PUSH1 0x0 DUP1 REVERT JUMPDEST DUP2 DUP9 ADD SWAP2 POP DUP9 PUSH1 0x1F DUP4 ADD SLT PUSH2 0x1EAA JUMPI PUSH1 0x0 DUP1 REVERT JUMPDEST DUP2 CALLDATALOAD DUP2 DUP2 GT ISZERO PUSH2 0x1EB9 JUMPI PUSH1 0x0 DUP1 REVERT JUMPDEST DUP10 PUSH1 0x20 DUP3 DUP6 ADD ADD GT ISZERO PUSH2 0x1ECB JUMPI PUSH1 0x0 DUP1 REVERT JUMPDEST SWAP7 SWAP10 SWAP6 SWAP9 POP SWAP4 SWAP7 POP PUSH1 0x20 ADD SWAP5 SWAP4 SWAP3 POP POP POP JUMP JUMPDEST PUSH1 0x0 PUSH2 0x140 DUP3 ADD SWAP1 POP DUP3 MLOAD DUP3 MSTORE PUSH1 0x20 DUP4 ADD MLOAD PUSH1 0x20 DUP4 ADD MSTORE PUSH1 0x40 DUP4 ADD MLOAD PUSH2 0x1F09 PUSH1 0x40 DUP5 ADD DUP3 PUSH1 0xFF AND SWAP1 MSTORE JUMP JUMPDEST POP PUSH1 0x60 DUP4 ADD MLOAD PUSH2 0x1F1E PUSH1 0x60 DUP5 ADD DUP3 PUSH1 0xFF AND SWAP1 MSTORE JUMP JUMPDEST POP PUSH1 0x80 DUP4 ADD MLOAD PUSH2 0x1F34 PUSH1 0x80 DUP5 ADD DUP3 PUSH2 0xFFFF AND SWAP1 MSTORE JUMP JUMPDEST POP PUSH1 0xA0 DUP4 ADD MLOAD PUSH2 0x1F4F PUSH1 0xA0 DUP5 ADD DUP3 PUSH1 0x1 PUSH1 0x1 PUSH1 0x40 SHL SUB AND SWAP1 MSTORE JUMP JUMPDEST POP PUSH1 0xC0 DUP4 ADD MLOAD PUSH2 0x1F6A PUSH1 0xC0 DUP5 ADD DUP3 PUSH1 0x1 PUSH1 0x1 PUSH1 0x40 SHL SUB AND SWAP1 MSTORE JUMP JUMPDEST POP PUSH1 0xE0 DUP4 ADD MLOAD PUSH2 0x1F7E PUSH1 0xE0 DUP5 ADD DUP3 ISZERO ISZERO SWAP1 MSTORE JUMP JUMPDEST POP PUSH2 0x100 DUP4 DUP2 ADD MLOAD ISZERO ISZERO SWAP1 DUP4 ADD MSTORE PUSH2 0x120 DUP1 DUP5 ADD MLOAD PUSH1 0x1 PUSH1 0x1 PUSH1 0x40 SHL SUB DUP2 AND DUP3 DUP6 ADD MSTORE JUMPDEST POP POP SWAP3 SWAP2 POP POP JUMP JUMPDEST PUSH1 0x20 DUP2 MSTORE DUP2 MLOAD PUSH1 0x20 DUP3 ADD MSTORE PUSH1 0x20 DUP3 ADD MLOAD PUSH1 0x40 DUP3 ADD MSTORE PUSH1 0x0 PUSH1 0x40 DUP4 ADD MLOAD PUSH1 0x1 PUSH1 0x1 PUSH1 0x40 SHL SUB DUP1 DUP3 AND PUSH1 0x60 DUP6 ADD MSTORE DUP1 PUSH1 0x60 DUP7 ADD MLOAD AND PUSH1 0x80 DUP6 ADD MSTORE POP POP PUSH1 0x80 DUP4 ADD MLOAD PUSH1 0xA0 DUP1 DUP5 ADD MSTORE PUSH2 0x1FFC PUSH1 0xC0 DUP5 ADD DUP3 PUSH2 0x1D8D JUMP JUMPDEST SWAP5 SWAP4 POP POP POP POP JUMP JUMPDEST PUSH1 0x0 PUSH1 0x20 DUP3 DUP5 SUB SLT ISZERO PUSH2 0x2016 JUMPI PUSH1 0x0 DUP1 REVERT JUMPDEST DUP2 CALLDATALOAD PUSH1 0x1 PUSH1 0x1 PUSH1 0xA0 SHL SUB DUP2 AND DUP2 EQ PUSH2 0x1ADF JUMPI PUSH1 0x0 DUP1 REVERT JUMPDEST PUSH1 0x20 DUP1 DUP3 MSTORE PUSH1 0xF SWAP1 DUP3 ADD MSTORE PUSH15 0x98CADCCEE8D040DAD2E6DAC2E8C6D PUSH1 0x8B SHL PUSH1 0x40 DUP3 ADD MSTORE PUSH1 0x60 ADD SWAP1 JUMP JUMPDEST PUSH4 0x4E487B71 PUSH1 0xE0 SHL PUSH1 0x0 MSTORE PUSH1 0x32 PUSH1 0x4 MSTORE PUSH1 0x24 PUSH1 0x0 REVERT JUMPDEST PUSH1 0x0 PUSH1 0x20 DUP3 DUP5 SUB SLT ISZERO PUSH2 0x207E JUMPI PUSH1 0x0 DUP1 REVERT JUMPDEST PUSH2 0x1ADF DUP3 PUSH2 0x1CA0 JUMP JUMPDEST PUSH4 0x4E487B71 PUSH1 0xE0 SHL PUSH1 0x0 MSTORE PUSH1 0x11 PUSH1 0x4 MSTORE PUSH1 0x24 PUSH1 0x0 REVERT JUMPDEST PUSH3 0xFFFFFF DUP2 DUP2 AND DUP4 DUP3 AND MUL DUP1 DUP3 AND SWAP2 SWAP1 DUP3 DUP2 EQ PUSH2 0x1FA2 JUMPI PUSH2 0x1FA2 PUSH2 0x2087 JUMP JUMPDEST DUP1 DUP3 ADD DUP1 DUP3 GT ISZERO PUSH2 0x20CF JUMPI PUSH2 0x20CF PUSH2 0x2087 JUMP JUMPDEST SWAP3 SWAP2 POP POP JUMP JUMPDEST PUSH1 0x0 PUSH1 0x1 DUP3 ADD PUSH2 0x20E7 JUMPI PUSH2 0x20E7 PUSH2 0x2087 JUMP JUMPDEST POP PUSH1 0x1 ADD SWAP1 JUMP JUMPDEST DUP1 DUP3 MUL DUP2 ISZERO DUP3 DUP3 DIV DUP5 EQ OR PUSH2 0x20CF JUMPI PUSH2 0x20CF PUSH2 0x2087 JUMP JUMPDEST PUSH1 0x0 DUP3 PUSH2 0x2122 JUMPI PUSH4 0x4E487B71 PUSH1 0xE0 SHL PUSH1 0x0 MSTORE PUSH1 0x12 PUSH1 0x4 MSTORE PUSH1 0x24 PUSH1 0x0 REVERT JUMPDEST POP DIV SWAP1 JUMP JUMPDEST PUSH1 0x1 DUP2 DUP2 SHR SWAP1 DUP3 AND DUP1 PUSH2 0x213B JUMPI PUSH1 0x7F DUP3 AND SWAP2 POP JUMPDEST PUSH1 0x20 DUP3 LT DUP2 SUB PUSH2 0x215B JUMPI PUSH4 0x4E487B71 PUSH1 0xE0 SHL PUSH1 0x0 MSTORE PUSH1 0x22 PUSH1 0x4 MSTORE PUSH1 0x24 PUSH1 0x0 REVERT JUMPDEST POP SWAP2 SWAP1 POP JUMP JUMPDEST PUSH4 0x4E487B71 PUSH1 0xE0 SHL PUSH1 0x0 MSTORE PUSH1 0x41 PUSH1 0x4 MSTORE PUSH1 0x24 PUSH1 0x0 REVERT JUMPDEST PUSH1 0x1F DUP3 GT ISZERO PUSH2 0x21C1 JUMPI PUSH1 0x0 DUP2 DUP2 MSTORE PUSH1 0x20 DUP2 KECCAK256 PUSH1 0x1F DUP6 ADD PUSH1 0x5 SHR DUP2 ADD PUSH1 0x20 DUP7 LT ISZERO PUSH2 0x219E JUMPI POP DUP1 JUMPDEST PUSH1 0x1F DUP6 ADD PUSH1 0x5 SHR DUP3 ADD SWAP2 POP JUMPDEST DUP2 DUP2 LT ISZERO PUSH2 0x21BD JUMPI DUP3 DUP2 SSTORE PUSH1 0x1 ADD PUSH2 0x21AA JUMP JUMPDEST POP POP POP JUMPDEST POP POP POP JUMP JUMPDEST DUP2 MLOAD PUSH1 0x1 PUSH1 0x1 PUSH1 0x40 SHL SUB DUP2 GT ISZERO PUSH2 0x21DF JUMPI PUSH2 0x21DF PUSH2 0x2161 JUMP JUMPDEST PUSH2 0x21F3 DUP2 PUSH2 0x21ED DUP5 SLOAD PUSH2 0x2127 JUMP JUMPDEST DUP5 PUSH2 0x2177 JUMP JUMPDEST PUSH1 0x20 DUP1 PUSH1 0x1F DUP4 GT PUSH1 0x1 DUP2 EQ PUSH2 0x2228 JUMPI PUSH1 0x0 DUP5 ISZERO PUSH2 0x2210 JUMPI POP DUP6 DUP4 ADD MLOAD JUMPDEST PUSH1 0x0 NOT PUSH1 0x3 DUP7 SWAP1 SHL SHR NOT AND PUSH1 0x1 DUP6 SWAP1 SHL OR DUP6 SSTORE PUSH2 0x21BD JUMP JUMPDEST PUSH1 0x0 DUP6 DUP2 MSTORE PUSH1 0x20 DUP2 KECCAK256 PUSH1 0x1F NOT DUP7 AND SWAP2 JUMPDEST DUP3 DUP2 LT ISZERO PUSH2 0x2257 JUMPI DUP9 DUP7 ADD MLOAD DUP3 SSTORE SWAP5 DUP5 ADD SWAP5 PUSH1 0x1 SWAP1 SWAP2 ADD SWAP1 DUP5 ADD PUSH2 0x2238 JUMP JUMPDEST POP DUP6 DUP3 LT ISZERO PUSH2 0x2275 JUMPI DUP8 DUP6 ADD MLOAD PUSH1 0x0 NOT PUSH1 0x3 DUP9 SWAP1 SHL PUSH1 0xF8 AND SHR NOT AND DUP2 SSTORE JUMPDEST POP POP POP POP POP PUSH1 0x1 SWAP1 DUP2 SHL ADD SWAP1 SSTORE POP JUMP JUMPDEST DUP2 DUP2 SUB DUP2 DUP2 GT ISZERO PUSH2 0x20CF JUMPI PUSH2 0x20CF PUSH2 0x2087 JUMP JUMPDEST DUP5 DUP2 MSTORE DUP4 PUSH1 0x20 DUP3 ADD MSTORE PUSH1 0x60 PUSH1 0x40 DUP3 ADD MSTORE DUP2 PUSH1 0x60 DUP3 ADD MSTORE DUP2 DUP4 PUSH1 0x80 DUP4 ADD CALLDATACOPY PUSH1 0x0 DUP2 DUP4 ADD PUSH1 0x80 SWAP1 DUP2 ADD SWAP2 SWAP1 SWAP2 MSTORE PUSH1 0x1F SWAP1 SWAP3 ADD PUSH1 0x1F NOT AND ADD ADD SWAP4 SWAP3 POP POP POP JUMP INVALID LOG2 PUSH5 0x6970667358 0x22 SLT KECCAK256 0xC1 PUSH12 0x65823808C9253E021506DFED MSTORE8 0xCD CALLDATACOPY STATICCALL 0x4A 0xBC JUMPDEST KECCAK256 0xDB GAS 0x4E 0xAD 0xB4 0xEB 0xB4 0xD RETURNDATASIZE 0xDB PUSH5 0x736F6C6343 STOP ADDMOD EQ STOP CALLER "},"methodIdentifiers":{"commitPrediction(bytes32,uint256,uint8,uint8,uint16)":"5a75814d","commitPredictionsBatch(bytes32[],uint256[],uint8[],uint8[],uint16[])":"0e3d209f","commitWeeklyBatch(bytes32,uint256,uint64,string)":"cf97cfa2","correctByRisk(uint8)":"02320458","correctPredictions()":"eca52661","getAccuracyByRisk(uint8)":"1db7125d","getAccuracyStats()":"75469891","getPrediction(bytes32)":"dc6423ab","getProductPredictions(uint256)":"4a4512d4","getWeeklyCommitment(uint256)":"e7248d42","getWeeklyCommitmentsCount()":"e4454712","incorrectPredictions()":"0940f843","owner()":"8da5cb5b","predictionHashes(uint256)":"3891566b","predictions(bytes32)":"5d9eaeaf","predictionsByRisk(uint8)":"53fed555","productPredictions(uint256,uint256)":"3fac2aad","renounceOwnership()":"715018a6","totalPredictions()":"779bd562","transferOwnership(address)":"f2fde38b","validateExpiredPredictions(bytes32[])":"88a1b8ba","validatePrediction(bytes32,bool)":"c83918bb","validatedPredictions()":"5830d58d","verifyPredictionAnterior(bytes32,uint64)":"909375b2","weeklyCommitments(uint256)":"a5003e97"}}}}}