{"contracts/SAFEToken.sol":{"SAFEToken":{"abi":[{"inputs":[{"internalType":"address","name":"_communityRewardsWallet","type":"address"},{"internalType":"address","name":"_treasuryWallet","type":"address"},{"internalType":"address","name":"_teamWallet","type":"address"},{"internalType":"address","name":"_liquidityWallet","type":"address"}],"stateMutability":"nonpayable","type":"constructor"},{"inputs":[{"internalType":"address","name":"spender","type":"address"},{"internalType":"uint256","name":"allowance","type":"uint256"},{"internalType":"uint256","name":"needed","type":"uint256"}],"name":"ERC20InsufficientAllowance","type":"error"},{"inputs":[{"internalType":"address","name":"sender","type":"address"},{"internalType":"uint256","name":"balance","type":"uint256"},{"internalType":"uint256","name":"needed","type":"uint256"}],"name":"ERC20InsufficientBalance","type":"error"},{"inputs":[{"internalType":"address","name":"approver","type":"address"}],"name":"ERC20InvalidApprover","type":"error"},{"inputs":[{"internalType":"address","name":"receiver","type":"address"}],"name":"ERC20InvalidReceiver","type":"error"},{"inputs":[{"internalType":"address","name":"sender","type":"address"}],"name":"ERC20InvalidSender","type":"error"},{"inputs":[{"internalType":"address","name":"spender","type":"address"}],"name":"ERC20InvalidSpender","type":"error"},{"inputs":[{"internalType":"address","name":"owner","type":"address"}],"name":"OwnableInvalidOwner","type":"error"},{"inputs":[{"internalType":"address","name":"account","type":"address"}],"name":"OwnableUnauthorizedAccount","type":"error"},{"anonymous":false,"inputs":[{"indexed":true,"internalType":"address","name":"owner","type":"address"},{"indexed":true,"internalType":"address","name":"spender","type":"address"},{"indexed":false,"internalType":"uint256","name":"value","type":"uint256"}],"name":"Approval","type":"event"},{"anonymous":false,"inputs":[{"indexed":true,"internalType":"address","name":"to","type":"address"},{"indexed":false,"internalType":"uint256","name":"amount","type":"uint256"}],"name":"CommunityRewardsMinted","type":"event"},{"anonymous":false,"inputs":[{"indexed":true,"internalType":"address","name":"previousOwner","type":"address"},{"indexed":true,"internalType":"address","name":"newOwner","type":"address"}],"name":"OwnershipTransferred","type":"event"},{"anonymous":false,"inputs":[{"indexed":true,"internalType":"address","name":"to","type":"address"},{"indexed":false,"internalType":"uint256","name":"amount","type":"uint256"}],"name":"RecycledRewardsMinted","type":"event"},{"anonymous":false,"inputs":[{"indexed":true,"internalType":"address","name":"from","type":"address"},{"indexed":false,"internalType":"uint256","name":"amount","type":"uint256"}],"name":"TokensRecycled","type":"event"},{"anonymous":false,"inputs":[{"indexed":true,"internalType":"address","name":"from","type":"address"},{"indexed":true,"internalType":"address","name":"to","type":"address"},{"indexed":false,"internalType":"uint256","name":"value","type":"uint256"}],"name":"Transfer","type":"event"},{"anonymous":false,"inputs":[{"indexed":false,"internalType":"address","name":"communityRewards","type":"address"},{"indexed":false,"internalType":"address","name":"treasury","type":"address"},{"indexed":false,"internalType":"address","name":"team","type":"address"},{"indexed":false,"internalType":"address","name":"liquidity","type":"address"}],"name":"WalletsUpdated","type":"event"},{"inputs":[],"name":"COMMUNITY_ALLOCATION","outputs":[{"internalType":"uint256","name":"","type":"uint256"}],"stateMutability":"view","type":"function"},{"inputs":[],"name":"LIQUIDITY_ALLOCATION","outputs":[{"internalType":"uint256","name":"","type":"uint256"}],"stateMutability":"view","type":"function"},{"inputs":[],"name":"MAX_SUPPLY","outputs":[{"internalType":"uint256","name":"","type":"uint256"}],"stateMutability":"view","type":"function"},{"inputs":[],"name":"TEAM_ALLOCATION","outputs":[{"internalType":"uint256","name":"","type":"uint256"}],"stateMutability":"view","type":"function"},{"inputs":[],"name":"TREASURY_ALLOCATION","outputs":[{"internalType":"uint256","name":"","type":"uint256"}],"stateMutability":"view","type":"function"},{"inputs":[{"internalType":"address","name":"owner","type":"address"},{"internalType":"address","name":"spender","type":"address"}],"name":"allowance","outputs":[{"internalType":"uint256","name":"","type":"uint256"}],"stateMutability":"view","type":"function"},{"inputs":[{"internalType":"address","name":"spender","type":"address"},{"internalType":"uint256","name":"value","type":"uint256"}],"name":"approve","outputs":[{"internalType":"bool","name":"","type":"bool"}],"stateMutability":"nonpayable","type":"function"},{"inputs":[{"internalType":"address","name":"account","type":"address"}],"name":"balanceOf","outputs":[{"internalType":"uint256","name":"","type":"uint256"}],"stateMutability":"view","type":"function"},{"inputs":[{"internalType":"uint256","name":"value","type":"uint256"}],"name":"burn","outputs":[],"stateMutability":"nonpayable","type":"function"},{"inputs":[{"internalType":"address","name":"account","type":"address"},{"internalType":"uint256","name":"value","type":"uint256"}],"name":"burnFrom","outputs":[],"stateMutability":"nonpayable","type":"function"},{"inputs":[],"name":"communityMinted","outputs":[{"internalType":"uint256","name":"","type":"uint256"}],"stateMutability":"view","type":"function"},{"inputs":[],"name":"communityRewardsWallet","outputs":[{"internalType":"address","name":"","type":"address"}],"stateMutability":"view","type":"function"},{"inputs":[],"name":"decimals","outputs":[{"internalType":"uint8","name":"","type":"uint8"}],"stateMutability":"view","type":"function"},{"inputs":[],"name":"getAvailableForRewards","outputs":[{"internalType":"uint256","name":"","type":"uint256"}],"stateMutability":"view","type":"function"},{"inputs":[],"name":"getRemainingAllocations","outputs":[{"internalType":"uint256","name":"communityRemaining","type":"uint256"},{"internalType":"uint256","name":"treasuryRemaining","type":"uint256"},{"internalType":"uint256","name":"teamRemaining","type":"uint256"},{"internalType":"uint256","name":"liquidityRemaining","type":"uint256"},{"internalType":"uint256","name":"recycledAvailable","type":"uint256"}],"stateMutability":"view","type":"function"},{"inputs":[],"name":"liquidityMinted","outputs":[{"internalType":"uint256","name":"","type":"uint256"}],"stateMutability":"view","type":"function"},{"inputs":[],"name":"liquidityWallet","outputs":[{"internalType":"address","name":"","type":"address"}],"stateMutability":"view","type":"function"},{"inputs":[{"internalType":"address","name":"to","type":"address"},{"internalType":"uint256","name":"amount","type":"uint256"}],"name":"mintCommunityRewards","outputs":[],"stateMutability":"nonpayable","type":"function"},{"inputs":[{"internalType":"uint256","name":"amount","type":"uint256"}],"name":"mintToTeam","outputs":[],"stateMutability":"nonpayable","type":"function"},{"inputs":[{"internalType":"uint256","name":"amount","type":"uint256"}],"name":"mintToTreasury","outputs":[],"stateMutability":"nonpayable","type":"function"},{"inputs":[],"name":"name","outputs":[{"internalType":"string","name":"","type":"string"}],"stateMutability":"view","type":"function"},{"inputs":[],"name":"owner","outputs":[{"internalType":"address","name":"","type":"address"}],"stateMutability":"view","type":"function"},{"inputs":[{"internalType":"address","name":"shopWallet","type":"address"},{"internalType":"uint256","name":"amount","type":"uint256"}],"name":"recycleFromShop","outputs":[],"stateMutability":"nonpayable","type":"function"},{"inputs":[{"internalType":"uint256","name":"amount","type":"uint256"}],"name":"recycleTokens","outputs":[],"stateMutability":"nonpayable","type":"function"},{"inputs":[],"name":"recycledPool","outputs":[{"internalType":"uint256","name":"","type":"uint256"}],"stateMutability":"view","type":"function"},{"inputs":[],"name":"renounceOwnership","outputs":[],"stateMutability":"nonpayable","type":"function"},{"inputs":[],"name":"symbol","outputs":[{"internalType":"string","name":"","type":"string"}],"stateMutability":"view","type":"function"},{"inputs":[],"name":"teamMinted","outputs":[{"internalType":"uint256","name":"","type":"uint256"}],"stateMutability":"view","type":"function"},{"inputs":[],"name":"teamWallet","outputs":[{"internalType":"address","name":"","type":"address"}],"stateMutability":"view","type":"function"},{"inputs":[],"name":"totalSupply","outputs":[{"internalType":"uint256","name":"","type":"uint256"}],"stateMutability":"view","type":"function"},{"inputs":[{"internalType":"address","name":"to","type":"address"},{"internalType":"uint256","name":"value","type":"uint256"}],"name":"transfer","outputs":[{"internalType":"bool","name":"","type":"bool"}],"stateMutability":"nonpayable","type":"function"},{"inputs":[{"internalType":"address","name":"from","type":"address"},{"internalType":"address","name":"to","type":"address"},{"internalType":"uint256","name":"value","type":"uint256"}],"name":"transferFrom","outputs":[{"internalType":"bool","name":"","type":"bool"}],"stateMutability":"nonpayable","type":"function"},{"inputs":[{"internalType":"address","name":"newOwner","type":"address"}],"name":"transferOwnership","outputs":[],"stateMutability":"nonpayable","type":"function"},{"inputs":[],"name":"treasuryMinted","outputs":[{"internalType":"uint256","name":"","type":"uint256"}],"stateMutability":"view","type":"function"},{"inputs":[],"name":"treasuryWallet","outputs":[{"internalType":"address","name":"","type":"address"}],"stateMutability":"view","type":"function"},{"inputs":[{"internalType":"address","name":"_communityRewardsWallet","type":"address"},{"internalType":"address","name":"_treasuryWallet","type":"address"},{"internalType":"address","name":"_teamWallet","type":"address"},{"internalType":"address","name":"_liquidityWallet","type":"address"}],"name":"updateWallets","outputs":[],"stateMutability":"nonpayable","type":"function"}],"evm":{"bytecode":{"linkReferences":{},"object":"60806040523480156200001157600080fd5b506040516200199038038062001990833981016040819052620000349162000496565b336040518060400160405280601181526020017029b0b332a9b1b7b934b733902a37b5b2b760791b815250604051806040016040528060048152602001635341464560e01b81525081600390816200008d919062000598565b5060046200009c828262000598565b5050506001600160a01b038116620000cf57604051631e4fbdf760e01b8152600060048201526024015b60405180910390fd5b620000da81620002b6565b506001600160a01b038416620001335760405162461bcd60e51b815260206004820152601860248201527f496e76616c696420636f6d6d756e6974792077616c6c657400000000000000006044820152606401620000c6565b6001600160a01b0383166200018b5760405162461bcd60e51b815260206004820152601760248201527f496e76616c69642074726561737572792077616c6c65740000000000000000006044820152606401620000c6565b6001600160a01b038216620001e35760405162461bcd60e51b815260206004820152601360248201527f496e76616c6964207465616d2077616c6c6574000000000000000000000000006044820152606401620000c6565b6001600160a01b0381166200023b5760405162461bcd60e51b815260206004820152601860248201527f496e76616c6964206c69717569646974792077616c6c657400000000000000006044820152606401620000c6565b600680546001600160a01b038087166001600160a01b031992831617909255600780548684169083161790556008805485841690831617905560098054928416929091169190911790556200029c816a084595161401484a00000062000308565b50506a084595161401484a000000600d55506200068c9050565b600580546001600160a01b038381166001600160a01b0319831681179093556040519116919082907f8be0079c531659141344cd1fd0a4f28419497f9722a3daafe3b4186f6b6457e090600090a35050565b6001600160a01b038216620003345760405163ec442f0560e01b815260006004820152602401620000c6565b620003426000838362000346565b5050565b6001600160a01b0383166200037557806002600082825462000369919062000664565b90915550620003e99050565b6001600160a01b03831660009081526020819052604090205481811015620003ca5760405163391434e360e21b81526001600160a01b03851660048201526024810182905260448101839052606401620000c6565b6001600160a01b03841660009081526020819052604090209082900390555b6001600160a01b038216620004075760028054829003905562000426565b6001600160a01b03821660009081526020819052604090208054820190555b816001600160a01b0316836001600160a01b03167fddf252ad1be2c89b69c2b068fc378daa952ba7f163c4a11628f55a4df523b3ef836040516200046c91815260200190565b60405180910390a3505050565b80516001600160a01b03811681146200049157600080fd5b919050565b60008060008060808587031215620004ad57600080fd5b620004b88562000479565b9350620004c86020860162000479565b9250620004d86040860162000479565b9150620004e86060860162000479565b905092959194509250565b634e487b7160e01b600052604160045260246000fd5b600181811c908216806200051e57607f821691505b6020821081036200053f57634e487b7160e01b600052602260045260246000fd5b50919050565b601f8211156200059357600081815260208120601f850160051c810160208610156200056e5750805b601f850160051c820191505b818110156200058f578281556001016200057a565b5050505b505050565b81516001600160401b03811115620005b457620005b4620004f3565b620005cc81620005c5845462000509565b8462000545565b602080601f831160018114620006045760008415620005eb5750858301515b600019600386901b1c1916600185901b1785556200058f565b600085815260208120601f198616915b82811015620006355788860151825594840194600190910190840162000614565b5085821015620006545787850151600019600388901b60f8161c191681555b5050505050600190811b01905550565b808201808211156200068657634e487b7160e01b600052601160045260246000fd5b92915050565b6112f4806200069c6000396000f3fe608060405234801561001057600080fd5b506004361061021c5760003560e01c806381ac3bee11610125578063d042959e116100ad578063e8b5498d1161007c578063e8b5498d146104b3578063f2fde38b146104bc578063f9428f38146104cf578063fd99cbed146104e1578063fdd0f3ca146104f357600080fd5b8063d042959e14610455578063d46980161461045e578063d9c5b0d314610471578063dd62ed3e1461047a57600080fd5b806398c2e98f116100f457806398c2e98f146103f8578063993eb1c51461040b578063a65948a31461041d578063a9059cbb14610430578063bf1ad7e01461044357600080fd5b806381ac3bee146103c35780638da5cb5b146103d65780638eab0751146103e757806395d89b41146103f057600080fd5b80634626402b116101a857806370a082311161017757806370a0823114610364578063715018a61461038d578063743e540d1461039557806379cc6790146103a85780637eb917b8146103bb57600080fd5b80634626402b146102fb5780634b19eff51461030e57806359927044146103215780635adca6591461033457600080fd5b806323b872dd116101ef57806323b872dd146102895780632fcbb5a21461029c578063313ce567146102c757806332cb6b0c146102d657806342966c68146102e857600080fd5b806301dc2e451461022157806306fdde0314610236578063095ea7b31461025457806318160ddd14610277575b600080fd5b61023461022f3660046110b6565b6104fc565b005b61023e6105a1565b60405161024b91906110cf565b60405180910390f35b610267610262366004611139565b610633565b604051901515815260200161024b565b6002545b60405190815260200161024b565b610267610297366004611163565b61064d565b6006546102af906001600160a01b031681565b6040516001600160a01b03909116815260200161024b565b6040516012815260200161024b565b61027b6a52b7d2dcc80cd2e400000081565b6102346102f63660046110b6565b610671565b6007546102af906001600160a01b031681565b61023461031c366004611139565b61067b565b6008546102af906001600160a01b031681565b61033c61086d565b604080519586526020860194909452928401919091526060830152608082015260a00161024b565b61027b61037236600461119f565b6001600160a01b031660009081526020819052604090205490565b6102346108ea565b6102346103a33660046111c1565b6108fe565b6102346103b6366004611139565b610a19565b61027b610a32565b6102346103d13660046110b6565b610a5f565b6005546001600160a01b03166102af565b61027b600d5481565b61023e610b0e565b610234610406366004611139565b610b1d565b61027b6a211654585005212800000081565b61023461042b3660046110b6565b610bf6565b61026761043e366004611139565b610c93565b61027b6a18d0bf423c03d8de00000081565b61027b600e5481565b6009546102af906001600160a01b031681565b61027b600a5481565b61027b610488366004611215565b6001600160a01b03918216600090815260016020908152604080832093909416825291909152205490565b61027b600c5481565b6102346104ca36600461119f565b610ca1565b61027b6a084595161401484a00000081565b61027b6a108b2a2c2802909400000081565b61027b600b5481565b610504610cdc565b6a108b2a2c2802909400000081600c5461051e919061125e565b11156105715760405162461bcd60e51b815260206004820152601760248201527f45786365656473207465616d20616c6c6f636174696f6e00000000000000000060448201526064015b60405180910390fd5b80600c6000828254610583919061125e565b909155505060085461059e906001600160a01b031682610d09565b50565b6060600380546105b090611271565b80601f01602080910402602001604051908101604052809291908181526020018280546105dc90611271565b80156106295780601f106105fe57610100808354040283529160200191610629565b820191906000526020600020905b81548152906001019060200180831161060c57829003601f168201915b5050505050905090565b600033610641818585610d3f565b60019150505b92915050565b60003361065b858285610d51565b610666858585610dd0565b506001949350505050565b61059e3382610e2f565b610683610cdc565b6000600a546a211654585005212800000061069e91906112ab565b90508082116106ce5781600a60008282546106b9919061125e565b909155506106c990508383610d09565b610825565b80156107755760006106e082846112ab565b9050600e548111156107345760405162461bcd60e51b815260206004820152601860248201527f4578636565647320617661696c61626c6520746f6b656e7300000000000000006044820152606401610568565b81600a6000828254610746919061125e565b9250508190555080600e600082825461075f91906112ab565b9091555061076f90508484610d09565b50610825565b600e548211156107bf5760405162461bcd60e51b8152602060048201526015602482015274115e18d959591cc81c9958de58db1959081c1bdbdb605a1b6044820152606401610568565b81600e60008282546107d191906112ab565b909155506107e190508383610d09565b826001600160a01b03167fb714a8b7f98707b9bf018af7b9b4046ba6d537dd0694fb09331ee3343dd60d738360405161081c91815260200190565b60405180910390a25b826001600160a01b03167f3a832159051a6db655623c10d4ec98d67945b02b49ca3b5d2e65656570a095d68360405161086091815260200190565b60405180910390a2505050565b6000806000806000600a546a211654585005212800000061088e91906112ab565b600b546108a6906a18d0bf423c03d8de0000006112ab565b600c546108be906a108b2a2c280290940000006112ab565b600d546108d6906a084595161401484a0000006112ab565b600e54945094509450945094509091929394565b6108f2610cdc565b6108fc6000610e65565b565b610906610cdc565b6001600160a01b0384161561093157600680546001600160a01b0319166001600160a01b0386161790555b6001600160a01b0383161561095c57600780546001600160a01b0319166001600160a01b0385161790555b6001600160a01b0382161561098757600880546001600160a01b0319166001600160a01b0384161790555b6001600160a01b038116156109b257600980546001600160a01b0319166001600160a01b0383161790555b600654600754600854600954604080516001600160a01b03958616815293851660208501529184168383015292909216606082015290517f213f1de8063c19612a553f1480ff341bea689d36a56a2089f1b9060d599b5d839181900360800190a150505050565b610a24823383610d51565b610a2e8282610e2f565b5050565b6000600e54600a546a2116545850052128000000610a5091906112ab565b610a5a919061125e565b905090565b33600090815260208190526040902054811115610ab55760405162461bcd60e51b8152602060048201526014602482015273496e73756666696369656e742062616c616e636560601b6044820152606401610568565b610abf3382610e2f565b80600e6000828254610ad1919061125e565b909155505060405181815233907ff96d6e509a648068872aac2b546928b99982c26c6b2bb7af4af8cc10fdfcfc7b9060200160405180910390a250565b6060600480546105b090611271565b610b25610cdc565b80610b45836001600160a01b031660009081526020819052604090205490565b1015610b935760405162461bcd60e51b815260206004820152601c60248201527f496e73756666696369656e742062616c616e636520696e2073686f70000000006044820152606401610568565b610b9d8282610e2f565b80600e6000828254610baf919061125e565b90915550506040518181526001600160a01b038316907ff96d6e509a648068872aac2b546928b99982c26c6b2bb7af4af8cc10fdfcfc7b9060200160405180910390a25050565b610bfe610cdc565b6a18d0bf423c03d8de00000081600b54610c18919061125e565b1115610c665760405162461bcd60e51b815260206004820152601b60248201527f4578636565647320747265617375727920616c6c6f636174696f6e00000000006044820152606401610568565b80600b6000828254610c78919061125e565b909155505060075461059e906001600160a01b031682610d09565b600033610641818585610dd0565b610ca9610cdc565b6001600160a01b038116610cd357604051631e4fbdf760e01b815260006004820152602401610568565b61059e81610e65565b6005546001600160a01b031633146108fc5760405163118cdaa760e01b8152336004820152602401610568565b6001600160a01b038216610d335760405163ec442f0560e01b815260006004820152602401610568565b610a2e60008383610eb7565b610d4c8383836001610fe1565b505050565b6001600160a01b03838116600090815260016020908152604080832093861683529290522054600019811015610dca5781811015610dbb57604051637dc7a0d960e11b81526001600160a01b03841660048201526024810182905260448101839052606401610568565b610dca84848484036000610fe1565b50505050565b6001600160a01b038316610dfa57604051634b637e8f60e11b815260006004820152602401610568565b6001600160a01b038216610e245760405163ec442f0560e01b815260006004820152602401610568565b610d4c838383610eb7565b6001600160a01b038216610e5957604051634b637e8f60e11b815260006004820152602401610568565b610a2e82600083610eb7565b600580546001600160a01b038381166001600160a01b0319831681179093556040519116919082907f8be0079c531659141344cd1fd0a4f28419497f9722a3daafe3b4186f6b6457e090600090a35050565b6001600160a01b038316610ee2578060026000828254610ed7919061125e565b90915550610f549050565b6001600160a01b03831660009081526020819052604090205481811015610f355760405163391434e360e21b81526001600160a01b03851660048201526024810182905260448101839052606401610568565b6001600160a01b03841660009081526020819052604090209082900390555b6001600160a01b038216610f7057600280548290039055610f8f565b6001600160a01b03821660009081526020819052604090208054820190555b816001600160a01b0316836001600160a01b03167fddf252ad1be2c89b69c2b068fc378daa952ba7f163c4a11628f55a4df523b3ef83604051610fd491815260200190565b60405180910390a3505050565b6001600160a01b03841661100b5760405163e602df0560e01b815260006004820152602401610568565b6001600160a01b03831661103557604051634a1406b160e11b815260006004820152602401610568565b6001600160a01b0380851660009081526001602090815260408083209387168352929052208290558015610dca57826001600160a01b0316846001600160a01b03167f8c5be1e5ebec7d5bd14f71427d1e84f3dd0314c0f7b2291e5b200ac8c7c3b925846040516110a891815260200190565b60405180910390a350505050565b6000602082840312156110c857600080fd5b5035919050565b600060208083528351808285015260005b818110156110fc578581018301518582016040015282016110e0565b506000604082860101526040601f19601f8301168501019250505092915050565b80356001600160a01b038116811461113457600080fd5b919050565b6000806040838503121561114c57600080fd5b6111558361111d565b946020939093013593505050565b60008060006060848603121561117857600080fd5b6111818461111d565b925061118f6020850161111d565b9150604084013590509250925092565b6000602082840312156111b157600080fd5b6111ba8261111d565b9392505050565b600080600080608085870312156111d757600080fd5b6111e08561111d565b93506111ee6020860161111d565b92506111fc6040860161111d565b915061120a6060860161111d565b905092959194509250565b6000806040838503121561122857600080fd5b6112318361111d565b915061123f6020840161111d565b90509250929050565b634e487b7160e01b600052601160045260246000fd5b8082018082111561064757610647611248565b600181811c9082168061128557607f821691505b6020821081036112a557634e487b7160e01b600052602260045260246000fd5b50919050565b818103818111156106475761064761124856fea26469706673582212205bf998bf3b097da0eb60c319c0f5b503944eda5245b03f683aa5beedc1139ba764736f6c63430008140033","opcodes":"PUSH1 0x80 PUSH1 0x40 MSTORE CALLVALUE DUP1 ISZERO PUSH3 0x11 JUMPI PUSH1 0x0 DUP1 REVERT JUMPDEST POP PUSH1 0x40 MLOAD PUSH3 0x1990 CODESIZE SUB DUP1 PUSH3 0x1990 DUP4 CODECOPY DUP2 ADD PUSH1 0x40 DUP2 SWAP1 MSTORE PUSH3 0x34 SWAP2 PUSH3 0x496 JUMP JUMPDEST CALLER PUSH1 0x40 MLOAD DUP1 PUSH1 0x40 ADD PUSH1 0x40 MSTORE DUP1 PUSH1 0x11 DUP2 MSTORE PUSH1 0x20 ADD PUSH17 0x29B0B332A9B1B7B934B733902A37B5B2B7 PUSH1 0x79 SHL DUP2 MSTORE POP PUSH1 0x40 MLOAD DUP1 PUSH1 0x40 ADD PUSH1 0x40 MSTORE DUP1 PUSH1 0x4 DUP2 MSTORE PUSH1 0x20 ADD PUSH4 0x53414645 PUSH1 0xE0 SHL DUP2 MSTORE POP DUP2 PUSH1 0x3 SWAP1 DUP2 PUSH3 0x8D SWAP2 SWAP1 PUSH3 0x598 JUMP JUMPDEST POP PUSH1 0x4 PUSH3 0x9C DUP3 DUP3 PUSH3 0x598 JUMP JUMPDEST POP POP POP PUSH1 0x1 PUSH1 0x1 PUSH1 0xA0 SHL SUB DUP2 AND PUSH3 0xCF JUMPI PUSH1 0x40 MLOAD PUSH4 0x1E4FBDF7 PUSH1 0xE0 SHL DUP2 MSTORE PUSH1 0x0 PUSH1 0x4 DUP3 ADD MSTORE PUSH1 0x24 ADD JUMPDEST PUSH1 0x40 MLOAD DUP1 SWAP2 SUB SWAP1 REVERT JUMPDEST PUSH3 0xDA DUP2 PUSH3 0x2B6 JUMP JUMPDEST POP PUSH1 0x1 PUSH1 0x1 PUSH1 0xA0 SHL SUB DUP5 AND PUSH3 0x133 JUMPI PUSH1 0x40 MLOAD PUSH3 0x461BCD PUSH1 0xE5 SHL DUP2 MSTORE PUSH1 0x20 PUSH1 0x4 DUP3 ADD MSTORE PUSH1 0x18 PUSH1 0x24 DUP3 ADD MSTORE PUSH32 0x496E76616C696420636F6D6D756E6974792077616C6C65740000000000000000 PUSH1 0x44 DUP3 ADD MSTORE PUSH1 0x64 ADD PUSH3 0xC6 JUMP JUMPDEST PUSH1 0x1 PUSH1 0x1 PUSH1 0xA0 SHL SUB DUP4 AND PUSH3 0x18B JUMPI PUSH1 0x40 MLOAD PUSH3 0x461BCD PUSH1 0xE5 SHL DUP2 MSTORE PUSH1 0x20 PUSH1 0x4 DUP3 ADD MSTORE PUSH1 0x17 PUSH1 0x24 DUP3 ADD MSTORE PUSH32 0x496E76616C69642074726561737572792077616C6C6574000000000000000000 PUSH1 0x44 DUP3 ADD MSTORE PUSH1 0x64 ADD PUSH3 0xC6 JUMP JUMPDEST PUSH1 0x1 PUSH1 0x1 PUSH1 0xA0 SHL SUB DUP3 AND PUSH3 0x1E3 JUMPI PUSH1 0x40 MLOAD PUSH3 0x461BCD PUSH1 0xE5 SHL DUP2 MSTORE PUSH1 0x20 PUSH1 0x4 DUP3 ADD MSTORE PUSH1 0x13 PUSH1 0x24 DUP3 ADD MSTORE PUSH32 0x496E76616C6964207465616D2077616C6C657400000000000000000000000000 PUSH1 0x44 DUP3 ADD MSTORE PUSH1 0x64 ADD PUSH3 0xC6 JUMP JUMPDEST PUSH1 0x1 PUSH1 0x1 PUSH1 0xA0 SHL SUB DUP2 AND PUSH3 0x23B JUMPI PUSH1 0x40 MLOAD PUSH3 0x461BCD PUSH1 0xE5 SHL DUP2 MSTORE PUSH1 0x20 PUSH1 0x4 DUP3 ADD MSTORE PUSH1 0x18 PUSH1 0x24 DUP3 ADD MSTORE PUSH32 0x496E76616C6964206C69717569646974792077616C6C65740000000000000000 PUSH1 0x44 DUP3 ADD MSTORE PUSH1 0x64 ADD PUSH3 0xC6 JUMP JUMPDEST PUSH1 0x6 DUP1 SLOAD PUSH1 0x1 PUSH1 0x1 PUSH1 0xA0 SHL SUB DUP1 DUP8 AND PUSH1 0x1 PUSH1 0x1 PUSH1 0xA0 SHL SUB NOT SWAP3 DUP4 AND OR SWAP1 SWAP3 SSTORE PUSH1 0x7 DUP1 SLOAD DUP7 DUP5 AND SWAP1 DUP4 AND OR SWAP1 SSTORE PUSH1 0x8 DUP1 SLOAD DUP6 DUP5 AND SWAP1 DUP4 AND OR SWAP1 SSTORE PUSH1 0x9 DUP1 SLOAD SWAP3 DUP5 AND SWAP3 SWAP1 SWAP2 AND SWAP2 SWAP1 SWAP2 OR SWAP1 SSTORE PUSH3 0x29C DUP2 PUSH11 0x84595161401484A000000 PUSH3 0x308 JUMP JUMPDEST POP POP PUSH11 0x84595161401484A000000 PUSH1 0xD SSTORE POP PUSH3 0x68C SWAP1 POP JUMP JUMPDEST PUSH1 0x5 DUP1 SLOAD PUSH1 0x1 PUSH1 0x1 PUSH1 0xA0 SHL SUB DUP4 DUP2 AND PUSH1 0x1 PUSH1 0x1 PUSH1 0xA0 SHL SUB NOT DUP4 AND DUP2 OR SWAP1 SWAP4 SSTORE PUSH1 0x40 MLOAD SWAP2 AND SWAP2 SWAP1 DUP3 SWAP1 PUSH32 0x8BE0079C531659141344CD1FD0A4F28419497F9722A3DAAFE3B4186F6B6457E0 SWAP1 PUSH1 0x0 SWAP1 LOG3 POP POP JUMP JUMPDEST PUSH1 0x1 PUSH1 0x1 PUSH1 0xA0 SHL SUB DUP3 AND PUSH3 0x334 JUMPI PUSH1 0x40 MLOAD PUSH4 0xEC442F05 PUSH1 0xE0 SHL DUP2 MSTORE PUSH1 0x0 PUSH1 0x4 DUP3 ADD MSTORE PUSH1 0x24 ADD PUSH3 0xC6 JUMP JUMPDEST PUSH3 0x342 PUSH1 0x0 DUP4 DUP4 PUSH3 0x346 JUMP JUMPDEST POP POP JUMP JUMPDEST PUSH1 0x1 PUSH1 0x1 PUSH1 0xA0 SHL SUB DUP4 AND PUSH3 0x375 JUMPI DUP1 PUSH1 0x2 PUSH1 0x0 DUP3 DUP3 SLOAD PUSH3 0x369 SWAP2 SWAP1 PUSH3 0x664 JUMP JUMPDEST SWAP1 SWAP2 SSTORE POP PUSH3 0x3E9 SWAP1 POP JUMP JUMPDEST PUSH1 0x1 PUSH1 0x1 PUSH1 0xA0 SHL SUB DUP4 AND PUSH1 0x0 SWAP1 DUP2 MSTORE PUSH1 0x20 DUP2 SWAP1 MSTORE PUSH1 0x40 SWAP1 KECCAK256 SLOAD DUP2 DUP2 LT ISZERO PUSH3 0x3CA JUMPI PUSH1 0x40 MLOAD PUSH4 0x391434E3 PUSH1 0xE2 SHL DUP2 MSTORE PUSH1 0x1 PUSH1 0x1 PUSH1 0xA0 SHL SUB DUP6 AND PUSH1 0x4 DUP3 ADD MSTORE PUSH1 0x24 DUP2 ADD DUP3 SWAP1 MSTORE PUSH1 0x44 DUP2 ADD DUP4 SWAP1 MSTORE PUSH1 0x64 ADD PUSH3 0xC6 JUMP JUMPDEST PUSH1 0x1 PUSH1 0x1 PUSH1 0xA0 SHL SUB DUP5 AND PUSH1 0x0 SWAP1 DUP2 MSTORE PUSH1 0x20 DUP2 SWAP1 MSTORE PUSH1 0x40 SWAP1 KECCAK256 SWAP1 DUP3 SWAP1 SUB SWAP1 SSTORE JUMPDEST PUSH1 0x1 PUSH1 0x1 PUSH1 0xA0 SHL SUB DUP3 AND PUSH3 0x407 JUMPI PUSH1 0x2 DUP1 SLOAD DUP3 SWAP1 SUB SWAP1 SSTORE PUSH3 0x426 JUMP JUMPDEST PUSH1 0x1 PUSH1 0x1 PUSH1 0xA0 SHL SUB DUP3 AND PUSH1 0x0 SWAP1 DUP2 MSTORE PUSH1 0x20 DUP2 SWAP1 MSTORE PUSH1 0x40 SWAP1 KECCAK256 DUP1 SLOAD DUP3 ADD SWAP1 SSTORE JUMPDEST DUP2 PUSH1 0x1 PUSH1 0x1 PUSH1 0xA0 SHL SUB AND DUP4 PUSH1 0x1 PUSH1 0x1 PUSH1 0xA0 SHL SUB AND PUSH32 0xDDF252AD1BE2C89B69C2B068FC378DAA952BA7F163C4A11628F55A4DF523B3EF DUP4 PUSH1 0x40 MLOAD PUSH3 0x46C SWAP2 DUP2 MSTORE PUSH1 0x20 ADD SWAP1 JUMP JUMPDEST PUSH1 0x40 MLOAD DUP1 SWAP2 SUB SWAP1 LOG3 POP POP POP JUMP JUMPDEST DUP1 MLOAD PUSH1 0x1 PUSH1 0x1 PUSH1 0xA0 SHL SUB DUP2 AND DUP2 EQ PUSH3 0x491 JUMPI PUSH1 0x0 DUP1 REVERT JUMPDEST SWAP2 SWAP1 POP JUMP JUMPDEST PUSH1 0x0 DUP1 PUSH1 0x0 DUP1 PUSH1 0x80 DUP6 DUP8 SUB SLT ISZERO PUSH3 0x4AD JUMPI PUSH1 0x0 DUP1 REVERT JUMPDEST PUSH3 0x4B8 DUP6 PUSH3 0x479 JUMP JUMPDEST SWAP4 POP PUSH3 0x4C8 PUSH1 0x20 DUP7 ADD PUSH3 0x479 JUMP JUMPDEST SWAP3 POP PUSH3 0x4D8 PUSH1 0x40 DUP7 ADD PUSH3 0x479 JUMP JUMPDEST SWAP2 POP PUSH3 0x4E8 PUSH1 0x60 DUP7 ADD PUSH3 0x479 JUMP JUMPDEST SWAP1 POP SWAP3 SWAP6 SWAP2 SWAP5 POP SWAP3 POP JUMP JUMPDEST PUSH4 0x4E487B71 PUSH1 0xE0 SHL PUSH1 0x0 MSTORE PUSH1 0x41 PUSH1 0x4 MSTORE PUSH1 0x24 PUSH1 0x0 REVERT JUMPDEST PUSH1 0x1 DUP2 DUP2 SHR SWAP1 DUP3 AND DUP1 PUSH3 0x51E JUMPI PUSH1 0x7F DUP3 AND SWAP2 POP JUMPDEST PUSH1 0x20 DUP3 LT DUP2 SUB PUSH3 0x53F JUMPI PUSH4 0x4E487B71 PUSH1 0xE0 SHL PUSH1 0x0 MSTORE PUSH1 0x22 PUSH1 0x4 MSTORE PUSH1 0x24 PUSH1 0x0 REVERT JUMPDEST POP SWAP2 SWAP1 POP JUMP JUMPDEST PUSH1 0x1F DUP3 GT ISZERO PUSH3 0x593 JUMPI PUSH1 0x0 DUP2 DUP2 MSTORE PUSH1 0x20 DUP2 KECCAK256 PUSH1 0x1F DUP6 ADD PUSH1 0x5 SHR DUP2 ADD PUSH1 0x20 DUP7 LT ISZERO PUSH3 0x56E JUMPI POP DUP1 JUMPDEST PUSH1 0x1F DUP6 ADD PUSH1 0x5 SHR DUP3 ADD SWAP2 POP JUMPDEST DUP2 DUP2 LT ISZERO PUSH3 0x58F JUMPI DUP3 DUP2 SSTORE PUSH1 0x1 ADD PUSH3 0x57A JUMP JUMPDEST POP POP POP JUMPDEST POP POP POP JUMP JUMPDEST DUP2 MLOAD PUSH1 0x1 PUSH1 0x1 PUSH1 0x40 SHL SUB DUP2 GT ISZERO PUSH3 0x5B4 JUMPI PUSH3 0x5B4 PUSH3 0x4F3 JUMP JUMPDEST PUSH3 0x5CC DUP2 PUSH3 0x5C5 DUP5 SLOAD PUSH3 0x509 JUMP JUMPDEST DUP5 PUSH3 0x545 JUMP JUMPDEST PUSH1 0x20 DUP1 PUSH1 0x1F DUP4 GT PUSH1 0x1 DUP2 EQ PUSH3 0x604 JUMPI PUSH1 0x0 DUP5 ISZERO PUSH3 0x5EB JUMPI POP DUP6 DUP4 ADD MLOAD JUMPDEST PUSH1 0x0 NOT PUSH1 0x3 DUP7 SWAP1 SHL SHR NOT AND PUSH1 0x1 DUP6 SWAP1 SHL OR DUP6 SSTORE PUSH3 0x58F JUMP JUMPDEST PUSH1 0x0 DUP6 DUP2 MSTORE PUSH1 0x20 DUP2 KECCAK256 PUSH1 0x1F NOT DUP7 AND SWAP2 JUMPDEST DUP3 DUP2 LT ISZERO PUSH3 0x635 JUMPI DUP9 DUP7 ADD MLOAD DUP3 SSTORE SWAP5 DUP5 ADD SWAP5 PUSH1 0x1 SWAP1 SWAP2 ADD SWAP1 DUP5 ADD PUSH3 0x614 JUMP JUMPDEST POP DUP6 DUP3 LT ISZERO PUSH3 0x654 JUMPI DUP8 DUP6 ADD MLOAD PUSH1 0x0 NOT PUSH1 0x3 DUP9 SWAP1 SHL PUSH1 0xF8 AND SHR NOT AND DUP2 SSTORE JUMPDEST POP POP POP POP POP PUSH1 0x1 SWAP1 DUP2 SHL ADD SWAP1 SSTORE POP JUMP JUMPDEST DUP1 DUP3 ADD DUP1 DUP3 GT ISZERO PUSH3 0x686 JUMPI PUSH4 0x4E487B71 PUSH1 0xE0 SHL PUSH1 0x0 MSTORE PUSH1 0x11 PUSH1 0x4 MSTORE PUSH1 0x24 PUSH1 0x0 REVERT JUMPDEST SWAP3 SWAP2 POP POP JUMP JUMPDEST PUSH2 0x12F4 DUP1 PUSH3 0x69C PUSH1 0x0 CODECOPY PUSH1 0x0 RETURN INVALID PUSH1 0x80 PUSH1 0x40 MSTORE CALLVALUE DUP1 ISZERO PUSH2 0x10 JUMPI PUSH1 0x0 DUP1 REVERT JUMPDEST POP PUSH1 0x4 CALLDATASIZE LT PUSH2 0x21C JUMPI PUSH1 0x0 CALLDATALOAD PUSH1 0xE0 SHR DUP1 PUSH4 0x81AC3BEE GT PUSH2 0x125 JUMPI DUP1 PUSH4 0xD042959E GT PUSH2 0xAD JUMPI DUP1 PUSH4 0xE8B5498D GT PUSH2 0x7C JUMPI DUP1 PUSH4 0xE8B5498D EQ PUSH2 0x4B3 JUMPI DUP1 PUSH4 0xF2FDE38B EQ PUSH2 0x4BC JUMPI DUP1 PUSH4 0xF9428F38 EQ PUSH2 0x4CF JUMPI DUP1 PUSH4 0xFD99CBED EQ PUSH2 0x4E1 JUMPI DUP1 PUSH4 0xFDD0F3CA EQ PUSH2 0x4F3 JUMPI PUSH1 0x0 DUP1 REVERT JUMPDEST DUP1 PUSH4 0xD042959E EQ PUSH2 0x455 JUMPI DUP1 PUSH4 0xD4698016 EQ PUSH2 0x45E JUMPI DUP1 PUSH4 0xD9C5B0D3 EQ PUSH2 0x471 JUMPI DUP1 PUSH4 0xDD62ED3E EQ PUSH2 0x47A JUMPI PUSH1 0x0 DUP1 REVERT JUMPDEST DUP1 PUSH4 0x98C2E98F GT PUSH2 0xF4 JUMPI DUP1 PUSH4 0x98C2E98F EQ PUSH2 0x3F8 JUMPI DUP1 PUSH4 0x993EB1C5 EQ PUSH2 0x40B JUMPI DUP1 PUSH4 0xA65948A3 EQ PUSH2 0x41D JUMPI DUP1 PUSH4 0xA9059CBB EQ PUSH2 0x430 JUMPI DUP1 PUSH4 0xBF1AD7E0 EQ PUSH2 0x443 JUMPI PUSH1 0x0 DUP1 REVERT JUMPDEST DUP1 PUSH4 0x81AC3BEE EQ PUSH2 0x3C3 JUMPI DUP1 PUSH4 0x8DA5CB5B EQ PUSH2 0x3D6 JUMPI DUP1 PUSH4 0x8EAB0751 EQ PUSH2 0x3E7 JUMPI DUP1 PUSH4 0x95D89B41 EQ PUSH2 0x3F0 JUMPI PUSH1 0x0 DUP1 REVERT JUMPDEST DUP1 PUSH4 0x4626402B GT PUSH2 0x1A8 JUMPI DUP1 PUSH4 0x70A08231 GT PUSH2 0x177 JUMPI DUP1 PUSH4 0x70A08231 EQ PUSH2 0x364 JUMPI DUP1 PUSH4 0x715018A6 EQ PUSH2 0x38D JUMPI DUP1 PUSH4 0x743E540D EQ PUSH2 0x395 JUMPI DUP1 PUSH4 0x79CC6790 EQ PUSH2 0x3A8 JUMPI DUP1 PUSH4 0x7EB917B8 EQ PUSH2 0x3BB JUMPI PUSH1 0x0 DUP1 REVERT JUMPDEST DUP1 PUSH4 0x4626402B EQ PUSH2 0x2FB JUMPI DUP1 PUSH4 0x4B19EFF5 EQ PUSH2 0x30E JUMPI DUP1 PUSH4 0x59927044 EQ PUSH2 0x321 JUMPI DUP1 PUSH4 0x5ADCA659 EQ PUSH2 0x334 JUMPI PUSH1 0x0 DUP1 REVERT JUMPDEST DUP1 PUSH4 0x23B872DD GT PUSH2 0x1EF JUMPI DUP1 PUSH4 0x23B872DD EQ PUSH2 0x289 JUMPI DUP1 PUSH4 0x2FCBB5A2 EQ PUSH2 0x29C JUMPI DUP1 PUSH4 0x313CE567 EQ PUSH2 0x2C7 JUMPI DUP1 PUSH4 0x32CB6B0C EQ PUSH2 0x2D6 JUMPI DUP1 PUSH4 0x42966C68 EQ PUSH2 0x2E8 JUMPI PUSH1 0x0 DUP1 REVERT JUMPDEST DUP1 PUSH4 0x1DC2E45 EQ PUSH2 0x221 JUMPI DUP1 PUSH4 0x6FDDE03 EQ PUSH2 0x236 JUMPI DUP1 PUSH4 0x95EA7B3 EQ PUSH2 0x254 JUMPI DUP1 PUSH4 0x18160DDD EQ PUSH2 0x277 JUMPI JUMPDEST PUSH1 0x0 DUP1 REVERT JUMPDEST PUSH2 0x234 PUSH2 0x22F CALLDATASIZE PUSH1 0x4 PUSH2 0x10B6 JUMP JUMPDEST PUSH2 0x4FC JUMP JUMPDEST STOP JUMPDEST PUSH2 0x23E PUSH2 0x5A1 JUMP JUMPDEST PUSH1 0x40 MLOAD PUSH2 0x24B SWAP2 SWAP1 PUSH2 0x10CF JUMP JUMPDEST PUSH1 0x40 MLOAD DUP1 SWAP2 SUB SWAP1 RETURN JUMPDEST PUSH2 0x267 PUSH2 0x262 CALLDATASIZE PUSH1 0x4 PUSH2 0x1139 JUMP JUMPDEST PUSH2 0x633 JUMP JUMPDEST PUSH1 0x40 MLOAD SWAP1 ISZERO ISZERO DUP2 MSTORE PUSH1 0x20 ADD PUSH2 0x24B JUMP JUMPDEST PUSH1 0x2 SLOAD JUMPDEST PUSH1 0x40 MLOAD SWAP1 DUP2 MSTORE PUSH1 0x20 ADD PUSH2 0x24B JUMP JUMPDEST PUSH2 0x267 PUSH2 0x297 CALLDATASIZE PUSH1 0x4 PUSH2 0x1163 JUMP JUMPDEST PUSH2 0x64D JUMP JUMPDEST PUSH1 0x6 SLOAD PUSH2 0x2AF SWAP1 PUSH1 0x1 PUSH1 0x1 PUSH1 0xA0 SHL SUB AND DUP2 JUMP JUMPDEST PUSH1 0x40 MLOAD PUSH1 0x1 PUSH1 0x1 PUSH1 0xA0 SHL SUB SWAP1 SWAP2 AND DUP2 MSTORE PUSH1 0x20 ADD PUSH2 0x24B JUMP JUMPDEST PUSH1 0x40 MLOAD PUSH1 0x12 DUP2 MSTORE PUSH1 0x20 ADD PUSH2 0x24B JUMP JUMPDEST PUSH2 0x27B PUSH11 0x52B7D2DCC80CD2E4000000 DUP2 JUMP JUMPDEST PUSH2 0x234 PUSH2 0x2F6 CALLDATASIZE PUSH1 0x4 PUSH2 0x10B6 JUMP JUMPDEST PUSH2 0x671 JUMP JUMPDEST PUSH1 0x7 SLOAD PUSH2 0x2AF SWAP1 PUSH1 0x1 PUSH1 0x1 PUSH1 0xA0 SHL SUB AND DUP2 JUMP JUMPDEST PUSH2 0x234 PUSH2 0x31C CALLDATASIZE PUSH1 0x4 PUSH2 0x1139 JUMP JUMPDEST PUSH2 0x67B JUMP JUMPDEST PUSH1 0x8 SLOAD PUSH2 0x2AF SWAP1 PUSH1 0x1 PUSH1 0x1 PUSH1 0xA0 SHL SUB AND DUP2 JUMP JUMPDEST PUSH2 0x33C PUSH2 0x86D JUMP JUMPDEST PUSH1 0x40 DUP1 MLOAD SWAP6 DUP7 MSTORE PUSH1 0x20 DUP7 ADD SWAP5 SWAP1 SWAP5 MSTORE SWAP3 DUP5 ADD SWAP2 SWAP1 SWAP2 MSTORE PUSH1 0x60 DUP4 ADD MSTORE PUSH1 0x80 DUP3 ADD MSTORE PUSH1 0xA0 ADD PUSH2 0x24B JUMP JUMPDEST PUSH2 0x27B PUSH2 0x372 CALLDATASIZE PUSH1 0x4 PUSH2 0x119F JUMP JUMPDEST PUSH1 0x1 PUSH1 0x1 PUSH1 0xA0 SHL SUB AND PUSH1 0x0 SWAP1 DUP2 MSTORE PUSH1 0x20 DUP2 SWAP1 MSTORE PUSH1 0x40 SWAP1 KECCAK256 SLOAD SWAP1 JUMP JUMPDEST PUSH2 0x234 PUSH2 0x8EA JUMP JUMPDEST PUSH2 0x234 PUSH2 0x3A3 CALLDATASIZE PUSH1 0x4 PUSH2 0x11C1 JUMP JUMPDEST PUSH2 0x8FE JUMP JUMPDEST PUSH2 0x234 PUSH2 0x3B6 CALLDATASIZE PUSH1 0x4 PUSH2 0x1139 JUMP JUMPDEST PUSH2 0xA19 JUMP JUMPDEST PUSH2 0x27B PUSH2 0xA32 JUMP JUMPDEST PUSH2 0x234 PUSH2 0x3D1 CALLDATASIZE PUSH1 0x4 PUSH2 0x10B6 JUMP JUMPDEST PUSH2 0xA5F JUMP JUMPDEST PUSH1 0x5 SLOAD PUSH1 0x1 PUSH1 0x1 PUSH1 0xA0 SHL SUB AND PUSH2 0x2AF JUMP JUMPDEST PUSH2 0x27B PUSH1 0xD SLOAD DUP2 JUMP JUMPDEST PUSH2 0x23E PUSH2 0xB0E JUMP JUMPDEST PUSH2 0x234 PUSH2 0x406 CALLDATASIZE PUSH1 0x4 PUSH2 0x1139 JUMP JUMPDEST PUSH2 0xB1D JUMP JUMPDEST PUSH2 0x27B PUSH11 0x2116545850052128000000 DUP2 JUMP JUMPDEST PUSH2 0x234 PUSH2 0x42B CALLDATASIZE PUSH1 0x4 PUSH2 0x10B6 JUMP JUMPDEST PUSH2 0xBF6 JUMP JUMPDEST PUSH2 0x267 PUSH2 0x43E CALLDATASIZE PUSH1 0x4 PUSH2 0x1139 JUMP JUMPDEST PUSH2 0xC93 JUMP JUMPDEST PUSH2 0x27B PUSH11 0x18D0BF423C03D8DE000000 DUP2 JUMP JUMPDEST PUSH2 0x27B PUSH1 0xE SLOAD DUP2 JUMP JUMPDEST PUSH1 0x9 SLOAD PUSH2 0x2AF SWAP1 PUSH1 0x1 PUSH1 0x1 PUSH1 0xA0 SHL SUB AND DUP2 JUMP JUMPDEST PUSH2 0x27B PUSH1 0xA SLOAD DUP2 JUMP JUMPDEST PUSH2 0x27B PUSH2 0x488 CALLDATASIZE PUSH1 0x4 PUSH2 0x1215 JUMP JUMPDEST PUSH1 0x1 PUSH1 0x1 PUSH1 0xA0 SHL SUB SWAP2 DUP3 AND PUSH1 0x0 SWAP1 DUP2 MSTORE PUSH1 0x1 PUSH1 0x20 SWAP1 DUP2 MSTORE PUSH1 0x40 DUP1 DUP4 KECCAK256 SWAP4 SWAP1 SWAP5 AND DUP3 MSTORE SWAP2 SWAP1 SWAP2 MSTORE KECCAK256 SLOAD SWAP1 JUMP JUMPDEST PUSH2 0x27B PUSH1 0xC SLOAD DUP2 JUMP JUMPDEST PUSH2 0x234 PUSH2 0x4CA CALLDATASIZE PUSH1 0x4 PUSH2 0x119F JUMP JUMPDEST PUSH2 0xCA1 JUMP JUMPDEST PUSH2 0x27B PUSH11 0x84595161401484A000000 DUP2 JUMP JUMPDEST PUSH2 0x27B PUSH11 0x108B2A2C28029094000000 DUP2 JUMP JUMPDEST PUSH2 0x27B PUSH1 0xB SLOAD DUP2 JUMP JUMPDEST PUSH2 0x504 PUSH2 0xCDC JUMP JUMPDEST PUSH11 0x108B2A2C28029094000000 DUP2 PUSH1 0xC SLOAD PUSH2 0x51E SWAP2 SWAP1 PUSH2 0x125E JUMP JUMPDEST GT ISZERO PUSH2 0x571 JUMPI PUSH1 0x40 MLOAD PUSH3 0x461BCD PUSH1 0xE5 SHL DUP2 MSTORE PUSH1 0x20 PUSH1 0x4 DUP3 ADD MSTORE PUSH1 0x17 PUSH1 0x24 DUP3 ADD MSTORE PUSH32 0x45786365656473207465616D20616C6C6F636174696F6E000000000000000000 PUSH1 0x44 DUP3 ADD MSTORE PUSH1 0x64 ADD JUMPDEST PUSH1 0x40 MLOAD DUP1 SWAP2 SUB SWAP1 REVERT JUMPDEST DUP1 PUSH1 0xC PUSH1 0x0 DUP3 DUP3 SLOAD PUSH2 0x583 SWAP2 SWAP1 PUSH2 0x125E JUMP JUMPDEST SWAP1 SWAP2 SSTORE POP POP PUSH1 0x8 SLOAD PUSH2 0x59E SWAP1 PUSH1 0x1 PUSH1 0x1 PUSH1 0xA0 SHL SUB AND DUP3 PUSH2 0xD09 JUMP JUMPDEST POP JUMP JUMPDEST PUSH1 0x60 PUSH1 0x3 DUP1 SLOAD PUSH2 0x5B0 SWAP1 PUSH2 0x1271 JUMP JUMPDEST DUP1 PUSH1 0x1F ADD PUSH1 0x20 DUP1 SWAP2 DIV MUL PUSH1 0x20 ADD PUSH1 0x40 MLOAD SWAP1 DUP2 ADD PUSH1 0x40 MSTORE DUP1 SWAP3 SWAP2 SWAP1 DUP2 DUP2 MSTORE PUSH1 0x20 ADD DUP3 DUP1 SLOAD PUSH2 0x5DC SWAP1 PUSH2 0x1271 JUMP JUMPDEST DUP1 ISZERO PUSH2 0x629 JUMPI DUP1 PUSH1 0x1F LT PUSH2 0x5FE JUMPI PUSH2 0x100 DUP1 DUP4 SLOAD DIV MUL DUP4 MSTORE SWAP2 PUSH1 0x20 ADD SWAP2 PUSH2 0x629 JUMP JUMPDEST DUP3 ADD SWAP2 SWAP1 PUSH1 0x0 MSTORE PUSH1 0x20 PUSH1 0x0 KECCAK256 SWAP1 JUMPDEST DUP2 SLOAD DUP2 MSTORE SWAP1 PUSH1 0x1 ADD SWAP1 PUSH1 0x20 ADD DUP1 DUP4 GT PUSH2 0x60C JUMPI DUP3 SWAP1 SUB PUSH1 0x1F AND DUP3 ADD SWAP2 JUMPDEST POP POP POP POP POP SWAP1 POP SWAP1 JUMP JUMPDEST PUSH1 0x0 CALLER PUSH2 0x641 DUP2 DUP6 DUP6 PUSH2 0xD3F JUMP JUMPDEST PUSH1 0x1 SWAP2 POP POP JUMPDEST SWAP3 SWAP2 POP POP JUMP JUMPDEST PUSH1 0x0 CALLER PUSH2 0x65B DUP6 DUP3 DUP6 PUSH2 0xD51 JUMP JUMPDEST PUSH2 0x666 DUP6 DUP6 DUP6 PUSH2 0xDD0 JUMP JUMPDEST POP PUSH1 0x1 SWAP5 SWAP4 POP POP POP POP JUMP JUMPDEST PUSH2 0x59E CALLER DUP3 PUSH2 0xE2F JUMP JUMPDEST PUSH2 0x683 PUSH2 0xCDC JUMP JUMPDEST PUSH1 0x0 PUSH1 0xA SLOAD PUSH11 0x2116545850052128000000 PUSH2 0x69E SWAP2 SWAP1 PUSH2 0x12AB JUMP JUMPDEST SWAP1 POP DUP1 DUP3 GT PUSH2 0x6CE JUMPI DUP2 PUSH1 0xA PUSH1 0x0 DUP3 DUP3 SLOAD PUSH2 0x6B9 SWAP2 SWAP1 PUSH2 0x125E JUMP JUMPDEST SWAP1 SWAP2 SSTORE POP PUSH2 0x6C9 SWAP1 POP DUP4 DUP4 PUSH2 0xD09 JUMP JUMPDEST PUSH2 0x825 JUMP JUMPDEST DUP1 ISZERO PUSH2 0x775 JUMPI PUSH1 0x0 PUSH2 0x6E0 DUP3 DUP5 PUSH2 0x12AB JUMP JUMPDEST SWAP1 POP PUSH1 0xE SLOAD DUP2 GT ISZERO PUSH2 0x734 JUMPI PUSH1 0x40 MLOAD PUSH3 0x461BCD PUSH1 0xE5 SHL DUP2 MSTORE PUSH1 0x20 PUSH1 0x4 DUP3 ADD MSTORE PUSH1 0x18 PUSH1 0x24 DUP3 ADD MSTORE PUSH32 0x4578636565647320617661696C61626C6520746F6B656E730000000000000000 PUSH1 0x44 DUP3 ADD MSTORE PUSH1 0x64 ADD PUSH2 0x568 JUMP JUMPDEST DUP2 PUSH1 0xA PUSH1 0x0 DUP3 DUP3 SLOAD PUSH2 0x746 SWAP2 SWAP1 PUSH2 0x125E JUMP JUMPDEST SWAP3 POP POP DUP2 SWAP1 SSTORE POP DUP1 PUSH1 0xE PUSH1 0x0 DUP3 DUP3 SLOAD PUSH2 0x75F SWAP2 SWAP1 PUSH2 0x12AB JUMP JUMPDEST SWAP1 SWAP2 SSTORE POP PUSH2 0x76F SWAP1 POP DUP5 DUP5 PUSH2 0xD09 JUMP JUMPDEST POP PUSH2 0x825 JUMP JUMPDEST PUSH1 0xE SLOAD DUP3 GT ISZERO PUSH2 0x7BF JUMPI PUSH1 0x40 MLOAD PUSH3 0x461BCD PUSH1 0xE5 SHL DUP2 MSTORE PUSH1 0x20 PUSH1 0x4 DUP3 ADD MSTORE PUSH1 0x15 PUSH1 0x24 DUP3 ADD MSTORE PUSH21 0x115E18D959591CC81C9958DE58DB1959081C1BDBDB PUSH1 0x5A SHL PUSH1 0x44 DUP3 ADD MSTORE PUSH1 0x64 ADD PUSH2 0x568 JUMP JUMPDEST DUP2 PUSH1 0xE PUSH1 0x0 DUP3 DUP3 SLOAD PUSH2 0x7D1 SWAP2 SWAP1 PUSH2 0x12AB JUMP JUMPDEST SWAP1 SWAP2 SSTORE POP PUSH2 0x7E1 SWAP1 POP DUP4 DUP4 PUSH2 0xD09 JUMP JUMPDEST DUP3 PUSH1 0x1 PUSH1 0x1 PUSH1 0xA0 SHL SUB AND PUSH32 0xB714A8B7F98707B9BF018AF7B9B4046BA6D537DD0694FB09331EE3343DD60D73 DUP4 PUSH1 0x40 MLOAD PUSH2 0x81C SWAP2 DUP2 MSTORE PUSH1 0x20 ADD SWAP1 JUMP JUMPDEST PUSH1 0x40 MLOAD DUP1 SWAP2 SUB SWAP1 LOG2 JUMPDEST DUP3 PUSH1 0x1 PUSH1 0x1 PUSH1 0xA0 SHL SUB AND PUSH32 0x3A832159051A6DB655623C10D4EC98D67945B02B49CA3B5D2E65656570A095D6 DUP4 PUSH1 0x40 MLOAD PUSH2 0x860 SWAP2 DUP2 MSTORE PUSH1 0x20 ADD SWAP1 JUMP JUMPDEST PUSH1 0x40 MLOAD DUP1 SWAP2 SUB SWAP1 LOG2 POP POP POP JUMP JUMPDEST PUSH1 0x0 DUP1 PUSH1 0x0 DUP1 PUSH1 0x0 PUSH1 0xA SLOAD PUSH11 0x2116545850052128000000 PUSH2 0x88E SWAP2 SWAP1 PUSH2 0x12AB JUMP JUMPDEST PUSH1 0xB SLOAD PUSH2 0x8A6 SWAP1 PUSH11 0x18D0BF423C03D8DE000000 PUSH2 0x12AB JUMP JUMPDEST PUSH1 0xC SLOAD PUSH2 0x8BE SWAP1 PUSH11 0x108B2A2C28029094000000 PUSH2 0x12AB JUMP JUMPDEST PUSH1 0xD SLOAD PUSH2 0x8D6 SWAP1 PUSH11 0x84595161401484A000000 PUSH2 0x12AB JUMP JUMPDEST PUSH1 0xE SLOAD SWAP5 POP SWAP5 POP SWAP5 POP SWAP5 POP SWAP5 POP SWAP1 SWAP2 SWAP3 SWAP4 SWAP5 JUMP JUMPDEST PUSH2 0x8F2 PUSH2 0xCDC JUMP JUMPDEST PUSH2 0x8FC PUSH1 0x0 PUSH2 0xE65 JUMP JUMPDEST JUMP JUMPDEST PUSH2 0x906 PUSH2 0xCDC JUMP JUMPDEST PUSH1 0x1 PUSH1 0x1 PUSH1 0xA0 SHL SUB DUP5 AND ISZERO PUSH2 0x931 JUMPI PUSH1 0x6 DUP1 SLOAD PUSH1 0x1 PUSH1 0x1 PUSH1 0xA0 SHL SUB NOT AND PUSH1 0x1 PUSH1 0x1 PUSH1 0xA0 SHL SUB DUP7 AND OR SWAP1 SSTORE JUMPDEST PUSH1 0x1 PUSH1 0x1 PUSH1 0xA0 SHL SUB DUP4 AND ISZERO PUSH2 0x95C JUMPI PUSH1 0x7 DUP1 SLOAD PUSH1 0x1 PUSH1 0x1 PUSH1 0xA0 SHL SUB NOT AND PUSH1 0x1 PUSH1 0x1 PUSH1 0xA0 SHL SUB DUP6 AND OR SWAP1 SSTORE JUMPDEST PUSH1 0x1 PUSH1 0x1 PUSH1 0xA0 SHL SUB DUP3 AND ISZERO PUSH2 0x987 JUMPI PUSH1 0x8 DUP1 SLOAD PUSH1 0x1 PUSH1 0x1 PUSH1 0xA0 SHL SUB NOT AND PUSH1 0x1 PUSH1 0x1 PUSH1 0xA0 SHL SUB DUP5 AND OR SWAP1 SSTORE JUMPDEST PUSH1 0x1 PUSH1 0x1 PUSH1 0xA0 SHL SUB DUP2 AND ISZERO PUSH2 0x9B2 JUMPI PUSH1 0x9 DUP1 SLOAD PUSH1 0x1 PUSH1 0x1 PUSH1 0xA0 SHL SUB NOT AND PUSH1 0x1 PUSH1 0x1 PUSH1 0xA0 SHL SUB DUP4 AND OR SWAP1 SSTORE JUMPDEST PUSH1 0x6 SLOAD PUSH1 0x7 SLOAD PUSH1 0x8 SLOAD PUSH1 0x9 SLOAD PUSH1 0x40 DUP1 MLOAD PUSH1 0x1 PUSH1 0x1 PUSH1 0xA0 SHL SUB SWAP6 DUP7 AND DUP2 MSTORE SWAP4 DUP6 AND PUSH1 0x20 DUP6 ADD MSTORE SWAP2 DUP5 AND DUP4 DUP4 ADD MSTORE SWAP3 SWAP1 SWAP3 AND PUSH1 0x60 DUP3 ADD MSTORE SWAP1 MLOAD PUSH32 0x213F1DE8063C19612A553F1480FF341BEA689D36A56A2089F1B9060D599B5D83 SWAP2 DUP2 SWAP1 SUB PUSH1 0x80 ADD SWAP1 LOG1 POP POP POP POP JUMP JUMPDEST PUSH2 0xA24 DUP3 CALLER DUP4 PUSH2 0xD51 JUMP JUMPDEST PUSH2 0xA2E DUP3 DUP3 PUSH2 0xE2F JUMP JUMPDEST POP POP JUMP JUMPDEST PUSH1 0x0 PUSH1 0xE SLOAD PUSH1 0xA SLOAD PUSH11 0x2116545850052128000000 PUSH2 0xA50 SWAP2 SWAP1 PUSH2 0x12AB JUMP JUMPDEST PUSH2 0xA5A SWAP2 SWAP1 PUSH2 0x125E JUMP JUMPDEST SWAP1 POP SWAP1 JUMP JUMPDEST CALLER PUSH1 0x0 SWAP1 DUP2 MSTORE PUSH1 0x20 DUP2 SWAP1 MSTORE PUSH1 0x40 SWAP1 KECCAK256 SLOAD DUP2 GT ISZERO PUSH2 0xAB5 JUMPI PUSH1 0x40 MLOAD PUSH3 0x461BCD PUSH1 0xE5 SHL DUP2 MSTORE PUSH1 0x20 PUSH1 0x4 DUP3 ADD MSTORE PUSH1 0x14 PUSH1 0x24 DUP3 ADD MSTORE PUSH20 0x496E73756666696369656E742062616C616E6365 PUSH1 0x60 SHL PUSH1 0x44 DUP3 ADD MSTORE PUSH1 0x64 ADD PUSH2 0x568 JUMP JUMPDEST PUSH2 0xABF CALLER DUP3 PUSH2 0xE2F JUMP JUMPDEST DUP1 PUSH1 0xE PUSH1 0x0 DUP3 DUP3 SLOAD PUSH2 0xAD1 SWAP2 SWAP1 PUSH2 0x125E JUMP JUMPDEST SWAP1 SWAP2 SSTORE POP POP PUSH1 0x40 MLOAD DUP2 DUP2 MSTORE CALLER SWAP1 PUSH32 0xF96D6E509A648068872AAC2B546928B99982C26C6B2BB7AF4AF8CC10FDFCFC7B SWAP1 PUSH1 0x20 ADD PUSH1 0x40 MLOAD DUP1 SWAP2 SUB SWAP1 LOG2 POP JUMP JUMPDEST PUSH1 0x60 PUSH1 0x4 DUP1 SLOAD PUSH2 0x5B0 SWAP1 PUSH2 0x1271 JUMP JUMPDEST PUSH2 0xB25 PUSH2 0xCDC JUMP JUMPDEST DUP1 PUSH2 0xB45 DUP4 PUSH1 0x1 PUSH1 0x1 PUSH1 0xA0 SHL SUB AND PUSH1 0x0 SWAP1 DUP2 MSTORE PUSH1 0x20 DUP2 SWAP1 MSTORE PUSH1 0x40 SWAP1 KECCAK256 SLOAD SWAP1 JUMP JUMPDEST LT ISZERO PUSH2 0xB93 JUMPI PUSH1 0x40 MLOAD PUSH3 0x461BCD PUSH1 0xE5 SHL DUP2 MSTORE PUSH1 0x20 PUSH1 0x4 DUP3 ADD MSTORE PUSH1 0x1C PUSH1 0x24 DUP3 ADD MSTORE PUSH32 0x496E73756666696369656E742062616C616E636520696E2073686F7000000000 PUSH1 0x44 DUP3 ADD MSTORE PUSH1 0x64 ADD PUSH2 0x568 JUMP JUMPDEST PUSH2 0xB9D DUP3 DUP3 PUSH2 0xE2F JUMP JUMPDEST DUP1 PUSH1 0xE PUSH1 0x0 DUP3 DUP3 SLOAD PUSH2 0xBAF SWAP2 SWAP1 PUSH2 0x125E JUMP JUMPDEST SWAP1 SWAP2 SSTORE POP POP PUSH1 0x40 MLOAD DUP2 DUP2 MSTORE PUSH1 0x1 PUSH1 0x1 PUSH1 0xA0 SHL SUB DUP4 AND SWAP1 PUSH32 0xF96D6E509A648068872AAC2B546928B99982C26C6B2BB7AF4AF8CC10FDFCFC7B SWAP1 PUSH1 0x20 ADD PUSH1 0x40 MLOAD DUP1 SWAP2 SUB SWAP1 LOG2 POP POP JUMP JUMPDEST PUSH2 0xBFE PUSH2 0xCDC JUMP JUMPDEST PUSH11 0x18D0BF423C03D8DE000000 DUP2 PUSH1 0xB SLOAD PUSH2 0xC18 SWAP2 SWAP1 PUSH2 0x125E JUMP JUMPDEST GT ISZERO PUSH2 0xC66 JUMPI PUSH1 0x40 MLOAD PUSH3 0x461BCD PUSH1 0xE5 SHL DUP2 MSTORE PUSH1 0x20 PUSH1 0x4 DUP3 ADD MSTORE PUSH1 0x1B PUSH1 0x24 DUP3 ADD MSTORE PUSH32 0x4578636565647320747265617375727920616C6C6F636174696F6E0000000000 PUSH1 0x44 DUP3 ADD MSTORE PUSH1 0x64 ADD PUSH2 0x568 JUMP JUMPDEST DUP1 PUSH1 0xB PUSH1 0x0 DUP3 DUP3 SLOAD PUSH2 0xC78 SWAP2 SWAP1 PUSH2 0x125E JUMP JUMPDEST SWAP1 SWAP2 SSTORE POP POP PUSH1 0x7 SLOAD PUSH2 0x59E SWAP1 PUSH1 0x1 PUSH1 0x1 PUSH1 0xA0 SHL SUB AND DUP3 PUSH2 0xD09 JUMP JUMPDEST PUSH1 0x0 CALLER PUSH2 0x641 DUP2 DUP6 DUP6 PUSH2 0xDD0 JUMP JUMPDEST PUSH2 0xCA9 PUSH2 0xCDC JUMP JUMPDEST PUSH1 0x1 PUSH1 0x1 PUSH1 0xA0 SHL SUB DUP2 AND PUSH2 0xCD3 JUMPI PUSH1 0x40 MLOAD PUSH4 0x1E4FBDF7 PUSH1 0xE0 SHL DUP2 MSTORE PUSH1 0x0 PUSH1 0x4 DUP3 ADD MSTORE PUSH1 0x24 ADD PUSH2 0x568 JUMP JUMPDEST PUSH2 0x59E DUP2 PUSH2 0xE65 JUMP JUMPDEST PUSH1 0x5 SLOAD PUSH1 0x1 PUSH1 0x1 PUSH1 0xA0 SHL SUB AND CALLER EQ PUSH2 0x8FC JUMPI PUSH1 0x40 MLOAD PUSH4 0x118CDAA7 PUSH1 0xE0 SHL DUP2 MSTORE CALLER PUSH1 0x4 DUP3 ADD MSTORE PUSH1 0x24 ADD PUSH2 0x568 JUMP JUMPDEST PUSH1 0x1 PUSH1 0x1 PUSH1 0xA0 SHL SUB DUP3 AND PUSH2 0xD33 JUMPI PUSH1 0x40 MLOAD PUSH4 0xEC442F05 PUSH1 0xE0 SHL DUP2 MSTORE PUSH1 0x0 PUSH1 0x4 DUP3 ADD MSTORE PUSH1 0x24 ADD PUSH2 0x568 JUMP JUMPDEST PUSH2 0xA2E PUSH1 0x0 DUP4 DUP4 PUSH2 0xEB7 JUMP JUMPDEST PUSH2 0xD4C DUP4 DUP4 DUP4 PUSH1 0x1 PUSH2 0xFE1 JUMP JUMPDEST POP POP POP JUMP JUMPDEST PUSH1 0x1 PUSH1 0x1 PUSH1 0xA0 SHL SUB DUP4 DUP2 AND PUSH1 0x0 SWAP1 DUP2 MSTORE PUSH1 0x1 PUSH1 0x20 SWAP1 DUP2 MSTORE PUSH1 0x40 DUP1 DUP4 KECCAK256 SWAP4 DUP7 AND DUP4 MSTORE SWAP3 SWAP1 MSTORE KECCAK256 SLOAD PUSH1 0x0 NOT DUP2 LT ISZERO PUSH2 0xDCA JUMPI DUP2 DUP2 LT ISZERO PUSH2 0xDBB JUMPI PUSH1 0x40 MLOAD PUSH4 0x7DC7A0D9 PUSH1 0xE1 SHL DUP2 MSTORE PUSH1 0x1 PUSH1 0x1 PUSH1 0xA0 SHL SUB DUP5 AND PUSH1 0x4 DUP3 ADD MSTORE PUSH1 0x24 DUP2 ADD DUP3 SWAP1 MSTORE PUSH1 0x44 DUP2 ADD DUP4 SWAP1 MSTORE PUSH1 0x64 ADD PUSH2 0x568 JUMP JUMPDEST PUSH2 0xDCA DUP5 DUP5 DUP5 DUP5 SUB PUSH1 0x0 PUSH2 0xFE1 JUMP JUMPDEST POP POP POP POP JUMP JUMPDEST PUSH1 0x1 PUSH1 0x1 PUSH1 0xA0 SHL SUB DUP4 AND PUSH2 0xDFA JUMPI PUSH1 0x40 MLOAD PUSH4 0x4B637E8F PUSH1 0xE1 SHL DUP2 MSTORE PUSH1 0x0 PUSH1 0x4 DUP3 ADD MSTORE PUSH1 0x24 ADD PUSH2 0x568 JUMP JUMPDEST PUSH1 0x1 PUSH1 0x1 PUSH1 0xA0 SHL SUB DUP3 AND PUSH2 0xE24 JUMPI PUSH1 0x40 MLOAD PUSH4 0xEC442F05 PUSH1 0xE0 SHL DUP2 MSTORE PUSH1 0x0 PUSH1 0x4 DUP3 ADD MSTORE PUSH1 0x24 ADD PUSH2 0x568 JUMP JUMPDEST PUSH2 0xD4C DUP4 DUP4 DUP4 PUSH2 0xEB7 JUMP JUMPDEST PUSH1 0x1 PUSH1 0x1 PUSH1 0xA0 SHL SUB DUP3 AND PUSH2 0xE59 JUMPI PUSH1 0x40 MLOAD PUSH4 0x4B637E8F PUSH1 0xE1 SHL DUP2 MSTORE PUSH1 0x0 PUSH1 0x4 DUP3 ADD MSTORE PUSH1 0x24 ADD PUSH2 0x568 JUMP JUMPDEST PUSH2 0xA2E DUP3 PUSH1 0x0 DUP4 PUSH2 0xEB7 JUMP JUMPDEST PUSH1 0x5 DUP1 SLOAD PUSH1 0x1 PUSH1 0x1 PUSH1 0xA0 SHL SUB DUP4 DUP2 AND PUSH1 0x1 PUSH1 0x1 PUSH1 0xA0 SHL SUB NOT DUP4 AND DUP2 OR SWAP1 SWAP4 SSTORE PUSH1 0x40 MLOAD SWAP2 AND SWAP2 SWAP1 DUP3 SWAP1 PUSH32 0x8BE0079C531659141344CD1FD0A4F28419497F9722A3DAAFE3B4186F6B6457E0 SWAP1 PUSH1 0x0 SWAP1 LOG3 POP POP JUMP JUMPDEST PUSH1 0x1 PUSH1 0x1 PUSH1 0xA0 SHL SUB DUP4 AND PUSH2 0xEE2 JUMPI DUP1 PUSH1 0x2 PUSH1 0x0 DUP3 DUP3 SLOAD PUSH2 0xED7 SWAP2 SWAP1 PUSH2 0x125E JUMP JUMPDEST SWAP1 SWAP2 SSTORE POP PUSH2 0xF54 SWAP1 POP JUMP JUMPDEST PUSH1 0x1 PUSH1 0x1 PUSH1 0xA0 SHL SUB DUP4 AND PUSH1 0x0 SWAP1 DUP2 MSTORE PUSH1 0x20 DUP2 SWAP1 MSTORE PUSH1 0x40 SWAP1 KECCAK256 SLOAD DUP2 DUP2 LT ISZERO PUSH2 0xF35 JUMPI PUSH1 0x40 MLOAD PUSH4 0x391434E3 PUSH1 0xE2 SHL DUP2 MSTORE PUSH1 0x1 PUSH1 0x1 PUSH1 0xA0 SHL SUB DUP6 AND PUSH1 0x4 DUP3 ADD MSTORE PUSH1 0x24 DUP2 ADD DUP3 SWAP1 MSTORE PUSH1 0x44 DUP2 ADD DUP4 SWAP1 MSTORE PUSH1 0x64 ADD PUSH2 0x568 JUMP JUMPDEST PUSH1 0x1 PUSH1 0x1 PUSH1 0xA0 SHL SUB DUP5 AND PUSH1 0x0 SWAP1 DUP2 MSTORE PUSH1 0x20 DUP2 SWAP1 MSTORE PUSH1 0x40 SWAP1 KECCAK256 SWAP1 DUP3 SWAP1 SUB SWAP1 SSTORE JUMPDEST PUSH1 0x1 PUSH1 0x1 PUSH1 0xA0 SHL SUB DUP3 AND PUSH2 0xF70 JUMPI PUSH1 0x2 DUP1 SLOAD DUP3 SWAP1 SUB SWAP1 SSTORE PUSH2 0xF8F JUMP JUMPDEST PUSH1 0x1 PUSH1 0x1 PUSH1 0xA0 SHL SUB DUP3 AND PUSH1 0x0 SWAP1 DUP2 MSTORE PUSH1 0x20 DUP2 SWAP1 MSTORE PUSH1 0x40 SWAP1 KECCAK256 DUP1 SLOAD DUP3 ADD SWAP1 SSTORE JUMPDEST DUP2 PUSH1 0x1 PUSH1 0x1 PUSH1 0xA0 SHL SUB AND DUP4 PUSH1 0x1 PUSH1 0x1 PUSH1 0xA0 SHL SUB AND PUSH32 0xDDF252AD1BE2C89B69C2B068FC378DAA952BA7F163C4A11628F55A4DF523B3EF DUP4 PUSH1 0x40 MLOAD PUSH2 0xFD4 SWAP2 DUP2 MSTORE PUSH1 0x20 ADD SWAP1 JUMP JUMPDEST PUSH1 0x40 MLOAD DUP1 SWAP2 SUB SWAP1 LOG3 POP POP POP JUMP JUMPDEST PUSH1 0x1 PUSH1 0x1 PUSH1 0xA0 SHL SUB DUP5 AND PUSH2 0x100B JUMPI PUSH1 0x40 MLOAD PUSH4 0xE602DF05 PUSH1 0xE0 SHL DUP2 MSTORE PUSH1 0x0 PUSH1 0x4 DUP3 ADD MSTORE PUSH1 0x24 ADD PUSH2 0x568 JUMP JUMPDEST PUSH1 0x1 PUSH1 0x1 PUSH1 0xA0 SHL SUB DUP4 AND PUSH2 0x1035 JUMPI PUSH1 0x40 MLOAD PUSH4 0x4A1406B1 PUSH1 0xE1 SHL DUP2 MSTORE PUSH1 0x0 PUSH1 0x4 DUP3 ADD MSTORE PUSH1 0x24 ADD PUSH2 0x568 JUMP JUMPDEST PUSH1 0x1 PUSH1 0x1 PUSH1 0xA0 SHL SUB DUP1 DUP6 AND PUSH1 0x0 SWAP1 DUP2 MSTORE PUSH1 0x1 PUSH1 0x20 SWAP1 DUP2 MSTORE PUSH1 0x40 DUP1 DUP4 KECCAK256 SWAP4 DUP8 AND DUP4 MSTORE SWAP3 SWAP1 MSTORE KECCAK256 DUP3 SWAP1 SSTORE DUP1 ISZERO PUSH2 0xDCA JUMPI DUP3 PUSH1 0x1 PUSH1 0x1 PUSH1 0xA0 SHL SUB AND DUP5 PUSH1 0x1 PUSH1 0x1 PUSH1 0xA0 SHL SUB AND PUSH32 0x8C5BE1E5EBEC7D5BD14F71427D1E84F3DD0314C0F7B2291E5B200AC8C7C3B925 DUP5 PUSH1 0x40 MLOAD PUSH2 0x10A8 SWAP2 DUP2 MSTORE PUSH1 0x20 ADD SWAP1 JUMP JUMPDEST PUSH1 0x40 MLOAD DUP1 SWAP2 SUB SWAP1 LOG3 POP POP POP POP JUMP JUMPDEST PUSH1 0x0 PUSH1 0x20 DUP3 DUP5 SUB SLT ISZERO PUSH2 0x10C8 JUMPI PUSH1 0x0 DUP1 REVERT JUMPDEST POP CALLDATALOAD SWAP2 SWAP1 POP JUMP JUMPDEST PUSH1 0x0 PUSH1 0x20 DUP1 DUP4 MSTORE DUP4 MLOAD DUP1 DUP3 DUP6 ADD MSTORE PUSH1 0x0 JUMPDEST DUP2 DUP2 LT ISZERO PUSH2 0x10FC JUMPI DUP6 DUP2 ADD DUP4 ADD MLOAD DUP6 DUP3 ADD PUSH1 0x40 ADD MSTORE DUP3 ADD PUSH2 0x10E0 JUMP JUMPDEST POP PUSH1 0x0 PUSH1 0x40 DUP3 DUP7 ADD ADD MSTORE PUSH1 0x40 PUSH1 0x1F NOT PUSH1 0x1F DUP4 ADD AND DUP6 ADD ADD SWAP3 POP POP POP SWAP3 SWAP2 POP POP JUMP JUMPDEST DUP1 CALLDATALOAD PUSH1 0x1 PUSH1 0x1 PUSH1 0xA0 SHL SUB DUP2 AND DUP2 EQ PUSH2 0x1134 JUMPI PUSH1 0x0 DUP1 REVERT JUMPDEST SWAP2 SWAP1 POP JUMP JUMPDEST PUSH1 0x0 DUP1 PUSH1 0x40 DUP4 DUP6 SUB SLT ISZERO PUSH2 0x114C JUMPI PUSH1 0x0 DUP1 REVERT JUMPDEST PUSH2 0x1155 DUP4 PUSH2 0x111D JUMP JUMPDEST SWAP5 PUSH1 0x20 SWAP4 SWAP1 SWAP4 ADD CALLDATALOAD SWAP4 POP POP POP JUMP JUMPDEST PUSH1 0x0 DUP1 PUSH1 0x0 PUSH1 0x60 DUP5 DUP7 SUB SLT ISZERO PUSH2 0x1178 JUMPI PUSH1 0x0 DUP1 REVERT JUMPDEST PUSH2 0x1181 DUP5 PUSH2 0x111D JUMP JUMPDEST SWAP3 POP PUSH2 0x118F PUSH1 0x20 DUP6 ADD PUSH2 0x111D JUMP JUMPDEST SWAP2 POP PUSH1 0x40 DUP5 ADD CALLDATALOAD SWAP1 POP SWAP3 POP SWAP3 POP SWAP3 JUMP JUMPDEST PUSH1 0x0 PUSH1 0x20 DUP3 DUP5 SUB SLT ISZERO PUSH2 0x11B1 JUMPI PUSH1 0x0 DUP1 REVERT JUMPDEST PUSH2 0x11BA DUP3 PUSH2 0x111D JUMP JUMPDEST SWAP4 SWAP3 POP POP POP JUMP JUMPDEST PUSH1 0x0 DUP1 PUSH1 0x0 DUP1 PUSH1 0x80 DUP6 DUP8 SUB SLT ISZERO PUSH2 0x11D7 JUMPI PUSH1 0x0 DUP1 REVERT JUMPDEST PUSH2 0x11E0 DUP6 PUSH2 0x111D JUMP JUMPDEST SWAP4 POP PUSH2 0x11EE PUSH1 0x20 DUP7 ADD PUSH2 0x111D JUMP JUMPDEST SWAP3 POP PUSH2 0x11FC PUSH1 0x40 DUP7 ADD PUSH2 0x111D JUMP JUMPDEST SWAP2 POP PUSH2 0x120A PUSH1 0x60 DUP7 ADD PUSH2 0x111D JUMP JUMPDEST SWAP1 POP SWAP3 SWAP6 SWAP2 SWAP5 POP SWAP3 POP JUMP JUMPDEST PUSH1 0x0 DUP1 PUSH1 0x40 DUP4 DUP6 SUB SLT ISZERO PUSH2 0x1228 JUMPI PUSH1 0x0 DUP1 REVERT JUMPDEST PUSH2 0x1231 DUP4 PUSH2 0x111D JUMP JUMPDEST SWAP2 POP PUSH2 0x123F PUSH1 0x20 DUP5 ADD PUSH2 0x111D JUMP JUMPDEST SWAP1 POP SWAP3 POP SWAP3 SWAP1 POP JUMP JUMPDEST PUSH4 0x4E487B71 PUSH1 0xE0 SHL PUSH1 0x0 MSTORE PUSH1 0x11 PUSH1 0x4 MSTORE PUSH1 0x24 PUSH1 0x0 REVERT JUMPDEST DUP1 DUP3 ADD DUP1 DUP3 GT ISZERO PUSH2 0x647 JUMPI PUSH2 0x647 PUSH2 0x1248 JUMP JUMPDEST PUSH1 0x1 DUP2 DUP2 SHR SWAP1 DUP3 AND DUP1 PUSH2 0x1285 JUMPI PUSH1 0x7F DUP3 AND SWAP2 POP JUMPDEST PUSH1 0x20 DUP3 LT DUP2 SUB PUSH2 0x12A5 JUMPI PUSH4 0x4E487B71 PUSH1 0xE0 SHL PUSH1 0x0 MSTORE PUSH1 0x22 PUSH1 0x4 MSTORE PUSH1 0x24 PUSH1 0x0 REVERT JUMPDEST POP SWAP2 SWAP1 POP JUMP JUMPDEST DUP2 DUP2 SUB DUP2 DUP2 GT ISZERO PUSH2 0x647 JUMPI PUSH2 0x647 PUSH2 0x1248 JUMP INVALID LOG2 PUSH5 0x6970667358 0x22 SLT KECCAK256 JUMPDEST 0xF9 SWAP9 0xBF EXTCODESIZE MULMOD PUSH30 0xA0EB60C319C0F5B503944EDA5245B03F683AA5BEEDC1139BA764736F6C63 NUMBER STOP ADDMOD EQ STOP CALLER "},"methodIdentifiers":{"COMMUNITY_ALLOCATION()":"993eb1c5","LIQUIDITY_ALLOCATION()":"f9428f38","MAX_SUPPLY()":"32cb6b0c","TEAM_ALLOCATION()":"fd99cbed","TREASURY_ALLOCATION()":"bf1ad7e0","allowance(address,address)":"dd62ed3e","approve(address,uint256)":"095ea7b3","balanceOf(address)":"70a08231","burn(uint256)":"42966c68","burnFrom(address,uint256)":"79cc6790","communityMinted()":"d9c5b0d3","communityRewardsWallet()":"2fcbb5a2","decimals()":"313ce567","getAvailableForRewards()":"7eb917b8","getRemainingAllocations()":"5adca659","liquidityMinted()":"8eab0751","liquidityWallet()":"d4698016","mintCommunityRewards(address,uint256)":"4b19eff5","mintToTeam(uint256)":"01dc2e45","mintToTreasury(uint256)":"a65948a3","name()":"06fdde03","owner()":"8da5cb5b","recycleFromShop(address,uint256)":"98c2e98f","recycleTokens(uint256)":"81ac3bee","recycledPool()":"d042959e","renounceOwnership()":"715018a6","symbol()":"95d89b41","teamMinted()":"e8b5498d","teamWallet()":"59927044","totalSupply()":"18160ddd","transfer(address,uint256)":"a9059cbb","transferFrom(address,address,uint256)":"23b872dd","transferOwnership(address)":"f2fde38b","treasuryMinted()":"fdd0f3ca","treasuryWallet()":"4626402b","updateWallets(address,address,address,address)":"743e540d"}}}}}