{
  "_format": "hh-sol-artifact-1",
  "contractName": "SAFEStaking",
  "sourceName": "contracts/SAFEStaking.sol",
  "abi": [
    {
      "inputs": [
        {
          "internalType": "address",
          "name": "_safeToken",
          "type": "address"
        }
      ],
      "stateMutability": "nonpayable",
      "type": "constructor"
    },
    {
      "inputs": [
        {
          "internalType": "address",
          "name": "owner",
          "type": "address"
        }
      ],
      "name": "OwnableInvalidOwner",
      "type": "error"
    },
    {
      "inputs": [
        {
          "internalType": "address",
          "name": "account",
          "type": "address"
        }
      ],
      "name": "OwnableUnauthorizedAccount",
      "type": "error"
    },
    {
      "inputs": [],
      "name": "ReentrancyGuardReentrantCall",
      "type": "error"
    },
    {
      "inputs": [
        {
          "internalType": "address",
          "name": "token",
          "type": "address"
        }
      ],
      "name": "SafeERC20FailedOperation",
      "type": "error"
    },
    {
      "anonymous": false,
      "inputs": [
        {
          "indexed": true,
          "internalType": "address",
          "name": "previousOwner",
          "type": "address"
        },
        {
          "indexed": true,
          "internalType": "address",
          "name": "newOwner",
          "type": "address"
        }
      ],
      "name": "OwnershipTransferred",
      "type": "event"
    },
    {
      "anonymous": false,
      "inputs": [
        {
          "indexed": true,
          "internalType": "address",
          "name": "user",
          "type": "address"
        },
        {
          "indexed": false,
          "internalType": "uint256",
          "name": "amount",
          "type": "uint256"
        },
        {
          "indexed": false,
          "internalType": "uint256",
          "name": "totalUserStaked",
          "type": "uint256"
        }
      ],
      "name": "Staked",
      "type": "event"
    },
    {
      "anonymous": false,
      "inputs": [
        {
          "indexed": true,
          "internalType": "address",
          "name": "user",
          "type": "address"
        },
        {
          "indexed": false,
          "internalType": "uint8",
          "name": "newTier",
          "type": "uint8"
        }
      ],
      "name": "TierChanged",
      "type": "event"
    },
    {
      "anonymous": false,
      "inputs": [
        {
          "indexed": true,
          "internalType": "address",
          "name": "user",
          "type": "address"
        },
        {
          "indexed": false,
          "internalType": "uint256",
          "name": "amount",
          "type": "uint256"
        },
        {
          "indexed": false,
          "internalType": "uint256",
          "name": "unlockTime",
          "type": "uint256"
        }
      ],
      "name": "UnstakeRequested",
      "type": "event"
    },
    {
      "anonymous": false,
      "inputs": [
        {
          "indexed": true,
          "internalType": "address",
          "name": "user",
          "type": "address"
        },
        {
          "indexed": false,
          "internalType": "uint256",
          "name": "amount",
          "type": "uint256"
        }
      ],
      "name": "Withdrawn",
      "type": "event"
    },
    {
      "inputs": [],
      "name": "BRONZE_THRESHOLD",
      "outputs": [
        {
          "internalType": "uint256",
          "name": "",
          "type": "uint256"
        }
      ],
      "stateMutability": "view",
      "type": "function"
    },
    {
      "inputs": [],
      "name": "DIAMOND_THRESHOLD",
      "outputs": [
        {
          "internalType": "uint256",
          "name": "",
          "type": "uint256"
        }
      ],
      "stateMutability": "view",
      "type": "function"
    },
    {
      "inputs": [],
      "name": "GOLD_THRESHOLD",
      "outputs": [
        {
          "internalType": "uint256",
          "name": "",
          "type": "uint256"
        }
      ],
      "stateMutability": "view",
      "type": "function"
    },
    {
      "inputs": [],
      "name": "MIN_STAKE",
      "outputs": [
        {
          "internalType": "uint256",
          "name": "",
          "type": "uint256"
        }
      ],
      "stateMutability": "view",
      "type": "function"
    },
    {
      "inputs": [],
      "name": "PLATINUM_THRESHOLD",
      "outputs": [
        {
          "internalType": "uint256",
          "name": "",
          "type": "uint256"
        }
      ],
      "stateMutability": "view",
      "type": "function"
    },
    {
      "inputs": [],
      "name": "SILVER_THRESHOLD",
      "outputs": [
        {
          "internalType": "uint256",
          "name": "",
          "type": "uint256"
        }
      ],
      "stateMutability": "view",
      "type": "function"
    },
    {
      "inputs": [],
      "name": "UNSTAKE_COOLDOWN",
      "outputs": [
        {
          "internalType": "uint256",
          "name": "",
          "type": "uint256"
        }
      ],
      "stateMutability": "view",
      "type": "function"
    },
    {
      "inputs": [
        {
          "internalType": "address",
          "name": "user",
          "type": "address"
        }
      ],
      "name": "getTier",
      "outputs": [
        {
          "internalType": "uint8",
          "name": "",
          "type": "uint8"
        }
      ],
      "stateMutability": "view",
      "type": "function"
    },
    {
      "inputs": [
        {
          "internalType": "address",
          "name": "user",
          "type": "address"
        }
      ],
      "name": "getUnstakeRequests",
      "outputs": [
        {
          "components": [
            {
              "internalType": "uint256",
              "name": "amount",
              "type": "uint256"
            },
            {
              "internalType": "uint256",
              "name": "unlockTime",
              "type": "uint256"
            }
          ],
          "internalType": "struct SAFEStaking.UnstakeRequest[]",
          "name": "",
          "type": "tuple[]"
        }
      ],
      "stateMutability": "view",
      "type": "function"
    },
    {
      "inputs": [
        {
          "internalType": "address",
          "name": "user",
          "type": "address"
        }
      ],
      "name": "getUserStakes",
      "outputs": [
        {
          "components": [
            {
              "internalType": "uint256",
              "name": "amount",
              "type": "uint256"
            },
            {
              "internalType": "uint256",
              "name": "stakedAt",
              "type": "uint256"
            }
          ],
          "internalType": "struct SAFEStaking.StakeInfo[]",
          "name": "",
          "type": "tuple[]"
        }
      ],
      "stateMutability": "view",
      "type": "function"
    },
    {
      "inputs": [
        {
          "internalType": "address",
          "name": "user",
          "type": "address"
        }
      ],
      "name": "getUserSummary",
      "outputs": [
        {
          "internalType": "uint256",
          "name": "stakedAmount",
          "type": "uint256"
        },
        {
          "internalType": "uint8",
          "name": "tier",
          "type": "uint8"
        },
        {
          "internalType": "uint256",
          "name": "stakeCount",
          "type": "uint256"
        }
      ],
      "stateMutability": "view",
      "type": "function"
    },
    {
      "inputs": [],
      "name": "owner",
      "outputs": [
        {
          "internalType": "address",
          "name": "",
          "type": "address"
        }
      ],
      "stateMutability": "view",
      "type": "function"
    },
    {
      "inputs": [],
      "name": "renounceOwnership",
      "outputs": [],
      "stateMutability": "nonpayable",
      "type": "function"
    },
    {
      "inputs": [
        {
          "internalType": "uint256",
          "name": "stakeIndex",
          "type": "uint256"
        }
      ],
      "name": "requestUnstake",
      "outputs": [],
      "stateMutability": "nonpayable",
      "type": "function"
    },
    {
      "inputs": [],
      "name": "safeToken",
      "outputs": [
        {
          "internalType": "contract IERC20",
          "name": "",
          "type": "address"
        }
      ],
      "stateMutability": "view",
      "type": "function"
    },
    {
      "inputs": [
        {
          "internalType": "uint256",
          "name": "amount",
          "type": "uint256"
        }
      ],
      "name": "stake",
      "outputs": [],
      "stateMutability": "nonpayable",
      "type": "function"
    },
    {
      "inputs": [],
      "name": "totalStaked",
      "outputs": [
        {
          "internalType": "uint256",
          "name": "",
          "type": "uint256"
        }
      ],
      "stateMutability": "view",
      "type": "function"
    },
    {
      "inputs": [
        {
          "internalType": "address",
          "name": "",
          "type": "address"
        }
      ],
      "name": "totalStakedByUser",
      "outputs": [
        {
          "internalType": "uint256",
          "name": "",
          "type": "uint256"
        }
      ],
      "stateMutability": "view",
      "type": "function"
    },
    {
      "inputs": [],
      "name": "totalStakers",
      "outputs": [
        {
          "internalType": "uint256",
          "name": "",
          "type": "uint256"
        }
      ],
      "stateMutability": "view",
      "type": "function"
    },
    {
      "inputs": [
        {
          "internalType": "address",
          "name": "newOwner",
          "type": "address"
        }
      ],
      "name": "transferOwnership",
      "outputs": [],
      "stateMutability": "nonpayable",
      "type": "function"
    },
    {
      "inputs": [
        {
          "internalType": "address",
          "name": "",
          "type": "address"
        },
        {
          "internalType": "uint256",
          "name": "",
          "type": "uint256"
        }
      ],
      "name": "unstakeRequests",
      "outputs": [
        {
          "internalType": "uint256",
          "name": "amount",
          "type": "uint256"
        },
        {
          "internalType": "uint256",
          "name": "unlockTime",
          "type": "uint256"
        }
      ],
      "stateMutability": "view",
      "type": "function"
    },
    {
      "inputs": [
        {
          "internalType": "address",
          "name": "",
          "type": "address"
        },
        {
          "internalType": "uint256",
          "name": "",
          "type": "uint256"
        }
      ],
      "name": "userStakes",
      "outputs": [
        {
          "internalType": "uint256",
          "name": "amount",
          "type": "uint256"
        },
        {
          "internalType": "uint256",
          "name": "stakedAt",
          "type": "uint256"
        }
      ],
      "stateMutability": "view",
      "type": "function"
    },
    {
      "inputs": [],
      "name": "withdraw",
      "outputs": [],
      "stateMutability": "nonpayable",
      "type": "function"
    }
  ],
  "bytecode": "0x60a060405234801561001057600080fd5b5060405161108c38038061108c83398101604081905261002f91610110565b338061005657604051631e4fbdf760e01b8152600060048201526024015b60405180910390fd5b61005f816100c0565b50600180556001600160a01b0381166100af5760405162461bcd60e51b815260206004820152601260248201527124b73b30b634b21029a0a322903a37b5b2b760711b604482015260640161004d565b6001600160a01b0316608052610140565b600080546001600160a01b038381166001600160a01b0319831681178455604051919092169283917f8be0079c531659141344cd1fd0a4f28419497f9722a3daafe3b4186f6b6457e09190a35050565b60006020828403121561012257600080fd5b81516001600160a01b038116811461013957600080fd5b9392505050565b608051610f23610169600039600081816101c201528181610697015261092d0152610f236000f3fe608060405234801561001057600080fd5b506004361061014d5760003560e01c8063842e2981116100c3578063b45aae521161007c578063b45aae52146102f2578063b5d5b5fa14610317578063c1a0db301461032a578063caaffae91461033a578063cb1c2b5c14610234578063f2fde38b1461034a57600080fd5b8063842e29811461025557806386989038146102755780638da5cb5b1461027e5780638fbd0c2d1461028f57806391174e41146102bf578063a694fc3a146102df57600080fd5b80634b3fd05a116101155780634b3fd05a146101bd57806356973974146101fc57806366442a061461020c57806369a2f02614610234578063715018a614610244578063817b1cd21461024c57600080fd5b80630b60c58f146101525780630b8df9f11461016f57806323095721146101805780633ccfd60b14610195578063489aa0331461019d575b600080fd5b61015c62093a8081565b6040519081526020015b60405180910390f35b61015c69010f0cf064dd5920000081565b61019361018e366004610d43565b61035d565b005b61019361055d565b61015c6101ab366004610d78565b60046020526000908152604090205481565b6101e47f000000000000000000000000000000000000000000000000000000000000000081565b6040516001600160a01b039091168152602001610166565b61015c683635c9adc5dea0000081565b61021f61021a366004610d9a565b61072c565b60408051928352602083019190915201610166565b61015c68056bc75e2d6310000081565b610193610768565b61015c60055481565b610268610263366004610d78565b61077a565b6040516101669190610dc4565b61015c60065481565b6000546001600160a01b03166101e4565b6102a261029d366004610d78565b610803565b6040805193845260ff909216602084015290820152606001610166565b6102d26102cd366004610d78565b61084e565b6040516101669190610e1b565b6101936102ed366004610d43565b6108c9565b610305610300366004610d78565b610a91565b60405160ff9091168152602001610166565b61021f610325366004610d9a565b610b31565b61015c681b1ae4d6e2ef50000081565b61015c68878678326eac90000081565b610193610358366004610d78565b610b4d565b610365610b88565b3360009081526002602052604090205481106103be5760405162461bcd60e51b8152602060048201526013602482015272092dcecc2d8d2c840e6e8c2d6ca40d2dcc8caf606b1b60448201526064015b60405180910390fd5b3360009081526002602052604081208054839081106103df576103df610e65565b9060005260206000209060020201905060008160000154116104385760405162461bcd60e51b81526020600482015260126024820152714e6f7468696e6720746f20756e7374616b6560701b60448201526064016103b5565b8054600061044962093a8042610e91565b33600081815260036020908152604080832081518083018352888152808401878152825460018181018555938752858720925160029091029092019182555191015582885592825260049052908120805492935084929091906104ad908490610eaa565b9250508190555081600560008282546104c69190610eaa565b90915550600090506104d733610a91565b60405160ff8216815290915033907f3c109e259b6cd4a1c6eaf6464d2874a6760b328c94829cfbc5733d97341acfda9060200160405180910390a2604080518481526020810184905233917f57e41df54512c76148b5ba9b643d149752b0d35e493b969bd017d0a3fe5228cf910160405180910390a25050505061055a60018055565b50565b610565610b88565b336000908152600360205260408120815b8154811015610643574282828154811061059257610592610e65565b906000526020600020906002020160010154111580156105d5575060008282815481106105c1576105c1610e65565b906000526020600020906002020160000154115b15610631578181815481106105ec576105ec610e65565b906000526020600020906002020160000154836106099190610e91565b9250600082828154811061061f5761061f610e65565b60009182526020909120600290910201555b8061063b81610ebd565b915050610576565b506000821161068a5760405162461bcd60e51b81526020600482015260136024820152724e6f7468696e6720746f20776974686472617760681b60448201526064016103b5565b6106be6001600160a01b037f0000000000000000000000000000000000000000000000000000000000000000163384610bb2565b3360009081526004602052604081205490036106ea57600680549060006106e483610ed6565b91905055505b60405182815233907f7084f5476618d8e60b11ef0d7d3f06914655adb8793e28ff7f018d4c76d505d59060200160405180910390a2505061072a60018055565b565b6003602052816000526040600020818154811061074857600080fd5b600091825260209091206002909102018054600190910154909250905082565b610770610c16565b61072a6000610c43565b6001600160a01b0381166000908152600260209081526040808320805482518185028101850190935280835260609492939192909184015b828210156107f8578382906000526020600020906002020160405180604001604052908160008201548152602001600182015481525050815260200190600101906107b2565b505050509050919050565b6001600160a01b0381166000908152600460205260408120548190819061082985610a91565b6001600160a01b03959095166000908152600260205260409020549095909350915050565b6001600160a01b03811660009081526003602090815260408083208054825181850281018501909352808352606094929391929091840182156107f8578382906000526020600020906002020160405180604001604052908160008201548152602001600182015481525050815260200190600101906107b2565b6108d1610b88565b68056bc75e2d631000008110156109205760405162461bcd60e51b815260206004820152601360248201527242656c6f77206d696e696d756d207374616b6560681b60448201526064016103b5565b6109556001600160a01b037f000000000000000000000000000000000000000000000000000000000000000016333084610c93565b33600081815260046020818152604080842080546002808552838720845180860190955289855242858701908152815460018181018455928a52878a209651930290950191825593519301929092559484529190528254901592849290916109be908490610e91565b9250508190555081600560008282546109d79190610e91565b909155505080156109f857600680549060006109f283610ebd565b91905055505b6000610a0333610a91565b60405160ff8216815290915033907f3c109e259b6cd4a1c6eaf6464d2874a6760b328c94829cfbc5733d97341acfda9060200160405180910390a233600081815260046020908152604091829020548251878152918201527f1449c6dd7851abc30abf37f57715f492010519147cc2652fbc38202c18a6ee90910160405180910390a2505061055a60018055565b6001600160a01b03811660009081526004602052604081205469010f0cf064dd592000008110610ac45750600592915050565b68878678326eac9000008110610add5750600492915050565b683635c9adc5dea000008110610af65750600392915050565b681b1ae4d6e2ef5000008110610b0f5750600292915050565b68056bc75e2d631000008110610b285750600192915050565b50600092915050565b6002602052816000526040600020818154811061074857600080fd5b610b55610c16565b6001600160a01b038116610b7f57604051631e4fbdf760e01b8152600060048201526024016103b5565b61055a81610c43565b600260015403610bab57604051633ee5aeb560e01b815260040160405180910390fd5b6002600155565b6040516001600160a01b03838116602483015260448201839052610c1191859182169063a9059cbb906064015b604051602081830303815290604052915060e01b6020820180516001600160e01b038381831617835250505050610cd2565b505050565b6000546001600160a01b0316331461072a5760405163118cdaa760e01b81523360048201526024016103b5565b600080546001600160a01b038381166001600160a01b0319831681178455604051919092169283917f8be0079c531659141344cd1fd0a4f28419497f9722a3daafe3b4186f6b6457e09190a35050565b6040516001600160a01b038481166024830152838116604483015260648201839052610ccc9186918216906323b872dd90608401610bdf565b50505050565b600080602060008451602086016000885af180610cf5576040513d6000823e3d81fd5b50506000513d91508115610d0d578060011415610d1a565b6001600160a01b0384163b155b15610ccc57604051635274afe760e01b81526001600160a01b03851660048201526024016103b5565b600060208284031215610d5557600080fd5b5035919050565b80356001600160a01b0381168114610d7357600080fd5b919050565b600060208284031215610d8a57600080fd5b610d9382610d5c565b9392505050565b60008060408385031215610dad57600080fd5b610db683610d5c565b946020939093013593505050565b602080825282518282018190526000919060409081850190868401855b82811015610e0e57610dfe84835180518252602090810151910152565b9284019290850190600101610de1565b5091979650505050505050565b602080825282518282018190526000919060409081850190868401855b82811015610e0e57610e5584835180518252602090810151910152565b9284019290850190600101610e38565b634e487b7160e01b600052603260045260246000fd5b634e487b7160e01b600052601160045260246000fd5b80820180821115610ea457610ea4610e7b565b92915050565b81810381811115610ea457610ea4610e7b565b600060018201610ecf57610ecf610e7b565b5060010190565b600081610ee557610ee5610e7b565b50600019019056fea26469706673582212207b80759afa58202fd6cb434e14666aaadebd46a4cac1e15bef57b35cf61bcdc664736f6c63430008140033",
  "linkReferences": {},
  "deployedLinkReferences": {}
}